{
  "contractName": "CBFC",
  "abi": [
    {
      "constant": true,
      "inputs": [],
      "name": "name",
      "outputs": [
        {
          "name": "",
          "type": "string"
        }
      ],
      "payable": false,
      "stateMutability": "view",
      "type": "function"
    },
    {
      "constant": true,
      "inputs": [
        {
          "name": "_tokenId",
          "type": "uint256"
        }
      ],
      "name": "getApproved",
      "outputs": [
        {
          "name": "",
          "type": "address"
        }
      ],
      "payable": false,
      "stateMutability": "view",
      "type": "function"
    },
    {
      "constant": false,
      "inputs": [
        {
          "name": "_to",
          "type": "address"
        },
        {
          "name": "_tokenId",
          "type": "uint256"
        }
      ],
      "name": "approve",
      "outputs": [],
      "payable": false,
      "stateMutability": "nonpayable",
      "type": "function"
    },
    {
      "constant": true,
      "inputs": [],
      "name": "totalSupply",
      "outputs": [
        {
          "name": "",
          "type": "uint256"
        }
      ],
      "payable": false,
      "stateMutability": "view",
      "type": "function"
    },
    {
      "constant": false,
      "inputs": [
        {
          "name": "_from",
          "type": "address"
        },
        {
          "name": "_to",
          "type": "address"
        },
        {
          "name": "_tokenId",
          "type": "uint256"
        }
      ],
      "name": "transferFrom",
      "outputs": [],
      "payable": false,
      "stateMutability": "nonpayable",
      "type": "function"
    },
    {
      "constant": false,
      "inputs": [
        {
          "name": "addrs",
          "type": "address[]"
        }
      ],
      "name": "removeAddressesFromWhitelist",
      "outputs": [
        {
          "name": "success",
          "type": "bool"
        }
      ],
      "payable": false,
      "stateMutability": "nonpayable",
      "type": "function"
    },
    {
      "constant": false,
      "inputs": [
        {
          "name": "addr",
          "type": "address"
        }
      ],
      "name": "removeAddressFromWhitelist",
      "outputs": [
        {
          "name": "success",
          "type": "bool"
        }
      ],
      "payable": false,
      "stateMutability": "nonpayable",
      "type": "function"
    },
    {
      "constant": true,
      "inputs": [
        {
          "name": "_owner",
          "type": "address"
        },
        {
          "name": "_index",
          "type": "uint256"
        }
      ],
      "name": "tokenOfOwnerByIndex",
      "outputs": [
        {
          "name": "",
          "type": "uint256"
        }
      ],
      "payable": false,
      "stateMutability": "view",
      "type": "function"
    },
    {
      "constant": false,
      "inputs": [
        {
          "name": "_from",
          "type": "address"
        },
        {
          "name": "_to",
          "type": "address"
        },
        {
          "name": "_tokenId",
          "type": "uint256"
        }
      ],
      "name": "safeTransferFrom",
      "outputs": [],
      "payable": false,
      "stateMutability": "nonpayable",
      "type": "function"
    },
    {
      "constant": true,
      "inputs": [
        {
          "name": "",
          "type": "uint256"
        }
      ],
      "name": "cardSets",
      "outputs": [
        {
          "name": "cardNumber",
          "type": "uint256"
        },
        {
          "name": "totalSupply",
          "type": "uint256"
        },
        {
          "name": "minted",
          "type": "uint256"
        },
        {
          "name": "cardName",
          "type": "bytes32"
        },
        {
          "name": "cardURI",
          "type": "string"
        }
      ],
      "payable": false,
      "stateMutability": "view",
      "type": "function"
    },
    {
      "constant": true,
      "inputs": [
        {
          "name": "_tokenId",
          "type": "uint256"
        }
      ],
      "name": "exists",
      "outputs": [
        {
          "name": "",
          "type": "bool"
        }
      ],
      "payable": false,
      "stateMutability": "view",
      "type": "function"
    },
    {
      "constant": true,
      "inputs": [
        {
          "name": "_index",
          "type": "uint256"
        }
      ],
      "name": "tokenByIndex",
      "outputs": [
        {
          "name": "",
          "type": "uint256"
        }
      ],
      "payable": false,
      "stateMutability": "view",
      "type": "function"
    },
    {
      "constant": true,
      "inputs": [],
      "name": "InterfaceSignature_ERC721Optional",
      "outputs": [
        {
          "name": "",
          "type": "bytes4"
        }
      ],
      "payable": false,
      "stateMutability": "view",
      "type": "function"
    },
    {
      "constant": true,
      "inputs": [
        {
          "name": "_tokenId",
          "type": "uint256"
        }
      ],
      "name": "ownerOf",
      "outputs": [
        {
          "name": "",
          "type": "address"
        }
      ],
      "payable": false,
      "stateMutability": "view",
      "type": "function"
    },
    {
      "constant": true,
      "inputs": [],
      "name": "cardsPerPack",
      "outputs": [
        {
          "name": "",
          "type": "uint8"
        }
      ],
      "payable": false,
      "stateMutability": "view",
      "type": "function"
    },
    {
      "constant": true,
      "inputs": [
        {
          "name": "_owner",
          "type": "address"
        }
      ],
      "name": "balanceOf",
      "outputs": [
        {
          "name": "",
          "type": "uint256"
        }
      ],
      "payable": false,
      "stateMutability": "view",
      "type": "function"
    },
    {
      "constant": true,
      "inputs": [
        {
          "name": "",
          "type": "uint256"
        }
      ],
      "name": "cardSetCirculation",
      "outputs": [
        {
          "name": "cardNumber",
          "type": "uint256"
        },
        {
          "name": "totalSupply",
          "type": "uint256"
        },
        {
          "name": "minted",
          "type": "uint256"
        },
        {
          "name": "cardName",
          "type": "bytes32"
        },
        {
          "name": "cardURI",
          "type": "string"
        }
      ],
      "payable": false,
      "stateMutability": "view",
      "type": "function"
    },
    {
      "constant": false,
      "inputs": [
        {
          "name": "addr",
          "type": "address"
        }
      ],
      "name": "addAddressToWhitelist",
      "outputs": [
        {
          "name": "success",
          "type": "bool"
        }
      ],
      "payable": false,
      "stateMutability": "nonpayable",
      "type": "function"
    },
    {
      "constant": true,
      "inputs": [],
      "name": "owner",
      "outputs": [
        {
          "name": "",
          "type": "address"
        }
      ],
      "payable": false,
      "stateMutability": "view",
      "type": "function"
    },
    {
      "constant": true,
      "inputs": [],
      "name": "symbol",
      "outputs": [
        {
          "name": "",
          "type": "string"
        }
      ],
      "payable": false,
      "stateMutability": "view",
      "type": "function"
    },
    {
      "constant": true,
      "inputs": [
        {
          "name": "",
          "type": "address"
        }
      ],
      "name": "whitelist",
      "outputs": [
        {
          "name": "",
          "type": "bool"
        }
      ],
      "payable": false,
      "stateMutability": "view",
      "type": "function"
    },
    {
      "constant": false,
      "inputs": [
        {
          "name": "_to",
          "type": "address"
        },
        {
          "name": "_approved",
          "type": "bool"
        }
      ],
      "name": "setApprovalForAll",
      "outputs": [],
      "payable": false,
      "stateMutability": "nonpayable",
      "type": "function"
    },
    {
      "constant": false,
      "inputs": [
        {
          "name": "_from",
          "type": "address"
        },
        {
          "name": "_to",
          "type": "address"
        },
        {
          "name": "_tokenId",
          "type": "uint256"
        },
        {
          "name": "_data",
          "type": "bytes"
        }
      ],
      "name": "safeTransferFrom",
      "outputs": [],
      "payable": false,
      "stateMutability": "nonpayable",
      "type": "function"
    },
    {
      "constant": true,
      "inputs": [],
      "name": "costOfPack",
      "outputs": [
        {
          "name": "",
          "type": "uint256"
        }
      ],
      "payable": false,
      "stateMutability": "view",
      "type": "function"
    },
    {
      "constant": false,
      "inputs": [
        {
          "name": "addrs",
          "type": "address[]"
        }
      ],
      "name": "addAddressesToWhitelist",
      "outputs": [
        {
          "name": "success",
          "type": "bool"
        }
      ],
      "payable": false,
      "stateMutability": "nonpayable",
      "type": "function"
    },
    {
      "constant": true,
      "inputs": [
        {
          "name": "_owner",
          "type": "address"
        },
        {
          "name": "_operator",
          "type": "address"
        }
      ],
      "name": "isApprovedForAll",
      "outputs": [
        {
          "name": "",
          "type": "bool"
        }
      ],
      "payable": false,
      "stateMutability": "view",
      "type": "function"
    },
    {
      "constant": false,
      "inputs": [
        {
          "name": "newOwner",
          "type": "address"
        }
      ],
      "name": "transferOwnership",
      "outputs": [],
      "payable": false,
      "stateMutability": "nonpayable",
      "type": "function"
    },
    {
      "inputs": [],
      "payable": false,
      "stateMutability": "nonpayable",
      "type": "constructor"
    },
    {
      "payable": true,
      "stateMutability": "payable",
      "type": "fallback"
    },
    {
      "anonymous": false,
      "inputs": [
        {
          "indexed": true,
          "name": "_owner",
          "type": "address"
        },
        {
          "indexed": true,
          "name": "_tokenId",
          "type": "uint256"
        },
        {
          "indexed": false,
          "name": "_name",
          "type": "bytes32"
        },
        {
          "indexed": false,
          "name": "mintTime",
          "type": "uint32"
        }
      ],
      "name": "CardMinted",
      "type": "event"
    },
    {
      "anonymous": false,
      "inputs": [
        {
          "indexed": true,
          "name": "cardNumber",
          "type": "uint256"
        },
        {
          "indexed": false,
          "name": "soldOutTime",
          "type": "uint32"
        }
      ],
      "name": "CardSetSoldOut",
      "type": "event"
    },
    {
      "anonymous": false,
      "inputs": [
        {
          "indexed": false,
          "name": "addr",
          "type": "address"
        }
      ],
      "name": "WhitelistedAddressAdded",
      "type": "event"
    },
    {
      "anonymous": false,
      "inputs": [
        {
          "indexed": false,
          "name": "addr",
          "type": "address"
        }
      ],
      "name": "WhitelistedAddressRemoved",
      "type": "event"
    },
    {
      "anonymous": false,
      "inputs": [
        {
          "indexed": true,
          "name": "previousOwner",
          "type": "address"
        },
        {
          "indexed": true,
          "name": "newOwner",
          "type": "address"
        }
      ],
      "name": "OwnershipTransferred",
      "type": "event"
    },
    {
      "anonymous": false,
      "inputs": [
        {
          "indexed": true,
          "name": "_from",
          "type": "address"
        },
        {
          "indexed": true,
          "name": "_to",
          "type": "address"
        },
        {
          "indexed": false,
          "name": "_tokenId",
          "type": "uint256"
        }
      ],
      "name": "Transfer",
      "type": "event"
    },
    {
      "anonymous": false,
      "inputs": [
        {
          "indexed": true,
          "name": "_owner",
          "type": "address"
        },
        {
          "indexed": true,
          "name": "_approved",
          "type": "address"
        },
        {
          "indexed": false,
          "name": "_tokenId",
          "type": "uint256"
        }
      ],
      "name": "Approval",
      "type": "event"
    },
    {
      "anonymous": false,
      "inputs": [
        {
          "indexed": true,
          "name": "_owner",
          "type": "address"
        },
        {
          "indexed": true,
          "name": "_operator",
          "type": "address"
        },
        {
          "indexed": false,
          "name": "_approved",
          "type": "bool"
        }
      ],
      "name": "ApprovalForAll",
      "type": "event"
    },
    {
      "constant": true,
      "inputs": [
        {
          "name": "_interfaceID",
          "type": "bytes4"
        }
      ],
      "name": "supportsInterface",
      "outputs": [
        {
          "name": "",
          "type": "bool"
        }
      ],
      "payable": false,
      "stateMutability": "pure",
      "type": "function"
    },
    {
      "constant": false,
      "inputs": [
        {
          "name": "_cardNumber",
          "type": "uint256"
        },
        {
          "name": "_totalSupply",
          "type": "uint256"
        },
        {
          "name": "_cardName",
          "type": "bytes32"
        },
        {
          "name": "_cardUri",
          "type": "string"
        }
      ],
      "name": "addCardSet",
      "outputs": [],
      "payable": false,
      "stateMutability": "nonpayable",
      "type": "function"
    },
    {
      "constant": false,
      "inputs": [],
      "name": "buyPack",
      "outputs": [],
      "payable": true,
      "stateMutability": "payable",
      "type": "function"
    },
    {
      "constant": false,
      "inputs": [
        {
          "name": "_cardNumber",
          "type": "uint256"
        }
      ],
      "name": "transferCard",
      "outputs": [],
      "payable": false,
      "stateMutability": "nonpayable",
      "type": "function"
    },
    {
      "constant": true,
      "inputs": [
        {
          "name": "_owner",
          "type": "address"
        }
      ],
      "name": "tokensOf",
      "outputs": [
        {
          "name": "_tokenIds",
          "type": "uint256[]"
        }
      ],
      "payable": false,
      "stateMutability": "view",
      "type": "function"
    },
    {
      "constant": true,
      "inputs": [
        {
          "name": "_owner",
          "type": "address"
        }
      ],
      "name": "hasTokens",
      "outputs": [
        {
          "name": "",
          "type": "bool"
        }
      ],
      "payable": false,
      "stateMutability": "view",
      "type": "function"
    },
    {
      "constant": false,
      "inputs": [
        {
          "name": "_costOfPack",
          "type": "uint256"
        }
      ],
      "name": "setCostOfPack",
      "outputs": [],
      "payable": false,
      "stateMutability": "nonpayable",
      "type": "function"
    },
    {
      "constant": true,
      "inputs": [
        {
          "name": "_tokenId",
          "type": "uint256"
        }
      ],
      "name": "tokenURI",
      "outputs": [
        {
          "name": "",
          "type": "string"
        }
      ],
      "payable": false,
      "stateMutability": "view",
      "type": "function"
    },
    {
      "constant": false,
      "inputs": [
        {
          "name": "_newBaseURI",
          "type": "string"
        }
      ],
      "name": "setTokenBaseURI",
      "outputs": [],
      "payable": false,
      "stateMutability": "nonpayable",
      "type": "function"
    }
  ],
  "bytecode": "0x60c0604052601c60808190527f68747470733a2f2f697066732e696e667572612e696f2f697066732f0000000060a09081526200004091600d9190620001c3565b50662386f26fc10000600e553480156200005957600080fd5b50604080518082018252600f81527f43727970746f2d42616e64732d464300000000000000000000000000000000006020808301918252835180850190945260048085527f4342464300000000000000000000000000000000000000000000000000000000918501919091528251929392620000d69290620001c3565b508051620000ec906005906020840190620001c3565b5050600b8054600160a060020a031916339081179091556200011d91506401000000006200149d6200012482021704565b5062000268565b600b54600090600160a060020a031633146200013f57600080fd5b600160a060020a0382166000908152600c602052604090205460ff161515620001be57600160a060020a0382166000818152600c6020908152604091829020805460ff19166001179055815192835290517fd1bba68c128cc3f427e5831b3c6f99f480b6efa6b9e80c757768f6124158cc3f9281900390910190a15060015b919050565b828054600181600116156101000203166002900490600052602060002090601f016020900481019282601f106200020657805160ff191683800117855562000236565b8280016001018555821562000236579182015b828111156200023657825182559160200191906001019062000219565b506200024492915062000248565b5090565b6200026591905b808211156200024457600081556001016200024f565b90565b61285a80620002786000396000f3006080604052600436106101c15763ffffffff7c010000000000000000000000000000000000000000000000000000000060003504166301ffc9a781146101cb57806306fdde0314610201578063081812fc1461028b578063095ea7b3146102bf57806318160ddd146102e357806320f7c1c01461030a57806323b872dd1461032257806324953eaa1461034c578063286dd3f5146103a15780632f745c59146103c25780633cefc1e0146103e657806342842e0e1461040757806346716e62146104315780634f558e79146104e55780634f6ccce7146104fd5780635a3f267214610515578063624de3d9146105865780636352211e146105b8578063655563db146105d057806370a08231146105fb5780637718b4e91461061c5780637b9417c8146106345780638da5cb5b146106555780638ef79e911461066a57806395d89b411461068a5780639b19251a1461069f578063a22cb465146106c0578063b88d4fde146106e6578063bc37ca2914610755578063bee0a2381461076d578063c37b9bcd146101c1578063c87b56dd146107d0578063cb361c5d146107e8578063e2ec6ec3146107fd578063e985e9c514610852578063f2fde38b14610879575b6101c961089a565b005b3480156101d757600080fd5b506101ed600160e060020a031960043516610cce565b604080519115158252519081900360200190f35b34801561020d57600080fd5b50610216610dd5565b6040805160208082528351818301528351919283929083019185019080838360005b83811015610250578181015183820152602001610238565b50505050905090810190601f16801561027d5780820380516001836020036101000a031916815260200191505b509250505060405180910390f35b34801561029757600080fd5b506102a3600435610e6c565b60408051600160a060020a039092168252519081900360200190f35b3480156102cb57600080fd5b506101c9600160a060020a0360043516602435610e87565b3480156102ef57600080fd5b506102f8610f79565b60408051918252519081900360200190f35b34801561031657600080fd5b506101c9600435610f7f565b34801561032e57600080fd5b506101c9600160a060020a0360043581169060243516604435610f9b565b34801561035857600080fd5b50604080516020600480358082013583810280860185019096528085526101ed9536959394602494938501929182918501908490808284375094975061104a9650505050505050565b3480156103ad57600080fd5b506101ed600160a060020a03600435166110ab565b3480156103ce57600080fd5b506102f8600160a060020a0360043516602435611143565b3480156103f257600080fd5b506101ed600160a060020a0360043516611190565b34801561041357600080fd5b506101c9600160a060020a03600435811690602435166044356111ac565b34801561043d57600080fd5b506104496004356111e4565b60405180868152602001858152602001848152602001836000191660001916815260200180602001828103825283818151815260200191508051906020019080838360005b838110156104a657818101518382015260200161048e565b50505050905090810190601f1680156104d35780820380516001836020036101000a031916815260200191505b50965050505050505060405180910390f35b3480156104f157600080fd5b506101ed6004356112b2565b34801561050957600080fd5b506102f86004356112cf565b34801561052157600080fd5b50610536600160a060020a0360043516611304565b60408051602080825283518183015283519192839290830191858101910280838360005b8381101561057257818101518382015260200161055a565b505050509050019250505060405180910390f35b34801561059257600080fd5b5061059b611370565b60408051600160e060020a03199092168252519081900360200190f35b3480156105c457600080fd5b506102a3600435611394565b3480156105dc57600080fd5b506105e56113be565b6040805160ff9092168252519081900360200190f35b34801561060757600080fd5b506102f8600160a060020a03600435166113c3565b34801561062857600080fd5b506104496004356113f6565b34801561064057600080fd5b506101ed600160a060020a036004351661149d565b34801561066157600080fd5b506102a3611539565b34801561067657600080fd5b506101c96004803560248101910135611548565b34801561069657600080fd5b5061021661156b565b3480156106ab57600080fd5b506101ed600160a060020a03600435166115cc565b3480156106cc57600080fd5b506101c9600160a060020a036004351660243515156115e1565b3480156106f257600080fd5b50604080516020601f6064356004818101359283018490048402850184019095528184526101c994600160a060020a0381358116956024803590921695604435953695608494019181908401838280828437509497506116659650505050505050565b34801561076157600080fd5b506101c960043561169d565b34801561077957600080fd5b50604080516020601f6064356004818101359283018490048402850184019095528184526101c994803594602480359560443595369560849493019181908401838280828437509497506118689650505050505050565b3480156107dc57600080fd5b506102166004356119f4565b3480156107f457600080fd5b506102f8611b24565b34801561080957600080fd5b50604080516020600480358082013583810280860185019096528085526101ed95369593946024949385019291829185019084908082843750949750611b2a9650505050505050565b34801561085e57600080fd5b506101ed600160a060020a0360043581169060243516611b85565b34801561088557600080fd5b506101c9600160a060020a0360043516611bb3565b6108a2612590565b6000806000600e543410151515610929576040805160e560020a62461bcd02815260206004820152602b60248201527f596f75206d7573742073656e6420656e6f75676820746f20636f76657220746860448201527f65207061636b20636f7374000000000000000000000000000000000000000000606482015290519081900360840190fd5b601054600411156109a9576040805160e560020a62461bcd028152602060048201526024808201527f456e737572652077652061742063616e2073656c6c207820756e69717565206360448201527f6172647300000000000000000000000000000000000000000000000000000000606482015290519081900360840190fd5b333214610a26576040805160e560020a62461bcd02815260206004820152603060248201527f4f6e6c7920454f41732061726520616c6c6f77656420746f206275792066726f60448201527f6d20746865207061636b2073616c652e00000000000000000000000000000000606482015290519081900360840190fd5b604080516080810182526001815260026020820152600391810191909152600460608201529350600092505b6004831015610c5a57600f6000858560048110610a6b57fe5b602002015160ff168152602001908152602001600020915081600101546000141515610ae1576040805160e560020a62461bcd02815260206004820152601960248201527f4361726420736574206d757374206861766520737570706c7900000000000000604482015290519081900360640190fd5b6001820154600283015414610b66576040805160e560020a62461bcd02815260206004820152602160248201527f436172642073657420686173206265656e2066756c6c7920616c6c6f6361746560448201527f6400000000000000000000000000000000000000000000000000000000000000606482015290519081900360840190fd5b6002820154610b7c90600163ffffffff611c4816565b600283018190558254610b949163ffffffff611c4816565b9050816001015482600201541415610bfe57610bc2848460048110610bb557fe5b602002015160ff16611c5e565b81546040805163ffffffff4216815290517f9b0b9d1a520cddbaf3796589db30746775a90fc149624d9e9851630912dc04c79181900360200190a25b610c083382611d09565b60038201546040805191825263ffffffff421660208301528051839233927f5d332e130eeb3924324a7454ddca461c4cd17fa86d4ad51dcceef6cc4f44772692918290030190a3600190920191610a52565b600b54600e54604051600160a060020a039092169181156108fc0291906000818181858888f19350505050158015610c96573d6000803e3d6000fd5b50600e546040513391340380156108fc02916000818181858888f19350505050158015610cc7573d6000803e3d6000fd5b5050505050565b6000600160e060020a031982167f01ffc9a7000000000000000000000000000000000000000000000000000000001480610d315750600160e060020a031982167f80ac58cd00000000000000000000000000000000000000000000000000000000145b80610d655750600160e060020a031982167fb0aa718700000000000000000000000000000000000000000000000000000000145b80610d995750600160e060020a031982167f780e9d6300000000000000000000000000000000000000000000000000000000145b80610dcd5750600160e060020a031982167f5b5e139f00000000000000000000000000000000000000000000000000000000145b90505b919050565b60048054604080516020601f6002600019610100600188161502019095169490940493840181900481028201810190925282815260609390929091830182828015610e615780601f10610e3657610100808354040283529160200191610e61565b820191906000526020600020905b815481529060010190602001808311610e4457829003601f168201915b505050505090505b90565b600090815260016020526040902054600160a060020a031690565b6000610e9282611394565b9050600160a060020a038381169082161415610ead57600080fd5b33600160a060020a0382161480610ec95750610ec98133611b85565b1515610ed457600080fd5b6000610edf83610e6c565b600160a060020a0316141580610efd5750600160a060020a03831615155b15610f7457600082815260016020908152604091829020805473ffffffffffffffffffffffffffffffffffffffff1916600160a060020a03878116918217909255835186815293519093918516927f8c5be1e5ebec7d5bd14f71427d1e84f3dd0314c0f7b2291e5b200ac8c7c3b925928290030190a35b505050565b60085490565b600b54600160a060020a03163314610f9657600080fd5b600e55565b80610fa63382611d58565b1515610fb157600080fd5b600160a060020a0384161515610fc657600080fd5b600160a060020a0383161515610fdb57600080fd5b610fe58483611db7565b610fef8483611e65565b610ff98383611f9e565b82600160a060020a031684600160a060020a03167fddf252ad1be2c89b69c2b068fc378daa952ba7f163c4a11628f55a4df523b3ef846040518082815260200191505060405180910390a350505050565b600b546000908190600160a060020a0316331461106657600080fd5b5060005b82518110156110a557611093838281518110151561108457fe5b906020019060200201516110ab565b1561109d57600191505b60010161106a565b50919050565b600b54600090600160a060020a031633146110c557600080fd5b600160a060020a0382166000908152600c602052604090205460ff1615610dd057600160a060020a0382166000818152600c6020908152604091829020805460ff19169055815192835290517ff1abf01a1043b7c244d128e8595cf0c1d10743b022b03a02dffd8ca3bf729f5a9281900390910190a1506001919050565b600061114e836113c3565b821061115957600080fd5b600160a060020a038316600090815260066020526040902080548390811061117d57fe5b9060005260206000200154905092915050565b600160a060020a03166000908152600660205260408120541190565b806111b73382611d58565b15156111c257600080fd5b6111de8484846020604051908101604052806000815250611665565b50505050565b600f602052806000526040600020600091509050806000015490806001015490806002015490806003015490806004018054600181600116156101000203166002900480601f0160208091040260200160405190810160405280929190818152602001828054600181600116156101000203166002900480156112a85780601f1061127d576101008083540402835291602001916112a8565b820191906000526020600020905b81548152906001019060200180831161128b57829003601f168201915b5050505050905085565b600090815260208190526040902054600160a060020a0316151590565b60006112d9610f79565b82106112e457600080fd5b60088054839081106112f257fe5b90600052602060002001549050919050565b600160a060020a03811660009081526006602090815260409182902080548351818402810184019094528084526060939283018282801561136457602002820191906000526020600020905b815481526020019060010190808311611350575b50505050509050919050565b7fb0aa71870000000000000000000000000000000000000000000000000000000081565b600081815260208190526040812054600160a060020a03168015156113b857600080fd5b92915050565b600481565b6000600160a060020a03821615156113da57600080fd5b50600160a060020a031660009081526002602052604090205490565b601080548290811061140457fe5b9060005260206000209060050201600091509050806000015490806001015490806002015490806003015490806004018054600181600116156101000203166002900480601f0160208091040260200160405190810160405280929190818152602001828054600181600116156101000203166002900480156112a85780601f1061127d576101008083540402835291602001916112a8565b600b54600090600160a060020a031633146114b757600080fd5b600160a060020a0382166000908152600c602052604090205460ff161515610dd057600160a060020a0382166000818152600c6020908152604091829020805460ff19166001179055815192835290517fd1bba68c128cc3f427e5831b3c6f99f480b6efa6b9e80c757768f6124158cc3f9281900390910190a1506001919050565b600b54600160a060020a031681565b600b54600160a060020a0316331461155f57600080fd5b610f74600d83836125af565b60058054604080516020601f6002600019610100600188161502019095169490940493840181900481028201810190925282815260609390929091830182828015610e615780601f10610e3657610100808354040283529160200191610e61565b600c6020526000908152604090205460ff1681565b600160a060020a0382163314156115f757600080fd5b336000818152600360209081526040808320600160a060020a03871680855290835292819020805460ff1916861515908117909155815190815290519293927f17307eab39ab6107e8899845ad3d59bd9653f200f220920489ca2b5937696c31929181900390910190a35050565b816116703382611d58565b151561167b57600080fd5b611686858585610f9b565b61169285858585611fe7565b1515610cc757600080fd5b600b546000908190600160a060020a031633146116b957600080fd5b6000838152600f60205260409020600181015490925015611724576040805160e560020a62461bcd02815260206004820152601960248201527f4361726420736574206d757374206861766520737570706c7900000000000000604482015290519081900360640190fd5b816001015461174160018460020154611c4890919063ffffffff16565b146117e2576040805160e560020a62461bcd02815260206004820152604a60248201527f4361726420736574206973206e65617220616c6c6f636174696f6e207468652060448201527f6c6173742063617264206d75737420626520626f7567687420746f20656e737560648201527f72652072656d6f76616c00000000000000000000000000000000000000000000608482015290519081900360a40190fd5b60028201546117f890600163ffffffff611c4816565b6002830181905582546118109163ffffffff611c4816565b905061181c3382611d09565b60038201546040805191825263ffffffff421660208301528051839233927f5d332e130eeb3924324a7454ddca461c4cd17fa86d4ad51dcceef6cc4f44772692918290030190a3505050565b61187061262d565b600b54600160a060020a0316331461188757600080fd5b506040805160a0810182528581526020808201868152600083850181815260608501888152608086018881528b8452600f8652969092208551815592516001840155516002830155516003820155925180519293849390926118f0926004850192910190612660565b50506010805460018101808355600092909252835160059091027f1b6847dc741a1b0cd08d278845f9d819d87b734759afb55fe2de5cb82a9ae67281019182556020808601517f1b6847dc741a1b0cd08d278845f9d819d87b734759afb55fe2de5cb82a9ae67383015560408601517f1b6847dc741a1b0cd08d278845f9d819d87b734759afb55fe2de5cb82a9ae67483015560608601517f1b6847dc741a1b0cd08d278845f9d819d87b734759afb55fe2de5cb82a9ae6758301556080860151805194955086946119e9937f1b6847dc741a1b0cd08d278845f9d819d87b734759afb55fe2de5cb82a9ae67601929190910190612660565b505050505050505050565b600d805460408051602060026001851615610100026000190190941693909304601f8101849004840282018401909252818152606093610dcd9391929091830182828015611a835780601f10611a5857610100808354040283529160200191611a83565b820191906000526020600020905b815481529060010190602001808311611a6657829003601f168201915b5050506000868152600a60209081526040918290208054835160026001831615610100026000190190921691909104601f810184900484028201840190945283815294509250830182828015611b1a5780601f10611aef57610100808354040283529160200191611b1a565b820191906000526020600020905b815481529060010190602001808311611afd57829003601f168201915b5050505050612158565b600e5481565b600b546000908190600160a060020a03163314611b4657600080fd5b5060005b82518110156110a557611b738382815181101515611b6457fe5b9060200190602002015161149d565b15611b7d57600191505b600101611b4a565b600160a060020a03918216600090815260036020908152604080832093909416825291909152205460ff1690565b600b54600160a060020a03163314611bca57600080fd5b600160a060020a0381161515611bdf57600080fd5b600b54604051600160a060020a038084169216907f8be0079c531659141344cd1fd0a4f28419497f9722a3daafe3b4186f6b6457e090600090a3600b805473ffffffffffffffffffffffffffffffffffffffff1916600160a060020a0392909216919091179055565b600082820183811015611c5757fe5b9392505050565b6010546000190180821115611c7257600080fd5b6010805482908110611c8057fe5b9060005260206000209060050201601083815481101515611c9d57fe5b60009182526020909120825460059092020190815560018083015481830155600280840154818401556003808501549084015560048085018054611cf394928601939192811615610100026000190116046126ce565b5050601080549150610f74906000198301612743565b611d13828261218d565b600880546000838152600960205260408120829055600182018355919091527ff3f7a9fe364faab93b216da50a3214154f22a0a2b415b23a84c8169e8b636ee3015550565b600080611d6483611394565b905080600160a060020a031684600160a060020a03161480611d9f575083600160a060020a0316611d9484610e6c565b600160a060020a0316145b80611daf5750611daf8185611b85565b949350505050565b81600160a060020a0316611dca82611394565b600160a060020a031614611ddd57600080fd5b600081815260016020526040902054600160a060020a031615611e61576000818152600160209081526040808320805473ffffffffffffffffffffffffffffffffffffffff1916905580518481529051600160a060020a038616927f8c5be1e5ebec7d5bd14f71427d1e84f3dd0314c0f7b2291e5b200ac8c7c3b925928290030190a35b5050565b6000806000611e7485856121f1565b600084815260076020908152604080832054600160a060020a0389168452600690925290912054909350611eaf90600163ffffffff61228616565b600160a060020a038616600090815260066020526040902080549193509083908110611ed757fe5b90600052602060002001549050806006600087600160a060020a0316600160a060020a0316815260200190815260200160002084815481101515611f1757fe5b6000918252602080832090910192909255600160a060020a0387168152600690915260408120805484908110611f4957fe5b6000918252602080832090910192909255600160a060020a0387168152600690915260409020805490611f8090600019830161276f565b50600093845260076020526040808520859055908452909220555050565b6000611faa8383612298565b50600160a060020a039091166000908152600660209081526040808320805460018101825590845282842081018590559383526007909152902055565b600080611ffc85600160a060020a0316612327565b151561200b576001915061214f565b84600160a060020a031663f0b9e5ba8786866040518463ffffffff167c01000000000000000000000000000000000000000000000000000000000281526004018084600160a060020a0316600160a060020a0316815260200183815260200180602001828103825283818151815260200191508051906020019080838360005b838110156120a357818101518382015260200161208b565b50505050905090810190601f1680156120d05780820380516001836020036101000a031916815260200191505b50945050505050602060405180830381600087803b1580156120f157600080fd5b505af1158015612105573d6000803e3d6000fd5b505050506040513d602081101561211b57600080fd5b5051600160e060020a031981167ff0b9e5ba0000000000000000000000000000000000000000000000000000000014925090505b50949350505050565b604080516020818101835260008083528351808301855281815284519283019094528152606092611c5792869286929061232f565b600160a060020a03821615156121a257600080fd5b6121ac8282611f9e565b604080518281529051600160a060020a038416916000917fddf252ad1be2c89b69c2b068fc378daa952ba7f163c4a11628f55a4df523b3ef9181900360200190a35050565b81600160a060020a031661220482611394565b600160a060020a03161461221757600080fd5b600160a060020a03821660009081526002602052604090205461224190600163ffffffff61228616565b600160a060020a039092166000908152600260209081526040808320949094559181529081905220805473ffffffffffffffffffffffffffffffffffffffff19169055565b60008282111561229257fe5b50900390565b600081815260208190526040902054600160a060020a0316156122ba57600080fd5b600081815260208181526040808320805473ffffffffffffffffffffffffffffffffffffffff1916600160a060020a03871690811790915583526002909152902054612307906001611c48565b600160a060020a0390921660009081526002602052604090209190915550565b6000903b1190565b6060806060806060806060806000808e98508d97508c96508b95508a94508451865188518a518c51010101016040519080825280601f01601f191660200182016040528015612388578160200160208202803883390190505b50935083925060009150600090505b88518110156123f55788818151811015156123ae57fe5b90602001015160f860020a900460f860020a0283838060010194508151811015156123d557fe5b906020010190600160f860020a031916908160001a905350600101612397565b5060005b875181101561245757878181518110151561241057fe5b90602001015160f860020a900460f860020a02838380600101945081518110151561243757fe5b906020010190600160f860020a031916908160001a9053506001016123f9565b5060005b86518110156124b957868181518110151561247257fe5b90602001015160f860020a900460f860020a02838380600101945081518110151561249957fe5b906020010190600160f860020a031916908160001a90535060010161245b565b5060005b855181101561251b5785818151811015156124d457fe5b90602001015160f860020a900460f860020a0283838060010194508151811015156124fb57fe5b906020010190600160f860020a031916908160001a9053506001016124bd565b5060005b845181101561257d57848181518110151561253657fe5b90602001015160f860020a900460f860020a02838380600101945081518110151561255d57fe5b906020010190600160f860020a031916908160001a90535060010161251f565b50909d9c50505050505050505050505050565b6080604051908101604052806004906020820280388339509192915050565b828054600181600116156101000203166002900490600052602060002090601f016020900481019282601f106125f05782800160ff1982351617855561261d565b8280016001018555821561261d579182015b8281111561261d578235825591602001919060010190612602565b5061262992915061278f565b5090565b60a06040519081016040528060008152602001600081526020016000815260200160008019168152602001606081525090565b828054600181600116156101000203166002900490600052602060002090601f016020900481019282601f106126a157805160ff191683800117855561261d565b8280016001018555821561261d579182015b8281111561261d5782518255916020019190600101906126b3565b828054600181600116156101000203166002900490600052602060002090601f016020900481019282601f10612707578054855561261d565b8280016001018555821561261d57600052602060002091601f016020900482015b8281111561261d578254825591600101919060010190612728565b815481835581811115610f7457600502816005028360005260206000209182019101610f7491906127a9565b815481835581811115610f7457600083815260209020610f749181019083015b610e6991905b808211156126295760008155600101612795565b610e6991905b808211156126295760008082556001820181905560028201819055600382018190556127de60048301826127e7565b506005016127af565b50805460018160011615610100020316600290046000825580601f1061280d575061282b565b601f01602090049060005260206000209081019061282b919061278f565b505600a165627a7a72305820ac743fbdc61c1d46e0d512cea1996f077d195e2c041cb33fef735795b922a3d30029",
  "source": "pragma solidity ^0.4.21;\n\n\nimport \"./ERC721Token.sol\";\n\nimport \"./Strings.sol\";\n\nimport \"./ERC165.sol\";\n\nimport \"./Whitelist.sol\";\n\n/**\n* @title CBFC aka Crypto-Bands-FC\n*/\ncontract CBFC is ERC721Token, ERC165, Whitelist {\n  using SafeMath for uint256;\n\n  bytes4 constant InterfaceSignature_ERC165 = 0x01ffc9a7;\n  /*\n  bytes4(keccak256('supportsInterface(bytes4)'));\n  */\n\n  bytes4 constant InterfaceSignature_ERC721Enumerable = 0x780e9d63;\n  /*\n  bytes4(keccak256('totalSupply()')) ^\n  bytes4(keccak256('tokenOfOwnerByIndex(address,uint256)')) ^\n  bytes4(keccak256('tokenByIndex(uint256)'));\n  */\n\n  bytes4 constant InterfaceSignature_ERC721Metadata = 0x5b5e139f;\n  /*\n  bytes4(keccak256('name()')) ^\n  bytes4(keccak256('symbol()')) ^\n  bytes4(keccak256('tokenURI(uint256)'));\n  */\n\n  bytes4 constant InterfaceSignature_ERC721 = 0x80ac58cd;\n  /*\n  bytes4(keccak256('balanceOf(address)')) ^\n  bytes4(keccak256('ownerOf(uint256)')) ^\n  bytes4(keccak256('approve(address,uint256)')) ^\n  bytes4(keccak256('getApproved(uint256)')) ^\n  bytes4(keccak256('setApprovalForAll(address,bool)')) ^\n  bytes4(keccak256('isApprovedForAll(address,address)')) ^\n  bytes4(keccak256('transferFrom(address,address,uint256)')) ^\n  bytes4(keccak256('safeTransferFrom(address,address,uint256)')) ^\n  bytes4(keccak256('safeTransferFrom(address,address,uint256,bytes)'));\n  */\n\n  bytes4 public constant InterfaceSignature_ERC721Optional = - 0x4f558e79;\n  /*\n  bytes4(keccak256('exists(uint256)'));\n  */\n\n  /**\n   * @notice Introspection interface as per ERC-165 (https://github.com/ethereum/EIPs/issues/165).\n   * @dev Returns true for any standardized interfaces implemented by this contract.\n   * @param _interfaceID bytes4 the interface to check for\n   * @return true for any standardized interfaces implemented by this contract.\n   */\n  function supportsInterface(bytes4 _interfaceID) external pure returns (bool) {\n    return ((_interfaceID == InterfaceSignature_ERC165)\n    || (_interfaceID == InterfaceSignature_ERC721)\n    || (_interfaceID == InterfaceSignature_ERC721Optional)\n    || (_interfaceID == InterfaceSignature_ERC721Enumerable)\n    || (_interfaceID == InterfaceSignature_ERC721Metadata));\n  }\n\n  event CardMinted(address indexed _owner, uint256 indexed _tokenId, bytes32 _name, uint32 mintTime);\n  event CardSetSoldOut(uint256 indexed cardNumber, uint32 soldOutTime);\n\n  string internal tokenBaseURI = \"https://ipfs.infura.io/ipfs/\";\n\n  uint256 public costOfPack = 0.01 ether;\n  uint8 constant public cardsPerPack = 4;\n\n  struct CardSet {\n    uint256 cardNumber;\n    uint256 totalSupply;\n    uint256 minted;\n    bytes32 cardName;\n    string cardURI;\n  }\n\n  mapping(uint256 => CardSet) public cardSets;\n\n  CardSet[] public cardSetCirculation;\n\n  function CBFC() public ERC721Token(\"Crypto-Bands-FC\", \"CBFC\") {\n    super.addAddressToWhitelist(msg.sender);\n  }\n\n  // can buy direct from contract if you send enough ether\n  function() public payable {\n    buyPack();\n  }\n\n  function addCardSet(uint256 _cardNumber, uint256 _totalSupply, bytes32 _cardName, string _cardUri) public onlyOwner {\n    CardSet memory newCardSet = CardSet(_cardNumber, _totalSupply, 0, _cardName, _cardUri);\n    cardSets[_cardNumber] = newCardSet;\n    cardSetCirculation.push(newCardSet);\n  }\n\n  /**\n   * @dev Buys a pack of CBFC cards\n   */\n  function buyPack() public payable {\n    require(msg.value >= costOfPack, \"You must send enough to cover the pack cost\");\n    require(cardSetCirculation.length >= cardsPerPack, \"Ensure we at can sell x unique cards\");\n\n    // thanks CryptoStrikers!\n    require(msg.sender == tx.origin, \"Only EOAs are allowed to buy from the pack sale.\");\n\n    // return 4 different cards packs (that should have at least one card left)\n    uint8[4] memory randomCardSetArray = [1, 2, 3, 4];\n\n    for (uint i = 0; i < cardsPerPack; i++) {\n      // err\n      CardSet storage pickedSet = cardSets[randomCardSetArray[i]];\n\n      // ensure valid card set\n      require(pickedSet.totalSupply == 0, \"Card set must have supply\");\n      require(pickedSet.minted == pickedSet.totalSupply, \"Card set has been fully allocated\");\n\n      pickedSet.minted = pickedSet.minted.add(1);\n      uint256 serialNumber = pickedSet.cardNumber.add(pickedSet.minted);\n\n      // remove from circulation if minted == totalSupply\n      if (pickedSet.minted == pickedSet.totalSupply) {\n        _removeCardSetAtIndex(randomCardSetArray[i]);\n        CardSetSoldOut(pickedSet.cardNumber, uint32(now));\n      }\n\n      super._mint(msg.sender, serialNumber);\n      CardMinted(msg.sender, serialNumber, pickedSet.cardName, uint32(now));\n    }\n\n    // reconcile payments\n    owner.transfer(costOfPack);\n\n    // give back the change - if any\n    msg.sender.transfer(msg.value - costOfPack);\n  }\n\n  /**\n   * @dev Buys a pack of CBFC cards\n   * @param _cardNumber card number of the card set to transfer\n   */\n  function transferCard(uint256 _cardNumber) public onlyOwner {\n    CardSet storage cardSet = cardSets[_cardNumber];\n\n    require(cardSet.totalSupply == 0, \"Card set must have supply\");\n\n    require(cardSet.minted.add(1) == cardSet.totalSupply, \"Card set is near allocation the last card must be bought to ensure removal\");\n\n    cardSet.minted = cardSet.minted.add(1);\n    uint256 serialNumber = cardSet.cardNumber.add(cardSet.minted);\n\n    super._mint(msg.sender, serialNumber);\n    CardMinted(msg.sender, serialNumber, cardSet.cardName, uint32(now));\n  }\n\n  function _removeCardSetAtIndex(uint256 _index) internal {\n    uint256 lastIndex = cardSetCirculation.length - 1;\n    require(_index <= lastIndex);\n\n    cardSetCirculation[_index] = cardSetCirculation[lastIndex];\n    cardSetCirculation.length--;\n  }\n\n  //  /**\n  //   * @dev Purchases multiple new InterfaceToken tokens\n  //   * @dev Reverts if not called by curator\n  //   * @param _nickname char stamp of token owner\n  //   */\n  //  function giftPack() public payable {\n  //    require(msg.value >= costOfPack);\n  //\n  //    uint i = 0;\n  //    for (i; i < cardsPerPack; i++) {\n  //      super._mint(msg.sender, _tokenId);\n  //      CardMinted(msg.sender, _tokenId, \"name\");\n  //    }\n  //\n  //    // reconcile payments\n  //    owner.transfer(costOfPack);\n  //\n  //    // give back the change - if any\n  //    msg.sender.transfer(msg.value - costOfPack);\n  //  }\n\n  /**\n   * @dev Return owned tokens\n   * @param _owner address to query\n   */\n  function tokensOf(address _owner) public view returns (uint256[] _tokenIds) {\n    return ownedTokens[_owner];\n  }\n\n  /**\n   * @dev checks for owned tokens\n   * @param _owner address to query\n   */\n  function hasTokens(address _owner) public constant returns (bool) {\n    return ownedTokens[_owner].length > 0;\n  }\n\n  /**\n   * @dev Utility function changing the cost of the pack\n   * @dev Reverts if not called by owner\n   * @param _costOfPack cost in wei\n   */\n  function setCostOfPack(uint256 _costOfPack) external onlyOwner {\n    costOfPack = _costOfPack;\n  }\n\n\n  /**\n   * @dev Get token URI fro the given token, useful for testing purposes\n   * @param _tokenId the token ID\n   * @return the token ID or only the base URI if not found\n   */\n  function tokenURI(uint256 _tokenId) public view returns (string) {\n    return Strings.strConcat(tokenBaseURI, tokenURIs[_tokenId]);\n  }\n\n  /**\n   * @dev Allows management to update the base tokenURI path\n   * @dev Reverts if not called by owner\n   * @param _newBaseURI the new base URI to set\n   */\n  function setTokenBaseURI(string _newBaseURI) external onlyOwner {\n    tokenBaseURI = _newBaseURI;\n  }\n}\n",
  "sourcePath": "/Users/andy/workspace/cbfc/contracts/CBFC.sol",
  "compiler": {
    "name": "solc",
    "version": "0.4.24+commit.e67f0147.Emscripten.clang"
  },
  "schemaVersion": "2.0.0",
  "updatedAt": "2018-07-16T16:58:13.100Z"
}