{
  "contractName": "KOTA",
  "abi": [
    {
      "constant": true,
      "inputs": [
        {
          "name": "_interfaceId",
          "type": "bytes4"
        }
      ],
      "name": "supportsInterface",
      "outputs": [
        {
          "name": "",
          "type": "bool"
        }
      ],
      "payable": false,
      "stateMutability": "view",
      "type": "function"
    },
    {
      "constant": true,
      "inputs": [
        {
          "name": "",
          "type": "uint256"
        }
      ],
      "name": "boxNumberToBox",
      "outputs": [
        {
          "name": "boxNumber",
          "type": "uint256"
        },
        {
          "name": "title",
          "type": "string"
        },
        {
          "name": "description",
          "type": "string"
        },
        {
          "name": "boxURI",
          "type": "string"
        }
      ],
      "payable": false,
      "stateMutability": "view",
      "type": "function"
    },
    {
      "constant": true,
      "inputs": [],
      "name": "name",
      "outputs": [
        {
          "name": "",
          "type": "string"
        }
      ],
      "payable": false,
      "stateMutability": "view",
      "type": "function"
    },
    {
      "constant": true,
      "inputs": [
        {
          "name": "_tokenId",
          "type": "uint256"
        }
      ],
      "name": "getApproved",
      "outputs": [
        {
          "name": "",
          "type": "address"
        }
      ],
      "payable": false,
      "stateMutability": "view",
      "type": "function"
    },
    {
      "constant": false,
      "inputs": [
        {
          "name": "_to",
          "type": "address"
        },
        {
          "name": "_tokenId",
          "type": "uint256"
        }
      ],
      "name": "approve",
      "outputs": [],
      "payable": false,
      "stateMutability": "nonpayable",
      "type": "function"
    },
    {
      "constant": true,
      "inputs": [],
      "name": "totalSupply",
      "outputs": [
        {
          "name": "",
          "type": "uint256"
        }
      ],
      "payable": false,
      "stateMutability": "view",
      "type": "function"
    },
    {
      "constant": true,
      "inputs": [],
      "name": "InterfaceId_ERC165",
      "outputs": [
        {
          "name": "",
          "type": "bytes4"
        }
      ],
      "payable": false,
      "stateMutability": "view",
      "type": "function"
    },
    {
      "constant": false,
      "inputs": [
        {
          "name": "_from",
          "type": "address"
        },
        {
          "name": "_to",
          "type": "address"
        },
        {
          "name": "_tokenId",
          "type": "uint256"
        }
      ],
      "name": "transferFrom",
      "outputs": [],
      "payable": false,
      "stateMutability": "nonpayable",
      "type": "function"
    },
    {
      "constant": true,
      "inputs": [
        {
          "name": "_owner",
          "type": "address"
        },
        {
          "name": "_index",
          "type": "uint256"
        }
      ],
      "name": "tokenOfOwnerByIndex",
      "outputs": [
        {
          "name": "",
          "type": "uint256"
        }
      ],
      "payable": false,
      "stateMutability": "view",
      "type": "function"
    },
    {
      "constant": false,
      "inputs": [
        {
          "name": "_from",
          "type": "address"
        },
        {
          "name": "_to",
          "type": "address"
        },
        {
          "name": "_tokenId",
          "type": "uint256"
        }
      ],
      "name": "safeTransferFrom",
      "outputs": [],
      "payable": false,
      "stateMutability": "nonpayable",
      "type": "function"
    },
    {
      "constant": true,
      "inputs": [
        {
          "name": "_tokenId",
          "type": "uint256"
        }
      ],
      "name": "exists",
      "outputs": [
        {
          "name": "",
          "type": "bool"
        }
      ],
      "payable": false,
      "stateMutability": "view",
      "type": "function"
    },
    {
      "constant": true,
      "inputs": [
        {
          "name": "_index",
          "type": "uint256"
        }
      ],
      "name": "tokenByIndex",
      "outputs": [
        {
          "name": "",
          "type": "uint256"
        }
      ],
      "payable": false,
      "stateMutability": "view",
      "type": "function"
    },
    {
      "constant": true,
      "inputs": [
        {
          "name": "_tokenId",
          "type": "uint256"
        }
      ],
      "name": "ownerOf",
      "outputs": [
        {
          "name": "",
          "type": "address"
        }
      ],
      "payable": false,
      "stateMutability": "view",
      "type": "function"
    },
    {
      "constant": true,
      "inputs": [
        {
          "name": "",
          "type": "uint256"
        }
      ],
      "name": "boxNumberToCardsInCirculationSold",
      "outputs": [
        {
          "name": "",
          "type": "uint256"
        }
      ],
      "payable": false,
      "stateMutability": "view",
      "type": "function"
    },
    {
      "constant": true,
      "inputs": [],
      "name": "cardsPerPack",
      "outputs": [
        {
          "name": "",
          "type": "uint8"
        }
      ],
      "payable": false,
      "stateMutability": "view",
      "type": "function"
    },
    {
      "constant": true,
      "inputs": [],
      "name": "totalWei",
      "outputs": [
        {
          "name": "",
          "type": "uint256"
        }
      ],
      "payable": false,
      "stateMutability": "view",
      "type": "function"
    },
    {
      "constant": true,
      "inputs": [
        {
          "name": "",
          "type": "uint256"
        }
      ],
      "name": "boxNumberToCardsInCirculation",
      "outputs": [
        {
          "name": "",
          "type": "uint256"
        }
      ],
      "payable": false,
      "stateMutability": "view",
      "type": "function"
    },
    {
      "constant": true,
      "inputs": [
        {
          "name": "_owner",
          "type": "address"
        }
      ],
      "name": "balanceOf",
      "outputs": [
        {
          "name": "",
          "type": "uint256"
        }
      ],
      "payable": false,
      "stateMutability": "view",
      "type": "function"
    },
    {
      "constant": false,
      "inputs": [],
      "name": "renounceOwnership",
      "outputs": [],
      "payable": false,
      "stateMutability": "nonpayable",
      "type": "function"
    },
    {
      "constant": true,
      "inputs": [],
      "name": "owner",
      "outputs": [
        {
          "name": "",
          "type": "address"
        }
      ],
      "payable": false,
      "stateMutability": "view",
      "type": "function"
    },
    {
      "constant": true,
      "inputs": [],
      "name": "totalCardsInCirculation",
      "outputs": [
        {
          "name": "",
          "type": "uint256"
        }
      ],
      "payable": false,
      "stateMutability": "view",
      "type": "function"
    },
    {
      "constant": true,
      "inputs": [],
      "name": "symbol",
      "outputs": [
        {
          "name": "",
          "type": "string"
        }
      ],
      "payable": false,
      "stateMutability": "view",
      "type": "function"
    },
    {
      "constant": true,
      "inputs": [],
      "name": "defaultBoxNumber",
      "outputs": [
        {
          "name": "",
          "type": "uint256"
        }
      ],
      "payable": false,
      "stateMutability": "view",
      "type": "function"
    },
    {
      "constant": false,
      "inputs": [
        {
          "name": "_to",
          "type": "address"
        },
        {
          "name": "_approved",
          "type": "bool"
        }
      ],
      "name": "setApprovalForAll",
      "outputs": [],
      "payable": false,
      "stateMutability": "nonpayable",
      "type": "function"
    },
    {
      "constant": false,
      "inputs": [
        {
          "name": "_from",
          "type": "address"
        },
        {
          "name": "_to",
          "type": "address"
        },
        {
          "name": "_tokenId",
          "type": "uint256"
        },
        {
          "name": "_data",
          "type": "bytes"
        }
      ],
      "name": "safeTransferFrom",
      "outputs": [],
      "payable": false,
      "stateMutability": "nonpayable",
      "type": "function"
    },
    {
      "constant": true,
      "inputs": [],
      "name": "costOfPack",
      "outputs": [
        {
          "name": "",
          "type": "uint256"
        }
      ],
      "payable": false,
      "stateMutability": "view",
      "type": "function"
    },
    {
      "constant": true,
      "inputs": [],
      "name": "totalCardsInCirculationSold",
      "outputs": [
        {
          "name": "",
          "type": "uint256"
        }
      ],
      "payable": false,
      "stateMutability": "view",
      "type": "function"
    },
    {
      "constant": true,
      "inputs": [
        {
          "name": "",
          "type": "uint256"
        }
      ],
      "name": "boxCardNumberToCardSet",
      "outputs": [
        {
          "name": "boxNumber",
          "type": "uint256"
        },
        {
          "name": "cardNumber",
          "type": "uint256"
        },
        {
          "name": "totalSupply",
          "type": "uint256"
        },
        {
          "name": "minted",
          "type": "uint256"
        },
        {
          "name": "cardName",
          "type": "bytes32"
        },
        {
          "name": "cardURI",
          "type": "string"
        }
      ],
      "payable": false,
      "stateMutability": "view",
      "type": "function"
    },
    {
      "constant": true,
      "inputs": [
        {
          "name": "_owner",
          "type": "address"
        },
        {
          "name": "_operator",
          "type": "address"
        }
      ],
      "name": "isApprovedForAll",
      "outputs": [
        {
          "name": "",
          "type": "bool"
        }
      ],
      "payable": false,
      "stateMutability": "view",
      "type": "function"
    },
    {
      "constant": false,
      "inputs": [
        {
          "name": "_newOwner",
          "type": "address"
        }
      ],
      "name": "transferOwnership",
      "outputs": [],
      "payable": false,
      "stateMutability": "nonpayable",
      "type": "function"
    },
    {
      "constant": true,
      "inputs": [
        {
          "name": "",
          "type": "address"
        }
      ],
      "name": "credits",
      "outputs": [
        {
          "name": "",
          "type": "uint256"
        }
      ],
      "payable": false,
      "stateMutability": "view",
      "type": "function"
    },
    {
      "inputs": [],
      "payable": false,
      "stateMutability": "nonpayable",
      "type": "constructor"
    },
    {
      "payable": true,
      "stateMutability": "payable",
      "type": "fallback"
    },
    {
      "anonymous": false,
      "inputs": [
        {
          "indexed": true,
          "name": "_owner",
          "type": "address"
        },
        {
          "indexed": true,
          "name": "_tokenId",
          "type": "uint256"
        },
        {
          "indexed": false,
          "name": "_name",
          "type": "bytes32"
        },
        {
          "indexed": false,
          "name": "_mintTime",
          "type": "uint32"
        }
      ],
      "name": "CardMinted",
      "type": "event"
    },
    {
      "anonymous": false,
      "inputs": [
        {
          "indexed": true,
          "name": "_cardNumber",
          "type": "uint256"
        },
        {
          "indexed": false,
          "name": "_soldOutTime",
          "type": "uint32"
        }
      ],
      "name": "CardSetSoldOut",
      "type": "event"
    },
    {
      "anonymous": false,
      "inputs": [
        {
          "indexed": true,
          "name": "_owner",
          "type": "address"
        },
        {
          "indexed": false,
          "name": "_boughtTime",
          "type": "uint32"
        }
      ],
      "name": "CardPackBought",
      "type": "event"
    },
    {
      "anonymous": false,
      "inputs": [
        {
          "indexed": true,
          "name": "_owner",
          "type": "address"
        },
        {
          "indexed": false,
          "name": "_giftTime",
          "type": "uint32"
        }
      ],
      "name": "CardPackRedeemed",
      "type": "event"
    },
    {
      "anonymous": false,
      "inputs": [
        {
          "indexed": true,
          "name": "previousOwner",
          "type": "address"
        }
      ],
      "name": "OwnershipRenounced",
      "type": "event"
    },
    {
      "anonymous": false,
      "inputs": [
        {
          "indexed": true,
          "name": "previousOwner",
          "type": "address"
        },
        {
          "indexed": true,
          "name": "newOwner",
          "type": "address"
        }
      ],
      "name": "OwnershipTransferred",
      "type": "event"
    },
    {
      "anonymous": false,
      "inputs": [
        {
          "indexed": true,
          "name": "_from",
          "type": "address"
        },
        {
          "indexed": true,
          "name": "_to",
          "type": "address"
        },
        {
          "indexed": true,
          "name": "_tokenId",
          "type": "uint256"
        }
      ],
      "name": "Transfer",
      "type": "event"
    },
    {
      "anonymous": false,
      "inputs": [
        {
          "indexed": true,
          "name": "_owner",
          "type": "address"
        },
        {
          "indexed": true,
          "name": "_approved",
          "type": "address"
        },
        {
          "indexed": true,
          "name": "_tokenId",
          "type": "uint256"
        }
      ],
      "name": "Approval",
      "type": "event"
    },
    {
      "anonymous": false,
      "inputs": [
        {
          "indexed": true,
          "name": "_owner",
          "type": "address"
        },
        {
          "indexed": true,
          "name": "_operator",
          "type": "address"
        },
        {
          "indexed": false,
          "name": "_approved",
          "type": "bool"
        }
      ],
      "name": "ApprovalForAll",
      "type": "event"
    },
    {
      "constant": false,
      "inputs": [
        {
          "name": "_boxNumber",
          "type": "uint256"
        },
        {
          "name": "_title",
          "type": "string"
        },
        {
          "name": "_description",
          "type": "string"
        },
        {
          "name": "_boxUri",
          "type": "string"
        }
      ],
      "name": "addBox",
      "outputs": [],
      "payable": false,
      "stateMutability": "nonpayable",
      "type": "function"
    },
    {
      "constant": false,
      "inputs": [
        {
          "name": "_boxNumber",
          "type": "uint256"
        },
        {
          "name": "_cardNumber",
          "type": "uint256"
        },
        {
          "name": "_totalSupply",
          "type": "uint256"
        },
        {
          "name": "_cardName",
          "type": "bytes32"
        },
        {
          "name": "_cardUri",
          "type": "string"
        }
      ],
      "name": "addCardSet",
      "outputs": [],
      "payable": false,
      "stateMutability": "nonpayable",
      "type": "function"
    },
    {
      "constant": false,
      "inputs": [
        {
          "name": "_to",
          "type": "address"
        },
        {
          "name": "_boxNumber",
          "type": "uint256"
        },
        {
          "name": "_cardNumber",
          "type": "uint256"
        }
      ],
      "name": "mint",
      "outputs": [],
      "payable": false,
      "stateMutability": "nonpayable",
      "type": "function"
    },
    {
      "constant": false,
      "inputs": [
        {
          "name": "_boxNumber",
          "type": "uint256"
        }
      ],
      "name": "buyPack",
      "outputs": [],
      "payable": true,
      "stateMutability": "payable",
      "type": "function"
    },
    {
      "constant": false,
      "inputs": [
        {
          "name": "_boxNumber",
          "type": "uint256"
        }
      ],
      "name": "redeemPack",
      "outputs": [],
      "payable": false,
      "stateMutability": "nonpayable",
      "type": "function"
    },
    {
      "constant": false,
      "inputs": [
        {
          "name": "_tokenId",
          "type": "uint256"
        }
      ],
      "name": "burn",
      "outputs": [],
      "payable": false,
      "stateMutability": "nonpayable",
      "type": "function"
    },
    {
      "constant": true,
      "inputs": [
        {
          "name": "_owner",
          "type": "address"
        }
      ],
      "name": "tokensOf",
      "outputs": [
        {
          "name": "_tokenIds",
          "type": "uint256[]"
        }
      ],
      "payable": false,
      "stateMutability": "view",
      "type": "function"
    },
    {
      "constant": true,
      "inputs": [],
      "name": "allBoxNumbers",
      "outputs": [
        {
          "name": "_boxNumbers",
          "type": "uint256[]"
        }
      ],
      "payable": false,
      "stateMutability": "view",
      "type": "function"
    },
    {
      "constant": true,
      "inputs": [
        {
          "name": "_boxNumber",
          "type": "uint256"
        }
      ],
      "name": "cardSetsInCirculation",
      "outputs": [
        {
          "name": "_cardSetCirculationLength",
          "type": "uint256"
        }
      ],
      "payable": false,
      "stateMutability": "view",
      "type": "function"
    },
    {
      "constant": true,
      "inputs": [
        {
          "name": "_boxNumber",
          "type": "uint256"
        }
      ],
      "name": "cardNumbersOf",
      "outputs": [
        {
          "name": "_cardNumbersArray",
          "type": "uint256[]"
        }
      ],
      "payable": false,
      "stateMutability": "view",
      "type": "function"
    },
    {
      "constant": true,
      "inputs": [
        {
          "name": "_owner",
          "type": "address"
        }
      ],
      "name": "hasTokens",
      "outputs": [
        {
          "name": "",
          "type": "bool"
        }
      ],
      "payable": false,
      "stateMutability": "view",
      "type": "function"
    },
    {
      "constant": false,
      "inputs": [
        {
          "name": "_costOfPack",
          "type": "uint256"
        }
      ],
      "name": "setCostOfPack",
      "outputs": [],
      "payable": false,
      "stateMutability": "nonpayable",
      "type": "function"
    },
    {
      "constant": false,
      "inputs": [
        {
          "name": "_recipient",
          "type": "address"
        }
      ],
      "name": "addCredit",
      "outputs": [],
      "payable": false,
      "stateMutability": "nonpayable",
      "type": "function"
    },
    {
      "constant": true,
      "inputs": [
        {
          "name": "_tokenId",
          "type": "uint256"
        }
      ],
      "name": "tokenURI",
      "outputs": [
        {
          "name": "",
          "type": "string"
        }
      ],
      "payable": false,
      "stateMutability": "view",
      "type": "function"
    },
    {
      "constant": false,
      "inputs": [
        {
          "name": "_newBaseURI",
          "type": "string"
        }
      ],
      "name": "setTokenBaseURI",
      "outputs": [],
      "payable": false,
      "stateMutability": "nonpayable",
      "type": "function"
    }
  ],
  "bytecode": "0x60c0604052601c60808190527f68747470733a2f2f697066732e696e667572612e696f2f697066732f0000000060a09081526200004091600d919062000273565b50662386f26fc10000600e556000600f5560006010556000601155620f424060125560006013553480156200007457600080fd5b5060408051808201825260048082527f4b4f544100000000000000000000000000000000000000000000000000000000602080840182905284518086019095529184529083015290620000f07f01ffc9a70000000000000000000000000000000000000000000000000000000064010000000062000206810204565b620001247f80ac58cd0000000000000000000000000000000000000000000000000000000064010000000062000206810204565b620001587f4f558e790000000000000000000000000000000000000000000000000000000064010000000062000206810204565b81516200016d90600590602085019062000273565b5080516200018390600690602084019062000273565b50620001b87f780e9d630000000000000000000000000000000000000000000000000000000064010000000062000206810204565b620001ec7f5b5e139f0000000000000000000000000000000000000000000000000000000064010000000062000206810204565b5050600c8054600160a060020a0319163317905562000318565b7fffffffff0000000000000000000000000000000000000000000000000000000080821614156200023657600080fd5b7fffffffff00000000000000000000000000000000000000000000000000000000166000908152602081905260409020805460ff19166001179055565b828054600181600116156101000203166002900490600052602060002090601f016020900481019282601f10620002b657805160ff1916838001178555620002e6565b82800160010185558215620002e6579182015b82811115620002e6578251825591602001919060010190620002c9565b50620002f4929150620002f8565b5090565b6200031591905b80821115620002f45760008155600101620002ff565b90565b612e4780620003286000396000f30060806040526004361061022f5763ffffffff7c010000000000000000000000000000000000000000000000000000000060003504166301ffc9a7811461023c57806306832ec81461027257806306fdde03146103d5578063081812fc1461045f578063095ea7b3146104935780630bca0d58146104b7578063156e29f61461059157806318160ddd146105b857806319fa8f50146105df57806320f7c1c01461061157806323b872dd146106295780632f745c5914610653578063367ad6ea146106775780633cefc1e01461068f57806342842e0e146106b057806342966c68146106da5780634f558e79146106f25780634f6ccce71461070a5780635a3f26721461072257806361e2eb57146107935780636352211e146107fe57806365419aa814610816578063655563db1461082e5780636d98e9fc146108595780636fd763811461086e57806370a0823114610886578063715018a6146108a757806374d050fb146108bc5780637c334d0b146108d45780638da5cb5b146108f55780638ef79e911461090a57806390af13331461092a5780639154fb8b1461093f57806395d89b4114610954578063982620d014610969578063a22cb4651461097e578063b88d4fde146109a4578063c61e5be614610a13578063c87b56dd14610a2b578063cb361c5d14610a43578063dc45bfb314610a58578063e77854cd14610a63578063e8bb10db14610a78578063e985e9c514610af2578063f2fde38b14610b19578063fe5ff46814610b3a575b61023a601254610b5b565b005b34801561024857600080fd5b5061025e600160e060020a031960043516610c4d565b604080519115158252519081900360200190f35b34801561027e57600080fd5b5061028a600435610c6c565b60405180858152602001806020018060200180602001848103845287818151815260200191508051906020019080838360005b838110156102d55781810151838201526020016102bd565b50505050905090810190601f1680156103025780820380516001836020036101000a031916815260200191505b50848103835286518152865160209182019188019080838360005b8381101561033557818101518382015260200161031d565b50505050905090810190601f1680156103625780820380516001836020036101000a031916815260200191505b50848103825285518152855160209182019187019080838360005b8381101561039557818101518382015260200161037d565b50505050905090810190601f1680156103c25780820380516001836020036101000a031916815260200191505b5097505050505050505060405180910390f35b3480156103e157600080fd5b506103ea610e35565b6040805160208082528351818301528351919283929083019185019080838360005b8381101561042457818101518382015260200161040c565b50505050905090810190601f1680156104515780820380516001836020036101000a031916815260200191505b509250505060405180910390f35b34801561046b57600080fd5b50610477600435610ecc565b60408051600160a060020a039092168252519081900360200190f35b34801561049f57600080fd5b5061023a600160a060020a0360043516602435610ee7565b3480156104c357600080fd5b5060408051602060046024803582810135601f810185900485028601850190965285855261023a95833595369560449491939091019190819084018382808284375050604080516020601f89358b018035918201839004830284018301909452808352979a99988101979196509182019450925082915084018382808284375050604080516020601f89358b018035918201839004830284018301909452808352979a999881019791965091820194509250829150840183828082843750949750610f9d9650505050505050565b34801561059d57600080fd5b5061023a600160a060020a0360043516602435604435611082565b3480156105c457600080fd5b506105cd611155565b60408051918252519081900360200190f35b3480156105eb57600080fd5b506105f461115b565b60408051600160e060020a03199092168252519081900360200190f35b34801561061d57600080fd5b5061023a60043561117f565b34801561063557600080fd5b5061023a600160a060020a036004358116906024351660443561119b565b34801561065f57600080fd5b506105cd600160a060020a0360043516602435611240565b34801561068357600080fd5b5061023a60043561128d565b34801561069b57600080fd5b5061025e600160a060020a0360043516611320565b3480156106bc57600080fd5b5061023a600160a060020a036004358116906024351660443561133c565b3480156106e657600080fd5b5061023a600435611374565b3480156106fe57600080fd5b5061025e600435611381565b34801561071657600080fd5b506105cd60043561139e565b34801561072e57600080fd5b50610743600160a060020a03600435166113d3565b60408051602080825283518183015283519192839290830191858101910280838360005b8381101561077f578181015183820152602001610767565b505050509050019250505060405180910390f35b34801561079f57600080fd5b50604080516020601f60843560048181013592830184900484028501840190955281845261023a948035946024803595604435956064359536959460a494909391019190819084018382808284375094975061143f9650505050505050565b34801561080a57600080fd5b506104776004356116c9565b34801561082257600080fd5b506105cd6004356116f3565b34801561083a57600080fd5b50610843611705565b6040805160ff9092168252519081900360200190f35b34801561086557600080fd5b506105cd61170a565b34801561087a57600080fd5b506105cd600435611710565b34801561089257600080fd5b506105cd600160a060020a0360043516611722565b3480156108b357600080fd5b5061023a611755565b3480156108c857600080fd5b506107436004356117c3565b3480156108e057600080fd5b5061023a600160a060020a0360043516611823565b34801561090157600080fd5b50610477611880565b34801561091657600080fd5b5061023a600480356024810191013561188f565b34801561093657600080fd5b506107436118b7565b34801561094b57600080fd5b506105cd61190e565b34801561096057600080fd5b506103ea611914565b34801561097557600080fd5b506105cd611975565b34801561098a57600080fd5b5061023a600160a060020a0360043516602435151561197b565b3480156109b057600080fd5b50604080516020601f60643560048181013592830184900484028501840190955281845261023a94600160a060020a0381358116956024803590921695604435953695608494019181908401838280828437509497506119ff9650505050505050565b348015610a1f57600080fd5b506105cd600435611a37565b348015610a3757600080fd5b506103ea600435611a49565b348015610a4f57600080fd5b506105cd611aeb565b61023a600435610b5b565b348015610a6f57600080fd5b506105cd611af1565b348015610a8457600080fd5b50610a90600435611af7565b60405180878152602001868152602001858152602001848152602001836000191660001916815260200180602001828103825283818151815260200191508051906020019080838360008381101561039557818101518382015260200161037d565b348015610afe57600080fd5b5061025e600160a060020a0360043581169060243516611bcb565b348015610b2557600080fd5b5061023a600160a060020a0360043516611bf9565b348015610b4657600080fd5b506105cd600160a060020a0360043516611c19565b600e54341015610b6a57600080fd5b6000610b7582611a37565b11610b7f57600080fd5b610b8881611c2b565b600c54600e54604051600160a060020a039092169181156108fc0291906000818181858888f19350505050158015610bc4573d6000803e3d6000fd5b50600e54601154610bda9163ffffffff611d3e16565b601155600e546040513391340380156108fc02916000818181858888f19350505050158015610c0d573d6000803e3d6000fd5b506040805163ffffffff42168152905133917faa410191373df16155ba10f8d6e9705423d9bcfe3c1a1251ec041d47b9a59ca2919081900360200190a250565b600160e060020a03191660009081526020819052604090205460ff1690565b6015602090815260009182526040918290208054600180830180548651600293821615610100026000190190911692909204601f810186900486028301860190965285825291949293909290830182828015610d095780601f10610cde57610100808354040283529160200191610d09565b820191906000526020600020905b815481529060010190602001808311610cec57829003601f168201915b50505060028085018054604080516020601f6000196101006001871615020190941695909504928301859004850281018501909152818152959695945090925090830182828015610d9b5780601f10610d7057610100808354040283529160200191610d9b565b820191906000526020600020905b815481529060010190602001808311610d7e57829003601f168201915b5050505060038301805460408051602060026001851615610100026000190190941693909304601f8101849004840282018401909252818152949594935090830182828015610e2b5780601f10610e0057610100808354040283529160200191610e2b565b820191906000526020600020905b815481529060010190602001808311610e0e57829003601f168201915b5050505050905084565b60058054604080516020601f6002600019610100600188161502019095169490940493840181900481028201810190925282815260609390929091830182828015610ec15780601f10610e9657610100808354040283529160200191610ec1565b820191906000526020600020905b815481529060010190602001808311610ea457829003601f168201915b505050505090505b90565b600090815260026020526040902054600160a060020a031690565b6000610ef2826116c9565b9050600160a060020a038381169082161415610f0d57600080fd5b33600160a060020a0382161480610f295750610f298133611bcb565b1515610f3457600080fd5b600082815260026020526040808220805473ffffffffffffffffffffffffffffffffffffffff1916600160a060020a0387811691821790925591518593918516917f8c5be1e5ebec7d5bd14f71427d1e84f3dd0314c0f7b2291e5b200ac8c7c3b92591a4505050565b610fa5612b64565b600c54600160a060020a03163314610fbc57600080fd5b506040805160808101825285815260208082018681528284018690526060830185905260008881526015835293909320825181559251805192938493909261100b926001850192910190612b8d565b5060408201518051611027916002840191602090910190612b8d565b5060608201518051611043916003840191602090910190612b8d565b5050601b80546001810182556000919091527f3ad8aa4f87544323a9d1e5dd902f40c356527a7955687113db5f9a85ad579dc101959095555050505050565b600c546000908190600160a060020a0316331461109e57600080fd5b6110ae848463ffffffff611d3e16565b600081815260166020526040812054919350106110ca57600080fd5b506000818152601660205260409020600281015460038201546110f490600163ffffffff611d3e16565b106110fe57600080fd5b6000848152601a602052604090205461111e90600163ffffffff611d3e16565b6000858152601a602052604090205560105461114190600163ffffffff611d3e16565b60105561114e8582611d4b565b5050505050565b60095490565b7f01ffc9a70000000000000000000000000000000000000000000000000000000081565b600c54600160a060020a0316331461119657600080fd5b600e55565b806111a63382611eb4565b15156111b157600080fd5b600160a060020a03841615156111c657600080fd5b600160a060020a03831615156111db57600080fd5b6111e58483611f13565b6111ef8483611f84565b6111f983836120bd565b8183600160a060020a031685600160a060020a03167fddf252ad1be2c89b69c2b068fc378daa952ba7f163c4a11628f55a4df523b3ef60405160405180910390a450505050565b600061124b83611722565b821061125657600080fd5b600160a060020a038316600090815260076020526040902080548390811061127a57fe5b9060005260206000200154905092915050565b33600090815260146020526040812054116112a757600080fd5b336000908152601460205260409020546112c890600163ffffffff61210616565b336000908152601460205260409020556112e181611c2b565b6040805163ffffffff42168152905133917f4d9e18eaffdad4b1ef9cf8013bc960caef57f0d97a5ea42051cd83db63613e55919081900360200190a250565b600160a060020a03166000908152600760205260408120541190565b806113473382611eb4565b151561135257600080fd5b61136e84848460206040519081016040528060008152506119ff565b50505050565b61137e3382612118565b50565b600090815260016020526040902054600160a060020a0316151590565b60006113a8611155565b82106113b357600080fd5b60098054839081106113c157fe5b90600052602060002001549050919050565b600160a060020a03811660009081526007602090815260409182902080548351818402810184019094528084526060939283018282801561143357602002820191906000526020600020905b81548152602001906001019080831161141f575b50505050509050919050565b6000611449612c0b565b600c54600160a060020a0316331461146057600080fd5b600087815260156020526040812054116114db57604080517f08c379a000000000000000000000000000000000000000000000000000000000815260206004820152601060248201527f426f782073686f756c6420657869737400000000000000000000000000000000604482015290519081900360640190fd5b6114eb878763ffffffff611d3e16565b6000818152601660205260409020600101549092501561156c57604080517f08c379a000000000000000000000000000000000000000000000000000000000815260206004820152601960248201527f43617264205365742073686f756c64206e6f7420657869737400000000000000604482015290519081900360640190fd5b506040805160c0810182528781526020808201888152828401888152600060608501818152608086018a815260a087018a8152898452601687529790922086518155935160018501559151600284015590516003830155516004820155925180519293849390926115e4926005850192910190612b8d565b5050506000878152601760209081526040808320805460018181018084559286529484902086516006909202019081558584015194810194909455908401516002840155606084015160038401556080840151600484015560a084015180519193859390926116599260058501920190612b8d565b50505060008881526018602090815260408083208054600181018255908452828420018a90558a8352601990915290205461169b91508663ffffffff611d3e16565b600088815260196020526040902055600f546116bd908663ffffffff611d3e16565b600f5550505050505050565b600081815260016020526040812054600160a060020a03168015156116ed57600080fd5b92915050565b601a6020526000908152604090205481565b600481565b60115481565b60196020526000908152604090205481565b6000600160a060020a038216151561173957600080fd5b50600160a060020a031660009081526003602052604090205490565b600c54600160a060020a0316331461176c57600080fd5b600c54604051600160a060020a03909116907ff8df31144d9c2f0f6b59d69b8b98abd5459d07f2742c4df920b25aae33c6482090600090a2600c805473ffffffffffffffffffffffffffffffffffffffff19169055565b600081815260186020908152604091829020805483518184028101840190945280845260609392830182828015611433576020028201919060005260206000209081548152602001906001019080831161141f5750505050509050919050565b600c54600160a060020a0316331461183a57600080fd5b600160a060020a03811660009081526014602052604090205461186490600163ffffffff611d3e16565b600160a060020a03909116600090815260146020526040902055565b600c54600160a060020a031681565b600c54600160a060020a031633146118a657600080fd5b6118b2600d8383612c45565b505050565b6060601b805480602002602001604051908101604052809291908181526020018280548015610ec157602002820191906000526020600020905b8154815260200190600101908083116118f1575050505050905090565b600f5481565b60068054604080516020601f6002600019610100600188161502019095169490940493840181900481028201810190925282815260609390929091830182828015610ec15780601f10610e9657610100808354040283529160200191610ec1565b60125481565b600160a060020a03821633141561199157600080fd5b336000818152600460209081526040808320600160a060020a03871680855290835292819020805460ff1916861515908117909155815190815290519293927f17307eab39ab6107e8899845ad3d59bd9653f200f220920489ca2b5937696c31929181900390910190a35050565b81611a0a3382611eb4565b1515611a1557600080fd5b611a2085858561119b565b611a2c85858585612212565b151561114e57600080fd5b60009081526017602052604090205490565b600d805460408051602060026001851615610100026000190190941693909304601f81018490048402820184019092528181526060936116ed9391929091830182828015611ad85780601f10611aad57610100808354040283529160200191611ad8565b820191906000526020600020905b815481529060010190602001808311611abb57829003601f168201915b5050505050611ae68461237f565b61242a565b600e5481565b60105481565b6016602052806000526040600020600091509050806000015490806001015490806002015490806003015490806004015490806005018054600181600116156101000203166002900480601f016020809104026020016040519081016040528092919081815260200182805460018160011615610100020316600290048015611bc15780601f10611b9657610100808354040283529160200191611bc1565b820191906000526020600020905b815481529060010190602001808311611ba457829003601f168201915b5050505050905086565b600160a060020a03918216600090815260046020908152604080832093909416825291909152205460ff1690565b600c54600160a060020a03163314611c1057600080fd5b61137e81612466565b60146020526000908152604090205481565b60008080333214611c3b57600080fd5b600092505b6004831015611cf257611c5684846001016124e4565b600085815260176020526040902080549193509083908110611c7457fe5b90600052602060002090600602019050611c8e3382611d4b565b806002015481600301541415611ce757611ca884836125c1565b60018101546040805163ffffffff4216815290517f9b0b9d1a520cddbaf3796589db30746775a90fc149624d9e9851630912dc04c79181900360200190a25b600190920191611c40565b6000848152601a6020526040902054611d1290600463ffffffff611d3e16565b6000858152601a6020526040902055601054611d3590600463ffffffff611d3e16565b60105550505050565b818101828110156116ed57fe5b6000808260020154111515611d5f57600080fd5b600282015460038301541115611d7457600080fd5b6003820154611d8a90600163ffffffff611d3e16565b6003830181905560018301548354611db99291611dad919063ffffffff611d3e16565b9063ffffffff611d3e16565b9050611dc583826126a8565b60058201805460408051602060026001851615610100026000190190941693909304601f8101849004840282018401909252818152611e5f93859391929091830182828015611e555780601f10611e2a57610100808354040283529160200191611e55565b820191906000526020600020905b815481529060010190602001808311611e3857829003601f168201915b50505050506126f7565b60048201546040805191825263ffffffff4216602083015280518392600160a060020a038716927f5d332e130eeb3924324a7454ddca461c4cd17fa86d4ad51dcceef6cc4f44772692918290030190a3505050565b600080611ec0836116c9565b905080600160a060020a031684600160a060020a03161480611efb575083600160a060020a0316611ef084610ecc565b600160a060020a0316145b80611f0b5750611f0b8185611bcb565b949350505050565b81600160a060020a0316611f26826116c9565b600160a060020a031614611f3957600080fd5b600081815260026020526040902054600160a060020a031615611f80576000818152600260205260409020805473ffffffffffffffffffffffffffffffffffffffff191690555b5050565b6000806000611f93858561272a565b600084815260086020908152604080832054600160a060020a0389168452600790925290912054909350611fce90600163ffffffff61210616565b600160a060020a038616600090815260076020526040902080549193509083908110611ff657fe5b90600052602060002001549050806007600087600160a060020a0316600160a060020a031681526020019081526020016000208481548110151561203657fe5b6000918252602080832090910192909255600160a060020a038716815260079091526040812080548490811061206857fe5b6000918252602080832090910192909255600160a060020a038716815260079091526040902080549061209f906000198301612cb3565b50600093845260086020526040808520859055908452909220555050565b60006120c983836127c0565b50600160a060020a039091166000908152600760209081526040808320805460018101825590845282842081018590559383526008909152902055565b60008282111561211257fe5b50900390565b60008060006121278585612850565b6000848152600b60205260409020546002600019610100600184161502019091160415612165576000848152600b6020526040812061216591612cd7565b6000848152600a602052604090205460095490935061218b90600163ffffffff61210616565b915060098281548110151561219c57fe5b90600052602060002001549050806009848154811015156121b957fe5b600091825260208220019190915560098054849081106121d557fe5b60009182526020909120015560098054906121f4906000198301612cb3565b506000938452600a6020526040808520859055908452909220555050565b60008061222785600160a060020a03166128a0565b15156122365760019150612376565b6040517f150b7a020000000000000000000000000000000000000000000000000000000081523360048201818152600160a060020a03898116602485015260448401889052608060648501908152875160848601528751918a169463150b7a0294938c938b938b93909160a490910190602085019080838360005b838110156122c95781810151838201526020016122b1565b50505050905090810190601f1680156122f65780820380516001836020036101000a031916815260200191505b5095505050505050602060405180830381600087803b15801561231857600080fd5b505af115801561232c573d6000803e3d6000fd5b505050506040513d602081101561234257600080fd5b5051600160e060020a031981167f150b7a020000000000000000000000000000000000000000000000000000000014925090505b50949350505050565b606061238a82611381565b151561239557600080fd5b6000828152600b602090815260409182902080548351601f6002600019610100600186161502019093169290920491820184900484028101840190945280845290918301828280156114335780601f106123fd57610100808354040283529160200191611433565b820191906000526020600020905b81548152906001019060200180831161240b5750939695505050505050565b60408051602081810183526000808352835180830185528181528451928301909452815260609261245f9286928692906128a8565b9392505050565b600160a060020a038116151561247b57600080fd5b600c54604051600160a060020a038084169216907f8be0079c531659141344cd1fd0a4f28419497f9722a3daafe3b4186f6b6457e090600090a3600c805473ffffffffffffffffffffffffffffffffffffffff1916600160a060020a0392909216919091179055565b600060608183116124f457600080fd5b60135461250890600163ffffffff611d3e16565b601381905560408051438690034060208201526c01000000000000000000000000330281830152605480820193909352815180820390930183526074019052905061255284611a37565b816040518082805190602001908083835b602083106125825780518252601f199092019160209182019101612563565b5181516020939093036101000a60001901801990911692169190911790526040519201829003909120925050508115156125b857fe5b06949350505050565b600060016125ce84611a37565b039050808211156125de57600080fd5b60008381526017602052604090208054829081106125f857fe5b9060005260206000209060060201601760008581526020019081526020016000208381548110151561262657fe5b60009182526020909120825460069092020190815560018083015481830155600280840154818401556003808501549084015560048085015490840155600580850180546126869492860193919281161561010002600019011604612d1b565b505050600083815260176020526040902080549061136e906000198301612d90565b6126b28282612b09565b600980546000838152600a60205260408120829055600182018355919091527f6e1540171b6c0c960b71a7020d9f60077f6af931a8bbf590da0223dacf75c7af015550565b61270082611381565b151561270b57600080fd5b6000828152600b6020908152604090912082516118b292840190612b8d565b81600160a060020a031661273d826116c9565b600160a060020a03161461275057600080fd5b600160a060020a03821660009081526003602052604090205461277a90600163ffffffff61210616565b600160a060020a03909216600090815260036020908152604080832094909455918152600190915220805473ffffffffffffffffffffffffffffffffffffffff19169055565b600081815260016020526040902054600160a060020a0316156127e257600080fd5b6000818152600160208181526040808420805473ffffffffffffffffffffffffffffffffffffffff1916600160a060020a038816908117909155845260039091529091205461283091611d3e565b600160a060020a0390921660009081526003602052604090209190915550565b61285a8282611f13565b6128648282611f84565b6040518190600090600160a060020a038516907fddf252ad1be2c89b69c2b068fc378daa952ba7f163c4a11628f55a4df523b3ef908390a45050565b6000903b1190565b6060806060806060806060806000808e98508d97508c96508b95508a94508451865188518a518c51010101016040519080825280601f01601f191660200182016040528015612901578160200160208202803883390190505b50935083925060009150600090505b885181101561296e57888181518110151561292757fe5b90602001015160f860020a900460f860020a02838380600101945081518110151561294e57fe5b906020010190600160f860020a031916908160001a905350600101612910565b5060005b87518110156129d057878181518110151561298957fe5b90602001015160f860020a900460f860020a0283838060010194508151811015156129b057fe5b906020010190600160f860020a031916908160001a905350600101612972565b5060005b8651811015612a325786818151811015156129eb57fe5b90602001015160f860020a900460f860020a028383806001019450815181101515612a1257fe5b906020010190600160f860020a031916908160001a9053506001016129d4565b5060005b8551811015612a94578581815181101515612a4d57fe5b90602001015160f860020a900460f860020a028383806001019450815181101515612a7457fe5b906020010190600160f860020a031916908160001a905350600101612a36565b5060005b8451811015612af6578481815181101515612aaf57fe5b90602001015160f860020a900460f860020a028383806001019450815181101515612ad657fe5b906020010190600160f860020a031916908160001a905350600101612a98565b50909d9c50505050505050505050505050565b600160a060020a0382161515612b1e57600080fd5b612b2882826120bd565b6040518190600160a060020a038416906000907fddf252ad1be2c89b69c2b068fc378daa952ba7f163c4a11628f55a4df523b3ef908290a45050565b608060405190810160405280600081526020016060815260200160608152602001606081525090565b828054600181600116156101000203166002900490600052602060002090601f016020900481019282601f10612bce57805160ff1916838001178555612bfb565b82800160010185558215612bfb579182015b82811115612bfb578251825591602001919060010190612be0565b50612c07929150612dbc565b5090565b60c0604051908101604052806000815260200160008152602001600081526020016000815260200160008019168152602001606081525090565b828054600181600116156101000203166002900490600052602060002090601f016020900481019282601f10612c865782800160ff19823516178555612bfb565b82800160010185558215612bfb579182015b82811115612bfb578235825591602001919060010190612c98565b8154818355818111156118b2576000838152602090206118b2918101908301612dbc565b50805460018160011615610100020316600290046000825580601f10612cfd575061137e565b601f01602090049060005260206000209081019061137e9190612dbc565b828054600181600116156101000203166002900490600052602060002090601f016020900481019282601f10612d545780548555612bfb565b82800160010185558215612bfb57600052602060002091601f016020900482015b82811115612bfb578254825591600101919060010190612d75565b8154818355818111156118b2576006028160060283600052602060002091820191016118b29190612dd6565b610ec991905b80821115612c075760008155600101612dc2565b610ec991905b80821115612c0757600080825560018201819055600282018190556003820181905560048201819055612e126005830182612cd7565b50600601612ddc5600a165627a7a72305820426313f85cfc74dd2482ec8950e160eae47b55395bd1172cb13ffa17edcd83390029",
  "source": "pragma solidity ^0.4.24;\n\nimport \"./Strings.sol\";\n\nimport 'openzeppelin-solidity/contracts/ownership/Ownable.sol';\nimport 'openzeppelin-solidity/contracts/math/SafeMath.sol';\nimport 'openzeppelin-solidity/contracts/token/ERC721/ERC721Token.sol';\n\n/**\n* @title KOTA aka KnownOrigin Trading Assets\n*\n* max 999 cards per box\n* max 999 minted per card\n*/\ncontract KOTA is ERC721Token, Ownable {\n  using SafeMath for uint256;\n\n  event CardMinted(address indexed _owner, uint256 indexed _tokenId, bytes32 _name, uint32 _mintTime);\n  event CardSetSoldOut(uint256 indexed _cardNumber, uint32 _soldOutTime);\n  event CardPackBought(address indexed _owner, uint32 _boughtTime);\n  event CardPackRedeemed(address indexed _owner, uint32 _giftTime);\n\n  string internal tokenBaseURI = \"https://ipfs.infura.io/ipfs/\";\n\n  uint256 public costOfPack = 0.01 ether;\n  uint8 constant public cardsPerPack = 4;\n\n  uint256 public totalCardsInCirculation = 0;\n  uint256 public totalCardsInCirculationSold = 0;\n  uint256 public totalWei = 0;\n\n  uint256 public defaultBoxNumber = 1000000;\n\n  uint256 internal randNonce = 0;\n\n  mapping(address => uint) public credits;\n\n  // TODO add cost and cards per pack\n  struct Box {\n    uint256 boxNumber;\n    string title;\n    string description;\n    string boxURI;\n  }\n\n  // TODO add artist share and artist address\n  struct CardSet {\n    uint256 boxNumber;\n    uint256 cardNumber;\n    uint256 totalSupply;\n    uint256 minted;\n    bytes32 cardName;\n    string cardURI;\n  }\n  mapping(uint256 => Box) public boxNumberToBox;\n\n  mapping(uint256 => CardSet) public boxCardNumberToCardSet;\n\n  mapping(uint256 => CardSet[]) internal boxNumberToCardSetCirculation;\n  mapping(uint256 => uint256[]) internal boxNumberToCardNumbers;\n\n  mapping(uint256 => uint256) public boxNumberToCardsInCirculation;\n  mapping(uint256 => uint256) public boxNumberToCardsInCirculationSold;\n\n  uint256[] internal boxNumbers;\n\n  constructor() public ERC721Token(\"KOTA\", \"KOTA\") {}\n\n  // can buy direct from contract if you send enough ether\n  function() public payable {\n    buyPack(defaultBoxNumber);\n  }\n\n  function addBox(uint256 _boxNumber, string _title, string _description, string _boxUri) public onlyOwner {\n    Box memory _newBox = Box(_boxNumber, _title, _description, _boxUri);\n\n    boxNumberToBox[_boxNumber] = _newBox;\n    boxNumbers.push(_boxNumber);\n  }\n\n  function addCardSet(uint256 _boxNumber, uint256 _cardNumber, uint256 _totalSupply, bytes32 _cardName, string _cardUri) public onlyOwner {\n    require(boxNumberToBox[_boxNumber].boxNumber > 0, \"Box should exist\");\n\n    uint256 _boxCardNumber = _boxNumber.add(_cardNumber);\n    require(boxCardNumberToCardSet[_boxCardNumber].cardNumber == 0, \"Card Set should not exist\");\n\n    // add new card set by boxCardNumber\n    CardSet memory _newCardSet = CardSet(_boxNumber, _cardNumber, _totalSupply, 0, _cardName, _cardUri);\n    boxCardNumberToCardSet[_boxCardNumber] = _newCardSet;\n\n    // add to box circulation\n    boxNumberToCardSetCirculation[_boxNumber].push(_newCardSet);\n    boxNumberToCardNumbers[_boxNumber].push(_cardNumber);\n\n    boxNumberToCardsInCirculation[_boxNumber] = boxNumberToCardsInCirculation[_boxNumber].add(_totalSupply);\n    totalCardsInCirculation = totalCardsInCirculation.add(_totalSupply);\n  }\n\n  /**\n   * @dev mints a single card\n   * @param _to who will get the card\n   * @param _boxNumber box number of card to mint\n   * @param _cardNumber card number of the card set to transfer\n   */\n  function mint(address _to, uint256 _boxNumber, uint256 _cardNumber) public onlyOwner {\n    uint256 _boxCardNumber = _boxNumber.add(_cardNumber);\n    require(boxCardNumberToCardSet[_boxCardNumber].boxNumber > 0); // ensure real card set\n\n    CardSet storage cardSet = boxCardNumberToCardSet[_boxCardNumber];\n\n    // don't transfer last card!\n    // buyPack removes from circulation via index - we don't know index here...\n    require(cardSet.minted.add(1) < cardSet.totalSupply);\n\n    boxNumberToCardsInCirculationSold[_boxNumber] = boxNumberToCardsInCirculationSold[_boxNumber].add(1);\n    totalCardsInCirculationSold = totalCardsInCirculationSold.add(1);\n\n    _mint(_to, cardSet);\n  }\n\n  /**\n   * @dev Buys a pack of cards\n   */\n  function buyPack(uint256 _boxNumber) public payable {\n    require(msg.value >= costOfPack);\n    require(cardSetsInCirculation(_boxNumber) > 0);\n\n    _randomPack(_boxNumber);\n\n    // reconcile payments\n    owner.transfer(costOfPack);\n    totalWei = totalWei.add(costOfPack);\n\n    // give back the change - if any\n    msg.sender.transfer(msg.value - costOfPack);\n    emit CardPackBought(msg.sender, uint32(now));\n  }\n\n  /**\n   * @dev Redeem a pack of cards (via a credit)\n   */\n  function redeemPack(uint256 _boxNumber) public {\n    require(credits[msg.sender] > 0);\n\n    // remove credit\n    credits[msg.sender] = credits[msg.sender].sub(1);\n\n    _randomPack(_boxNumber);\n\n    emit CardPackRedeemed(msg.sender, uint32(now));\n  }\n\n  function burn(uint256 _tokenId) public {\n    super._burn(msg.sender, _tokenId);\n  }\n\n  /**\n   * @dev Return owned tokens\n   * @param _owner address to query\n   */\n  function tokensOf(address _owner) public view returns (uint256[] _tokenIds) {\n    return ownedTokens[_owner];\n  }\n\n  /**\n   * @dev All box numbers\n   */\n  function allBoxNumbers() public view returns (uint256[] _boxNumbers) {\n    return boxNumbers;\n  }\n\n  /**\n   * @dev number of card sets in circulation for a box\n   * @param _boxNumber box number of card sets\n   */\n  function cardSetsInCirculation(uint256 _boxNumber) public view returns (uint256 _cardSetCirculationLength) {\n    return boxNumberToCardSetCirculation[_boxNumber].length;\n  }\n\n  /**\n   * @dev card numbers for a box\n   * @param _boxNumber box number of card sets\n   */\n  function cardNumbersOf(uint256 _boxNumber) public view returns (uint256[] _cardNumbersArray) {\n    return boxNumberToCardNumbers[_boxNumber];\n  }\n\n  /**\n   * @dev checks for owned tokens\n   * @param _owner address to query\n   */\n  function hasTokens(address _owner) public constant returns (bool) {\n    return ownedTokens[_owner].length > 0;\n  }\n\n  /**\n   * @dev Utility function changing the cost of the pack\n   * @dev Reverts if not called by owner\n   * @param _costOfPack cost in wei\n   */\n  function setCostOfPack(uint256 _costOfPack) external onlyOwner {\n    costOfPack = _costOfPack;\n  }\n\n  /**\n   * @dev Utility function to credit address with packs they can redeem\n   * @dev Reverts if not called by owner\n   * @param _recipient receiver of credit\n   */\n  function addCredit(address _recipient) external onlyOwner {\n    credits[_recipient] = credits[_recipient].add(1);\n  }\n\n  /**\n   * @dev Get token URI fro the given token, useful for testing purposes\n   * @param _tokenId the token ID\n   * @return the token ID or only the base URI if not found\n   */\n  function tokenURI(uint256 _tokenId) public view returns (string) {\n    return Strings.strConcat(tokenBaseURI, super.tokenURI(_tokenId));\n  }\n\n  /**\n   * @dev Allows management to update the base tokenURI path\n   * @dev Reverts if not called by owner\n   * @param _newBaseURI the new base URI to set\n   */\n  function setTokenBaseURI(string _newBaseURI) external onlyOwner {\n    tokenBaseURI = _newBaseURI;\n  }\n\n  function _randomPack(uint256 _boxNumber) internal {\n    // thanks CryptoStrikers!\n    require(msg.sender == tx.origin);\n\n    for (uint i = 0; i < cardsPerPack; i++) {\n      uint _index = _randomCardSetIndex(_boxNumber, i + 1);\n      CardSet storage pickedSet = boxNumberToCardSetCirculation[_boxNumber][_index];\n\n      _mint(msg.sender, pickedSet);\n\n      // remove from circulation if minted == totalSupply\n      if (pickedSet.minted == pickedSet.totalSupply) {\n        _removeCardSetAtIndex(_boxNumber, _index);\n        emit CardSetSoldOut(pickedSet.cardNumber, uint32(now));\n      }\n    }\n\n    boxNumberToCardsInCirculationSold[_boxNumber] = boxNumberToCardsInCirculationSold[_boxNumber].add(cardsPerPack);\n    totalCardsInCirculationSold = totalCardsInCirculationSold.add(cardsPerPack);\n  }\n\n  function _randomCardSetIndex(uint256 _boxNumber, uint _index) internal returns (uint) {\n    require(_index > 0);\n\n    randNonce = randNonce.add(1);\n    bytes memory packed = abi.encodePacked(blockhash(block.number - _index), msg.sender, randNonce);\n    return uint256(keccak256(packed)) % cardSetsInCirculation(_boxNumber);\n  }\n\n  function _mint(address _to, CardSet storage _cardSet) internal {\n    // ensure valid card set\n    require(_cardSet.totalSupply > 0);\n    require(_cardSet.minted <= _cardSet.totalSupply);\n\n    _cardSet.minted = _cardSet.minted.add(1);\n    uint256 cardSerialNumber = _cardSet.boxNumber.add(_cardSet.cardNumber).add(_cardSet.minted);\n\n    super._mint(_to, cardSerialNumber);\n    super._setTokenURI(cardSerialNumber, _cardSet.cardURI);\n\n    emit CardMinted(_to, cardSerialNumber, _cardSet.cardName, uint32(now));\n  }\n\n  function _removeCardSetAtIndex(uint256 _boxNumber, uint256 _index) internal {\n    uint lastIndex = cardSetsInCirculation(_boxNumber) - 1;\n    require(_index <= lastIndex);\n\n    boxNumberToCardSetCirculation[_boxNumber][_index] = boxNumberToCardSetCirculation[_boxNumber][lastIndex];\n    boxNumberToCardSetCirculation[_boxNumber].length--;\n  }\n}\n",
  "sourcePath": "/Users/andy/workspace/cbfc/contracts/KOTA.sol",
  "compiler": {
    "name": "solc",
    "version": "0.4.24+commit.e67f0147.Emscripten.clang"
  },
  "schemaVersion": "2.0.1",
  "updatedAt": "2018-08-15T10:44:37.935Z"
}