{
  "contractName": "KOTA",
  "abi": [
    {
      "constant": true,
      "inputs": [
        {
          "name": "_interfaceId",
          "type": "bytes4"
        }
      ],
      "name": "supportsInterface",
      "outputs": [
        {
          "name": "",
          "type": "bool"
        }
      ],
      "payable": false,
      "stateMutability": "view",
      "type": "function"
    },
    {
      "constant": true,
      "inputs": [],
      "name": "name",
      "outputs": [
        {
          "name": "",
          "type": "string"
        }
      ],
      "payable": false,
      "stateMutability": "view",
      "type": "function"
    },
    {
      "constant": true,
      "inputs": [
        {
          "name": "_tokenId",
          "type": "uint256"
        }
      ],
      "name": "getApproved",
      "outputs": [
        {
          "name": "",
          "type": "address"
        }
      ],
      "payable": false,
      "stateMutability": "view",
      "type": "function"
    },
    {
      "constant": false,
      "inputs": [
        {
          "name": "_to",
          "type": "address"
        },
        {
          "name": "_tokenId",
          "type": "uint256"
        }
      ],
      "name": "approve",
      "outputs": [],
      "payable": false,
      "stateMutability": "nonpayable",
      "type": "function"
    },
    {
      "constant": true,
      "inputs": [],
      "name": "totalSupply",
      "outputs": [
        {
          "name": "",
          "type": "uint256"
        }
      ],
      "payable": false,
      "stateMutability": "view",
      "type": "function"
    },
    {
      "constant": true,
      "inputs": [],
      "name": "InterfaceId_ERC165",
      "outputs": [
        {
          "name": "",
          "type": "bytes4"
        }
      ],
      "payable": false,
      "stateMutability": "view",
      "type": "function"
    },
    {
      "constant": false,
      "inputs": [
        {
          "name": "_from",
          "type": "address"
        },
        {
          "name": "_to",
          "type": "address"
        },
        {
          "name": "_tokenId",
          "type": "uint256"
        }
      ],
      "name": "transferFrom",
      "outputs": [],
      "payable": false,
      "stateMutability": "nonpayable",
      "type": "function"
    },
    {
      "constant": true,
      "inputs": [
        {
          "name": "_owner",
          "type": "address"
        },
        {
          "name": "_index",
          "type": "uint256"
        }
      ],
      "name": "tokenOfOwnerByIndex",
      "outputs": [
        {
          "name": "",
          "type": "uint256"
        }
      ],
      "payable": false,
      "stateMutability": "view",
      "type": "function"
    },
    {
      "constant": false,
      "inputs": [
        {
          "name": "_from",
          "type": "address"
        },
        {
          "name": "_to",
          "type": "address"
        },
        {
          "name": "_tokenId",
          "type": "uint256"
        }
      ],
      "name": "safeTransferFrom",
      "outputs": [],
      "payable": false,
      "stateMutability": "nonpayable",
      "type": "function"
    },
    {
      "constant": true,
      "inputs": [
        {
          "name": "_tokenId",
          "type": "uint256"
        }
      ],
      "name": "exists",
      "outputs": [
        {
          "name": "",
          "type": "bool"
        }
      ],
      "payable": false,
      "stateMutability": "view",
      "type": "function"
    },
    {
      "constant": true,
      "inputs": [
        {
          "name": "_index",
          "type": "uint256"
        }
      ],
      "name": "tokenByIndex",
      "outputs": [
        {
          "name": "",
          "type": "uint256"
        }
      ],
      "payable": false,
      "stateMutability": "view",
      "type": "function"
    },
    {
      "constant": true,
      "inputs": [
        {
          "name": "_tokenId",
          "type": "uint256"
        }
      ],
      "name": "ownerOf",
      "outputs": [
        {
          "name": "",
          "type": "address"
        }
      ],
      "payable": false,
      "stateMutability": "view",
      "type": "function"
    },
    {
      "constant": true,
      "inputs": [],
      "name": "cardsPerPack",
      "outputs": [
        {
          "name": "",
          "type": "uint8"
        }
      ],
      "payable": false,
      "stateMutability": "view",
      "type": "function"
    },
    {
      "constant": true,
      "inputs": [],
      "name": "totalWei",
      "outputs": [
        {
          "name": "",
          "type": "uint256"
        }
      ],
      "payable": false,
      "stateMutability": "view",
      "type": "function"
    },
    {
      "constant": true,
      "inputs": [
        {
          "name": "_owner",
          "type": "address"
        }
      ],
      "name": "balanceOf",
      "outputs": [
        {
          "name": "",
          "type": "uint256"
        }
      ],
      "payable": false,
      "stateMutability": "view",
      "type": "function"
    },
    {
      "constant": false,
      "inputs": [],
      "name": "renounceOwnership",
      "outputs": [],
      "payable": false,
      "stateMutability": "nonpayable",
      "type": "function"
    },
    {
      "constant": true,
      "inputs": [],
      "name": "owner",
      "outputs": [
        {
          "name": "",
          "type": "address"
        }
      ],
      "payable": false,
      "stateMutability": "view",
      "type": "function"
    },
    {
      "constant": true,
      "inputs": [],
      "name": "totalCardsInCirculation",
      "outputs": [
        {
          "name": "",
          "type": "uint256"
        }
      ],
      "payable": false,
      "stateMutability": "view",
      "type": "function"
    },
    {
      "constant": true,
      "inputs": [],
      "name": "symbol",
      "outputs": [
        {
          "name": "",
          "type": "string"
        }
      ],
      "payable": false,
      "stateMutability": "view",
      "type": "function"
    },
    {
      "constant": true,
      "inputs": [],
      "name": "defaultBoxNumber",
      "outputs": [
        {
          "name": "",
          "type": "uint256"
        }
      ],
      "payable": false,
      "stateMutability": "view",
      "type": "function"
    },
    {
      "constant": false,
      "inputs": [
        {
          "name": "_to",
          "type": "address"
        },
        {
          "name": "_approved",
          "type": "bool"
        }
      ],
      "name": "setApprovalForAll",
      "outputs": [],
      "payable": false,
      "stateMutability": "nonpayable",
      "type": "function"
    },
    {
      "constant": false,
      "inputs": [
        {
          "name": "_from",
          "type": "address"
        },
        {
          "name": "_to",
          "type": "address"
        },
        {
          "name": "_tokenId",
          "type": "uint256"
        },
        {
          "name": "_data",
          "type": "bytes"
        }
      ],
      "name": "safeTransferFrom",
      "outputs": [],
      "payable": false,
      "stateMutability": "nonpayable",
      "type": "function"
    },
    {
      "constant": true,
      "inputs": [],
      "name": "costOfPack",
      "outputs": [
        {
          "name": "",
          "type": "uint256"
        }
      ],
      "payable": false,
      "stateMutability": "view",
      "type": "function"
    },
    {
      "constant": true,
      "inputs": [],
      "name": "totalCardsInCirculationSold",
      "outputs": [
        {
          "name": "",
          "type": "uint256"
        }
      ],
      "payable": false,
      "stateMutability": "view",
      "type": "function"
    },
    {
      "constant": true,
      "inputs": [
        {
          "name": "",
          "type": "uint256"
        }
      ],
      "name": "boxCardNumberToCardSet",
      "outputs": [
        {
          "name": "boxNumber",
          "type": "uint256"
        },
        {
          "name": "cardNumber",
          "type": "uint256"
        },
        {
          "name": "totalSupply",
          "type": "uint256"
        },
        {
          "name": "minted",
          "type": "uint256"
        },
        {
          "name": "cardName",
          "type": "bytes32"
        },
        {
          "name": "cardURI",
          "type": "string"
        }
      ],
      "payable": false,
      "stateMutability": "view",
      "type": "function"
    },
    {
      "constant": true,
      "inputs": [
        {
          "name": "_owner",
          "type": "address"
        },
        {
          "name": "_operator",
          "type": "address"
        }
      ],
      "name": "isApprovedForAll",
      "outputs": [
        {
          "name": "",
          "type": "bool"
        }
      ],
      "payable": false,
      "stateMutability": "view",
      "type": "function"
    },
    {
      "constant": false,
      "inputs": [
        {
          "name": "_newOwner",
          "type": "address"
        }
      ],
      "name": "transferOwnership",
      "outputs": [],
      "payable": false,
      "stateMutability": "nonpayable",
      "type": "function"
    },
    {
      "constant": true,
      "inputs": [
        {
          "name": "",
          "type": "address"
        }
      ],
      "name": "credits",
      "outputs": [
        {
          "name": "",
          "type": "uint256"
        }
      ],
      "payable": false,
      "stateMutability": "view",
      "type": "function"
    },
    {
      "inputs": [],
      "payable": false,
      "stateMutability": "nonpayable",
      "type": "constructor"
    },
    {
      "payable": true,
      "stateMutability": "payable",
      "type": "fallback"
    },
    {
      "anonymous": false,
      "inputs": [
        {
          "indexed": true,
          "name": "_owner",
          "type": "address"
        },
        {
          "indexed": true,
          "name": "_tokenId",
          "type": "uint256"
        },
        {
          "indexed": false,
          "name": "_name",
          "type": "bytes32"
        },
        {
          "indexed": false,
          "name": "_mintTime",
          "type": "uint32"
        }
      ],
      "name": "CardMinted",
      "type": "event"
    },
    {
      "anonymous": false,
      "inputs": [
        {
          "indexed": true,
          "name": "_cardNumber",
          "type": "uint256"
        },
        {
          "indexed": false,
          "name": "_soldOutTime",
          "type": "uint32"
        }
      ],
      "name": "CardSetSoldOut",
      "type": "event"
    },
    {
      "anonymous": false,
      "inputs": [
        {
          "indexed": true,
          "name": "_owner",
          "type": "address"
        },
        {
          "indexed": false,
          "name": "_boughtTime",
          "type": "uint32"
        }
      ],
      "name": "CardPackBought",
      "type": "event"
    },
    {
      "anonymous": false,
      "inputs": [
        {
          "indexed": true,
          "name": "_owner",
          "type": "address"
        },
        {
          "indexed": false,
          "name": "_giftTime",
          "type": "uint32"
        }
      ],
      "name": "CardPackRedeemed",
      "type": "event"
    },
    {
      "anonymous": false,
      "inputs": [
        {
          "indexed": true,
          "name": "previousOwner",
          "type": "address"
        }
      ],
      "name": "OwnershipRenounced",
      "type": "event"
    },
    {
      "anonymous": false,
      "inputs": [
        {
          "indexed": true,
          "name": "previousOwner",
          "type": "address"
        },
        {
          "indexed": true,
          "name": "newOwner",
          "type": "address"
        }
      ],
      "name": "OwnershipTransferred",
      "type": "event"
    },
    {
      "anonymous": false,
      "inputs": [
        {
          "indexed": true,
          "name": "_from",
          "type": "address"
        },
        {
          "indexed": true,
          "name": "_to",
          "type": "address"
        },
        {
          "indexed": true,
          "name": "_tokenId",
          "type": "uint256"
        }
      ],
      "name": "Transfer",
      "type": "event"
    },
    {
      "anonymous": false,
      "inputs": [
        {
          "indexed": true,
          "name": "_owner",
          "type": "address"
        },
        {
          "indexed": true,
          "name": "_approved",
          "type": "address"
        },
        {
          "indexed": true,
          "name": "_tokenId",
          "type": "uint256"
        }
      ],
      "name": "Approval",
      "type": "event"
    },
    {
      "anonymous": false,
      "inputs": [
        {
          "indexed": true,
          "name": "_owner",
          "type": "address"
        },
        {
          "indexed": true,
          "name": "_operator",
          "type": "address"
        },
        {
          "indexed": false,
          "name": "_approved",
          "type": "bool"
        }
      ],
      "name": "ApprovalForAll",
      "type": "event"
    },
    {
      "constant": false,
      "inputs": [
        {
          "name": "_boxNumber",
          "type": "uint256"
        },
        {
          "name": "_cardNumber",
          "type": "uint256"
        },
        {
          "name": "_totalSupply",
          "type": "uint256"
        },
        {
          "name": "_cardName",
          "type": "bytes32"
        },
        {
          "name": "_cardUri",
          "type": "string"
        }
      ],
      "name": "addCardSet",
      "outputs": [],
      "payable": false,
      "stateMutability": "nonpayable",
      "type": "function"
    },
    {
      "constant": false,
      "inputs": [
        {
          "name": "_to",
          "type": "address"
        },
        {
          "name": "_boxNumber",
          "type": "uint256"
        },
        {
          "name": "_cardNumber",
          "type": "uint256"
        }
      ],
      "name": "mint",
      "outputs": [],
      "payable": false,
      "stateMutability": "nonpayable",
      "type": "function"
    },
    {
      "constant": false,
      "inputs": [
        {
          "name": "_boxNumber",
          "type": "uint256"
        }
      ],
      "name": "buyPack",
      "outputs": [],
      "payable": true,
      "stateMutability": "payable",
      "type": "function"
    },
    {
      "constant": false,
      "inputs": [
        {
          "name": "_boxNumber",
          "type": "uint256"
        }
      ],
      "name": "redeemPack",
      "outputs": [],
      "payable": false,
      "stateMutability": "nonpayable",
      "type": "function"
    },
    {
      "constant": false,
      "inputs": [
        {
          "name": "_tokenId",
          "type": "uint256"
        }
      ],
      "name": "burn",
      "outputs": [],
      "payable": false,
      "stateMutability": "nonpayable",
      "type": "function"
    },
    {
      "constant": true,
      "inputs": [
        {
          "name": "_owner",
          "type": "address"
        }
      ],
      "name": "tokensOf",
      "outputs": [
        {
          "name": "_tokenIds",
          "type": "uint256[]"
        }
      ],
      "payable": false,
      "stateMutability": "view",
      "type": "function"
    },
    {
      "constant": true,
      "inputs": [],
      "name": "allBoxNumbers",
      "outputs": [
        {
          "name": "_boxNumbers",
          "type": "uint256[]"
        }
      ],
      "payable": false,
      "stateMutability": "view",
      "type": "function"
    },
    {
      "constant": true,
      "inputs": [
        {
          "name": "_boxNumber",
          "type": "uint256"
        }
      ],
      "name": "cardSetsInCirculation",
      "outputs": [
        {
          "name": "_cardSetCirculationLength",
          "type": "uint256"
        }
      ],
      "payable": false,
      "stateMutability": "view",
      "type": "function"
    },
    {
      "constant": true,
      "inputs": [
        {
          "name": "_boxNumber",
          "type": "uint256"
        }
      ],
      "name": "cardNumbersOf",
      "outputs": [
        {
          "name": "_cardNumbersLength",
          "type": "uint256"
        }
      ],
      "payable": false,
      "stateMutability": "view",
      "type": "function"
    },
    {
      "constant": true,
      "inputs": [
        {
          "name": "_owner",
          "type": "address"
        }
      ],
      "name": "hasTokens",
      "outputs": [
        {
          "name": "",
          "type": "bool"
        }
      ],
      "payable": false,
      "stateMutability": "view",
      "type": "function"
    },
    {
      "constant": false,
      "inputs": [
        {
          "name": "_costOfPack",
          "type": "uint256"
        }
      ],
      "name": "setCostOfPack",
      "outputs": [],
      "payable": false,
      "stateMutability": "nonpayable",
      "type": "function"
    },
    {
      "constant": false,
      "inputs": [
        {
          "name": "_recipient",
          "type": "address"
        }
      ],
      "name": "addCredit",
      "outputs": [],
      "payable": false,
      "stateMutability": "nonpayable",
      "type": "function"
    },
    {
      "constant": true,
      "inputs": [
        {
          "name": "_tokenId",
          "type": "uint256"
        }
      ],
      "name": "tokenURI",
      "outputs": [
        {
          "name": "",
          "type": "string"
        }
      ],
      "payable": false,
      "stateMutability": "view",
      "type": "function"
    },
    {
      "constant": false,
      "inputs": [
        {
          "name": "_newBaseURI",
          "type": "string"
        }
      ],
      "name": "setTokenBaseURI",
      "outputs": [],
      "payable": false,
      "stateMutability": "nonpayable",
      "type": "function"
    }
  ],
  "bytecode": "0x60c0604052601c60808190527f68747470733a2f2f697066732e696e667572612e696f2f697066732f0000000060a09081526200004091600d919062000273565b50662386f26fc10000600e556000600f5560006010556000601155620f424060125560006013553480156200007457600080fd5b5060408051808201825260048082527f4b4f544100000000000000000000000000000000000000000000000000000000602080840182905284518086019095529184529083015290620000f07f01ffc9a70000000000000000000000000000000000000000000000000000000064010000000062000206810204565b620001247f80ac58cd0000000000000000000000000000000000000000000000000000000064010000000062000206810204565b620001587f4f558e790000000000000000000000000000000000000000000000000000000064010000000062000206810204565b81516200016d90600590602085019062000273565b5080516200018390600690602084019062000273565b50620001b87f780e9d630000000000000000000000000000000000000000000000000000000064010000000062000206810204565b620001ec7f5b5e139f0000000000000000000000000000000000000000000000000000000064010000000062000206810204565b5050600c8054600160a060020a0319163317905562000318565b7fffffffff0000000000000000000000000000000000000000000000000000000080821614156200023657600080fd5b7fffffffff00000000000000000000000000000000000000000000000000000000166000908152602081905260409020805460ff19166001179055565b828054600181600116156101000203166002900490600052602060002090601f016020900481019282601f10620002b657805160ff1916838001178555620002e6565b82800160010185558215620002e6579182015b82811115620002e6578251825591602001919060010190620002c9565b50620002f4929150620002f8565b5090565b6200031591905b80821115620002f45760008155600101620002ff565b90565b6127db80620003286000396000f3006080604052600436106102035763ffffffff7c010000000000000000000000000000000000000000000000000000000060003504166301ffc9a7811461021057806306fdde0314610246578063081812fc146102d0578063095ea7b314610304578063156e29f61461032857806318160ddd1461034f57806319fa8f501461037657806320f7c1c0146103a857806323b872dd146103c05780632f745c59146103ea578063367ad6ea1461040e5780633cefc1e01461042657806342842e0e1461044757806342966c68146104715780634f558e79146104895780634f6ccce7146104a15780635a3f2672146104b957806361e2eb571461052a5780636352211e14610595578063655563db146105ad5780636d98e9fc146105d857806370a08231146105ed578063715018a61461060e57806374d050fb146106235780637c334d0b1461063b5780638da5cb5b1461065c5780638ef79e911461067157806390af1333146106915780639154fb8b146106a657806395d89b41146106bb578063982620d0146106d0578063a22cb465146106e5578063b88d4fde1461070b578063c61e5be61461077a578063c87b56dd14610792578063cb361c5d146107aa578063dc45bfb3146107bf578063e77854cd146107ca578063e8bb10db146107df578063e985e9c51461089a578063f2fde38b146108c1578063fe5ff468146108e2575b61020e601254610903565b005b34801561021c57600080fd5b50610232600160e060020a0319600435166109f5565b604080519115158252519081900360200190f35b34801561025257600080fd5b5061025b610a14565b6040805160208082528351818301528351919283929083019185019080838360005b8381101561029557818101518382015260200161027d565b50505050905090810190601f1680156102c25780820380516001836020036101000a031916815260200191505b509250505060405180910390f35b3480156102dc57600080fd5b506102e8600435610aab565b60408051600160a060020a039092168252519081900360200190f35b34801561031057600080fd5b5061020e600160a060020a0360043516602435610ac6565b34801561033457600080fd5b5061020e600160a060020a0360043516602435604435610b7c565b34801561035b57600080fd5b50610364610c4f565b60408051918252519081900360200190f35b34801561038257600080fd5b5061038b610c55565b60408051600160e060020a03199092168252519081900360200190f35b3480156103b457600080fd5b5061020e600435610c79565b3480156103cc57600080fd5b5061020e600160a060020a0360043581169060243516604435610c95565b3480156103f657600080fd5b50610364600160a060020a0360043516602435610d3a565b34801561041a57600080fd5b5061020e600435610d87565b34801561043257600080fd5b50610232600160a060020a0360043516610e1a565b34801561045357600080fd5b5061020e600160a060020a0360043581169060243516604435610e36565b34801561047d57600080fd5b5061020e600435610e6e565b34801561049557600080fd5b50610232600435610e7b565b3480156104ad57600080fd5b50610364600435610e98565b3480156104c557600080fd5b506104da600160a060020a0360043516610ecd565b60408051602080825283518183015283519192839290830191858101910280838360005b838110156105165781810151838201526020016104fe565b505050509050019250505060405180910390f35b34801561053657600080fd5b50604080516020601f60843560048181013592830184900484028501840190955281845261020e948035946024803595604435956064359536959460a4949093910191908190840183828082843750949750610f399650505050505050565b3480156105a157600080fd5b506102e86004356110f8565b3480156105b957600080fd5b506105c2611122565b6040805160ff9092168252519081900360200190f35b3480156105e457600080fd5b50610364611127565b3480156105f957600080fd5b50610364600160a060020a036004351661112d565b34801561061a57600080fd5b5061020e611160565b34801561062f57600080fd5b506103646004356111ce565b34801561064757600080fd5b5061020e600160a060020a03600435166111e0565b34801561066857600080fd5b506102e861123d565b34801561067d57600080fd5b5061020e600480356024810191013561124c565b34801561069d57600080fd5b506104da611274565b3480156106b257600080fd5b506103646112cb565b3480156106c757600080fd5b5061025b6112d1565b3480156106dc57600080fd5b50610364611332565b3480156106f157600080fd5b5061020e600160a060020a03600435166024351515611338565b34801561071757600080fd5b50604080516020601f60643560048181013592830184900484028501840190955281845261020e94600160a060020a0381358116956024803590921695604435953695608494019181908401838280828437509497506113bc9650505050505050565b34801561078657600080fd5b506103646004356113f4565b34801561079e57600080fd5b5061025b600435611406565b3480156107b657600080fd5b506103646114a8565b61020e600435610903565b3480156107d657600080fd5b506103646114ae565b3480156107eb57600080fd5b506107f76004356114b4565b60405180878152602001868152602001858152602001848152602001836000191660001916815260200180602001828103825283818151815260200191508051906020019080838360005b8381101561085a578181015183820152602001610842565b50505050905090810190601f1680156108875780820380516001836020036101000a031916815260200191505b5097505050505050505060405180910390f35b3480156108a657600080fd5b50610232600160a060020a0360043581169060243516611588565b3480156108cd57600080fd5b5061020e600160a060020a03600435166115b6565b3480156108ee57600080fd5b50610364600160a060020a03600435166115d6565b600e5434101561091257600080fd5b600061091d826113f4565b1161092757600080fd5b610930816115e8565b600c54600e54604051600160a060020a039092169181156108fc0291906000818181858888f1935050505015801561096c573d6000803e3d6000fd5b50600e546011546109829163ffffffff6116fb16565b601155600e546040513391340380156108fc02916000818181858888f193505050501580156109b5573d6000803e3d6000fd5b506040805163ffffffff42168152905133917faa410191373df16155ba10f8d6e9705423d9bcfe3c1a1251ec041d47b9a59ca2919081900360200190a250565b600160e060020a03191660009081526020819052604090205460ff1690565b60058054604080516020601f6002600019610100600188161502019095169490940493840181900481028201810190925282815260609390929091830182828015610aa05780601f10610a7557610100808354040283529160200191610aa0565b820191906000526020600020905b815481529060010190602001808311610a8357829003601f168201915b505050505090505b90565b600090815260026020526040902054600160a060020a031690565b6000610ad1826110f8565b9050600160a060020a038381169082161415610aec57600080fd5b33600160a060020a0382161480610b085750610b088133611588565b1515610b1357600080fd5b600082815260026020526040808220805473ffffffffffffffffffffffffffffffffffffffff1916600160a060020a0387811691821790925591518593918516917f8c5be1e5ebec7d5bd14f71427d1e84f3dd0314c0f7b2291e5b200ac8c7c3b92591a4505050565b600c546000908190600160a060020a03163314610b9857600080fd5b610ba8848463ffffffff6116fb16565b60008181526015602052604081205491935010610bc457600080fd5b50600081815260156020526040902060028101546003820154610bee90600163ffffffff6116fb16565b10610bf857600080fd5b600084815260186020526040902054610c1890600163ffffffff6116fb16565b600085815260186020526040902055601054610c3b90600163ffffffff6116fb16565b601055610c488582611708565b5050505050565b60095490565b7f01ffc9a70000000000000000000000000000000000000000000000000000000081565b600c54600160a060020a03163314610c9057600080fd5b600e55565b80610ca03382611871565b1515610cab57600080fd5b600160a060020a0384161515610cc057600080fd5b600160a060020a0383161515610cd557600080fd5b610cdf84836118d0565b610ce98483611941565b610cf38383611a7a565b8183600160a060020a031685600160a060020a03167fddf252ad1be2c89b69c2b068fc378daa952ba7f163c4a11628f55a4df523b3ef60405160405180910390a450505050565b6000610d458361112d565b8210610d5057600080fd5b600160a060020a0383166000908152600760205260409020805483908110610d7457fe5b9060005260206000200154905092915050565b3360009081526014602052604081205411610da157600080fd5b33600090815260146020526040902054610dc290600163ffffffff611ac316565b33600090815260146020526040902055610ddb816115e8565b6040805163ffffffff42168152905133917f4d9e18eaffdad4b1ef9cf8013bc960caef57f0d97a5ea42051cd83db63613e55919081900360200190a250565b600160a060020a03166000908152600760205260408120541190565b80610e413382611871565b1515610e4c57600080fd5b610e6884848460206040519081016040528060008152506113bc565b50505050565b610e783382611ad5565b50565b600090815260016020526040902054600160a060020a0316151590565b6000610ea2610c4f565b8210610ead57600080fd5b6009805483908110610ebb57fe5b90600052602060002001549050919050565b600160a060020a038116600090815260076020908152604091829020805483518184028101840190945280845260609392830182828015610f2d57602002820191906000526020600020905b815481526020019060010190808311610f19575b50505050509050919050565b610f41612521565b600c54600090600160a060020a03163314610f5b57600080fd5b6040805160c08101825288815260208101889052908101869052600060608201526080810185905260a081018490529150610f9c878763ffffffff6116fb16565b60008181526015602090815260409182902085518155818601516001820155918501516002830155606085015160038301556080850151600483015560a085015180519394508593610ff4926005850192019061255b565b505050600087815260166020526040902054151561104257601980546001810182556000919091527f944998273e477b495144fb8794c914197f3ccb46be2900f4698fd0ef743c9695018790555b6000878152601660209081526040808320805460018181018084559286529484902087516006909202019081558684015194810194909455908501516002840155606085015160038401556080850151600484015560a085015180519193869390926110b4926005850192019061255b565b50505060008881526017602090815260408220805460018101825590835291200187905550600f546110ec908663ffffffff6116fb16565b600f5550505050505050565b600081815260016020526040812054600160a060020a031680151561111c57600080fd5b92915050565b600481565b60115481565b6000600160a060020a038216151561114457600080fd5b50600160a060020a031660009081526003602052604090205490565b600c54600160a060020a0316331461117757600080fd5b600c54604051600160a060020a03909116907ff8df31144d9c2f0f6b59d69b8b98abd5459d07f2742c4df920b25aae33c6482090600090a2600c805473ffffffffffffffffffffffffffffffffffffffff19169055565b60009081526017602052604090205490565b600c54600160a060020a031633146111f757600080fd5b600160a060020a03811660009081526014602052604090205461122190600163ffffffff6116fb16565b600160a060020a03909116600090815260146020526040902055565b600c54600160a060020a031681565b600c54600160a060020a0316331461126357600080fd5b61126f600d83836125d9565b505050565b60606019805480602002602001604051908101604052809291908181526020018280548015610aa057602002820191906000526020600020905b8154815260200190600101908083116112ae575050505050905090565b600f5481565b60068054604080516020601f6002600019610100600188161502019095169490940493840181900481028201810190925282815260609390929091830182828015610aa05780601f10610a7557610100808354040283529160200191610aa0565b60125481565b600160a060020a03821633141561134e57600080fd5b336000818152600460209081526040808320600160a060020a03871680855290835292819020805460ff1916861515908117909155815190815290519293927f17307eab39ab6107e8899845ad3d59bd9653f200f220920489ca2b5937696c31929181900390910190a35050565b816113c73382611871565b15156113d257600080fd5b6113dd858585610c95565b6113e985858585611bcf565b1515610c4857600080fd5b60009081526016602052604090205490565b600d805460408051602060026001851615610100026000190190941693909304601f810184900484028201840190925281815260609361111c93919290918301828280156114955780601f1061146a57610100808354040283529160200191611495565b820191906000526020600020905b81548152906001019060200180831161147857829003601f168201915b50505050506114a384611d3c565b611de7565b600e5481565b60105481565b6015602052806000526040600020600091509050806000015490806001015490806002015490806003015490806004015490806005018054600181600116156101000203166002900480601f01602080910402602001604051908101604052809291908181526020018280546001816001161561010002031660029004801561157e5780601f106115535761010080835404028352916020019161157e565b820191906000526020600020905b81548152906001019060200180831161156157829003601f168201915b5050505050905086565b600160a060020a03918216600090815260046020908152604080832093909416825291909152205460ff1690565b600c54600160a060020a031633146115cd57600080fd5b610e7881611e23565b60146020526000908152604090205481565b600080803332146115f857600080fd5b600092505b60048310156116af576116138484600101611ea1565b60008581526016602052604090208054919350908390811061163157fe5b9060005260206000209060060201905061164b3382611708565b8060020154816003015414156116a4576116658483611f7e565b60018101546040805163ffffffff4216815290517f9b0b9d1a520cddbaf3796589db30746775a90fc149624d9e9851630912dc04c79181900360200190a25b6001909201916115fd565b6000848152601860205260409020546116cf90600463ffffffff6116fb16565b6000858152601860205260409020556010546116f290600463ffffffff6116fb16565b60105550505050565b8181018281101561111c57fe5b600080826002015411151561171c57600080fd5b60028201546003830154111561173157600080fd5b600382015461174790600163ffffffff6116fb16565b6003830181905560018301548354611776929161176a919063ffffffff6116fb16565b9063ffffffff6116fb16565b90506117828382612065565b60058201805460408051602060026001851615610100026000190190941693909304601f810184900484028201840190925281815261181c938593919290918301828280156118125780601f106117e757610100808354040283529160200191611812565b820191906000526020600020905b8154815290600101906020018083116117f557829003601f168201915b50505050506120b4565b60048201546040805191825263ffffffff4216602083015280518392600160a060020a038716927f5d332e130eeb3924324a7454ddca461c4cd17fa86d4ad51dcceef6cc4f44772692918290030190a3505050565b60008061187d836110f8565b905080600160a060020a031684600160a060020a031614806118b8575083600160a060020a03166118ad84610aab565b600160a060020a0316145b806118c857506118c88185611588565b949350505050565b81600160a060020a03166118e3826110f8565b600160a060020a0316146118f657600080fd5b600081815260026020526040902054600160a060020a03161561193d576000818152600260205260409020805473ffffffffffffffffffffffffffffffffffffffff191690555b5050565b600080600061195085856120e7565b600084815260086020908152604080832054600160a060020a038916845260079092529091205490935061198b90600163ffffffff611ac316565b600160a060020a0386166000908152600760205260409020805491935090839081106119b357fe5b90600052602060002001549050806007600087600160a060020a0316600160a060020a03168152602001908152602001600020848154811015156119f357fe5b6000918252602080832090910192909255600160a060020a0387168152600790915260408120805484908110611a2557fe5b6000918252602080832090910192909255600160a060020a0387168152600790915260409020805490611a5c906000198301612647565b50600093845260086020526040808520859055908452909220555050565b6000611a86838361217d565b50600160a060020a039091166000908152600760209081526040808320805460018101825590845282842081018590559383526008909152902055565b600082821115611acf57fe5b50900390565b6000806000611ae4858561220d565b6000848152600b60205260409020546002600019610100600184161502019091160415611b22576000848152600b60205260408120611b229161266b565b6000848152600a6020526040902054600954909350611b4890600163ffffffff611ac316565b9150600982815481101515611b5957fe5b9060005260206000200154905080600984815481101515611b7657fe5b60009182526020822001919091556009805484908110611b9257fe5b6000918252602090912001556009805490611bb1906000198301612647565b506000938452600a6020526040808520859055908452909220555050565b600080611be485600160a060020a031661225d565b1515611bf35760019150611d33565b6040517f150b7a020000000000000000000000000000000000000000000000000000000081523360048201818152600160a060020a03898116602485015260448401889052608060648501908152875160848601528751918a169463150b7a0294938c938b938b93909160a490910190602085019080838360005b83811015611c86578181015183820152602001611c6e565b50505050905090810190601f168015611cb35780820380516001836020036101000a031916815260200191505b5095505050505050602060405180830381600087803b158015611cd557600080fd5b505af1158015611ce9573d6000803e3d6000fd5b505050506040513d6020811015611cff57600080fd5b5051600160e060020a031981167f150b7a020000000000000000000000000000000000000000000000000000000014925090505b50949350505050565b6060611d4782610e7b565b1515611d5257600080fd5b6000828152600b602090815260409182902080548351601f600260001961010060018616150201909316929092049182018490048402810184019094528084529091830182828015610f2d5780601f10611dba57610100808354040283529160200191610f2d565b820191906000526020600020905b815481529060010190602001808311611dc85750939695505050505050565b604080516020818101835260008083528351808301855281815284519283019094528152606092611e1c928692869290612265565b9392505050565b600160a060020a0381161515611e3857600080fd5b600c54604051600160a060020a038084169216907f8be0079c531659141344cd1fd0a4f28419497f9722a3daafe3b4186f6b6457e090600090a3600c805473ffffffffffffffffffffffffffffffffffffffff1916600160a060020a0392909216919091179055565b60006060818311611eb157600080fd5b601354611ec590600163ffffffff6116fb16565b601381905560408051438690034060208201526c010000000000000000000000003302818301526054808201939093528151808203909301835260740190529050611f0f846113f4565b816040518082805190602001908083835b60208310611f3f5780518252601f199092019160209182019101611f20565b5181516020939093036101000a6000190180199091169216919091179052604051920182900390912092505050811515611f7557fe5b06949350505050565b60006001611f8b846113f4565b03905080821115611f9b57600080fd5b6000838152601660205260409020805482908110611fb557fe5b90600052602060002090600602016016600085815260200190815260200160002083815481101515611fe357fe5b600091825260209091208254600690920201908155600180830154818301556002808401548184015560038085015490840155600480850154908401556005808501805461204394928601939192811615610100026000190116046126af565b5050506000838152601660205260409020805490610e68906000198301612724565b61206f82826124c6565b600980546000838152600a60205260408120829055600182018355919091527f6e1540171b6c0c960b71a7020d9f60077f6af931a8bbf590da0223dacf75c7af015550565b6120bd82610e7b565b15156120c857600080fd5b6000828152600b60209081526040909120825161126f9284019061255b565b81600160a060020a03166120fa826110f8565b600160a060020a03161461210d57600080fd5b600160a060020a03821660009081526003602052604090205461213790600163ffffffff611ac316565b600160a060020a03909216600090815260036020908152604080832094909455918152600190915220805473ffffffffffffffffffffffffffffffffffffffff19169055565b600081815260016020526040902054600160a060020a03161561219f57600080fd5b6000818152600160208181526040808420805473ffffffffffffffffffffffffffffffffffffffff1916600160a060020a03881690811790915584526003909152909120546121ed916116fb565b600160a060020a0390921660009081526003602052604090209190915550565b61221782826118d0565b6122218282611941565b6040518190600090600160a060020a038516907fddf252ad1be2c89b69c2b068fc378daa952ba7f163c4a11628f55a4df523b3ef908390a45050565b6000903b1190565b6060806060806060806060806000808e98508d97508c96508b95508a94508451865188518a518c51010101016040519080825280601f01601f1916602001820160405280156122be578160200160208202803883390190505b50935083925060009150600090505b885181101561232b5788818151811015156122e457fe5b90602001015160f860020a900460f860020a02838380600101945081518110151561230b57fe5b906020010190600160f860020a031916908160001a9053506001016122cd565b5060005b875181101561238d57878181518110151561234657fe5b90602001015160f860020a900460f860020a02838380600101945081518110151561236d57fe5b906020010190600160f860020a031916908160001a90535060010161232f565b5060005b86518110156123ef5786818151811015156123a857fe5b90602001015160f860020a900460f860020a0283838060010194508151811015156123cf57fe5b906020010190600160f860020a031916908160001a905350600101612391565b5060005b855181101561245157858181518110151561240a57fe5b90602001015160f860020a900460f860020a02838380600101945081518110151561243157fe5b906020010190600160f860020a031916908160001a9053506001016123f3565b5060005b84518110156124b357848181518110151561246c57fe5b90602001015160f860020a900460f860020a02838380600101945081518110151561249357fe5b906020010190600160f860020a031916908160001a905350600101612455565b50909d9c50505050505050505050505050565b600160a060020a03821615156124db57600080fd5b6124e58282611a7a565b6040518190600160a060020a038416906000907fddf252ad1be2c89b69c2b068fc378daa952ba7f163c4a11628f55a4df523b3ef908290a45050565b60c0604051908101604052806000815260200160008152602001600081526020016000815260200160008019168152602001606081525090565b828054600181600116156101000203166002900490600052602060002090601f016020900481019282601f1061259c57805160ff19168380011785556125c9565b828001600101855582156125c9579182015b828111156125c95782518255916020019190600101906125ae565b506125d5929150612750565b5090565b828054600181600116156101000203166002900490600052602060002090601f016020900481019282601f1061261a5782800160ff198235161785556125c9565b828001600101855582156125c9579182015b828111156125c957823582559160200191906001019061262c565b81548183558181111561126f5760008381526020902061126f918101908301612750565b50805460018160011615610100020316600290046000825580601f106126915750610e78565b601f016020900490600052602060002090810190610e789190612750565b828054600181600116156101000203166002900490600052602060002090601f016020900481019282601f106126e857805485556125c9565b828001600101855582156125c957600052602060002091601f016020900482015b828111156125c9578254825591600101919060010190612709565b81548183558181111561126f5760060281600602836000526020600020918201910161126f919061276a565b610aa891905b808211156125d55760008155600101612756565b610aa891905b808211156125d5576000808255600182018190556002820181905560038201819055600482018190556127a6600583018261266b565b506006016127705600a165627a7a72305820ad9a47ca94d773248ef9403dc09dc9ffaf930f8c79689f251ef6e42226e8cc560029",
  "source": "pragma solidity ^0.4.24;\n\nimport \"./Strings.sol\";\n\nimport 'openzeppelin-solidity/contracts/ownership/Ownable.sol';\nimport 'openzeppelin-solidity/contracts/math/SafeMath.sol';\nimport 'openzeppelin-solidity/contracts/token/ERC721/ERC721Token.sol';\n\n/**\n* @title KOTA aka KnownOrigin Trading Assets\n*\n* max 999 cards per box\n* max 999 minted per card\n*/\ncontract KOTA is ERC721Token, Ownable {\n  using SafeMath for uint256;\n\n  event CardMinted(address indexed _owner, uint256 indexed _tokenId, bytes32 _name, uint32 _mintTime);\n  event CardSetSoldOut(uint256 indexed _cardNumber, uint32 _soldOutTime);\n  event CardPackBought(address indexed _owner, uint32 _boughtTime);\n  event CardPackRedeemed(address indexed _owner, uint32 _giftTime);\n\n  string internal tokenBaseURI = \"https://ipfs.infura.io/ipfs/\";\n\n  uint256 public costOfPack = 0.01 ether;\n  uint8 constant public cardsPerPack = 4;\n\n  uint256 public totalCardsInCirculation = 0;\n  uint256 public totalCardsInCirculationSold = 0;\n  uint256 public totalWei = 0;\n\n  uint256 public defaultBoxNumber = 1000000;\n\n  uint256 internal randNonce = 0;\n\n  mapping(address => uint) public credits;\n\n  // TODO add artist share and artist address\n  struct CardSet {\n    uint256 boxNumber;\n    uint256 cardNumber;\n    uint256 totalSupply;\n    uint256 minted;\n    bytes32 cardName;\n    string cardURI;\n  }\n\n  mapping(uint256 => CardSet) public boxCardNumberToCardSet;\n\n  mapping(uint256 => CardSet[]) internal boxNumberToCardSetCirculation;\n  mapping(uint256 => uint256[]) internal boxNumberToCardNumbers;\n  mapping(uint256 => uint256) internal boxNumberToCardsInCirculationSold;\n\n  uint256[] internal boxNumbers;\n\n  constructor() public ERC721Token(\"KOTA\", \"KOTA\") {}\n\n  // can buy direct from contract if you send enough ether\n  function() public payable {\n    buyPack(defaultBoxNumber);\n  }\n\n  function addCardSet(uint256 _boxNumber, uint256 _cardNumber, uint256 _totalSupply, bytes32 _cardName, string _cardUri) public onlyOwner {\n    CardSet memory newCardSet = CardSet(_boxNumber, _cardNumber, _totalSupply, 0, _cardName, _cardUri);\n\n    // add to lookup by cardNumber\n    uint256 _boxCardNumber = _boxNumber.add(_cardNumber);\n    boxCardNumberToCardSet[_boxCardNumber] = newCardSet;\n\n    // presumes you would not add new cards to the box once all sold\n    if (boxNumberToCardSetCirculation[_boxNumber].length == 0) {\n      boxNumbers.push(_boxNumber);\n    }\n\n    // add to box circulation\n    boxNumberToCardSetCirculation[_boxNumber].push(newCardSet);\n    boxNumberToCardNumbers[_boxNumber].push(_cardNumber);\n\n\n    //    // add to general circulation\n    //    cardSetCirculation.push(newCardSet);\n\n    totalCardsInCirculation = totalCardsInCirculation.add(_totalSupply);\n  }\n\n  /**\n   * @dev mints a single card\n   * @param _to who will get the card\n   * @param _boxNumber box number of card to mint\n   * @param _cardNumber card number of the card set to transfer\n   */\n  function mint(address _to, uint256 _boxNumber, uint256 _cardNumber) public onlyOwner {\n    uint256 _boxCardNumber = _boxNumber.add(_cardNumber);\n    require(boxCardNumberToCardSet[_boxCardNumber].boxNumber > 0); // ensure real card set\n\n    CardSet storage cardSet = boxCardNumberToCardSet[_boxCardNumber];\n\n    // don't transfer last card!\n    // buyPack removes from circulation via index - we don't know index here...\n    require(cardSet.minted.add(1) < cardSet.totalSupply);\n\n    boxNumberToCardsInCirculationSold[_boxNumber] = boxNumberToCardsInCirculationSold[_boxNumber].add(1);\n    totalCardsInCirculationSold = totalCardsInCirculationSold.add(1);\n\n    _mint(_to, cardSet);\n  }\n\n  /**\n   * @dev Buys a pack of cards\n   */\n  function buyPack(uint256 _boxNumber) public payable {\n    require(msg.value >= costOfPack);\n    require(cardSetsInCirculation(_boxNumber) > 0);\n\n    _randomPack(_boxNumber);\n\n    // reconcile payments\n    owner.transfer(costOfPack);\n    totalWei = totalWei.add(costOfPack);\n\n    // give back the change - if any\n    msg.sender.transfer(msg.value - costOfPack);\n    emit CardPackBought(msg.sender, uint32(now));\n  }\n\n  /**\n   * @dev Redeem a pack of cards (via a credit)\n   */\n  function redeemPack(uint256 _boxNumber) public {\n    require(credits[msg.sender] > 0);\n\n    // remove credit\n    credits[msg.sender] = credits[msg.sender].sub(1);\n\n    _randomPack(_boxNumber);\n\n    emit CardPackRedeemed(msg.sender, uint32(now));\n  }\n\n  function burn(uint256 _tokenId) public {\n    super._burn(msg.sender, _tokenId);\n  }\n\n  /**\n   * @dev Return owned tokens\n   * @param _owner address to query\n   */\n  function tokensOf(address _owner) public view returns (uint256[] _tokenIds) {\n    return ownedTokens[_owner];\n  }\n\n  /**\n   * @dev All box numbers\n   */\n  function allBoxNumbers() public view returns (uint256[] _boxNumbers) {\n    return boxNumbers;\n  }\n\n  /**\n   * @dev number of card sets in circulation for a box\n   * @param _boxNumber box number of card sets\n   */\n  function cardSetsInCirculation(uint256 _boxNumber) public view returns (uint256 _cardSetCirculationLength) {\n    return boxNumberToCardSetCirculation[_boxNumber].length;\n  }\n\n  /**\n   * @dev card numbers for a box\n   * @param _boxNumber box number of card sets\n   */\n  function cardNumbersOf(uint256 _boxNumber) public view returns (uint256 _cardNumbersLength) {\n    return boxNumberToCardNumbers[_boxNumber].length;\n  }\n\n  /**\n   * @dev checks for owned tokens\n   * @param _owner address to query\n   */\n  function hasTokens(address _owner) public constant returns (bool) {\n    return ownedTokens[_owner].length > 0;\n  }\n\n  /**\n   * @dev Utility function changing the cost of the pack\n   * @dev Reverts if not called by owner\n   * @param _costOfPack cost in wei\n   */\n  function setCostOfPack(uint256 _costOfPack) external onlyOwner {\n    costOfPack = _costOfPack;\n  }\n\n  /**\n   * @dev Utility function to credit address with packs they can redeem\n   * @dev Reverts if not called by owner\n   * @param _recipient receiver of credit\n   */\n  function addCredit(address _recipient) external onlyOwner {\n    credits[_recipient] = credits[_recipient].add(1);\n  }\n\n  /**\n   * @dev Get token URI fro the given token, useful for testing purposes\n   * @param _tokenId the token ID\n   * @return the token ID or only the base URI if not found\n   */\n  function tokenURI(uint256 _tokenId) public view returns (string) {\n    return Strings.strConcat(tokenBaseURI, super.tokenURI(_tokenId));\n  }\n\n  /**\n   * @dev Allows management to update the base tokenURI path\n   * @dev Reverts if not called by owner\n   * @param _newBaseURI the new base URI to set\n   */\n  function setTokenBaseURI(string _newBaseURI) external onlyOwner {\n    tokenBaseURI = _newBaseURI;\n  }\n\n  function _randomPack(uint256 _boxNumber) internal {\n    // thanks CryptoStrikers!\n    require(msg.sender == tx.origin);\n\n    for (uint i = 0; i < cardsPerPack; i++) {\n      uint _index = _randomCardSetIndex(_boxNumber, i + 1);\n      CardSet storage pickedSet = boxNumberToCardSetCirculation[_boxNumber][_index];\n\n      _mint(msg.sender, pickedSet);\n\n      // remove from circulation if minted == totalSupply\n      if (pickedSet.minted == pickedSet.totalSupply) {\n        _removeCardSetAtIndex(_boxNumber, _index);\n        emit CardSetSoldOut(pickedSet.cardNumber, uint32(now));\n      }\n    }\n\n    boxNumberToCardsInCirculationSold[_boxNumber] = boxNumberToCardsInCirculationSold[_boxNumber].add(cardsPerPack);\n    totalCardsInCirculationSold = totalCardsInCirculationSold.add(cardsPerPack);\n  }\n\n  function _randomCardSetIndex(uint256 _boxNumber, uint _index) internal returns (uint) {\n    require(_index > 0);\n\n    randNonce = randNonce.add(1);\n    bytes memory packed = abi.encodePacked(blockhash(block.number - _index), msg.sender, randNonce);\n    return uint256(keccak256(packed)) % cardSetsInCirculation(_boxNumber);\n  }\n\n  function _mint(address _to, CardSet storage _cardSet) internal {\n    // ensure valid card set\n    require(_cardSet.totalSupply > 0);\n    require(_cardSet.minted <= _cardSet.totalSupply);\n\n    _cardSet.minted = _cardSet.minted.add(1);\n    uint256 cardSerialNumber = _cardSet.boxNumber.add(_cardSet.cardNumber).add(_cardSet.minted);\n\n    super._mint(_to, cardSerialNumber);\n    super._setTokenURI(cardSerialNumber, _cardSet.cardURI);\n\n    emit CardMinted(_to, cardSerialNumber, _cardSet.cardName, uint32(now));\n  }\n\n  function _removeCardSetAtIndex(uint256 _boxNumber, uint256 _index) internal {\n    uint lastIndex = cardSetsInCirculation(_boxNumber) - 1;\n    require(_index <= lastIndex);\n\n    boxNumberToCardSetCirculation[_boxNumber][_index] = boxNumberToCardSetCirculation[_boxNumber][lastIndex];\n    boxNumberToCardSetCirculation[_boxNumber].length--;\n  }\n}\n",
  "sourcePath": "/Users/andy/workspace/cbfc/contracts/KOTA.sol",
  "compiler": {
    "name": "solc",
    "version": "0.4.24+commit.e67f0147.Emscripten.clang"
  },
  "schemaVersion": "2.0.1",
  "updatedAt": "2018-08-15T09:05:33.044Z"
}