{
  "contractName": "KOTA",
  "abi": [
    {
      "constant": true,
      "inputs": [
        {
          "name": "_interfaceId",
          "type": "bytes4"
        }
      ],
      "name": "supportsInterface",
      "outputs": [
        {
          "name": "",
          "type": "bool"
        }
      ],
      "payable": false,
      "stateMutability": "view",
      "type": "function"
    },
    {
      "constant": true,
      "inputs": [],
      "name": "name",
      "outputs": [
        {
          "name": "",
          "type": "string"
        }
      ],
      "payable": false,
      "stateMutability": "view",
      "type": "function"
    },
    {
      "constant": true,
      "inputs": [
        {
          "name": "_tokenId",
          "type": "uint256"
        }
      ],
      "name": "getApproved",
      "outputs": [
        {
          "name": "",
          "type": "address"
        }
      ],
      "payable": false,
      "stateMutability": "view",
      "type": "function"
    },
    {
      "constant": false,
      "inputs": [
        {
          "name": "_to",
          "type": "address"
        },
        {
          "name": "_tokenId",
          "type": "uint256"
        }
      ],
      "name": "approve",
      "outputs": [],
      "payable": false,
      "stateMutability": "nonpayable",
      "type": "function"
    },
    {
      "constant": true,
      "inputs": [
        {
          "name": "",
          "type": "uint256"
        },
        {
          "name": "",
          "type": "uint256"
        }
      ],
      "name": "boxNumberToCardSetCirculation",
      "outputs": [
        {
          "name": "boxNumber",
          "type": "uint256"
        },
        {
          "name": "cardNumber",
          "type": "uint256"
        },
        {
          "name": "totalSupply",
          "type": "uint256"
        },
        {
          "name": "minted",
          "type": "uint256"
        },
        {
          "name": "cardName",
          "type": "bytes32"
        },
        {
          "name": "cardURI",
          "type": "string"
        }
      ],
      "payable": false,
      "stateMutability": "view",
      "type": "function"
    },
    {
      "constant": true,
      "inputs": [],
      "name": "totalSupply",
      "outputs": [
        {
          "name": "",
          "type": "uint256"
        }
      ],
      "payable": false,
      "stateMutability": "view",
      "type": "function"
    },
    {
      "constant": true,
      "inputs": [],
      "name": "InterfaceId_ERC165",
      "outputs": [
        {
          "name": "",
          "type": "bytes4"
        }
      ],
      "payable": false,
      "stateMutability": "view",
      "type": "function"
    },
    {
      "constant": false,
      "inputs": [
        {
          "name": "_from",
          "type": "address"
        },
        {
          "name": "_to",
          "type": "address"
        },
        {
          "name": "_tokenId",
          "type": "uint256"
        }
      ],
      "name": "transferFrom",
      "outputs": [],
      "payable": false,
      "stateMutability": "nonpayable",
      "type": "function"
    },
    {
      "constant": true,
      "inputs": [
        {
          "name": "_owner",
          "type": "address"
        },
        {
          "name": "_index",
          "type": "uint256"
        }
      ],
      "name": "tokenOfOwnerByIndex",
      "outputs": [
        {
          "name": "",
          "type": "uint256"
        }
      ],
      "payable": false,
      "stateMutability": "view",
      "type": "function"
    },
    {
      "constant": false,
      "inputs": [
        {
          "name": "_from",
          "type": "address"
        },
        {
          "name": "_to",
          "type": "address"
        },
        {
          "name": "_tokenId",
          "type": "uint256"
        }
      ],
      "name": "safeTransferFrom",
      "outputs": [],
      "payable": false,
      "stateMutability": "nonpayable",
      "type": "function"
    },
    {
      "constant": true,
      "inputs": [
        {
          "name": "",
          "type": "uint256"
        }
      ],
      "name": "cardSets",
      "outputs": [
        {
          "name": "boxNumber",
          "type": "uint256"
        },
        {
          "name": "cardNumber",
          "type": "uint256"
        },
        {
          "name": "totalSupply",
          "type": "uint256"
        },
        {
          "name": "minted",
          "type": "uint256"
        },
        {
          "name": "cardName",
          "type": "bytes32"
        },
        {
          "name": "cardURI",
          "type": "string"
        }
      ],
      "payable": false,
      "stateMutability": "view",
      "type": "function"
    },
    {
      "constant": true,
      "inputs": [
        {
          "name": "_tokenId",
          "type": "uint256"
        }
      ],
      "name": "exists",
      "outputs": [
        {
          "name": "",
          "type": "bool"
        }
      ],
      "payable": false,
      "stateMutability": "view",
      "type": "function"
    },
    {
      "constant": true,
      "inputs": [
        {
          "name": "_index",
          "type": "uint256"
        }
      ],
      "name": "tokenByIndex",
      "outputs": [
        {
          "name": "",
          "type": "uint256"
        }
      ],
      "payable": false,
      "stateMutability": "view",
      "type": "function"
    },
    {
      "constant": true,
      "inputs": [
        {
          "name": "_tokenId",
          "type": "uint256"
        }
      ],
      "name": "ownerOf",
      "outputs": [
        {
          "name": "",
          "type": "address"
        }
      ],
      "payable": false,
      "stateMutability": "view",
      "type": "function"
    },
    {
      "constant": true,
      "inputs": [],
      "name": "cardsPerPack",
      "outputs": [
        {
          "name": "",
          "type": "uint8"
        }
      ],
      "payable": false,
      "stateMutability": "view",
      "type": "function"
    },
    {
      "constant": true,
      "inputs": [
        {
          "name": "_owner",
          "type": "address"
        }
      ],
      "name": "balanceOf",
      "outputs": [
        {
          "name": "",
          "type": "uint256"
        }
      ],
      "payable": false,
      "stateMutability": "view",
      "type": "function"
    },
    {
      "constant": false,
      "inputs": [],
      "name": "renounceOwnership",
      "outputs": [],
      "payable": false,
      "stateMutability": "nonpayable",
      "type": "function"
    },
    {
      "constant": true,
      "inputs": [
        {
          "name": "",
          "type": "uint256"
        }
      ],
      "name": "cardSetCirculation",
      "outputs": [
        {
          "name": "boxNumber",
          "type": "uint256"
        },
        {
          "name": "cardNumber",
          "type": "uint256"
        },
        {
          "name": "totalSupply",
          "type": "uint256"
        },
        {
          "name": "minted",
          "type": "uint256"
        },
        {
          "name": "cardName",
          "type": "bytes32"
        },
        {
          "name": "cardURI",
          "type": "string"
        }
      ],
      "payable": false,
      "stateMutability": "view",
      "type": "function"
    },
    {
      "constant": true,
      "inputs": [],
      "name": "owner",
      "outputs": [
        {
          "name": "",
          "type": "address"
        }
      ],
      "payable": false,
      "stateMutability": "view",
      "type": "function"
    },
    {
      "constant": true,
      "inputs": [],
      "name": "totalCardsInCirculation",
      "outputs": [
        {
          "name": "",
          "type": "uint256"
        }
      ],
      "payable": false,
      "stateMutability": "view",
      "type": "function"
    },
    {
      "constant": true,
      "inputs": [],
      "name": "symbol",
      "outputs": [
        {
          "name": "",
          "type": "string"
        }
      ],
      "payable": false,
      "stateMutability": "view",
      "type": "function"
    },
    {
      "constant": false,
      "inputs": [
        {
          "name": "_to",
          "type": "address"
        },
        {
          "name": "_approved",
          "type": "bool"
        }
      ],
      "name": "setApprovalForAll",
      "outputs": [],
      "payable": false,
      "stateMutability": "nonpayable",
      "type": "function"
    },
    {
      "constant": false,
      "inputs": [
        {
          "name": "_from",
          "type": "address"
        },
        {
          "name": "_to",
          "type": "address"
        },
        {
          "name": "_tokenId",
          "type": "uint256"
        },
        {
          "name": "_data",
          "type": "bytes"
        }
      ],
      "name": "safeTransferFrom",
      "outputs": [],
      "payable": false,
      "stateMutability": "nonpayable",
      "type": "function"
    },
    {
      "constant": true,
      "inputs": [],
      "name": "costOfPack",
      "outputs": [
        {
          "name": "",
          "type": "uint256"
        }
      ],
      "payable": false,
      "stateMutability": "view",
      "type": "function"
    },
    {
      "constant": true,
      "inputs": [],
      "name": "totalCardsInCirculationSold",
      "outputs": [
        {
          "name": "",
          "type": "uint256"
        }
      ],
      "payable": false,
      "stateMutability": "view",
      "type": "function"
    },
    {
      "constant": true,
      "inputs": [
        {
          "name": "_owner",
          "type": "address"
        },
        {
          "name": "_operator",
          "type": "address"
        }
      ],
      "name": "isApprovedForAll",
      "outputs": [
        {
          "name": "",
          "type": "bool"
        }
      ],
      "payable": false,
      "stateMutability": "view",
      "type": "function"
    },
    {
      "constant": false,
      "inputs": [
        {
          "name": "_newOwner",
          "type": "address"
        }
      ],
      "name": "transferOwnership",
      "outputs": [],
      "payable": false,
      "stateMutability": "nonpayable",
      "type": "function"
    },
    {
      "constant": true,
      "inputs": [
        {
          "name": "",
          "type": "address"
        }
      ],
      "name": "credits",
      "outputs": [
        {
          "name": "",
          "type": "uint256"
        }
      ],
      "payable": false,
      "stateMutability": "view",
      "type": "function"
    },
    {
      "inputs": [],
      "payable": false,
      "stateMutability": "nonpayable",
      "type": "constructor"
    },
    {
      "payable": true,
      "stateMutability": "payable",
      "type": "fallback"
    },
    {
      "anonymous": false,
      "inputs": [
        {
          "indexed": true,
          "name": "_owner",
          "type": "address"
        },
        {
          "indexed": true,
          "name": "_tokenId",
          "type": "uint256"
        },
        {
          "indexed": false,
          "name": "_name",
          "type": "bytes32"
        },
        {
          "indexed": false,
          "name": "_mintTime",
          "type": "uint32"
        }
      ],
      "name": "CardMinted",
      "type": "event"
    },
    {
      "anonymous": false,
      "inputs": [
        {
          "indexed": true,
          "name": "_cardNumber",
          "type": "uint256"
        },
        {
          "indexed": false,
          "name": "_soldOutTime",
          "type": "uint32"
        }
      ],
      "name": "CardSetSoldOut",
      "type": "event"
    },
    {
      "anonymous": false,
      "inputs": [
        {
          "indexed": true,
          "name": "_owner",
          "type": "address"
        },
        {
          "indexed": false,
          "name": "_boughtTime",
          "type": "uint32"
        }
      ],
      "name": "CardPackBought",
      "type": "event"
    },
    {
      "anonymous": false,
      "inputs": [
        {
          "indexed": true,
          "name": "_owner",
          "type": "address"
        },
        {
          "indexed": false,
          "name": "_giftTime",
          "type": "uint32"
        }
      ],
      "name": "CardPackRedeemed",
      "type": "event"
    },
    {
      "anonymous": false,
      "inputs": [
        {
          "indexed": true,
          "name": "previousOwner",
          "type": "address"
        }
      ],
      "name": "OwnershipRenounced",
      "type": "event"
    },
    {
      "anonymous": false,
      "inputs": [
        {
          "indexed": true,
          "name": "previousOwner",
          "type": "address"
        },
        {
          "indexed": true,
          "name": "newOwner",
          "type": "address"
        }
      ],
      "name": "OwnershipTransferred",
      "type": "event"
    },
    {
      "anonymous": false,
      "inputs": [
        {
          "indexed": true,
          "name": "_from",
          "type": "address"
        },
        {
          "indexed": true,
          "name": "_to",
          "type": "address"
        },
        {
          "indexed": true,
          "name": "_tokenId",
          "type": "uint256"
        }
      ],
      "name": "Transfer",
      "type": "event"
    },
    {
      "anonymous": false,
      "inputs": [
        {
          "indexed": true,
          "name": "_owner",
          "type": "address"
        },
        {
          "indexed": true,
          "name": "_approved",
          "type": "address"
        },
        {
          "indexed": true,
          "name": "_tokenId",
          "type": "uint256"
        }
      ],
      "name": "Approval",
      "type": "event"
    },
    {
      "anonymous": false,
      "inputs": [
        {
          "indexed": true,
          "name": "_owner",
          "type": "address"
        },
        {
          "indexed": true,
          "name": "_operator",
          "type": "address"
        },
        {
          "indexed": false,
          "name": "_approved",
          "type": "bool"
        }
      ],
      "name": "ApprovalForAll",
      "type": "event"
    },
    {
      "constant": false,
      "inputs": [
        {
          "name": "_boxNumber",
          "type": "uint256"
        },
        {
          "name": "_cardNumber",
          "type": "uint256"
        },
        {
          "name": "_totalSupply",
          "type": "uint256"
        },
        {
          "name": "_cardName",
          "type": "bytes32"
        },
        {
          "name": "_cardUri",
          "type": "string"
        }
      ],
      "name": "addCardSet",
      "outputs": [],
      "payable": false,
      "stateMutability": "nonpayable",
      "type": "function"
    },
    {
      "constant": false,
      "inputs": [
        {
          "name": "_to",
          "type": "address"
        },
        {
          "name": "_cardNumber",
          "type": "uint256"
        }
      ],
      "name": "mint",
      "outputs": [],
      "payable": false,
      "stateMutability": "nonpayable",
      "type": "function"
    },
    {
      "constant": false,
      "inputs": [],
      "name": "buyPack",
      "outputs": [],
      "payable": true,
      "stateMutability": "payable",
      "type": "function"
    },
    {
      "constant": false,
      "inputs": [],
      "name": "redeemPack",
      "outputs": [],
      "payable": false,
      "stateMutability": "nonpayable",
      "type": "function"
    },
    {
      "constant": false,
      "inputs": [
        {
          "name": "_tokenId",
          "type": "uint256"
        }
      ],
      "name": "burn",
      "outputs": [],
      "payable": false,
      "stateMutability": "nonpayable",
      "type": "function"
    },
    {
      "constant": true,
      "inputs": [
        {
          "name": "_owner",
          "type": "address"
        }
      ],
      "name": "tokensOf",
      "outputs": [
        {
          "name": "_tokenIds",
          "type": "uint256[]"
        }
      ],
      "payable": false,
      "stateMutability": "view",
      "type": "function"
    },
    {
      "constant": true,
      "inputs": [],
      "name": "cardSetsInCirculation",
      "outputs": [
        {
          "name": "_cardSetCirculationLength",
          "type": "uint256"
        }
      ],
      "payable": false,
      "stateMutability": "view",
      "type": "function"
    },
    {
      "constant": true,
      "inputs": [
        {
          "name": "_owner",
          "type": "address"
        }
      ],
      "name": "hasTokens",
      "outputs": [
        {
          "name": "",
          "type": "bool"
        }
      ],
      "payable": false,
      "stateMutability": "view",
      "type": "function"
    },
    {
      "constant": false,
      "inputs": [
        {
          "name": "_costOfPack",
          "type": "uint256"
        }
      ],
      "name": "setCostOfPack",
      "outputs": [],
      "payable": false,
      "stateMutability": "nonpayable",
      "type": "function"
    },
    {
      "constant": false,
      "inputs": [
        {
          "name": "_recipient",
          "type": "address"
        }
      ],
      "name": "addCredit",
      "outputs": [],
      "payable": false,
      "stateMutability": "nonpayable",
      "type": "function"
    },
    {
      "constant": true,
      "inputs": [
        {
          "name": "_tokenId",
          "type": "uint256"
        }
      ],
      "name": "tokenURI",
      "outputs": [
        {
          "name": "",
          "type": "string"
        }
      ],
      "payable": false,
      "stateMutability": "view",
      "type": "function"
    },
    {
      "constant": false,
      "inputs": [
        {
          "name": "_newBaseURI",
          "type": "string"
        }
      ],
      "name": "setTokenBaseURI",
      "outputs": [],
      "payable": false,
      "stateMutability": "nonpayable",
      "type": "function"
    }
  ],
  "bytecode": "0x60c0604052601c60808190527f68747470733a2f2f697066732e696e667572612e696f2f697066732f0000000060a09081526200004091600d919062000267565b50662386f26fc10000600e556000600f55600060105560006011553480156200006857600080fd5b5060408051808201825260048082527f4b4f544100000000000000000000000000000000000000000000000000000000602080840182905284518086019095529184529083015290620000e47f01ffc9a700000000000000000000000000000000000000000000000000000000640100000000620001fa810204565b620001187f80ac58cd00000000000000000000000000000000000000000000000000000000640100000000620001fa810204565b6200014c7f4f558e7900000000000000000000000000000000000000000000000000000000640100000000620001fa810204565b81516200016190600590602085019062000267565b5080516200017790600690602084019062000267565b50620001ac7f780e9d6300000000000000000000000000000000000000000000000000000000640100000000620001fa810204565b620001e07f5b5e139f00000000000000000000000000000000000000000000000000000000640100000000620001fa810204565b5050600c8054600160a060020a031916331790556200030c565b7fffffffff0000000000000000000000000000000000000000000000000000000080821614156200022a57600080fd5b7fffffffff00000000000000000000000000000000000000000000000000000000166000908152602081905260409020805460ff19166001179055565b828054600181600116156101000203166002900490600052602060002090601f016020900481019282601f10620002aa57805160ff1916838001178555620002da565b82800160010185558215620002da579182015b82811115620002da578251825591602001919060010190620002bd565b50620002e8929150620002ec565b5090565b6200030991905b80821115620002e85760008155600101620002f3565b90565b6127c0806200031c6000396000f3006080604052600436106101ed5763ffffffff7c010000000000000000000000000000000000000000000000000000000060003504166301ffc9a781146101f757806306fdde031461022d578063081812fc146102b7578063095ea7b3146102eb57806316a2d3931461030f57806318160ddd146103cd57806319fa8f50146103f457806320f7c1c01461042657806323b872dd1461043e5780632f745c59146104685780633cefc1e01461048c578063408afbbf146104ad57806340c10f19146104c257806342842e0e146104e657806342966c681461051057806346716e62146105285780634f558e79146105405780634f6ccce7146105585780635a3f26721461057057806361e2eb57146105e15780636352211e1461064c578063655563db1461066457806370a082311461068f578063715018a6146106b05780637718b4e9146106c55780637c334d0b146106dd5780638da5cb5b146106fe5780638ef79e91146107135780639154fb8b1461073357806395d89b4114610748578063a22cb4651461075d578063b88d4fde14610783578063c37b9bcd146101ed578063c87b56dd146107f2578063cb361c5d1461080a578063e2e4337d1461081f578063e77854cd14610834578063e985e9c514610849578063f2fde38b14610870578063fe5ff46814610891575b6101f56108b2565b005b34801561020357600080fd5b50610219600160e060020a031960043516610975565b604080519115158252519081900360200190f35b34801561023957600080fd5b50610242610994565b6040805160208082528351818301528351919283929083019185019080838360005b8381101561027c578181015183820152602001610264565b50505050905090810190601f1680156102a95780820380516001836020036101000a031916815260200191505b509250505060405180910390f35b3480156102c357600080fd5b506102cf600435610a2b565b60408051600160a060020a039092168252519081900360200190f35b3480156102f757600080fd5b506101f5600160a060020a0360043516602435610a46565b34801561031b57600080fd5b5061032a600435602435610afc565b60405180878152602001868152602001858152602001848152602001836000191660001916815260200180602001828103825283818151815260200191508051906020019080838360005b8381101561038d578181015183820152602001610375565b50505050905090810190601f1680156103ba5780820380516001836020036101000a031916815260200191505b5097505050505050505060405180910390f35b3480156103d957600080fd5b506103e2610bec565b60408051918252519081900360200190f35b34801561040057600080fd5b50610409610bf2565b60408051600160e060020a03199092168252519081900360200190f35b34801561043257600080fd5b506101f5600435610c16565b34801561044a57600080fd5b506101f5600160a060020a0360043581169060243516604435610c32565b34801561047457600080fd5b506103e2600160a060020a0360043516602435610cd7565b34801561049857600080fd5b50610219600160a060020a0360043516610d24565b3480156104b957600080fd5b506103e2610d40565b3480156104ce57600080fd5b506101f5600160a060020a0360043516602435610d46565b3480156104f257600080fd5b506101f5600160a060020a0360043581169060243516604435610dba565b34801561051c57600080fd5b506101f5600435610df2565b34801561053457600080fd5b5061032a600435610dff565b34801561054c57600080fd5b50610219600435610e9e565b34801561056457600080fd5b506103e2600435610ebb565b34801561057c57600080fd5b50610591600160a060020a0360043516610ef0565b60408051602080825283518183015283519192839290830191858101910280838360005b838110156105cd5781810151838201526020016105b5565b505050509050019250505060405180910390f35b3480156105ed57600080fd5b50604080516020601f6084356004818101359283018490048402850184019095528184526101f5948035946024803595604435956064359536959460a4949093910191908190840183828082843750949750610f5c9650505050505050565b34801561065857600080fd5b506102cf6004356111b0565b34801561067057600080fd5b506106796111da565b6040805160ff9092168252519081900360200190f35b34801561069b57600080fd5b506103e2600160a060020a03600435166111df565b3480156106bc57600080fd5b506101f5611212565b3480156106d157600080fd5b5061032a600435611280565b3480156106e957600080fd5b506101f5600160a060020a036004351661132d565b34801561070a57600080fd5b506102cf61138a565b34801561071f57600080fd5b506101f56004803560248101910135611399565b34801561073f57600080fd5b506103e26113bc565b34801561075457600080fd5b506102426113c2565b34801561076957600080fd5b506101f5600160a060020a03600435166024351515611423565b34801561078f57600080fd5b50604080516020601f6064356004818101359283018490048402850184019095528184526101f594600160a060020a0381358116956024803590921695604435953695608494019181908401838280828437509497506114a79650505050505050565b3480156107fe57600080fd5b506102426004356114e6565b34801561081657600080fd5b506103e2611588565b34801561082b57600080fd5b506101f561158e565b34801561084057600080fd5b506103e26115ee565b34801561085557600080fd5b50610219600160a060020a03600435811690602435166115f4565b34801561087c57600080fd5b506101f5600160a060020a0360043516611622565b34801561089d57600080fd5b506103e2600160a060020a0360043516611642565b600e543410156108c157600080fd5b6108c9611654565b600c54600e54604051600160a060020a039092169181156108fc0291906000818181858888f19350505050158015610905573d6000803e3d6000fd5b50600e546040513391340380156108fc02916000818181858888f19350505050158015610936573d6000803e3d6000fd5b506040805163ffffffff42168152905133917faa410191373df16155ba10f8d6e9705423d9bcfe3c1a1251ec041d47b9a59ca2919081900360200190a2565b600160e060020a03191660009081526020819052604090205460ff1690565b60058054604080516020601f6002600019610100600188161502019095169490940493840181900481028201810190925282815260609390929091830182828015610a205780601f106109f557610100808354040283529160200191610a20565b820191906000526020600020905b815481529060010190602001808311610a0357829003601f168201915b505050505090505b90565b600090815260026020526040902054600160a060020a031690565b6000610a51826111b0565b9050600160a060020a038381169082161415610a6c57600080fd5b33600160a060020a0382161480610a885750610a8881336115f4565b1515610a9357600080fd5b600082815260026020526040808220805473ffffffffffffffffffffffffffffffffffffffff1916600160a060020a0387811691821790925591518593918516917f8c5be1e5ebec7d5bd14f71427d1e84f3dd0314c0f7b2291e5b200ac8c7c3b92591a4505050565b601460205281600052604060002081815481101515610b1757fe5b906000526020600020906006020160009150915050806000015490806001015490806002015490806003015490806004015490806005018054600181600116156101000203166002900480601f016020809104026020016040519081016040528092919081815260200182805460018160011615610100020316600290048015610be25780601f10610bb757610100808354040283529160200191610be2565b820191906000526020600020905b815481529060010190602001808311610bc557829003601f168201915b5050505050905086565b60095490565b7f01ffc9a70000000000000000000000000000000000000000000000000000000081565b600c54600160a060020a03163314610c2d57600080fd5b600e55565b80610c3d3382611728565b1515610c4857600080fd5b600160a060020a0384161515610c5d57600080fd5b600160a060020a0383161515610c7257600080fd5b610c7c8483611787565b610c8684836117f8565b610c908383611931565b8183600160a060020a031685600160a060020a03167fddf252ad1be2c89b69c2b068fc378daa952ba7f163c4a11628f55a4df523b3ef60405160405180910390a450505050565b6000610ce2836111df565b8210610ced57600080fd5b600160a060020a0383166000908152600760205260409020805483908110610d1157fe5b9060005260206000200154905092915050565b600160a060020a03166000908152600760205260408120541190565b60155490565b600c54600090600160a060020a03163314610d6057600080fd5b50600081815260136020526040902060028101546003820154610d8a90600163ffffffff61197a16565b10610d9457600080fd5b601054610da890600163ffffffff61197a16565b601055610db58382611987565b505050565b80610dc53382611728565b1515610dd057600080fd5b610dec84848460206040519081016040528060008152506114a7565b50505050565b610dfc3382611adc565b50565b6013602052806000526040600020600091509050806000015490806001015490806002015490806003015490806004015490806005018054600181600116156101000203166002900480601f016020809104026020016040519081016040528092919081815260200182805460018160011615610100020316600290048015610be25780601f10610bb757610100808354040283529160200191610be2565b600090815260016020526040902054600160a060020a0316151590565b6000610ec5610bec565b8210610ed057600080fd5b6009805483908110610ede57fe5b90600052602060002001549050919050565b600160a060020a038116600090815260076020908152604091829020805483518184028101840190945280845260609392830182828015610f5057602002820191906000526020600020905b815481526020019060010190808311610f3c575b50505050509050919050565b610f64612506565b600c54600160a060020a03163314610f7b57600080fd5b506040805160c08101825286815260208082018781528284018781526000606085018181526080860189815260a087018981528c845260138752979092208651815593516001850155915160028401559051600383015551600482015592518051929384939092610ff3926005850192910190612540565b5050506000858152601460209081526040808320805460018181018084559286529484902086516006909202019081558584015194810194909455908401516002840155606084015160038401556080840151600484015560a084015180519193859390926110689260058501920190612540565b5050601580546001810180835560009290925284517f55f448fdea98c4d29eb340757ef0a66cd03dbb9538908a6a81d96026b71ec47560069092029182019081556020808701517f55f448fdea98c4d29eb340757ef0a66cd03dbb9538908a6a81d96026b71ec47684015560408701517f55f448fdea98c4d29eb340757ef0a66cd03dbb9538908a6a81d96026b71ec47784015560608701517f55f448fdea98c4d29eb340757ef0a66cd03dbb9538908a6a81d96026b71ec47884015560808701517f55f448fdea98c4d29eb340757ef0a66cd03dbb9538908a6a81d96026b71ec47984015560a08701518051949650879550919361118d937f55f448fdea98c4d29eb340757ef0a66cd03dbb9538908a6a81d96026b71ec47a019290910190612540565b5050600f546111a5925090508563ffffffff61197a16565b600f55505050505050565b600081815260016020526040812054600160a060020a03168015156111d457600080fd5b92915050565b600481565b6000600160a060020a03821615156111f657600080fd5b50600160a060020a031660009081526003602052604090205490565b600c54600160a060020a0316331461122957600080fd5b600c54604051600160a060020a03909116907ff8df31144d9c2f0f6b59d69b8b98abd5459d07f2742c4df920b25aae33c6482090600090a2600c805473ffffffffffffffffffffffffffffffffffffffff19169055565b601580548290811061128e57fe5b9060005260206000209060060201600091509050806000015490806001015490806002015490806003015490806004015490806005018054600181600116156101000203166002900480601f016020809104026020016040519081016040528092919081815260200182805460018160011615610100020316600290048015610be25780601f10610bb757610100808354040283529160200191610be2565b600c54600160a060020a0316331461134457600080fd5b600160a060020a03811660009081526012602052604090205461136e90600163ffffffff61197a16565b600160a060020a03909116600090815260126020526040902055565b600c54600160a060020a031681565b600c54600160a060020a031633146113b057600080fd5b610db5600d83836125be565b600f5481565b60068054604080516020601f6002600019610100600188161502019095169490940493840181900481028201810190925282815260609390929091830182828015610a205780601f106109f557610100808354040283529160200191610a20565b600160a060020a03821633141561143957600080fd5b336000818152600460209081526040808320600160a060020a03871680855290835292819020805460ff1916861515908117909155815190815290519293927f17307eab39ab6107e8899845ad3d59bd9653f200f220920489ca2b5937696c31929181900390910190a35050565b816114b23382611728565b15156114bd57600080fd5b6114c8858585610c32565b6114d485858585611bd6565b15156114df57600080fd5b5050505050565b600d805460408051602060026001851615610100026000190190941693909304601f81018490048402820184019092528181526060936111d493919290918301828280156115755780601f1061154a57610100808354040283529160200191611575565b820191906000526020600020905b81548152906001019060200180831161155857829003601f168201915b505050505061158384611d43565b611dee565b600e5481565b33600090815260126020526040812054116115a857600080fd5b6115b0611654565b6040805163ffffffff42168152905133917f4d9e18eaffdad4b1ef9cf8013bc960caef57f0d97a5ea42051cd83db63613e55919081900360200190a2565b60105481565b600160a060020a03918216600090815260046020908152604080832093909416825291909152205460ff1690565b600c54600160a060020a0316331461163957600080fd5b610dfc81611e2a565b60126020526000908152604090205481565b6000808033321461166457600080fd5b600092505b600483101561170c5761167e83600101611ea8565b915060158281548110151561168f57fe5b906000526020600020906006020190506116a93382611987565b806002015481600301541415611701576116c282611f83565b60018101546040805163ffffffff4216815290517f9b0b9d1a520cddbaf3796589db30746775a90fc149624d9e9851630912dc04c79181900360200190a25b600190920191611669565b60105461172090600463ffffffff61197a16565b601055505050565b600080611734836111b0565b905080600160a060020a031684600160a060020a0316148061176f575083600160a060020a031661176484610a2b565b600160a060020a0316145b8061177f575061177f81856115f4565b949350505050565b81600160a060020a031661179a826111b0565b600160a060020a0316146117ad57600080fd5b600081815260026020526040902054600160a060020a0316156117f4576000818152600260205260409020805473ffffffffffffffffffffffffffffffffffffffff191690555b5050565b60008060006118078585612038565b600084815260086020908152604080832054600160a060020a038916845260079092529091205490935061184290600163ffffffff6120ce16565b600160a060020a03861660009081526007602052604090208054919350908390811061186a57fe5b90600052602060002001549050806007600087600160a060020a0316600160a060020a03168152602001908152602001600020848154811015156118aa57fe5b6000918252602080832090910192909255600160a060020a03871681526007909152604081208054849081106118dc57fe5b6000918252602080832090910192909255600160a060020a038716815260079091526040902080549061191390600019830161262c565b50600093845260086020526040808520859055908452909220555050565b600061193d83836120e0565b50600160a060020a039091166000908152600760209081526040808320805460018101825590845282842081018590559383526008909152902055565b818101828110156111d457fe5b600080826002015411151561199b57600080fd5b6002820154600383015411156119b057600080fd5b60038201546119c690600163ffffffff61197a16565b6003830181905560018301546119e19163ffffffff61197a16565b90506119ed8382612170565b60058201805460408051602060026001851615610100026000190190941693909304601f8101849004840282018401909252818152611a8793859391929091830182828015611a7d5780601f10611a5257610100808354040283529160200191611a7d565b820191906000526020600020905b815481529060010190602001808311611a6057829003601f168201915b50505050506121bf565b60048201546040805191825263ffffffff4216602083015280518392600160a060020a038716927f5d332e130eeb3924324a7454ddca461c4cd17fa86d4ad51dcceef6cc4f44772692918290030190a3505050565b6000806000611aeb85856121f2565b6000848152600b60205260409020546002600019610100600184161502019091160415611b29576000848152600b60205260408120611b2991612650565b6000848152600a6020526040902054600954909350611b4f90600163ffffffff6120ce16565b9150600982815481101515611b6057fe5b9060005260206000200154905080600984815481101515611b7d57fe5b60009182526020822001919091556009805484908110611b9957fe5b6000918252602090912001556009805490611bb890600019830161262c565b506000938452600a6020526040808520859055908452909220555050565b600080611beb85600160a060020a0316612242565b1515611bfa5760019150611d3a565b6040517f150b7a020000000000000000000000000000000000000000000000000000000081523360048201818152600160a060020a03898116602485015260448401889052608060648501908152875160848601528751918a169463150b7a0294938c938b938b93909160a490910190602085019080838360005b83811015611c8d578181015183820152602001611c75565b50505050905090810190601f168015611cba5780820380516001836020036101000a031916815260200191505b5095505050505050602060405180830381600087803b158015611cdc57600080fd5b505af1158015611cf0573d6000803e3d6000fd5b505050506040513d6020811015611d0657600080fd5b5051600160e060020a031981167f150b7a020000000000000000000000000000000000000000000000000000000014925090505b50949350505050565b6060611d4e82610e9e565b1515611d5957600080fd5b6000828152600b602090815260409182902080548351601f600260001961010060018616150201909316929092049182018490048402810184019094528084529091830182828015610f505780601f10611dc157610100808354040283529160200191610f50565b820191906000526020600020905b815481529060010190602001808311611dcf5750939695505050505050565b604080516020818101835260008083528351808301855281815284519283019094528152606092611e2392869286929061224a565b9392505050565b600160a060020a0381161515611e3f57600080fd5b600c54604051600160a060020a038084169216907f8be0079c531659141344cd1fd0a4f28419497f9722a3daafe3b4186f6b6457e090600090a3600c805473ffffffffffffffffffffffffffffffffffffffff1916600160a060020a0392909216919091179055565b60006060818311611eb857600080fd5b601154611ecc90600163ffffffff61197a16565b601181905560408051438690034060208201526c010000000000000000000000003302818301526054808201939093528151808203909301835260740190529050611f15610d40565b816040518082805190602001908083835b60208310611f455780518252601f199092019160209182019101611f26565b5181516020939093036101000a6000190180199091169216919091179052604051920182900390912092505050811515611f7b57fe5b069392505050565b6015546000190180821115611f9757600080fd5b6015805482908110611fa557fe5b9060005260206000209060060201601583815481101515611fc257fe5b60009182526020909120825460069092020190815560018083015481830155600280840154818401556003808501549084015560048085015490840155600580850180546120229492860193919281161561010002600019011604612694565b5050601580549150610db5906000198301612709565b81600160a060020a031661204b826111b0565b600160a060020a03161461205e57600080fd5b600160a060020a03821660009081526003602052604090205461208890600163ffffffff6120ce16565b600160a060020a03909216600090815260036020908152604080832094909455918152600190915220805473ffffffffffffffffffffffffffffffffffffffff19169055565b6000828211156120da57fe5b50900390565b600081815260016020526040902054600160a060020a03161561210257600080fd5b6000818152600160208181526040808420805473ffffffffffffffffffffffffffffffffffffffff1916600160a060020a03881690811790915584526003909152909120546121509161197a565b600160a060020a0390921660009081526003602052604090209190915550565b61217a82826124ab565b600980546000838152600a60205260408120829055600182018355919091527f6e1540171b6c0c960b71a7020d9f60077f6af931a8bbf590da0223dacf75c7af015550565b6121c882610e9e565b15156121d357600080fd5b6000828152600b602090815260409091208251610db592840190612540565b6121fc8282611787565b61220682826117f8565b6040518190600090600160a060020a038516907fddf252ad1be2c89b69c2b068fc378daa952ba7f163c4a11628f55a4df523b3ef908390a45050565b6000903b1190565b6060806060806060806060806000808e98508d97508c96508b95508a94508451865188518a518c51010101016040519080825280601f01601f1916602001820160405280156122a3578160200160208202803883390190505b50935083925060009150600090505b88518110156123105788818151811015156122c957fe5b90602001015160f860020a900460f860020a0283838060010194508151811015156122f057fe5b906020010190600160f860020a031916908160001a9053506001016122b2565b5060005b875181101561237257878181518110151561232b57fe5b90602001015160f860020a900460f860020a02838380600101945081518110151561235257fe5b906020010190600160f860020a031916908160001a905350600101612314565b5060005b86518110156123d457868181518110151561238d57fe5b90602001015160f860020a900460f860020a0283838060010194508151811015156123b457fe5b906020010190600160f860020a031916908160001a905350600101612376565b5060005b85518110156124365785818151811015156123ef57fe5b90602001015160f860020a900460f860020a02838380600101945081518110151561241657fe5b906020010190600160f860020a031916908160001a9053506001016123d8565b5060005b845181101561249857848181518110151561245157fe5b90602001015160f860020a900460f860020a02838380600101945081518110151561247857fe5b906020010190600160f860020a031916908160001a90535060010161243a565b50909d9c50505050505050505050505050565b600160a060020a03821615156124c057600080fd5b6124ca8282611931565b6040518190600160a060020a038416906000907fddf252ad1be2c89b69c2b068fc378daa952ba7f163c4a11628f55a4df523b3ef908290a45050565b60c0604051908101604052806000815260200160008152602001600081526020016000815260200160008019168152602001606081525090565b828054600181600116156101000203166002900490600052602060002090601f016020900481019282601f1061258157805160ff19168380011785556125ae565b828001600101855582156125ae579182015b828111156125ae578251825591602001919060010190612593565b506125ba929150612735565b5090565b828054600181600116156101000203166002900490600052602060002090601f016020900481019282601f106125ff5782800160ff198235161785556125ae565b828001600101855582156125ae579182015b828111156125ae578235825591602001919060010190612611565b815481835581811115610db557600083815260209020610db5918101908301612735565b50805460018160011615610100020316600290046000825580601f106126765750610dfc565b601f016020900490600052602060002090810190610dfc9190612735565b828054600181600116156101000203166002900490600052602060002090601f016020900481019282601f106126cd57805485556125ae565b828001600101855582156125ae57600052602060002091601f016020900482015b828111156125ae5782548255916001019190600101906126ee565b815481835581811115610db557600602816006028360005260206000209182019101610db5919061274f565b610a2891905b808211156125ba576000815560010161273b565b610a2891905b808211156125ba5760008082556001820181905560028201819055600382018190556004820181905561278b6005830182612650565b506006016127555600a165627a7a72305820ae89787adfd42dff8921fe18741f3981650107199ec0c8b4916e8bab9c3356a30029",
  "source": "pragma solidity ^0.4.24;\n\nimport \"./Strings.sol\";\n\nimport 'openzeppelin-solidity/contracts/ownership/Ownable.sol';\nimport 'openzeppelin-solidity/contracts/math/SafeMath.sol';\nimport 'openzeppelin-solidity/contracts/token/ERC721/ERC721Token.sol';\n\n/**\n* @title KOTA aka KnownOrigin Trading Assets\n*/\ncontract KOTA is ERC721Token, Ownable {\n  using SafeMath for uint256;\n\n  event CardMinted(address indexed _owner, uint256 indexed _tokenId, bytes32 _name, uint32 _mintTime);\n  event CardSetSoldOut(uint256 indexed _cardNumber, uint32 _soldOutTime);\n  event CardPackBought(address indexed _owner, uint32 _boughtTime);\n  event CardPackRedeemed(address indexed _owner, uint32 _giftTime);\n\n  string internal tokenBaseURI = \"https://ipfs.infura.io/ipfs/\";\n\n  uint256 public costOfPack = 0.01 ether;\n  uint8 constant public cardsPerPack = 4;\n\n  uint256 public totalCardsInCirculation = 0;\n  uint256 public totalCardsInCirculationSold = 0;\n\n  uint256 internal randNonce = 0;\n\n  mapping(address => uint) public credits;\n\n  struct CardSet {\n    uint256 boxNumber;\n    uint256 cardNumber;\n    uint256 totalSupply;\n    uint256 minted;\n    bytes32 cardName;\n    string cardURI;\n  }\n\n  mapping(uint256 => CardSet) public cardSets;\n\n  mapping(uint256 => CardSet[]) public boxNumberToCardSetCirculation;\n\n  CardSet[] public cardSetCirculation;\n\n  constructor() public ERC721Token(\"KOTA\", \"KOTA\") {}\n\n  // can buy direct from contract if you send enough ether\n  function() public payable {\n    buyPack();\n  }\n\n  function addCardSet(uint256 _boxNumber, uint256 _cardNumber, uint256 _totalSupply, bytes32 _cardName, string _cardUri) public onlyOwner {\n    CardSet memory newCardSet = CardSet(_boxNumber, _cardNumber, _totalSupply, 0, _cardName, _cardUri);\n\n    // add to lookup by cardNumber\n    cardSets[_cardNumber] = newCardSet;\n\n    // add to box circulation\n    boxNumberToCardSetCirculation[_cardNumber].push(newCardSet);\n\n    // add to general circulation\n    cardSetCirculation.push(newCardSet);\n\n    totalCardsInCirculation = totalCardsInCirculation.add(_totalSupply);\n  }\n\n  /**\n   * @dev mints a single card\n   * @param _to who will get the card\n   * @param _cardNumber card number of the card set to transfer\n   */\n  function mint(address _to, uint256 _cardNumber) public onlyOwner {\n    CardSet storage cardSet = cardSets[_cardNumber];\n\n    // don't transfer last card!\n    // buyPack removes from circulation via index - we don't know index here...\n    require(cardSet.minted.add(1) < cardSet.totalSupply);\n\n    totalCardsInCirculationSold = totalCardsInCirculationSold.add(1);\n\n    _mint(_to, cardSet);\n  }\n\n  /**\n   * @dev Buys a pack of cards\n   */\n  function buyPack() public payable {\n    require(msg.value >= costOfPack);\n\n    _randomPack();\n\n    // reconcile payments\n    owner.transfer(costOfPack);\n\n    // give back the change - if any\n    msg.sender.transfer(msg.value - costOfPack);\n    emit CardPackBought(msg.sender, uint32(now));\n  }\n\n  /**\n   * @dev Redeem a pack of cards (via a credit)\n   */\n  function redeemPack() public {\n    require(credits[msg.sender] > 0);\n\n    _randomPack();\n\n    emit CardPackRedeemed(msg.sender, uint32(now));\n  }\n\n  function burn(uint256 _tokenId) public {\n    super._burn(msg.sender, _tokenId);\n  }\n\n  /**\n   * @dev Return owned tokens\n   * @param _owner address to query\n   */\n  function tokensOf(address _owner) public view returns (uint256[] _tokenIds) {\n    return ownedTokens[_owner];\n  }\n\n  /**\n   * @dev number of card sets\n   */\n  function cardSetsInCirculation() public view returns (uint256 _cardSetCirculationLength) {\n    return cardSetCirculation.length;\n  }\n\n  /**\n   * @dev checks for owned tokens\n   * @param _owner address to query\n   */\n  function hasTokens(address _owner) public constant returns (bool) {\n    return ownedTokens[_owner].length > 0;\n  }\n\n  /**\n   * @dev Utility function changing the cost of the pack\n   * @dev Reverts if not called by owner\n   * @param _costOfPack cost in wei\n   */\n  function setCostOfPack(uint256 _costOfPack) external onlyOwner {\n    costOfPack = _costOfPack;\n  }\n\n  /**\n   * @dev Utility function to credit address with packs they can redeem\n   * @dev Reverts if not called by owner\n   * @param _recipient receiver of credit\n   */\n  function addCredit(address _recipient) external onlyOwner {\n    credits[_recipient] = credits[_recipient].add(1);\n  }\n\n  /**\n   * @dev Get token URI fro the given token, useful for testing purposes\n   * @param _tokenId the token ID\n   * @return the token ID or only the base URI if not found\n   */\n  function tokenURI(uint256 _tokenId) public view returns (string) {\n    return Strings.strConcat(tokenBaseURI, super.tokenURI(_tokenId));\n  }\n\n  /**\n   * @dev Allows management to update the base tokenURI path\n   * @dev Reverts if not called by owner\n   * @param _newBaseURI the new base URI to set\n   */\n  function setTokenBaseURI(string _newBaseURI) external onlyOwner {\n    tokenBaseURI = _newBaseURI;\n  }\n\n  function _randomCardSetIndex(uint _index) internal returns (uint) {\n    require(_index > 0);\n\n    randNonce = randNonce.add(1);\n    bytes memory packed = abi.encodePacked(blockhash(block.number - _index), msg.sender, randNonce);\n    return uint256(keccak256(packed)) % cardSetsInCirculation();\n  }\n\n  function _randomPack() internal {\n    // thanks CryptoStrikers!\n    require(msg.sender == tx.origin);\n\n    for (uint i = 0; i < cardsPerPack; i++) {\n      uint _index = _randomCardSetIndex(i + 1);\n      CardSet storage pickedSet = cardSetCirculation[_index];\n\n      _mint(msg.sender, pickedSet);\n\n      // remove from circulation if minted == totalSupply\n      if (pickedSet.minted == pickedSet.totalSupply) {\n        _removeCardSetAtIndex(_index);\n        emit CardSetSoldOut(pickedSet.cardNumber, uint32(now));\n      }\n    }\n\n    totalCardsInCirculationSold = totalCardsInCirculationSold.add(cardsPerPack);\n  }\n\n  function _mint(address _to, CardSet storage _cardSet) internal {\n    // ensure valid card set\n    require(_cardSet.totalSupply > 0);\n    require(_cardSet.minted <= _cardSet.totalSupply);\n\n    _cardSet.minted = _cardSet.minted.add(1);\n    uint256 cardSerialNumber = _cardSet.cardNumber.add(_cardSet.minted);\n\n    super._mint(_to, cardSerialNumber);\n    super._setTokenURI(cardSerialNumber, _cardSet.cardURI);\n\n    emit CardMinted(_to, cardSerialNumber, _cardSet.cardName, uint32(now));\n  }\n\n  function _removeCardSetAtIndex(uint256 _index) internal {\n    uint lastIndex = cardSetCirculation.length - 1;\n    require(_index <= lastIndex);\n\n    cardSetCirculation[_index] = cardSetCirculation[lastIndex];\n    cardSetCirculation.length--;\n  }\n}\n",
  "sourcePath": "/Users/andy/workspace/cbfc/contracts/KOTA.sol",
  "compiler": {
    "name": "solc",
    "version": "0.4.24+commit.e67f0147.Emscripten.clang"
  },
  "schemaVersion": "2.0.1",
  "updatedAt": "2018-08-12T09:58:11.510Z"
}