{
  "contractName": "KOTA",
  "abi": [
    {
      "constant": true,
      "inputs": [
        {
          "name": "_interfaceId",
          "type": "bytes4"
        }
      ],
      "name": "supportsInterface",
      "outputs": [
        {
          "name": "",
          "type": "bool"
        }
      ],
      "payable": false,
      "stateMutability": "view",
      "type": "function"
    },
    {
      "constant": true,
      "inputs": [
        {
          "name": "",
          "type": "uint256"
        }
      ],
      "name": "boxNumberToBox",
      "outputs": [
        {
          "name": "boxNumber",
          "type": "uint256"
        },
        {
          "name": "title",
          "type": "string"
        },
        {
          "name": "description",
          "type": "string"
        },
        {
          "name": "boxURI",
          "type": "string"
        },
        {
          "name": "costOfPack",
          "type": "uint256"
        },
        {
          "name": "cardsPerPack",
          "type": "uint8"
        }
      ],
      "payable": false,
      "stateMutability": "view",
      "type": "function"
    },
    {
      "constant": true,
      "inputs": [],
      "name": "name",
      "outputs": [
        {
          "name": "",
          "type": "string"
        }
      ],
      "payable": false,
      "stateMutability": "view",
      "type": "function"
    },
    {
      "constant": true,
      "inputs": [
        {
          "name": "_tokenId",
          "type": "uint256"
        }
      ],
      "name": "getApproved",
      "outputs": [
        {
          "name": "",
          "type": "address"
        }
      ],
      "payable": false,
      "stateMutability": "view",
      "type": "function"
    },
    {
      "constant": false,
      "inputs": [
        {
          "name": "_to",
          "type": "address"
        },
        {
          "name": "_tokenId",
          "type": "uint256"
        }
      ],
      "name": "approve",
      "outputs": [],
      "payable": false,
      "stateMutability": "nonpayable",
      "type": "function"
    },
    {
      "constant": true,
      "inputs": [],
      "name": "totalSupply",
      "outputs": [
        {
          "name": "",
          "type": "uint256"
        }
      ],
      "payable": false,
      "stateMutability": "view",
      "type": "function"
    },
    {
      "constant": true,
      "inputs": [],
      "name": "InterfaceId_ERC165",
      "outputs": [
        {
          "name": "",
          "type": "bytes4"
        }
      ],
      "payable": false,
      "stateMutability": "view",
      "type": "function"
    },
    {
      "constant": false,
      "inputs": [
        {
          "name": "_from",
          "type": "address"
        },
        {
          "name": "_to",
          "type": "address"
        },
        {
          "name": "_tokenId",
          "type": "uint256"
        }
      ],
      "name": "transferFrom",
      "outputs": [],
      "payable": false,
      "stateMutability": "nonpayable",
      "type": "function"
    },
    {
      "constant": true,
      "inputs": [
        {
          "name": "_owner",
          "type": "address"
        },
        {
          "name": "_index",
          "type": "uint256"
        }
      ],
      "name": "tokenOfOwnerByIndex",
      "outputs": [
        {
          "name": "",
          "type": "uint256"
        }
      ],
      "payable": false,
      "stateMutability": "view",
      "type": "function"
    },
    {
      "constant": false,
      "inputs": [
        {
          "name": "_from",
          "type": "address"
        },
        {
          "name": "_to",
          "type": "address"
        },
        {
          "name": "_tokenId",
          "type": "uint256"
        }
      ],
      "name": "safeTransferFrom",
      "outputs": [],
      "payable": false,
      "stateMutability": "nonpayable",
      "type": "function"
    },
    {
      "constant": true,
      "inputs": [
        {
          "name": "_tokenId",
          "type": "uint256"
        }
      ],
      "name": "exists",
      "outputs": [
        {
          "name": "",
          "type": "bool"
        }
      ],
      "payable": false,
      "stateMutability": "view",
      "type": "function"
    },
    {
      "constant": true,
      "inputs": [
        {
          "name": "_index",
          "type": "uint256"
        }
      ],
      "name": "tokenByIndex",
      "outputs": [
        {
          "name": "",
          "type": "uint256"
        }
      ],
      "payable": false,
      "stateMutability": "view",
      "type": "function"
    },
    {
      "constant": true,
      "inputs": [
        {
          "name": "_tokenId",
          "type": "uint256"
        }
      ],
      "name": "ownerOf",
      "outputs": [
        {
          "name": "",
          "type": "address"
        }
      ],
      "payable": false,
      "stateMutability": "view",
      "type": "function"
    },
    {
      "constant": true,
      "inputs": [
        {
          "name": "",
          "type": "uint256"
        }
      ],
      "name": "boxNumberToCardsInCirculationSold",
      "outputs": [
        {
          "name": "",
          "type": "uint256"
        }
      ],
      "payable": false,
      "stateMutability": "view",
      "type": "function"
    },
    {
      "constant": true,
      "inputs": [],
      "name": "totalWei",
      "outputs": [
        {
          "name": "",
          "type": "uint256"
        }
      ],
      "payable": false,
      "stateMutability": "view",
      "type": "function"
    },
    {
      "constant": true,
      "inputs": [
        {
          "name": "",
          "type": "uint256"
        }
      ],
      "name": "boxNumberToCardsInCirculation",
      "outputs": [
        {
          "name": "",
          "type": "uint256"
        }
      ],
      "payable": false,
      "stateMutability": "view",
      "type": "function"
    },
    {
      "constant": true,
      "inputs": [
        {
          "name": "_owner",
          "type": "address"
        }
      ],
      "name": "balanceOf",
      "outputs": [
        {
          "name": "",
          "type": "uint256"
        }
      ],
      "payable": false,
      "stateMutability": "view",
      "type": "function"
    },
    {
      "constant": false,
      "inputs": [],
      "name": "renounceOwnership",
      "outputs": [],
      "payable": false,
      "stateMutability": "nonpayable",
      "type": "function"
    },
    {
      "constant": true,
      "inputs": [],
      "name": "owner",
      "outputs": [
        {
          "name": "",
          "type": "address"
        }
      ],
      "payable": false,
      "stateMutability": "view",
      "type": "function"
    },
    {
      "constant": true,
      "inputs": [],
      "name": "totalCardsInCirculation",
      "outputs": [
        {
          "name": "",
          "type": "uint256"
        }
      ],
      "payable": false,
      "stateMutability": "view",
      "type": "function"
    },
    {
      "constant": true,
      "inputs": [],
      "name": "symbol",
      "outputs": [
        {
          "name": "",
          "type": "string"
        }
      ],
      "payable": false,
      "stateMutability": "view",
      "type": "function"
    },
    {
      "constant": true,
      "inputs": [],
      "name": "defaultBoxNumber",
      "outputs": [
        {
          "name": "",
          "type": "uint256"
        }
      ],
      "payable": false,
      "stateMutability": "view",
      "type": "function"
    },
    {
      "constant": false,
      "inputs": [
        {
          "name": "_to",
          "type": "address"
        },
        {
          "name": "_approved",
          "type": "bool"
        }
      ],
      "name": "setApprovalForAll",
      "outputs": [],
      "payable": false,
      "stateMutability": "nonpayable",
      "type": "function"
    },
    {
      "constant": false,
      "inputs": [
        {
          "name": "_from",
          "type": "address"
        },
        {
          "name": "_to",
          "type": "address"
        },
        {
          "name": "_tokenId",
          "type": "uint256"
        },
        {
          "name": "_data",
          "type": "bytes"
        }
      ],
      "name": "safeTransferFrom",
      "outputs": [],
      "payable": false,
      "stateMutability": "nonpayable",
      "type": "function"
    },
    {
      "constant": true,
      "inputs": [],
      "name": "totalCardsInCirculationSold",
      "outputs": [
        {
          "name": "",
          "type": "uint256"
        }
      ],
      "payable": false,
      "stateMutability": "view",
      "type": "function"
    },
    {
      "constant": true,
      "inputs": [
        {
          "name": "",
          "type": "uint256"
        }
      ],
      "name": "boxCardNumberToCardSet",
      "outputs": [
        {
          "name": "boxNumber",
          "type": "uint256"
        },
        {
          "name": "cardNumber",
          "type": "uint256"
        },
        {
          "name": "totalSupply",
          "type": "uint256"
        },
        {
          "name": "minted",
          "type": "uint256"
        },
        {
          "name": "cardName",
          "type": "bytes32"
        },
        {
          "name": "cardURI",
          "type": "string"
        },
        {
          "name": "artist",
          "type": "address"
        },
        {
          "name": "artistShare",
          "type": "uint8"
        }
      ],
      "payable": false,
      "stateMutability": "view",
      "type": "function"
    },
    {
      "constant": true,
      "inputs": [
        {
          "name": "_owner",
          "type": "address"
        },
        {
          "name": "_operator",
          "type": "address"
        }
      ],
      "name": "isApprovedForAll",
      "outputs": [
        {
          "name": "",
          "type": "bool"
        }
      ],
      "payable": false,
      "stateMutability": "view",
      "type": "function"
    },
    {
      "constant": false,
      "inputs": [
        {
          "name": "_newOwner",
          "type": "address"
        }
      ],
      "name": "transferOwnership",
      "outputs": [],
      "payable": false,
      "stateMutability": "nonpayable",
      "type": "function"
    },
    {
      "constant": true,
      "inputs": [
        {
          "name": "",
          "type": "address"
        }
      ],
      "name": "credits",
      "outputs": [
        {
          "name": "",
          "type": "uint256"
        }
      ],
      "payable": false,
      "stateMutability": "view",
      "type": "function"
    },
    {
      "inputs": [],
      "payable": false,
      "stateMutability": "nonpayable",
      "type": "constructor"
    },
    {
      "payable": true,
      "stateMutability": "payable",
      "type": "fallback"
    },
    {
      "anonymous": false,
      "inputs": [
        {
          "indexed": true,
          "name": "_owner",
          "type": "address"
        },
        {
          "indexed": true,
          "name": "_tokenId",
          "type": "uint256"
        },
        {
          "indexed": false,
          "name": "_name",
          "type": "bytes32"
        },
        {
          "indexed": false,
          "name": "_mintTime",
          "type": "uint32"
        }
      ],
      "name": "CardMinted",
      "type": "event"
    },
    {
      "anonymous": false,
      "inputs": [
        {
          "indexed": true,
          "name": "_cardNumber",
          "type": "uint256"
        },
        {
          "indexed": false,
          "name": "_soldOutTime",
          "type": "uint32"
        }
      ],
      "name": "CardSetSoldOut",
      "type": "event"
    },
    {
      "anonymous": false,
      "inputs": [
        {
          "indexed": true,
          "name": "_owner",
          "type": "address"
        },
        {
          "indexed": false,
          "name": "_boughtTime",
          "type": "uint32"
        }
      ],
      "name": "CardPackBought",
      "type": "event"
    },
    {
      "anonymous": false,
      "inputs": [
        {
          "indexed": true,
          "name": "_owner",
          "type": "address"
        },
        {
          "indexed": false,
          "name": "_giftTime",
          "type": "uint32"
        }
      ],
      "name": "CardPackRedeemed",
      "type": "event"
    },
    {
      "anonymous": false,
      "inputs": [
        {
          "indexed": true,
          "name": "previousOwner",
          "type": "address"
        }
      ],
      "name": "OwnershipRenounced",
      "type": "event"
    },
    {
      "anonymous": false,
      "inputs": [
        {
          "indexed": true,
          "name": "previousOwner",
          "type": "address"
        },
        {
          "indexed": true,
          "name": "newOwner",
          "type": "address"
        }
      ],
      "name": "OwnershipTransferred",
      "type": "event"
    },
    {
      "anonymous": false,
      "inputs": [
        {
          "indexed": true,
          "name": "_from",
          "type": "address"
        },
        {
          "indexed": true,
          "name": "_to",
          "type": "address"
        },
        {
          "indexed": true,
          "name": "_tokenId",
          "type": "uint256"
        }
      ],
      "name": "Transfer",
      "type": "event"
    },
    {
      "anonymous": false,
      "inputs": [
        {
          "indexed": true,
          "name": "_owner",
          "type": "address"
        },
        {
          "indexed": true,
          "name": "_approved",
          "type": "address"
        },
        {
          "indexed": true,
          "name": "_tokenId",
          "type": "uint256"
        }
      ],
      "name": "Approval",
      "type": "event"
    },
    {
      "anonymous": false,
      "inputs": [
        {
          "indexed": true,
          "name": "_owner",
          "type": "address"
        },
        {
          "indexed": true,
          "name": "_operator",
          "type": "address"
        },
        {
          "indexed": false,
          "name": "_approved",
          "type": "bool"
        }
      ],
      "name": "ApprovalForAll",
      "type": "event"
    },
    {
      "constant": false,
      "inputs": [
        {
          "name": "_boxNumber",
          "type": "uint256"
        },
        {
          "name": "_title",
          "type": "string"
        },
        {
          "name": "_description",
          "type": "string"
        },
        {
          "name": "_boxUri",
          "type": "string"
        },
        {
          "name": "_costOfPack",
          "type": "uint256"
        },
        {
          "name": "_cardsPerPack",
          "type": "uint8"
        }
      ],
      "name": "addBox",
      "outputs": [],
      "payable": false,
      "stateMutability": "nonpayable",
      "type": "function"
    },
    {
      "constant": false,
      "inputs": [
        {
          "name": "_boxNumber",
          "type": "uint256"
        },
        {
          "name": "_cardNumber",
          "type": "uint256"
        },
        {
          "name": "_totalSupply",
          "type": "uint256"
        },
        {
          "name": "_cardName",
          "type": "bytes32"
        },
        {
          "name": "_cardUri",
          "type": "string"
        },
        {
          "name": "_artist",
          "type": "address"
        },
        {
          "name": "_artistShare",
          "type": "uint8"
        }
      ],
      "name": "addCardSet",
      "outputs": [],
      "payable": false,
      "stateMutability": "nonpayable",
      "type": "function"
    },
    {
      "constant": false,
      "inputs": [
        {
          "name": "_to",
          "type": "address"
        },
        {
          "name": "_boxNumber",
          "type": "uint256"
        },
        {
          "name": "_cardNumber",
          "type": "uint256"
        }
      ],
      "name": "mint",
      "outputs": [],
      "payable": false,
      "stateMutability": "nonpayable",
      "type": "function"
    },
    {
      "constant": false,
      "inputs": [
        {
          "name": "_boxNumber",
          "type": "uint256"
        }
      ],
      "name": "buyPack",
      "outputs": [],
      "payable": true,
      "stateMutability": "payable",
      "type": "function"
    },
    {
      "constant": false,
      "inputs": [
        {
          "name": "_boxNumber",
          "type": "uint256"
        }
      ],
      "name": "redeemPack",
      "outputs": [],
      "payable": false,
      "stateMutability": "nonpayable",
      "type": "function"
    },
    {
      "constant": false,
      "inputs": [
        {
          "name": "_tokenId",
          "type": "uint256"
        }
      ],
      "name": "burn",
      "outputs": [],
      "payable": false,
      "stateMutability": "nonpayable",
      "type": "function"
    },
    {
      "constant": true,
      "inputs": [
        {
          "name": "_owner",
          "type": "address"
        }
      ],
      "name": "tokensOf",
      "outputs": [
        {
          "name": "_tokenIds",
          "type": "uint256[]"
        }
      ],
      "payable": false,
      "stateMutability": "view",
      "type": "function"
    },
    {
      "constant": true,
      "inputs": [],
      "name": "allBoxNumbers",
      "outputs": [
        {
          "name": "_boxNumbers",
          "type": "uint256[]"
        }
      ],
      "payable": false,
      "stateMutability": "view",
      "type": "function"
    },
    {
      "constant": true,
      "inputs": [
        {
          "name": "_boxNumber",
          "type": "uint256"
        }
      ],
      "name": "cardSetsInCirculation",
      "outputs": [
        {
          "name": "_cardSetCirculationLength",
          "type": "uint256"
        }
      ],
      "payable": false,
      "stateMutability": "view",
      "type": "function"
    },
    {
      "constant": true,
      "inputs": [
        {
          "name": "_boxNumber",
          "type": "uint256"
        }
      ],
      "name": "cardNumbersOf",
      "outputs": [
        {
          "name": "_cardNumbersArray",
          "type": "uint256[]"
        }
      ],
      "payable": false,
      "stateMutability": "view",
      "type": "function"
    },
    {
      "constant": true,
      "inputs": [
        {
          "name": "_owner",
          "type": "address"
        }
      ],
      "name": "hasTokens",
      "outputs": [
        {
          "name": "",
          "type": "bool"
        }
      ],
      "payable": false,
      "stateMutability": "view",
      "type": "function"
    },
    {
      "constant": false,
      "inputs": [
        {
          "name": "_recipient",
          "type": "address"
        }
      ],
      "name": "addCredit",
      "outputs": [],
      "payable": false,
      "stateMutability": "nonpayable",
      "type": "function"
    },
    {
      "constant": true,
      "inputs": [
        {
          "name": "_tokenId",
          "type": "uint256"
        }
      ],
      "name": "tokenURI",
      "outputs": [
        {
          "name": "",
          "type": "string"
        }
      ],
      "payable": false,
      "stateMutability": "view",
      "type": "function"
    },
    {
      "constant": false,
      "inputs": [
        {
          "name": "_newBaseURI",
          "type": "string"
        }
      ],
      "name": "setTokenBaseURI",
      "outputs": [],
      "payable": false,
      "stateMutability": "nonpayable",
      "type": "function"
    }
  ],
  "bytecode": "0x60c0604052601c60808190527f68747470733a2f2f697066732e696e667572612e696f2f697066732f0000000060a09081526200004091600d919062000268565b506000600e556000600f556000601055620f424060115560006012553480156200006957600080fd5b5060408051808201825260048082527f4b4f544100000000000000000000000000000000000000000000000000000000602080840182905284518086019095529184529083015290620000e57f01ffc9a700000000000000000000000000000000000000000000000000000000640100000000620001fb810204565b620001197f80ac58cd00000000000000000000000000000000000000000000000000000000640100000000620001fb810204565b6200014d7f4f558e7900000000000000000000000000000000000000000000000000000000640100000000620001fb810204565b81516200016290600590602085019062000268565b5080516200017890600690602084019062000268565b50620001ad7f780e9d6300000000000000000000000000000000000000000000000000000000640100000000620001fb810204565b620001e17f5b5e139f00000000000000000000000000000000000000000000000000000000640100000000620001fb810204565b5050600c8054600160a060020a031916331790556200030d565b7fffffffff0000000000000000000000000000000000000000000000000000000080821614156200022b57600080fd5b7fffffffff00000000000000000000000000000000000000000000000000000000166000908152602081905260409020805460ff19166001179055565b828054600181600116156101000203166002900490600052602060002090601f016020900481019282601f10620002ab57805160ff1916838001178555620002db565b82800160010185558215620002db579182015b82811115620002db578251825591602001919060010190620002be565b50620002e9929150620002ed565b5090565b6200030a91905b80821115620002e95760008155600101620002f4565b90565b61300c806200031d6000396000f30060806040526004361061020e5763ffffffff7c010000000000000000000000000000000000000000000000000000000060003504166301ffc9a7811461021b57806306832ec81461025157806306fdde03146103c8578063081812fc14610452578063095ea7b314610486578063156e29f6146104aa57806318160ddd146104d157806319fa8f50146104f857806323b872dd1461052a5780632f745c5914610554578063367ad6ea146105785780633cefc1e01461059057806342842e0e146105b157806342966c68146105db5780634f558e79146105f35780634f6ccce71461060b5780635a3f2672146106235780636352211e1461069457806365419aa8146106ac5780636d98e9fc146106c45780636fd76381146106d957806370a08231146106f1578063715018a61461071257806374d050fb146107275780637c334d0b1461073f5780638da5cb5b146107605780638ef79e911461077557806390af1333146107955780639154fb8b146107aa57806395d89b41146107bf578063982620d0146107d45780639de6c45b146107e9578063a22cb465146108ce578063b88d4fde146108f4578063c61e5be614610963578063c87b56dd1461097b578063cdc39f4a14610993578063dc45bfb314610a0f578063e77854cd14610a1a578063e8bb10db14610a2f578063e985e9c514610ac1578063f2fde38b14610ae8578063fe5ff46814610b09575b610219601154610b2a565b005b34801561022757600080fd5b5061023d600160e060020a031960043516610c59565b604080519115158252519081900360200190f35b34801561025d57600080fd5b50610269600435610c78565b604051808781526020018060200180602001806020018681526020018560ff1660ff168152602001848103845289818151815260200191508051906020019080838360005b838110156102c65781810151838201526020016102ae565b50505050905090810190601f1680156102f35780820380516001836020036101000a031916815260200191505b5084810383528851815288516020918201918a019080838360005b8381101561032657818101518382015260200161030e565b50505050905090810190601f1680156103535780820380516001836020036101000a031916815260200191505b50848103825287518152875160209182019189019080838360005b8381101561038657818101518382015260200161036e565b50505050905090810190601f1680156103b35780820380516001836020036101000a031916815260200191505b50995050505050505050505060405180910390f35b3480156103d457600080fd5b506103dd610e51565b6040805160208082528351818301528351919283929083019185019080838360005b838110156104175781810151838201526020016103ff565b50505050905090810190601f1680156104445780820380516001836020036101000a031916815260200191505b509250505060405180910390f35b34801561045e57600080fd5b5061046a600435610ee8565b60408051600160a060020a039092168252519081900360200190f35b34801561049257600080fd5b50610219600160a060020a0360043516602435610f03565b3480156104b657600080fd5b50610219600160a060020a0360043516602435604435610fac565b3480156104dd57600080fd5b506104e661107f565b60408051918252519081900360200190f35b34801561050457600080fd5b5061050d611085565b60408051600160e060020a03199092168252519081900360200190f35b34801561053657600080fd5b50610219600160a060020a03600435811690602435166044356110a9565b34801561056057600080fd5b506104e6600160a060020a036004351660243561114e565b34801561058457600080fd5b5061021960043561119b565b34801561059c57600080fd5b5061023d600160a060020a036004351661122e565b3480156105bd57600080fd5b50610219600160a060020a036004358116906024351660443561124a565b3480156105e757600080fd5b50610219600435611282565b3480156105ff57600080fd5b5061023d60043561128f565b34801561061757600080fd5b506104e66004356112ac565b34801561062f57600080fd5b50610644600160a060020a03600435166112e1565b60408051602080825283518183015283519192839290830191858101910280838360005b83811015610680578181015183820152602001610668565b505050509050019250505060405180910390f35b3480156106a057600080fd5b5061046a60043561134d565b3480156106b857600080fd5b506104e6600435611377565b3480156106d057600080fd5b506104e6611389565b3480156106e557600080fd5b506104e660043561138f565b3480156106fd57600080fd5b506104e6600160a060020a03600435166113a1565b34801561071e57600080fd5b506102196113d4565b34801561073357600080fd5b50610644600435611435565b34801561074b57600080fd5b50610219600160a060020a0360043516611495565b34801561076c57600080fd5b5061046a6114f2565b34801561078157600080fd5b506102196004803560248101910135611501565b3480156107a157600080fd5b50610644611529565b3480156107b657600080fd5b506104e6611580565b3480156107cb57600080fd5b506103dd611586565b3480156107e057600080fd5b506104e66115e7565b3480156107f557600080fd5b5060408051602060046024803582810135601f810185900485028601850190965285855261021995833595369560449491939091019190819084018382808284375050604080516020601f89358b018035918201839004830284018301909452808352979a99988101979196509182019450925082915084018382808284375050604080516020601f89358b018035918201839004830284018301909452808352979a999881019791965091820194509250829150840183828082843750949750508435955050505060209091013560ff1690506115ed565b3480156108da57600080fd5b50610219600160a060020a03600435166024351515611708565b34801561090057600080fd5b50604080516020601f60643560048181013592830184900484028501840190955281845261021994600160a060020a03813581169560248035909216956044359536956084940191819084018382808284375094975061178c9650505050505050565b34801561096f57600080fd5b506104e66004356117c4565b34801561098757600080fd5b506103dd6004356117d6565b34801561099f57600080fd5b50604080516020601f608435600481810135928301849004840285018401909552818452610219948035946024803595604435956064359536959460a494909391019190819084018382808284375094975050508335600160a060020a031694505050506020013560ff16611878565b610219600435610b2a565b348015610a2657600080fd5b506104e6611be9565b348015610a3b57600080fd5b50610a47600435611bef565b6040805189815260208082018a90529181018890526060810187905260808101869052600160a060020a03841660c082015260ff831660e082015261010060a0820181815286519183019190915285519192909161012084019187019080838360008381101561038657818101518382015260200161036e565b348015610acd57600080fd5b5061023d600160a060020a0360043581169060243516611cf0565b348015610af457600080fd5b50610219600160a060020a0360043516611d1e565b348015610b1557600080fd5b506104e6600160a060020a0360043516611d3e565b6000610b35826117c4565b11610b3f57600080fd5b600081815260146020526040902060040154341015610b5d57600080fd5b610b6681611d50565b600c54600082815260146020526040808220600401549051600160a060020a039093169281156108fc0292818181858888f19350505050158015610bae573d6000803e3d6000fd5b50600081815260146020526040902060040154601054610bd39163ffffffff611e9616565b6010556000818152601460205260408082206004015490513392349290920380156108fc0292909190818181858888f19350505050158015610c19573d6000803e3d6000fd5b506040805163ffffffff42168152905133917faa410191373df16155ba10f8d6e9705423d9bcfe3c1a1251ec041d47b9a59ca2919081900360200190a250565b600160e060020a03191660009081526020819052604090205460ff1690565b6014602090815260009182526040918290208054600180830180548651600293821615610100026000190190911692909204601f810186900486028301860190965285825291949293909290830182828015610d155780601f10610cea57610100808354040283529160200191610d15565b820191906000526020600020905b815481529060010190602001808311610cf857829003601f168201915b50505060028085018054604080516020601f6000196101006001871615020190941695909504928301859004850281018501909152818152959695945090925090830182828015610da75780601f10610d7c57610100808354040283529160200191610da7565b820191906000526020600020905b815481529060010190602001808311610d8a57829003601f168201915b5050505060038301805460408051602060026001851615610100026000190190941693909304601f8101849004840282018401909252818152949594935090830182828015610e375780601f10610e0c57610100808354040283529160200191610e37565b820191906000526020600020905b815481529060010190602001808311610e1a57829003601f168201915b50505050600483015460059093015491929160ff16905086565b60058054604080516020601f6002600019610100600188161502019095169490940493840181900481028201810190925282815260609390929091830182828015610edd5780601f10610eb257610100808354040283529160200191610edd565b820191906000526020600020905b815481529060010190602001808311610ec057829003601f168201915b505050505090505b90565b600090815260026020526040902054600160a060020a031690565b6000610f0e8261134d565b9050600160a060020a038381169082161415610f2957600080fd5b33600160a060020a0382161480610f455750610f458133611cf0565b1515610f5057600080fd5b6000828152600260205260408082208054600160a060020a031916600160a060020a0387811691821790925591518593918516917f8c5be1e5ebec7d5bd14f71427d1e84f3dd0314c0f7b2291e5b200ac8c7c3b92591a4505050565b600c546000908190600160a060020a03163314610fc857600080fd5b610fd8848463ffffffff611e9616565b60008181526015602052604081205491935010610ff457600080fd5b5060008181526015602052604090206002810154600382015461101e90600163ffffffff611e9616565b1061102857600080fd5b60008481526019602052604090205461104890600163ffffffff611e9616565b600085815260196020526040902055600f5461106b90600163ffffffff611e9616565b600f556110788582611ea3565b5050505050565b60095490565b7f01ffc9a70000000000000000000000000000000000000000000000000000000081565b806110b4338261200c565b15156110bf57600080fd5b600160a060020a03841615156110d457600080fd5b600160a060020a03831615156110e957600080fd5b6110f3848361206b565b6110fd84836120cf565b6111078383612208565b8183600160a060020a031685600160a060020a03167fddf252ad1be2c89b69c2b068fc378daa952ba7f163c4a11628f55a4df523b3ef60405160405180910390a450505050565b6000611159836113a1565b821061116457600080fd5b600160a060020a038316600090815260076020526040902080548390811061118857fe5b9060005260206000200154905092915050565b33600090815260136020526040812054116111b557600080fd5b336000908152601360205260409020546111d690600163ffffffff61225116565b336000908152601360205260409020556111ef81611d50565b6040805163ffffffff42168152905133917f4d9e18eaffdad4b1ef9cf8013bc960caef57f0d97a5ea42051cd83db63613e55919081900360200190a250565b600160a060020a03166000908152600760205260408120541190565b80611255338261200c565b151561126057600080fd5b61127c848484602060405190810160405280600081525061178c565b50505050565b61128c3382612263565b50565b600090815260016020526040902054600160a060020a0316151590565b60006112b661107f565b82106112c157600080fd5b60098054839081106112cf57fe5b90600052602060002001549050919050565b600160a060020a03811660009081526007602090815260409182902080548351818402810184019094528084526060939283018282801561134157602002820191906000526020600020905b81548152602001906001019080831161132d575b50505050509050919050565b600081815260016020526040812054600160a060020a031680151561137157600080fd5b92915050565b60196020526000908152604090205481565b60105481565b60186020526000908152604090205481565b6000600160a060020a03821615156113b857600080fd5b50600160a060020a031660009081526003602052604090205490565b600c54600160a060020a031633146113eb57600080fd5b600c54604051600160a060020a03909116907ff8df31144d9c2f0f6b59d69b8b98abd5459d07f2742c4df920b25aae33c6482090600090a2600c8054600160a060020a0319169055565b600081815260176020908152604091829020805483518184028101840190945280845260609392830182828015611341576020028201919060005260206000209081548152602001906001019080831161132d5750505050509050919050565b600c54600160a060020a031633146114ac57600080fd5b600160a060020a0381166000908152601360205260409020546114d690600163ffffffff611e9616565b600160a060020a03909116600090815260136020526040902055565b600c54600160a060020a031681565b600c54600160a060020a0316331461151857600080fd5b611524600d8383612cef565b505050565b6060601a805480602002602001604051908101604052809291908181526020018280548015610edd57602002820191906000526020600020905b815481526020019060010190808311611563575050505050905090565b600e5481565b60068054604080516020601f6002600019610100600188161502019095169490940493840181900481028201810190925282815260609390929091830182828015610edd5780601f10610eb257610100808354040283529160200191610edd565b60115481565b6115f5612d6d565b600c54600160a060020a0316331461160c57600080fd5b506040805160c0810182528781526020808201888152828401889052606083018790526080830186905260ff851660a084015260008a81526014835293909320825181559251805192938493909261166b926001850192910190612da7565b5060408201518051611687916002840191602090910190612da7565b50606082015180516116a3916003840191602090910190612da7565b506080820151600482015560a0909101516005909101805460ff191660ff9092169190911790555050601a80546001810182556000919091527f057c384a7d1c54f3a1b2e5e67b2617b8224fdfd1ea7234eea573a6ff665ff63e019490945550505050565b600160a060020a03821633141561171e57600080fd5b336000818152600460209081526040808320600160a060020a03871680855290835292819020805460ff1916861515908117909155815190815290519293927f17307eab39ab6107e8899845ad3d59bd9653f200f220920489ca2b5937696c31929181900390910190a35050565b81611797338261200c565b15156117a257600080fd5b6117ad8585856110a9565b6117b98585858561235d565b151561107857600080fd5b60009081526016602052604090205490565b600d805460408051602060026001851615610100026000190190941693909304601f810184900484028201840190925281815260609361137193919290918301828280156118655780601f1061183a57610100808354040283529160200191611865565b820191906000526020600020905b81548152906001019060200180831161184857829003601f168201915b5050505050611873846124ca565b612575565b6000611882612e15565b600c54600160a060020a0316331461189957600080fd5b6000898152601460205260408120541161191457604080517f08c379a000000000000000000000000000000000000000000000000000000000815260206004820152601060248201527f426f782073686f756c6420657869737400000000000000000000000000000000604482015290519081900360640190fd5b611924898963ffffffff611e9616565b600081815260156020526040902060010154909250156119a557604080517f08c379a000000000000000000000000000000000000000000000000000000000815260206004820152601960248201527f43617264205365742073686f756c64206e6f7420657869737400000000000000604482015290519081900360640190fd5b50604080516101008101825289815260208082018a81528284018a8152600060608501818152608086018c815260a087018c8152600160a060020a038c1660c089015260ff8b1660e089015289845260158752979092208651815593516001850155915160028401559051600383015551600482015592518051929384939092611a36926005850192910190612da7565b5060c08201516006909101805460e09093015160ff16740100000000000000000000000000000000000000000274ff000000000000000000000000000000000000000019600160a060020a03909316600160a060020a031990941693909317919091169190911790556000898152601660209081526040808320805460018181018084559286529484902086516007909202019081558584015194810194909455908401516002840155606084015160038401556080840151600484015560a08401518051919385939092611b119260058501920190612da7565b5060c08201516006909101805460e09093015160ff16740100000000000000000000000000000000000000000274ff000000000000000000000000000000000000000019600160a060020a03909316600160a060020a031990941693909317919091169190911790555060008981526017602090815260408083208054600181018255908452828420018b90558b83526018909152902054611bb9908863ffffffff611e9616565b60008a815260186020526040902055600e54611bdb908863ffffffff611e9616565b600e55505050505050505050565b600f5481565b6015602052806000526040600020600091509050806000015490806001015490806002015490806003015490806004015490806005018054600181600116156101000203166002900480601f016020809104026020016040519081016040528092919081815260200182805460018160011615610100020316600290048015611cb95780601f10611c8e57610100808354040283529160200191611cb9565b820191906000526020600020905b815481529060010190602001808311611c9c57829003601f168201915b50505060069093015491925050600160a060020a0381169060ff740100000000000000000000000000000000000000009091041688565b600160a060020a03918216600090815260046020908152604080832093909416825291909152205460ff1690565b600c54600160a060020a03163314611d3557600080fd5b61128c816125b1565b60136020526000908152604090205481565b60008080333214611d6057600080fd5b600092505b60008481526014602052604090206005015460ff16831015611e2a57611d8e8484600101612622565b600085815260166020526040902080549193509083908110611dac57fe5b90600052602060002090600702019050611dc63382611ea3565b806002015481600301541415611e1f57611de084836126ff565b60018101546040805163ffffffff4216815290517f9b0b9d1a520cddbaf3796589db30746775a90fc149624d9e9851630912dc04c79181900360200190a25b600190920191611d65565b600084815260146020908152604080832060050154601990925290912054611e5a9160ff1663ffffffff611e9616565b600085815260196020908152604080832093909355601490522060050154600f54611e8d9160ff1663ffffffff611e9616565b600f5550505050565b8181018281101561137157fe5b6000808260020154111515611eb757600080fd5b600282015460038301541115611ecc57600080fd5b6003820154611ee290600163ffffffff611e9616565b6003830181905560018301548354611f119291611f05919063ffffffff611e9616565b9063ffffffff611e9616565b9050611f1d838261284d565b60058201805460408051602060026001851615610100026000190190941693909304601f8101849004840282018401909252818152611fb793859391929091830182828015611fad5780601f10611f8257610100808354040283529160200191611fad565b820191906000526020600020905b815481529060010190602001808311611f9057829003601f168201915b505050505061289c565b60048201546040805191825263ffffffff4216602083015280518392600160a060020a038716927f5d332e130eeb3924324a7454ddca461c4cd17fa86d4ad51dcceef6cc4f44772692918290030190a3505050565b6000806120188361134d565b905080600160a060020a031684600160a060020a03161480612053575083600160a060020a031661204884610ee8565b600160a060020a0316145b8061206357506120638185611cf0565b949350505050565b81600160a060020a031661207e8261134d565b600160a060020a03161461209157600080fd5b600081815260026020526040902054600160a060020a0316156120cb5760008181526002602052604090208054600160a060020a03191690555b5050565b60008060006120de85856128cf565b600084815260086020908152604080832054600160a060020a038916845260079092529091205490935061211990600163ffffffff61225116565b600160a060020a03861660009081526007602052604090208054919350908390811061214157fe5b90600052602060002001549050806007600087600160a060020a0316600160a060020a031681526020019081526020016000208481548110151561218157fe5b6000918252602080832090910192909255600160a060020a03871681526007909152604081208054849081106121b357fe5b6000918252602080832090910192909255600160a060020a03871681526007909152604090208054906121ea906000198301612e58565b50600093845260086020526040808520859055908452909220555050565b60006122148383612958565b50600160a060020a039091166000908152600760209081526040808320805460018101825590845282842081018590559383526008909152902055565b60008282111561225d57fe5b50900390565b600080600061227285856129db565b6000848152600b602052604090205460026000196101006001841615020190911604156122b0576000848152600b602052604081206122b091612e7c565b6000848152600a60205260409020546009549093506122d690600163ffffffff61225116565b91506009828154811015156122e757fe5b906000526020600020015490508060098481548110151561230457fe5b6000918252602082200191909155600980548490811061232057fe5b600091825260209091200155600980549061233f906000198301612e58565b506000938452600a6020526040808520859055908452909220555050565b60008061237285600160a060020a0316612a2b565b151561238157600191506124c1565b6040517f150b7a020000000000000000000000000000000000000000000000000000000081523360048201818152600160a060020a03898116602485015260448401889052608060648501908152875160848601528751918a169463150b7a0294938c938b938b93909160a490910190602085019080838360005b838110156124145781810151838201526020016123fc565b50505050905090810190601f1680156124415780820380516001836020036101000a031916815260200191505b5095505050505050602060405180830381600087803b15801561246357600080fd5b505af1158015612477573d6000803e3d6000fd5b505050506040513d602081101561248d57600080fd5b5051600160e060020a031981167f150b7a020000000000000000000000000000000000000000000000000000000014925090505b50949350505050565b60606124d58261128f565b15156124e057600080fd5b6000828152600b602090815260409182902080548351601f6002600019610100600186161502019093169290920491820184900484028101840190945280845290918301828280156113415780601f1061254857610100808354040283529160200191611341565b820191906000526020600020905b8154815290600101906020018083116125565750939695505050505050565b6040805160208181018352600080835283518083018552818152845192830190945281526060926125aa928692869290612a33565b9392505050565b600160a060020a03811615156125c657600080fd5b600c54604051600160a060020a038084169216907f8be0079c531659141344cd1fd0a4f28419497f9722a3daafe3b4186f6b6457e090600090a3600c8054600160a060020a031916600160a060020a0392909216919091179055565b6000606081831161263257600080fd5b60125461264690600163ffffffff611e9616565b601281905560408051438690034060208201526c010000000000000000000000003302818301526054808201939093528151808203909301835260740190529050612690846117c4565b816040518082805190602001908083835b602083106126c05780518252601f1990920191602091820191016126a1565b5181516020939093036101000a60001901801990911692169190911790526040519201829003909120925050508115156126f657fe5b06949350505050565b6000600161270c846117c4565b0390508082111561271c57600080fd5b600083815260166020526040902080548290811061273657fe5b9060005260206000209060070201601660008581526020019081526020016000208381548110151561276457fe5b60009182526020909120825460079092020190815560018083015481830155600280840154818401556003808501549084015560048085015490840155600580850180546127c49492860193919281161561010002600019011604612ec0565b5060069182018054919092018054600160a060020a031916600160a060020a0390921691909117808255915460ff7401000000000000000000000000000000000000000091829004160274ff000000000000000000000000000000000000000019909216919091179055600083815260166020526040902080549061127c906000198301612f35565b6128578282612c94565b600980546000838152600a60205260408120829055600182018355919091527f6e1540171b6c0c960b71a7020d9f60077f6af931a8bbf590da0223dacf75c7af015550565b6128a58261128f565b15156128b057600080fd5b6000828152600b60209081526040909120825161152492840190612da7565b81600160a060020a03166128e28261134d565b600160a060020a0316146128f557600080fd5b600160a060020a03821660009081526003602052604090205461291f90600163ffffffff61225116565b600160a060020a039092166000908152600360209081526040808320949094559181526001909152208054600160a060020a0319169055565b600081815260016020526040902054600160a060020a03161561297a57600080fd5b60008181526001602081815260408084208054600160a060020a031916600160a060020a03881690811790915584526003909152909120546129bb91611e96565b600160a060020a0390921660009081526003602052604090209190915550565b6129e5828261206b565b6129ef82826120cf565b6040518190600090600160a060020a038516907fddf252ad1be2c89b69c2b068fc378daa952ba7f163c4a11628f55a4df523b3ef908390a45050565b6000903b1190565b6060806060806060806060806000808e98508d97508c96508b95508a94508451865188518a518c51010101016040519080825280601f01601f191660200182016040528015612a8c578160200160208202803883390190505b50935083925060009150600090505b8851811015612af9578881815181101515612ab257fe5b90602001015160f860020a900460f860020a028383806001019450815181101515612ad957fe5b906020010190600160f860020a031916908160001a905350600101612a9b565b5060005b8751811015612b5b578781815181101515612b1457fe5b90602001015160f860020a900460f860020a028383806001019450815181101515612b3b57fe5b906020010190600160f860020a031916908160001a905350600101612afd565b5060005b8651811015612bbd578681815181101515612b7657fe5b90602001015160f860020a900460f860020a028383806001019450815181101515612b9d57fe5b906020010190600160f860020a031916908160001a905350600101612b5f565b5060005b8551811015612c1f578581815181101515612bd857fe5b90602001015160f860020a900460f860020a028383806001019450815181101515612bff57fe5b906020010190600160f860020a031916908160001a905350600101612bc1565b5060005b8451811015612c81578481815181101515612c3a57fe5b90602001015160f860020a900460f860020a028383806001019450815181101515612c6157fe5b906020010190600160f860020a031916908160001a905350600101612c23565b50909d9c50505050505050505050505050565b600160a060020a0382161515612ca957600080fd5b612cb38282612208565b6040518190600160a060020a038416906000907fddf252ad1be2c89b69c2b068fc378daa952ba7f163c4a11628f55a4df523b3ef908290a45050565b828054600181600116156101000203166002900490600052602060002090601f016020900481019282601f10612d305782800160ff19823516178555612d5d565b82800160010185558215612d5d579182015b82811115612d5d578235825591602001919060010190612d42565b50612d69929150612f61565b5090565b60c0604051908101604052806000815260200160608152602001606081526020016060815260200160008152602001600060ff1681525090565b828054600181600116156101000203166002900490600052602060002090601f016020900481019282601f10612de857805160ff1916838001178555612d5d565b82800160010185558215612d5d579182015b82811115612d5d578251825591602001919060010190612dfa565b604080516101008101825260008082526020820181905291810182905260608082018390526080820183905260a082015260c0810182905260e081019190915290565b81548183558181111561152457600083815260209020611524918101908301612f61565b50805460018160011615610100020316600290046000825580601f10612ea2575061128c565b601f01602090049060005260206000209081019061128c9190612f61565b828054600181600116156101000203166002900490600052602060002090601f016020900481019282601f10612ef95780548555612d5d565b82800160010185558215612d5d57600052602060002091601f016020900482015b82811115612d5d578254825591600101919060010190612f1a565b815481835581811115611524576007028160070283600052602060002091820191016115249190612f7b565b610ee591905b80821115612d695760008155600101612f67565b610ee591905b80821115612d6957600080825560018201819055600282018190556003820181905560048201819055612fb76005830182612e7c565b5060068101805474ffffffffffffffffffffffffffffffffffffffffff19169055600701612f815600a165627a7a72305820588d621f41847fe493eed0fffce81328e91f12ec9cda5adb79a2cebe89daad170029",
  "source": "pragma solidity ^0.4.24;\n\nimport \"./Strings.sol\";\n\nimport 'openzeppelin-solidity/contracts/ownership/Ownable.sol';\nimport 'openzeppelin-solidity/contracts/math/SafeMath.sol';\nimport 'openzeppelin-solidity/contracts/token/ERC721/ERC721Token.sol';\n\n/**\n* @title KOTA aka KnownOrigin Trading Assets\n*\n* max 999 cards per box - if box interval is 1000000\n* max 999 minted per card - if card set interval is 1000\n*/\ncontract KOTA is ERC721Token, Ownable {\n  using SafeMath for uint256;\n\n  event CardMinted(address indexed _owner, uint256 indexed _tokenId, bytes32 _name, uint32 _mintTime);\n  event CardSetSoldOut(uint256 indexed _cardNumber, uint32 _soldOutTime);\n  event CardPackBought(address indexed _owner, uint32 _boughtTime);\n  event CardPackRedeemed(address indexed _owner, uint32 _giftTime);\n\n  string internal tokenBaseURI = \"https://ipfs.infura.io/ipfs/\";\n\n  uint256 public totalCardsInCirculation = 0;\n  uint256 public totalCardsInCirculationSold = 0;\n  uint256 public totalWei = 0;\n\n  uint256 public defaultBoxNumber = 1000000;\n\n  uint256 internal randNonce = 0;\n\n  mapping(address => uint) public credits;\n\n  struct Box {\n    uint256 boxNumber;\n    string title;\n    string description;\n    string boxURI;\n    uint256 costOfPack;\n    uint8 cardsPerPack;\n  }\n\n  struct CardSet {\n    uint256 boxNumber;\n    uint256 cardNumber;\n    uint256 totalSupply;\n    uint256 minted;\n    bytes32 cardName;\n    string cardURI;\n    address artist;\n    uint8 artistShare;\n  }\n  mapping(uint256 => Box) public boxNumberToBox;\n\n  mapping(uint256 => CardSet) public boxCardNumberToCardSet;\n\n  mapping(uint256 => CardSet[]) internal boxNumberToCardSetCirculation;\n  mapping(uint256 => uint256[]) internal boxNumberToCardNumbers;\n\n  mapping(uint256 => uint256) public boxNumberToCardsInCirculation;\n  mapping(uint256 => uint256) public boxNumberToCardsInCirculationSold;\n\n  uint256[] internal boxNumbers;\n\n  constructor() public ERC721Token(\"KOTA\", \"KOTA\") {}\n\n  // can buy direct from contract if you send enough ether\n  function() public payable {\n    buyPack(defaultBoxNumber);\n  }\n\n  function addBox(uint256 _boxNumber, string _title, string _description, string _boxUri,  uint256 _costOfPack, uint8 _cardsPerPack) public onlyOwner {\n    Box memory _newBox = Box(_boxNumber, _title, _description, _boxUri, _costOfPack, _cardsPerPack);\n\n    boxNumberToBox[_boxNumber] = _newBox;\n    boxNumbers.push(_boxNumber);\n  }\n\n  function addCardSet(\n    uint256 _boxNumber,\n    uint256 _cardNumber,\n    uint256 _totalSupply,\n    bytes32 _cardName,\n    string _cardUri,\n    address _artist,\n    uint8 _artistShare\n  ) public onlyOwner {\n    require(boxNumberToBox[_boxNumber].boxNumber > 0, \"Box should exist\");\n\n    uint256 _boxCardNumber = _boxNumber.add(_cardNumber);\n    require(boxCardNumberToCardSet[_boxCardNumber].cardNumber == 0, \"Card Set should not exist\");\n\n    // add new card set by boxCardNumber\n    CardSet memory _newCardSet = CardSet(_boxNumber, _cardNumber, _totalSupply, 0, _cardName, _cardUri, _artist, _artistShare);\n    boxCardNumberToCardSet[_boxCardNumber] = _newCardSet;\n\n    // add to box circulation\n    boxNumberToCardSetCirculation[_boxNumber].push(_newCardSet);\n    boxNumberToCardNumbers[_boxNumber].push(_cardNumber);\n\n    boxNumberToCardsInCirculation[_boxNumber] = boxNumberToCardsInCirculation[_boxNumber].add(_totalSupply);\n    totalCardsInCirculation = totalCardsInCirculation.add(_totalSupply);\n  }\n\n  /**\n   * @dev mints a single card\n   * @param _to who will get the card\n   * @param _boxNumber box number of card to mint\n   * @param _cardNumber card number of the card set to transfer\n   */\n  function mint(address _to, uint256 _boxNumber, uint256 _cardNumber) public onlyOwner {\n    uint256 _boxCardNumber = _boxNumber.add(_cardNumber);\n    require(boxCardNumberToCardSet[_boxCardNumber].boxNumber > 0); // ensure real card set\n\n    CardSet storage cardSet = boxCardNumberToCardSet[_boxCardNumber];\n\n    // don't transfer last card!\n    // buyPack removes from circulation via index - we don't know index here...\n    require(cardSet.minted.add(1) < cardSet.totalSupply);\n\n    boxNumberToCardsInCirculationSold[_boxNumber] = boxNumberToCardsInCirculationSold[_boxNumber].add(1);\n    totalCardsInCirculationSold = totalCardsInCirculationSold.add(1);\n\n    _mint(_to, cardSet);\n  }\n\n  /**\n   * @dev Buys a pack of cards\n   */\n  function buyPack(uint256 _boxNumber) public payable {\n    require(cardSetsInCirculation(_boxNumber) > 0);\n    require(msg.value >= boxNumberToBox[_boxNumber].costOfPack);\n\n    _randomPack(_boxNumber);\n\n    // reconcile payments\n    owner.transfer(boxNumberToBox[_boxNumber].costOfPack);\n    totalWei = totalWei.add(boxNumberToBox[_boxNumber].costOfPack);\n\n    // give back the change - if any\n    msg.sender.transfer(msg.value - boxNumberToBox[_boxNumber].costOfPack);\n    emit CardPackBought(msg.sender, uint32(now));\n  }\n\n  /**\n   * @dev Redeem a pack of cards (via a credit)\n   */\n  function redeemPack(uint256 _boxNumber) public {\n    require(credits[msg.sender] > 0);\n\n    // remove credit\n    credits[msg.sender] = credits[msg.sender].sub(1);\n\n    _randomPack(_boxNumber);\n\n    emit CardPackRedeemed(msg.sender, uint32(now));\n  }\n\n  // FIXME think about this...\n  function burn(uint256 _tokenId) public {\n    super._burn(msg.sender, _tokenId);\n  }\n\n  /**\n   * @dev Return owned tokens\n   * @param _owner address to query\n   */\n  function tokensOf(address _owner) public view returns (uint256[] _tokenIds) {\n    return ownedTokens[_owner];\n  }\n\n  /**\n   * @dev All box numbers\n   */\n  function allBoxNumbers() public view returns (uint256[] _boxNumbers) {\n    return boxNumbers;\n  }\n\n  /**\n   * @dev number of card sets in circulation for a box\n   * @param _boxNumber box number of card sets\n   */\n  function cardSetsInCirculation(uint256 _boxNumber) public view returns (uint256 _cardSetCirculationLength) {\n    return boxNumberToCardSetCirculation[_boxNumber].length;\n  }\n\n  /**\n   * @dev card numbers for a box\n   * @param _boxNumber box number of card sets\n   */\n  function cardNumbersOf(uint256 _boxNumber) public view returns (uint256[] _cardNumbersArray) {\n    return boxNumberToCardNumbers[_boxNumber];\n  }\n\n  /**\n   * @dev checks for owned tokens\n   * @param _owner address to query\n   */\n  function hasTokens(address _owner) public constant returns (bool) {\n    return ownedTokens[_owner].length > 0;\n  }\n\n  /**\n   * @dev Utility function to credit address with packs they can redeem\n   * @dev Reverts if not called by owner\n   * @param _recipient receiver of credit\n   */\n  function addCredit(address _recipient) external onlyOwner {\n    credits[_recipient] = credits[_recipient].add(1);\n  }\n\n  /**\n   * @dev Get token URI fro the given token, useful for testing purposes\n   * @param _tokenId the token ID\n   * @return the token ID or only the base URI if not found\n   */\n  function tokenURI(uint256 _tokenId) public view returns (string) {\n    return Strings.strConcat(tokenBaseURI, super.tokenURI(_tokenId));\n  }\n\n  /**\n   * @dev Allows management to update the base tokenURI path\n   * @dev Reverts if not called by owner\n   * @param _newBaseURI the new base URI to set\n   */\n  function setTokenBaseURI(string _newBaseURI) external onlyOwner {\n    tokenBaseURI = _newBaseURI;\n  }\n\n  function _randomPack(uint256 _boxNumber) internal {\n    // thanks CryptoStrikers!\n    require(msg.sender == tx.origin);\n\n    for (uint i = 0; i < boxNumberToBox[_boxNumber].cardsPerPack; i++) {\n      uint _index = _randomCardSetIndex(_boxNumber, i + 1);\n      CardSet storage pickedSet = boxNumberToCardSetCirculation[_boxNumber][_index];\n\n      _mint(msg.sender, pickedSet);\n\n      // remove from circulation if minted == totalSupply\n      if (pickedSet.minted == pickedSet.totalSupply) {\n        _removeCardSetAtIndex(_boxNumber, _index);\n        emit CardSetSoldOut(pickedSet.cardNumber, uint32(now));\n      }\n    }\n\n    boxNumberToCardsInCirculationSold[_boxNumber] = boxNumberToCardsInCirculationSold[_boxNumber].add(boxNumberToBox[_boxNumber].cardsPerPack);\n    totalCardsInCirculationSold = totalCardsInCirculationSold.add(boxNumberToBox[_boxNumber].cardsPerPack);\n  }\n\n  function _randomCardSetIndex(uint256 _boxNumber, uint _index) internal returns (uint) {\n    require(_index > 0);\n\n    randNonce = randNonce.add(1);\n    bytes memory packed = abi.encodePacked(blockhash(block.number - _index), msg.sender, randNonce);\n    return uint256(keccak256(packed)) % cardSetsInCirculation(_boxNumber);\n  }\n\n  function _mint(address _to, CardSet storage _cardSet) internal {\n    // ensure valid card set\n    require(_cardSet.totalSupply > 0);\n    require(_cardSet.minted <= _cardSet.totalSupply);\n\n    _cardSet.minted = _cardSet.minted.add(1);\n    uint256 cardSerialNumber = _cardSet.boxNumber.add(_cardSet.cardNumber).add(_cardSet.minted);\n\n    super._mint(_to, cardSerialNumber);\n    super._setTokenURI(cardSerialNumber, _cardSet.cardURI);\n\n    emit CardMinted(_to, cardSerialNumber, _cardSet.cardName, uint32(now));\n  }\n\n  function _removeCardSetAtIndex(uint256 _boxNumber, uint256 _index) internal {\n    uint lastIndex = cardSetsInCirculation(_boxNumber) - 1;\n    require(_index <= lastIndex);\n\n    boxNumberToCardSetCirculation[_boxNumber][_index] = boxNumberToCardSetCirculation[_boxNumber][lastIndex];\n    boxNumberToCardSetCirculation[_boxNumber].length--;\n  }\n}\n",
  "sourcePath": "/Users/andy/workspace/cbfc/contracts/KOTA.sol",
  "compiler": {
    "name": "solc",
    "version": "0.4.24+commit.e67f0147.Emscripten.clang"
  },
  "schemaVersion": "2.0.1",
  "updatedAt": "2018-08-20T12:01:47.202Z"
}