{
  "contractName": "KOTA",
  "abi": [
    {
      "constant": true,
      "inputs": [
        {
          "name": "_interfaceId",
          "type": "bytes4"
        }
      ],
      "name": "supportsInterface",
      "outputs": [
        {
          "name": "",
          "type": "bool"
        }
      ],
      "payable": false,
      "stateMutability": "view",
      "type": "function",
      "signature": "0x01ffc9a7"
    },
    {
      "constant": true,
      "inputs": [
        {
          "name": "",
          "type": "uint256"
        }
      ],
      "name": "boxNumberToBox",
      "outputs": [
        {
          "name": "boxNumber",
          "type": "uint256"
        },
        {
          "name": "title",
          "type": "string"
        },
        {
          "name": "description",
          "type": "string"
        },
        {
          "name": "boxURI",
          "type": "string"
        },
        {
          "name": "costOfPack",
          "type": "uint256"
        },
        {
          "name": "cardsPerPack",
          "type": "uint8"
        }
      ],
      "payable": false,
      "stateMutability": "view",
      "type": "function",
      "signature": "0x06832ec8"
    },
    {
      "constant": true,
      "inputs": [],
      "name": "name",
      "outputs": [
        {
          "name": "",
          "type": "string"
        }
      ],
      "payable": false,
      "stateMutability": "view",
      "type": "function",
      "signature": "0x06fdde03"
    },
    {
      "constant": true,
      "inputs": [
        {
          "name": "_tokenId",
          "type": "uint256"
        }
      ],
      "name": "getApproved",
      "outputs": [
        {
          "name": "",
          "type": "address"
        }
      ],
      "payable": false,
      "stateMutability": "view",
      "type": "function",
      "signature": "0x081812fc"
    },
    {
      "constant": false,
      "inputs": [
        {
          "name": "_to",
          "type": "address"
        },
        {
          "name": "_tokenId",
          "type": "uint256"
        }
      ],
      "name": "approve",
      "outputs": [],
      "payable": false,
      "stateMutability": "nonpayable",
      "type": "function",
      "signature": "0x095ea7b3"
    },
    {
      "constant": true,
      "inputs": [
        {
          "name": "_operator",
          "type": "address"
        },
        {
          "name": "_role",
          "type": "string"
        }
      ],
      "name": "checkRole",
      "outputs": [],
      "payable": false,
      "stateMutability": "view",
      "type": "function",
      "signature": "0x0988ca8c"
    },
    {
      "constant": true,
      "inputs": [],
      "name": "totalSupply",
      "outputs": [
        {
          "name": "",
          "type": "uint256"
        }
      ],
      "payable": false,
      "stateMutability": "view",
      "type": "function",
      "signature": "0x18160ddd"
    },
    {
      "constant": true,
      "inputs": [],
      "name": "InterfaceId_ERC165",
      "outputs": [
        {
          "name": "",
          "type": "bytes4"
        }
      ],
      "payable": false,
      "stateMutability": "view",
      "type": "function",
      "signature": "0x19fa8f50"
    },
    {
      "constant": true,
      "inputs": [
        {
          "name": "_operator",
          "type": "address"
        },
        {
          "name": "_role",
          "type": "string"
        }
      ],
      "name": "hasRole",
      "outputs": [
        {
          "name": "",
          "type": "bool"
        }
      ],
      "payable": false,
      "stateMutability": "view",
      "type": "function",
      "signature": "0x217fe6c6"
    },
    {
      "constant": false,
      "inputs": [
        {
          "name": "_from",
          "type": "address"
        },
        {
          "name": "_to",
          "type": "address"
        },
        {
          "name": "_tokenId",
          "type": "uint256"
        }
      ],
      "name": "transferFrom",
      "outputs": [],
      "payable": false,
      "stateMutability": "nonpayable",
      "type": "function",
      "signature": "0x23b872dd"
    },
    {
      "constant": true,
      "inputs": [
        {
          "name": "_owner",
          "type": "address"
        },
        {
          "name": "_index",
          "type": "uint256"
        }
      ],
      "name": "tokenOfOwnerByIndex",
      "outputs": [
        {
          "name": "",
          "type": "uint256"
        }
      ],
      "payable": false,
      "stateMutability": "view",
      "type": "function",
      "signature": "0x2f745c59"
    },
    {
      "constant": false,
      "inputs": [],
      "name": "unpause",
      "outputs": [],
      "payable": false,
      "stateMutability": "nonpayable",
      "type": "function",
      "signature": "0x3f4ba83a"
    },
    {
      "constant": false,
      "inputs": [
        {
          "name": "_from",
          "type": "address"
        },
        {
          "name": "_to",
          "type": "address"
        },
        {
          "name": "_tokenId",
          "type": "uint256"
        }
      ],
      "name": "safeTransferFrom",
      "outputs": [],
      "payable": false,
      "stateMutability": "nonpayable",
      "type": "function",
      "signature": "0x42842e0e"
    },
    {
      "constant": true,
      "inputs": [
        {
          "name": "_tokenId",
          "type": "uint256"
        }
      ],
      "name": "exists",
      "outputs": [
        {
          "name": "",
          "type": "bool"
        }
      ],
      "payable": false,
      "stateMutability": "view",
      "type": "function",
      "signature": "0x4f558e79"
    },
    {
      "constant": true,
      "inputs": [
        {
          "name": "_index",
          "type": "uint256"
        }
      ],
      "name": "tokenByIndex",
      "outputs": [
        {
          "name": "",
          "type": "uint256"
        }
      ],
      "payable": false,
      "stateMutability": "view",
      "type": "function",
      "signature": "0x4f6ccce7"
    },
    {
      "constant": true,
      "inputs": [],
      "name": "paused",
      "outputs": [
        {
          "name": "",
          "type": "bool"
        }
      ],
      "payable": false,
      "stateMutability": "view",
      "type": "function",
      "signature": "0x5c975abb"
    },
    {
      "constant": true,
      "inputs": [
        {
          "name": "_tokenId",
          "type": "uint256"
        }
      ],
      "name": "ownerOf",
      "outputs": [
        {
          "name": "",
          "type": "address"
        }
      ],
      "payable": false,
      "stateMutability": "view",
      "type": "function",
      "signature": "0x6352211e"
    },
    {
      "constant": true,
      "inputs": [
        {
          "name": "",
          "type": "uint256"
        }
      ],
      "name": "boxNumberToCardsInCirculationSold",
      "outputs": [
        {
          "name": "",
          "type": "uint256"
        }
      ],
      "payable": false,
      "stateMutability": "view",
      "type": "function",
      "signature": "0x65419aa8"
    },
    {
      "constant": true,
      "inputs": [],
      "name": "totalWei",
      "outputs": [
        {
          "name": "",
          "type": "uint256"
        }
      ],
      "payable": false,
      "stateMutability": "view",
      "type": "function",
      "signature": "0x6d98e9fc"
    },
    {
      "constant": true,
      "inputs": [
        {
          "name": "",
          "type": "uint256"
        }
      ],
      "name": "boxNumberToCardsInCirculation",
      "outputs": [
        {
          "name": "",
          "type": "uint256"
        }
      ],
      "payable": false,
      "stateMutability": "view",
      "type": "function",
      "signature": "0x6fd76381"
    },
    {
      "constant": true,
      "inputs": [
        {
          "name": "_owner",
          "type": "address"
        }
      ],
      "name": "balanceOf",
      "outputs": [
        {
          "name": "",
          "type": "uint256"
        }
      ],
      "payable": false,
      "stateMutability": "view",
      "type": "function",
      "signature": "0x70a08231"
    },
    {
      "constant": false,
      "inputs": [],
      "name": "renounceOwnership",
      "outputs": [],
      "payable": false,
      "stateMutability": "nonpayable",
      "type": "function",
      "signature": "0x715018a6"
    },
    {
      "constant": false,
      "inputs": [],
      "name": "pause",
      "outputs": [],
      "payable": false,
      "stateMutability": "nonpayable",
      "type": "function",
      "signature": "0x8456cb59"
    },
    {
      "constant": true,
      "inputs": [
        {
          "name": "",
          "type": "uint256"
        }
      ],
      "name": "tokenIdToStars",
      "outputs": [
        {
          "name": "",
          "type": "uint256"
        }
      ],
      "payable": false,
      "stateMutability": "view",
      "type": "function",
      "signature": "0x85205acb"
    },
    {
      "constant": true,
      "inputs": [],
      "name": "owner",
      "outputs": [
        {
          "name": "",
          "type": "address"
        }
      ],
      "payable": false,
      "stateMutability": "view",
      "type": "function",
      "signature": "0x8da5cb5b"
    },
    {
      "constant": true,
      "inputs": [],
      "name": "totalCardsInCirculation",
      "outputs": [
        {
          "name": "",
          "type": "uint256"
        }
      ],
      "payable": false,
      "stateMutability": "view",
      "type": "function",
      "signature": "0x9154fb8b"
    },
    {
      "constant": true,
      "inputs": [],
      "name": "symbol",
      "outputs": [
        {
          "name": "",
          "type": "string"
        }
      ],
      "payable": false,
      "stateMutability": "view",
      "type": "function",
      "signature": "0x95d89b41"
    },
    {
      "constant": true,
      "inputs": [],
      "name": "defaultBoxNumber",
      "outputs": [
        {
          "name": "",
          "type": "uint256"
        }
      ],
      "payable": false,
      "stateMutability": "view",
      "type": "function",
      "signature": "0x982620d0"
    },
    {
      "constant": false,
      "inputs": [
        {
          "name": "_to",
          "type": "address"
        },
        {
          "name": "_approved",
          "type": "bool"
        }
      ],
      "name": "setApprovalForAll",
      "outputs": [],
      "payable": false,
      "stateMutability": "nonpayable",
      "type": "function",
      "signature": "0xa22cb465"
    },
    {
      "constant": false,
      "inputs": [
        {
          "name": "_from",
          "type": "address"
        },
        {
          "name": "_to",
          "type": "address"
        },
        {
          "name": "_tokenId",
          "type": "uint256"
        },
        {
          "name": "_data",
          "type": "bytes"
        }
      ],
      "name": "safeTransferFrom",
      "outputs": [],
      "payable": false,
      "stateMutability": "nonpayable",
      "type": "function",
      "signature": "0xb88d4fde"
    },
    {
      "constant": true,
      "inputs": [],
      "name": "totalCardsInCirculationSold",
      "outputs": [
        {
          "name": "",
          "type": "uint256"
        }
      ],
      "payable": false,
      "stateMutability": "view",
      "type": "function",
      "signature": "0xe77854cd"
    },
    {
      "constant": true,
      "inputs": [
        {
          "name": "",
          "type": "uint256"
        }
      ],
      "name": "boxCardNumberToCardSet",
      "outputs": [
        {
          "name": "boxNumber",
          "type": "uint256"
        },
        {
          "name": "cardNumber",
          "type": "uint256"
        },
        {
          "name": "totalSupply",
          "type": "uint256"
        },
        {
          "name": "minted",
          "type": "uint256"
        },
        {
          "name": "cardName",
          "type": "bytes32"
        },
        {
          "name": "cardURI",
          "type": "string"
        },
        {
          "name": "artist",
          "type": "address"
        },
        {
          "name": "artistShare",
          "type": "uint8"
        }
      ],
      "payable": false,
      "stateMutability": "view",
      "type": "function",
      "signature": "0xe8bb10db"
    },
    {
      "constant": true,
      "inputs": [
        {
          "name": "_owner",
          "type": "address"
        },
        {
          "name": "_operator",
          "type": "address"
        }
      ],
      "name": "isApprovedForAll",
      "outputs": [
        {
          "name": "",
          "type": "bool"
        }
      ],
      "payable": false,
      "stateMutability": "view",
      "type": "function",
      "signature": "0xe985e9c5"
    },
    {
      "constant": false,
      "inputs": [
        {
          "name": "_newOwner",
          "type": "address"
        }
      ],
      "name": "transferOwnership",
      "outputs": [],
      "payable": false,
      "stateMutability": "nonpayable",
      "type": "function",
      "signature": "0xf2fde38b"
    },
    {
      "inputs": [],
      "payable": false,
      "stateMutability": "nonpayable",
      "type": "constructor",
      "signature": "constructor"
    },
    {
      "payable": true,
      "stateMutability": "payable",
      "type": "fallback"
    },
    {
      "anonymous": false,
      "inputs": [
        {
          "indexed": true,
          "name": "_owner",
          "type": "address"
        },
        {
          "indexed": true,
          "name": "_tokenId",
          "type": "uint256"
        },
        {
          "indexed": false,
          "name": "_name",
          "type": "bytes32"
        },
        {
          "indexed": false,
          "name": "_mintTime",
          "type": "uint32"
        }
      ],
      "name": "CardMinted",
      "type": "event",
      "signature": "0x5d332e130eeb3924324a7454ddca461c4cd17fa86d4ad51dcceef6cc4f447726"
    },
    {
      "anonymous": false,
      "inputs": [
        {
          "indexed": true,
          "name": "_cardNumber",
          "type": "uint256"
        },
        {
          "indexed": false,
          "name": "_soldOutTime",
          "type": "uint32"
        }
      ],
      "name": "CardSetSoldOut",
      "type": "event",
      "signature": "0x9b0b9d1a520cddbaf3796589db30746775a90fc149624d9e9851630912dc04c7"
    },
    {
      "anonymous": false,
      "inputs": [
        {
          "indexed": true,
          "name": "_owner",
          "type": "address"
        },
        {
          "indexed": false,
          "name": "_boughtTime",
          "type": "uint32"
        }
      ],
      "name": "CardPackBought",
      "type": "event",
      "signature": "0xaa410191373df16155ba10f8d6e9705423d9bcfe3c1a1251ec041d47b9a59ca2"
    },
    {
      "anonymous": false,
      "inputs": [
        {
          "indexed": true,
          "name": "_owner",
          "type": "address"
        },
        {
          "indexed": false,
          "name": "_giftTime",
          "type": "uint32"
        }
      ],
      "name": "CardPackRedeemed",
      "type": "event",
      "signature": "0x4d9e18eaffdad4b1ef9cf8013bc960caef57f0d97a5ea42051cd83db63613e55"
    },
    {
      "anonymous": false,
      "inputs": [],
      "name": "Pause",
      "type": "event",
      "signature": "0x6985a02210a168e66602d3235cb6db0e70f92b3ba4d376a33c0f3d9434bff625"
    },
    {
      "anonymous": false,
      "inputs": [],
      "name": "Unpause",
      "type": "event",
      "signature": "0x7805862f689e2f13df9f062ff482ad3ad112aca9e0847911ed832e158c525b33"
    },
    {
      "anonymous": false,
      "inputs": [
        {
          "indexed": true,
          "name": "previousOwner",
          "type": "address"
        }
      ],
      "name": "OwnershipRenounced",
      "type": "event",
      "signature": "0xf8df31144d9c2f0f6b59d69b8b98abd5459d07f2742c4df920b25aae33c64820"
    },
    {
      "anonymous": false,
      "inputs": [
        {
          "indexed": true,
          "name": "previousOwner",
          "type": "address"
        },
        {
          "indexed": true,
          "name": "newOwner",
          "type": "address"
        }
      ],
      "name": "OwnershipTransferred",
      "type": "event",
      "signature": "0x8be0079c531659141344cd1fd0a4f28419497f9722a3daafe3b4186f6b6457e0"
    },
    {
      "anonymous": false,
      "inputs": [
        {
          "indexed": true,
          "name": "operator",
          "type": "address"
        },
        {
          "indexed": false,
          "name": "role",
          "type": "string"
        }
      ],
      "name": "RoleAdded",
      "type": "event",
      "signature": "0xbfec83d64eaa953f2708271a023ab9ee82057f8f3578d548c1a4ba0b5b700489"
    },
    {
      "anonymous": false,
      "inputs": [
        {
          "indexed": true,
          "name": "operator",
          "type": "address"
        },
        {
          "indexed": false,
          "name": "role",
          "type": "string"
        }
      ],
      "name": "RoleRemoved",
      "type": "event",
      "signature": "0xd211483f91fc6eff862467f8de606587a30c8fc9981056f051b897a418df803a"
    },
    {
      "anonymous": false,
      "inputs": [
        {
          "indexed": true,
          "name": "_from",
          "type": "address"
        },
        {
          "indexed": true,
          "name": "_to",
          "type": "address"
        },
        {
          "indexed": true,
          "name": "_tokenId",
          "type": "uint256"
        }
      ],
      "name": "Transfer",
      "type": "event",
      "signature": "0xddf252ad1be2c89b69c2b068fc378daa952ba7f163c4a11628f55a4df523b3ef"
    },
    {
      "anonymous": false,
      "inputs": [
        {
          "indexed": true,
          "name": "_owner",
          "type": "address"
        },
        {
          "indexed": true,
          "name": "_approved",
          "type": "address"
        },
        {
          "indexed": true,
          "name": "_tokenId",
          "type": "uint256"
        }
      ],
      "name": "Approval",
      "type": "event",
      "signature": "0x8c5be1e5ebec7d5bd14f71427d1e84f3dd0314c0f7b2291e5b200ac8c7c3b925"
    },
    {
      "anonymous": false,
      "inputs": [
        {
          "indexed": true,
          "name": "_owner",
          "type": "address"
        },
        {
          "indexed": true,
          "name": "_operator",
          "type": "address"
        },
        {
          "indexed": false,
          "name": "_approved",
          "type": "bool"
        }
      ],
      "name": "ApprovalForAll",
      "type": "event",
      "signature": "0x17307eab39ab6107e8899845ad3d59bd9653f200f220920489ca2b5937696c31"
    },
    {
      "constant": false,
      "inputs": [
        {
          "name": "_boxNumber",
          "type": "uint256"
        },
        {
          "name": "_title",
          "type": "string"
        },
        {
          "name": "_description",
          "type": "string"
        },
        {
          "name": "_boxUri",
          "type": "string"
        },
        {
          "name": "_costOfPack",
          "type": "uint256"
        },
        {
          "name": "_cardsPerPack",
          "type": "uint8"
        }
      ],
      "name": "addBox",
      "outputs": [],
      "payable": false,
      "stateMutability": "nonpayable",
      "type": "function",
      "signature": "0x9de6c45b"
    },
    {
      "constant": false,
      "inputs": [
        {
          "name": "_boxNumber",
          "type": "uint256"
        },
        {
          "name": "_cardNumber",
          "type": "uint256"
        },
        {
          "name": "_totalSupply",
          "type": "uint256"
        },
        {
          "name": "_cardName",
          "type": "bytes32"
        },
        {
          "name": "_cardUri",
          "type": "string"
        },
        {
          "name": "_artist",
          "type": "address"
        },
        {
          "name": "_artistShare",
          "type": "uint8"
        }
      ],
      "name": "addCardSet",
      "outputs": [],
      "payable": false,
      "stateMutability": "nonpayable",
      "type": "function",
      "signature": "0xcdc39f4a"
    },
    {
      "constant": false,
      "inputs": [
        {
          "name": "_to",
          "type": "address"
        },
        {
          "name": "_boxNumber",
          "type": "uint256"
        },
        {
          "name": "_cardNumber",
          "type": "uint256"
        }
      ],
      "name": "mint",
      "outputs": [],
      "payable": false,
      "stateMutability": "nonpayable",
      "type": "function",
      "signature": "0x156e29f6"
    },
    {
      "constant": false,
      "inputs": [
        {
          "name": "_boxNumber",
          "type": "uint256"
        }
      ],
      "name": "buyPack",
      "outputs": [],
      "payable": true,
      "stateMutability": "payable",
      "type": "function",
      "signature": "0xdc45bfb3"
    },
    {
      "constant": false,
      "inputs": [
        {
          "name": "_boxNumber",
          "type": "uint256"
        }
      ],
      "name": "redeemPack",
      "outputs": [],
      "payable": false,
      "stateMutability": "nonpayable",
      "type": "function",
      "signature": "0x367ad6ea"
    },
    {
      "constant": true,
      "inputs": [
        {
          "name": "_owner",
          "type": "address"
        }
      ],
      "name": "tokensOf",
      "outputs": [
        {
          "name": "_tokenIds",
          "type": "uint256[]"
        }
      ],
      "payable": false,
      "stateMutability": "view",
      "type": "function",
      "signature": "0x5a3f2672"
    },
    {
      "constant": true,
      "inputs": [],
      "name": "allBoxNumbers",
      "outputs": [
        {
          "name": "_boxNumbers",
          "type": "uint256[]"
        }
      ],
      "payable": false,
      "stateMutability": "view",
      "type": "function",
      "signature": "0x90af1333"
    },
    {
      "constant": true,
      "inputs": [
        {
          "name": "_boxNumber",
          "type": "uint256"
        }
      ],
      "name": "cardSetsInCirculation",
      "outputs": [
        {
          "name": "_cardSetCirculationLength",
          "type": "uint256"
        }
      ],
      "payable": false,
      "stateMutability": "view",
      "type": "function",
      "signature": "0xc61e5be6"
    },
    {
      "constant": true,
      "inputs": [
        {
          "name": "_boxNumber",
          "type": "uint256"
        }
      ],
      "name": "cardNumbersOf",
      "outputs": [
        {
          "name": "_cardNumbersArray",
          "type": "uint256[]"
        }
      ],
      "payable": false,
      "stateMutability": "view",
      "type": "function",
      "signature": "0x74d050fb"
    },
    {
      "constant": true,
      "inputs": [
        {
          "name": "_owner",
          "type": "address"
        }
      ],
      "name": "hasTokens",
      "outputs": [
        {
          "name": "",
          "type": "bool"
        }
      ],
      "payable": false,
      "stateMutability": "view",
      "type": "function",
      "signature": "0x3cefc1e0"
    },
    {
      "constant": false,
      "inputs": [
        {
          "name": "_boxNumber",
          "type": "uint256"
        },
        {
          "name": "_recipient",
          "type": "address"
        }
      ],
      "name": "addCredit",
      "outputs": [],
      "payable": false,
      "stateMutability": "nonpayable",
      "type": "function",
      "signature": "0x364c7815"
    },
    {
      "constant": true,
      "inputs": [
        {
          "name": "_boxNumber",
          "type": "uint256"
        },
        {
          "name": "_recipient",
          "type": "address"
        }
      ],
      "name": "creditsOf",
      "outputs": [
        {
          "name": "_credits",
          "type": "uint256"
        }
      ],
      "payable": false,
      "stateMutability": "view",
      "type": "function",
      "signature": "0x890ea91a"
    },
    {
      "constant": true,
      "inputs": [
        {
          "name": "_tokenId",
          "type": "uint256"
        }
      ],
      "name": "tokenURI",
      "outputs": [
        {
          "name": "",
          "type": "string"
        }
      ],
      "payable": false,
      "stateMutability": "view",
      "type": "function",
      "signature": "0xc87b56dd"
    },
    {
      "constant": false,
      "inputs": [
        {
          "name": "_newBaseURI",
          "type": "string"
        }
      ],
      "name": "setTokenBaseURI",
      "outputs": [],
      "payable": false,
      "stateMutability": "nonpayable",
      "type": "function",
      "signature": "0x8ef79e91"
    },
    {
      "constant": false,
      "inputs": [
        {
          "name": "_defaultBoxNumber",
          "type": "uint256"
        }
      ],
      "name": "setDefaultBoxNumber",
      "outputs": [],
      "payable": false,
      "stateMutability": "nonpayable",
      "type": "function",
      "signature": "0xcf652d1d"
    }
  ],
  "bytecode": "0x60806040526000600d60146101000a81548160ff0219169083151502179055506040805190810160405280601c81526020017f68747470733a2f2f697066732e696e667572612e696f2f697066732f00000000815250600e90805190602001906200006c929190620005b3565b506000600f5560006010556000601155620f424060125560006013553480156200009557600080fd5b506040805190810160405280600481526020017f4b4f5441000000000000000000000000000000000000000000000000000000008152506040805190810160405280600481526020017f4b4f5441000000000000000000000000000000000000000000000000000000008152506200013f6301ffc9a77c0100000000000000000000000000000000000000000000000000000000026200034e640100000000026401000000009004565b6200017c6380ac58cd7c0100000000000000000000000000000000000000000000000000000000026200034e640100000000026401000000009004565b620001b9634f558e797c0100000000000000000000000000000000000000000000000000000000026200034e640100000000026401000000009004565b8160059080519060200190620001d1929190620005b3565b508060069080519060200190620001ea929190620005b3565b506200022863780e9d637c0100000000000000000000000000000000000000000000000000000000026200034e640100000000026401000000009004565b62000265635b5e139f7c0100000000000000000000000000000000000000000000000000000000026200034e640100000000026401000000009004565b505033600d60006101000a81548173ffffffffffffffffffffffffffffffffffffffff021916908373ffffffffffffffffffffffffffffffffffffffff160217905550620002f8336040805190810160405280600c81526020017f524f4c455f43524541544f5200000000000000000000000000000000000000008152506200040c640100000000026401000000009004565b62000348336040805190810160405280600b81526020017f524f4c455f4d494e5445520000000000000000000000000000000000000000008152506200040c640100000000026401000000009004565b62000662565b63ffffffff7c010000000000000000000000000000000000000000000000000000000002817bffffffffffffffffffffffffffffffffffffffffffffffffffffffff191614151515620003a057600080fd5b6001600080837bffffffffffffffffffffffffffffffffffffffffffffffffffffffff19167bffffffffffffffffffffffffffffffffffffffffffffffffffffffff1916815260200190815260200160002060006101000a81548160ff02191690831515021790555050565b6200049b82600c836040518082805190602001908083835b6020831015156200044b578051825260208201915060208101905060208303925062000424565b6001836020036101000a03801982511681845116808217855250505050505090500191505090815260200160405180910390206200055564010000000002620053a6179091906401000000009004565b8173ffffffffffffffffffffffffffffffffffffffff167fbfec83d64eaa953f2708271a023ab9ee82057f8f3578d548c1a4ba0b5b700489826040518080602001828103825283818151815260200191508051906020019080838360005b8381101562000516578082015181840152602081019050620004f9565b50505050905090810190601f168015620005445780820380516001836020036101000a031916815260200191505b509250505060405180910390a25050565b60018260000160008373ffffffffffffffffffffffffffffffffffffffff1673ffffffffffffffffffffffffffffffffffffffff16815260200190815260200160002060006101000a81548160ff0219169083151502179055505050565b828054600181600116156101000203166002900490600052602060002090601f016020900481019282601f10620005f657805160ff191683800117855562000627565b8280016001018555821562000627579182015b828111156200062657825182559160200191906001019062000609565b5b5090506200063691906200063a565b5090565b6200065f91905b808211156200065b57600081600090555060010162000641565b5090565b90565b61543080620006726000396000f300608060405260043610610251576000357c0100000000000000000000000000000000000000000000000000000000900463ffffffff16806301ffc9a71461025e57806306832ec8146102c257806306fdde031461045b578063081812fc146104eb578063095ea7b3146105585780630988ca8c146105a5578063156e29f61461062e57806318160ddd1461068557806319fa8f50146106b0578063217fe6c61461071957806323b872dd146107ba5780632f745c5914610827578063364c781514610888578063367ad6ea146108d55780633cefc1e0146109025780633f4ba83a1461095d57806342842e0e146109745780634f558e79146109e15780634f6ccce714610a265780635a3f267214610a675780635c975abb14610aff5780636352211e14610b2e57806365419aa814610b9b5780636d98e9fc14610bdc5780636fd7638114610c0757806370a0823114610c48578063715018a614610c9f57806374d050fb14610cb65780638456cb5914610d3857806385205acb14610d4f578063890ea91a14610d905780638da5cb5b14610df15780638ef79e9114610e4857806390af133314610e835780639154fb8b14610eef57806395d89b4114610f1a578063982620d014610faa5780639de6c45b14610fd5578063a22cb465146110eb578063b88d4fde1461113a578063c61e5be6146111ed578063c87b56dd1461122e578063cdc39f4a146112d4578063cf652d1d14611396578063dc45bfb3146113c3578063e77854cd146113e3578063e8bb10db1461140e578063e985e9c51461151f578063f2fde38b1461159a575b61025c6012546115dd565b005b34801561026a57600080fd5b506102a860048036038101908080357bffffffffffffffffffffffffffffffffffffffffffffffffffffffff191690602001909291905050506118a2565b604051808215151515815260200191505060405180910390f35b3480156102ce57600080fd5b506102ed60048036038101908080359060200190929190505050611909565b604051808781526020018060200180602001806020018681526020018560ff1660ff168152602001848103845289818151815260200191508051906020019080838360005b8381101561034d578082015181840152602081019050610332565b50505050905090810190601f16801561037a5780820380516001836020036101000a031916815260200191505b50848103835288818151815260200191508051906020019080838360005b838110156103b3578082015181840152602081019050610398565b50505050905090810190601f1680156103e05780820380516001836020036101000a031916815260200191505b50848103825287818151815260200191508051906020019080838360005b838110156104195780820151818401526020810190506103fe565b50505050905090810190601f1680156104465780820380516001836020036101000a031916815260200191505b50995050505050505050505060405180910390f35b34801561046757600080fd5b50610470611b1a565b6040518080602001828103825283818151815260200191508051906020019080838360005b838110156104b0578082015181840152602081019050610495565b50505050905090810190601f1680156104dd5780820380516001836020036101000a031916815260200191505b509250505060405180910390f35b3480156104f757600080fd5b5061051660048036038101908080359060200190929190505050611bbc565b604051808273ffffffffffffffffffffffffffffffffffffffff1673ffffffffffffffffffffffffffffffffffffffff16815260200191505060405180910390f35b34801561056457600080fd5b506105a3600480360381019080803573ffffffffffffffffffffffffffffffffffffffff16906020019092919080359060200190929190505050611bf9565b005b3480156105b157600080fd5b5061062c600480360381019080803573ffffffffffffffffffffffffffffffffffffffff169060200190929190803590602001908201803590602001908080601f0160208091040260200160405190810160405280939291908181526020018383808284378201915050505050509192919290505050611d3e565b005b34801561063a57600080fd5b50610683600480360381019080803573ffffffffffffffffffffffffffffffffffffffff1690602001909291908035906020019092919080359060200190929190505050611dbf565b005b34801561069157600080fd5b5061069a611fde565b6040518082815260200191505060405180910390f35b3480156106bc57600080fd5b506106c5611feb565b60405180827bffffffffffffffffffffffffffffffffffffffffffffffffffffffff19167bffffffffffffffffffffffffffffffffffffffffffffffffffffffff1916815260200191505060405180910390f35b34801561072557600080fd5b506107a0600480360381019080803573ffffffffffffffffffffffffffffffffffffffff169060200190929190803590602001908201803590602001908080601f0160208091040260200160405190810160405280939291908181526020018383808284378201915050505050509192919290505050612012565b604051808215151515815260200191505060405180910390f35b3480156107c657600080fd5b50610825600480360381019080803573ffffffffffffffffffffffffffffffffffffffff169060200190929190803573ffffffffffffffffffffffffffffffffffffffff16906020019092919080359060200190929190505050612099565b005b34801561083357600080fd5b50610872600480360381019080803573ffffffffffffffffffffffffffffffffffffffff169060200190929190803590602001909291905050506121a4565b6040518082815260200191505060405180910390f35b34801561089457600080fd5b506108d360048036038101908080359060200190929190803573ffffffffffffffffffffffffffffffffffffffff16906020019092919050505061221b565b005b3480156108e157600080fd5b5061090060048036038101908080359060200190929190505050612333565b005b34801561090e57600080fd5b50610943600480360381019080803573ffffffffffffffffffffffffffffffffffffffff1690602001909291905050506124cc565b604051808215151515815260200191505060405180910390f35b34801561096957600080fd5b5061097261251a565b005b34801561098057600080fd5b506109df600480360381019080803573ffffffffffffffffffffffffffffffffffffffff169060200190929190803573ffffffffffffffffffffffffffffffffffffffff169060200190929190803590602001909291905050506125da565b005b3480156109ed57600080fd5b50610a0c600480360381019080803590602001909291905050506125fb565b604051808215151515815260200191505060405180910390f35b348015610a3257600080fd5b50610a516004803603810190808035906020019092919050505061266d565b6040518082815260200191505060405180910390f35b348015610a7357600080fd5b50610aa8600480360381019080803573ffffffffffffffffffffffffffffffffffffffff1690602001909291905050506126a5565b6040518080602001828103825283818151815260200191508051906020019060200280838360005b83811015610aeb578082015181840152602081019050610ad0565b505050509050019250505060405180910390f35b348015610b0b57600080fd5b50610b1461273c565b604051808215151515815260200191505060405180910390f35b348015610b3a57600080fd5b50610b596004803603810190808035906020019092919050505061274f565b604051808273ffffffffffffffffffffffffffffffffffffffff1673ffffffffffffffffffffffffffffffffffffffff16815260200191505060405180910390f35b348015610ba757600080fd5b50610bc6600480360381019080803590602001909291905050506127cd565b6040518082815260200191505060405180910390f35b348015610be857600080fd5b50610bf16127e5565b6040518082815260200191505060405180910390f35b348015610c1357600080fd5b50610c32600480360381019080803590602001909291905050506127eb565b6040518082815260200191505060405180910390f35b348015610c5457600080fd5b50610c89600480360381019080803573ffffffffffffffffffffffffffffffffffffffff169060200190929190505050612803565b6040518082815260200191505060405180910390f35b348015610cab57600080fd5b50610cb4612887565b005b348015610cc257600080fd5b50610ce16004803603810190808035906020019092919050505061298c565b6040518080602001828103825283818151815260200191508051906020019060200280838360005b83811015610d24578082015181840152602081019050610d09565b505050509050019250505060405180910390f35b348015610d4457600080fd5b50610d4d6129f7565b005b348015610d5b57600080fd5b50610d7a60048036038101908080359060200190929190505050612ab8565b6040518082815260200191505060405180910390f35b348015610d9c57600080fd5b50610ddb60048036038101908080359060200190929190803573ffffffffffffffffffffffffffffffffffffffff169060200190929190505050612ad0565b6040518082815260200191505060405180910390f35b348015610dfd57600080fd5b50610e06612b2b565b604051808273ffffffffffffffffffffffffffffffffffffffff1673ffffffffffffffffffffffffffffffffffffffff16815260200191505060405180910390f35b348015610e5457600080fd5b50610e81600480360381019080803590602001908201803590602001919091929391929390505050612b51565b005b348015610e8f57600080fd5b50610e98612bc3565b6040518080602001828103825283818151815260200191508051906020019060200280838360005b83811015610edb578082015181840152602081019050610ec0565b505050509050019250505060405180910390f35b348015610efb57600080fd5b50610f04612c1b565b6040518082815260200191505060405180910390f35b348015610f2657600080fd5b50610f2f612c21565b6040518080602001828103825283818151815260200191508051906020019080838360005b83811015610f6f578082015181840152602081019050610f54565b50505050905090810190601f168015610f9c5780820380516001836020036101000a031916815260200191505b509250505060405180910390f35b348015610fb657600080fd5b50610fbf612cc3565b6040518082815260200191505060405180910390f35b348015610fe157600080fd5b506110e960048036038101908080359060200190929190803590602001908201803590602001908080601f0160208091040260200160405190810160405280939291908181526020018383808284378201915050505050509192919290803590602001908201803590602001908080601f0160208091040260200160405190810160405280939291908181526020018383808284378201915050505050509192919290803590602001908201803590602001908080601f016020809104026020016040519081016040528093929190818152602001838380828437820191505050505050919291929080359060200190929190803560ff169060200190929190505050612cc9565b005b3480156110f757600080fd5b50611138600480360381019080803573ffffffffffffffffffffffffffffffffffffffff169060200190929190803515159060200190929190505050612e1d565b005b34801561114657600080fd5b506111eb600480360381019080803573ffffffffffffffffffffffffffffffffffffffff169060200190929190803573ffffffffffffffffffffffffffffffffffffffff16906020019092919080359060200190929190803590602001908201803590602001908080601f0160208091040260200160405190810160405280939291908181526020018383808284378201915050505050509192919290505050612f59565b005b3480156111f957600080fd5b5061121860048036038101908080359060200190929190505050612f81565b6040518082815260200191505060405180910390f35b34801561123a57600080fd5b5061125960048036038101908080359060200190929190505050612fa1565b6040518080602001828103825283818151815260200191508051906020019080838360005b8381101561129957808201518184015260208101905061127e565b50505050905090810190601f1680156112c65780820380516001836020036101000a031916815260200191505b509250505060405180910390f35b3480156112e057600080fd5b506113946004803603810190808035906020019092919080359060200190929190803590602001909291908035600019169060200190929190803590602001908201803590602001908080601f0160208091040260200160405190810160405280939291908181526020018383808284378201915050505050509192919290803573ffffffffffffffffffffffffffffffffffffffff169060200190929190803560ff169060200190929190505050613056565b005b3480156113a257600080fd5b506113c1600480360381019080803590602001909291905050506134a0565b005b6113e1600480360381019080803590602001909291905050506115dd565b005b3480156113ef57600080fd5b506113f8613506565b6040518082815260200191505060405180910390f35b34801561141a57600080fd5b506114396004803603810190808035906020019092919050505061350c565b604051808981526020018881526020018781526020018681526020018560001916600019168152602001806020018473ffffffffffffffffffffffffffffffffffffffff1673ffffffffffffffffffffffffffffffffffffffff1681526020018360ff1660ff168152602001828103825285818151815260200191508051906020019080838360005b838110156114dd5780820151818401526020810190506114c2565b50505050905090810190601f16801561150a5780820380516001836020036101000a031916815260200191505b50995050505050505050505060405180910390f35b34801561152b57600080fd5b50611580600480360381019080803573ffffffffffffffffffffffffffffffffffffffff169060200190929190803573ffffffffffffffffffffffffffffffffffffffff169060200190929190505050613619565b604051808215151515815260200191505060405180910390f35b3480156115a657600080fd5b506115db600480360381019080803573ffffffffffffffffffffffffffffffffffffffff1690602001909291905050506136ad565b005b600d60149054906101000a900460ff161515156115f957600080fd5b600061160482612f81565b111515611679576040517f08c379a000000000000000000000000000000000000000000000000000000000815260040180806020018281038252601c8152602001807f436172642073657473206d75737420657869747320666f7220426f780000000081525060200191505060405180910390fd5b6015600082815260200190815260200160002060040154341015151561172d576040517f08c379a00000000000000000000000000000000000000000000000000000000081526004018080602001828103825260268152602001807f56616c7565206d757374206578636565642074686520636f7374206f6620746881526020017f65207061636b000000000000000000000000000000000000000000000000000081525060400191505060405180910390fd5b61173681613715565b600d60009054906101000a900473ffffffffffffffffffffffffffffffffffffffff1673ffffffffffffffffffffffffffffffffffffffff166108fc60156000848152602001908152602001600020600401549081150290604051600060405180830381858888f193505050501580156117b4573d6000803e3d6000fd5b506117e0601560008381526020019081526020016000206004015460115461395390919063ffffffff16565b6011819055503373ffffffffffffffffffffffffffffffffffffffff166108fc601560008481526020019081526020016000206004015434039081150290604051600060405180830381858888f19350505050158015611844573d6000803e3d6000fd5b503373ffffffffffffffffffffffffffffffffffffffff167faa410191373df16155ba10f8d6e9705423d9bcfe3c1a1251ec041d47b9a59ca242604051808263ffffffff1663ffffffff16815260200191505060405180910390a250565b6000806000837bffffffffffffffffffffffffffffffffffffffffffffffffffffffff19167bffffffffffffffffffffffffffffffffffffffffffffffffffffffff1916815260200190815260200160002060009054906101000a900460ff169050919050565b6015602052806000526040600020600091509050806000015490806001018054600181600116156101000203166002900480601f0160208091040260200160405190810160405280929190818152602001828054600181600116156101000203166002900480156119bb5780601f10611990576101008083540402835291602001916119bb565b820191906000526020600020905b81548152906001019060200180831161199e57829003601f168201915b505050505090806002018054600181600116156101000203166002900480601f016020809104026020016040519081016040528092919081815260200182805460018160011615610100020316600290048015611a595780601f10611a2e57610100808354040283529160200191611a59565b820191906000526020600020905b815481529060010190602001808311611a3c57829003601f168201915b505050505090806003018054600181600116156101000203166002900480601f016020809104026020016040519081016040528092919081815260200182805460018160011615610100020316600290048015611af75780601f10611acc57610100808354040283529160200191611af7565b820191906000526020600020905b815481529060010190602001808311611ada57829003601f168201915b5050505050908060040154908060050160009054906101000a900460ff16905086565b606060058054600181600116156101000203166002900480601f016020809104026020016040519081016040528092919081815260200182805460018160011615610100020316600290048015611bb25780601f10611b8757610100808354040283529160200191611bb2565b820191906000526020600020905b815481529060010190602001808311611b9557829003601f168201915b5050505050905090565b60006002600083815260200190815260200160002060009054906101000a900473ffffffffffffffffffffffffffffffffffffffff169050919050565b6000611c048261274f565b90508073ffffffffffffffffffffffffffffffffffffffff168373ffffffffffffffffffffffffffffffffffffffff1614151515611c4157600080fd5b8073ffffffffffffffffffffffffffffffffffffffff163373ffffffffffffffffffffffffffffffffffffffff161480611c815750611c808133613619565b5b1515611c8c57600080fd5b826002600084815260200190815260200160002060006101000a81548173ffffffffffffffffffffffffffffffffffffffff021916908373ffffffffffffffffffffffffffffffffffffffff160217905550818373ffffffffffffffffffffffffffffffffffffffff168273ffffffffffffffffffffffffffffffffffffffff167f8c5be1e5ebec7d5bd14f71427d1e84f3dd0314c0f7b2291e5b200ac8c7c3b92560405160405180910390a4505050565b611dbb82600c836040518082805190602001908083835b602083101515611d7a5780518252602082019150602081019050602083039250611d55565b6001836020036101000a038019825116818451168082178552505050505050905001915050908152602001604051809103902061396f90919063ffffffff16565b5050565b6000806040805190810160405280600b81526020017f524f4c455f4d494e544552000000000000000000000000000000000000000000815250611e023382611d3e565b611e15848661395390919063ffffffff16565b925060006016600085815260200190815260200160002060000154111515611ea5576040517f08c379a000000000000000000000000000000000000000000000000000000000815260040180806020018281038252601b8152602001807f436172642073657420616e6420426f78206d757374206578697374000000000081525060200191505060405180910390fd5b6016600084815260200190815260200160002091508160020154611ed76001846003015461395390919063ffffffff16565b101515611f72576040517f08c379a00000000000000000000000000000000000000000000000000000000081526004018080602001828103825260248152602001807f43616e2774206d696e74206c617374206361726420766961206d696e74206d6581526020017f74686f640000000000000000000000000000000000000000000000000000000081525060400191505060405180910390fd5b611f996001601a60008881526020019081526020016000205461395390919063ffffffff16565b601a600087815260200190815260200160002081905550611fc6600160105461395390919063ffffffff16565b601081905550611fd68683613988565b505050505050565b6000600980549050905090565b6301ffc9a77c01000000000000000000000000000000000000000000000000000000000281565b600061209183600c846040518082805190602001908083835b602083101515612050578051825260208201915060208101905060208303925061202b565b6001836020036101000a0380198251168184511680821785525050505050509050019150509081526020016040518091039020613c2290919063ffffffff16565b905092915050565b6120a33382613c7b565b15156120ae57600080fd5b600073ffffffffffffffffffffffffffffffffffffffff168373ffffffffffffffffffffffffffffffffffffffff16141515156120ea57600080fd5b600073ffffffffffffffffffffffffffffffffffffffff168273ffffffffffffffffffffffffffffffffffffffff161415151561212657600080fd5b6121308382613d10565b61213a8382613e13565b6121448282613fcf565b808273ffffffffffffffffffffffffffffffffffffffff168473ffffffffffffffffffffffffffffffffffffffff167fddf252ad1be2c89b69c2b068fc378daa952ba7f163c4a11628f55a4df523b3ef60405160405180910390a4505050565b60006121af83612803565b821015156121bc57600080fd5b600760008473ffffffffffffffffffffffffffffffffffffffff1673ffffffffffffffffffffffffffffffffffffffff1681526020019081526020016000208281548110151561220857fe5b9060005260206000200154905092915050565b600d60009054906101000a900473ffffffffffffffffffffffffffffffffffffffff1673ffffffffffffffffffffffffffffffffffffffff163373ffffffffffffffffffffffffffffffffffffffff1614151561227757600080fd5b6122db60016014600085815260200190815260200160002060008473ffffffffffffffffffffffffffffffffffffffff1673ffffffffffffffffffffffffffffffffffffffff1681526020019081526020016000205461395390919063ffffffff16565b6014600084815260200190815260200160002060008373ffffffffffffffffffffffffffffffffffffffff1673ffffffffffffffffffffffffffffffffffffffff168152602001908152602001600020819055505050565b600d60149054906101000a900460ff1615151561234f57600080fd5b60006014600083815260200190815260200160002060003373ffffffffffffffffffffffffffffffffffffffff1673ffffffffffffffffffffffffffffffffffffffff168152602001908152602001600020541115156123ae57600080fd5b61241260016014600084815260200190815260200160002060003373ffffffffffffffffffffffffffffffffffffffff1673ffffffffffffffffffffffffffffffffffffffff168152602001908152602001600020546140a690919063ffffffff16565b6014600083815260200190815260200160002060003373ffffffffffffffffffffffffffffffffffffffff1673ffffffffffffffffffffffffffffffffffffffff1681526020019081526020016000208190555061246f81613715565b3373ffffffffffffffffffffffffffffffffffffffff167f4d9e18eaffdad4b1ef9cf8013bc960caef57f0d97a5ea42051cd83db63613e5542604051808263ffffffff1663ffffffff16815260200191505060405180910390a250565b600080600760008473ffffffffffffffffffffffffffffffffffffffff1673ffffffffffffffffffffffffffffffffffffffff16815260200190815260200160002080549050119050919050565b600d60009054906101000a900473ffffffffffffffffffffffffffffffffffffffff1673ffffffffffffffffffffffffffffffffffffffff163373ffffffffffffffffffffffffffffffffffffffff1614151561257657600080fd5b600d60149054906101000a900460ff16151561259157600080fd5b6000600d60146101000a81548160ff0219169083151502179055507f7805862f689e2f13df9f062ff482ad3ad112aca9e0847911ed832e158c525b3360405160405180910390a1565b6125f68383836020604051908101604052806000815250612f59565b505050565b6000806001600084815260200190815260200160002060009054906101000a900473ffffffffffffffffffffffffffffffffffffffff169050600073ffffffffffffffffffffffffffffffffffffffff168173ffffffffffffffffffffffffffffffffffffffff161415915050919050565b6000612677611fde565b8210151561268457600080fd5b60098281548110151561269357fe5b90600052602060002001549050919050565b6060600760008373ffffffffffffffffffffffffffffffffffffffff1673ffffffffffffffffffffffffffffffffffffffff16815260200190815260200160002080548060200260200160405190810160405280929190818152602001828054801561273057602002820191906000526020600020905b81548152602001906001019080831161271c575b50505050509050919050565b600d60149054906101000a900460ff1681565b6000806001600084815260200190815260200160002060009054906101000a900473ffffffffffffffffffffffffffffffffffffffff169050600073ffffffffffffffffffffffffffffffffffffffff168173ffffffffffffffffffffffffffffffffffffffff16141515156127c457600080fd5b80915050919050565b601a6020528060005260406000206000915090505481565b60115481565b60196020528060005260406000206000915090505481565b60008073ffffffffffffffffffffffffffffffffffffffff168273ffffffffffffffffffffffffffffffffffffffff161415151561284057600080fd5b600360008373ffffffffffffffffffffffffffffffffffffffff1673ffffffffffffffffffffffffffffffffffffffff168152602001908152602001600020549050919050565b600d60009054906101000a900473ffffffffffffffffffffffffffffffffffffffff1673ffffffffffffffffffffffffffffffffffffffff163373ffffffffffffffffffffffffffffffffffffffff161415156128e357600080fd5b600d60009054906101000a900473ffffffffffffffffffffffffffffffffffffffff1673ffffffffffffffffffffffffffffffffffffffff167ff8df31144d9c2f0f6b59d69b8b98abd5459d07f2742c4df920b25aae33c6482060405160405180910390a26000600d60006101000a81548173ffffffffffffffffffffffffffffffffffffffff021916908373ffffffffffffffffffffffffffffffffffffffff160217905550565b6060601860008381526020019081526020016000208054806020026020016040519081016040528092919081815260200182805480156129eb57602002820191906000526020600020905b8154815260200190600101908083116129d7575b50505050509050919050565b600d60009054906101000a900473ffffffffffffffffffffffffffffffffffffffff1673ffffffffffffffffffffffffffffffffffffffff163373ffffffffffffffffffffffffffffffffffffffff16141515612a5357600080fd5b600d60149054906101000a900460ff16151515612a6f57600080fd5b6001600d60146101000a81548160ff0219169083151502179055507f6985a02210a168e66602d3235cb6db0e70f92b3ba4d376a33c0f3d9434bff62560405160405180910390a1565b601b6020528060005260406000206000915090505481565b60006014600084815260200190815260200160002060008373ffffffffffffffffffffffffffffffffffffffff1673ffffffffffffffffffffffffffffffffffffffff16815260200190815260200160002054905092915050565b600d60009054906101000a900473ffffffffffffffffffffffffffffffffffffffff1681565b600d60009054906101000a900473ffffffffffffffffffffffffffffffffffffffff1673ffffffffffffffffffffffffffffffffffffffff163373ffffffffffffffffffffffffffffffffffffffff16141515612bad57600080fd5b8181600e9190612bbe929190614fa6565b505050565b6060601c805480602002602001604051908101604052809291908181526020018280548015612c1157602002820191906000526020600020905b815481526020019060010190808311612bfd575b5050505050905090565b600f5481565b606060068054600181600116156101000203166002900480601f016020809104026020016040519081016040528092919081815260200182805460018160011615610100020316600290048015612cb95780601f10612c8e57610100808354040283529160200191612cb9565b820191906000526020600020905b815481529060010190602001808311612c9c57829003601f168201915b5050505050905090565b60125481565b612cd1615026565b6040805190810160405280600c81526020017f524f4c455f43524541544f520000000000000000000000000000000000000000815250612d113382611d3e565b60c0604051908101604052808981526020018881526020018781526020018681526020018581526020018460ff16815250915081601560008a8152602001908152602001600020600082015181600001556020820151816001019080519060200190612d7e929190615060565b506040820151816002019080519060200190612d9b929190615060565b506060820151816003019080519060200190612db8929190615060565b506080820151816004015560a08201518160050160006101000a81548160ff021916908360ff160217905550905050601c8890806001815401808255809150509060018203906000526020600020016000909192909190915055505050505050505050565b3373ffffffffffffffffffffffffffffffffffffffff168273ffffffffffffffffffffffffffffffffffffffff1614151515612e5857600080fd5b80600460003373ffffffffffffffffffffffffffffffffffffffff1673ffffffffffffffffffffffffffffffffffffffff16815260200190815260200160002060008473ffffffffffffffffffffffffffffffffffffffff1673ffffffffffffffffffffffffffffffffffffffff16815260200190815260200160002060006101000a81548160ff0219169083151502179055508173ffffffffffffffffffffffffffffffffffffffff163373ffffffffffffffffffffffffffffffffffffffff167f17307eab39ab6107e8899845ad3d59bd9653f200f220920489ca2b5937696c3183604051808215151515815260200191505060405180910390a35050565b612f64848484612099565b612f70848484846140bf565b1515612f7b57600080fd5b50505050565b600060176000838152602001908152602001600020805490509050919050565b606061304f600e8054600181600116156101000203166002900480601f01602080910402602001604051908101604052809291908181526020018280546001816001161561010002031660029004801561303c5780601f106130115761010080835404028352916020019161303c565b820191906000526020600020905b81548152906001019060200180831161301f57829003601f168201915b505050505061304a846142e1565b6143aa565b9050919050565b60006130606150e0565b6040805190810160405280600c81526020017f524f4c455f43524541544f5200000000000000000000000000000000000000008152506130a03382611d3e565b6000601560008c81526020019081526020016000206000015411151561312e576040517f08c379a00000000000000000000000000000000000000000000000000000000081526004018080602001828103825260108152602001807f426f782073686f756c642065786973740000000000000000000000000000000081525060200191505060405180910390fd5b613141898b61395390919063ffffffff16565b9250600060166000858152602001908152602001600020600101541415156131d1576040517f08c379a00000000000000000000000000000000000000000000000000000000081526004018080602001828103825260198152602001807f43617264205365742073686f756c64206e6f742065786973740000000000000081525060200191505060405180910390fd5b610100604051908101604052808b81526020018a815260200189815260200160008152602001886000191681526020018781526020018673ffffffffffffffffffffffffffffffffffffffff1681526020018560ff1681525091508160166000858152602001908152602001600020600082015181600001556020820151816001015560408201518160020155606082015181600301556080820151816004019060001916905560a0820151816005019080519060200190613294929190615060565b5060c08201518160060160006101000a81548173ffffffffffffffffffffffffffffffffffffffff021916908373ffffffffffffffffffffffffffffffffffffffff16021790555060e08201518160060160146101000a81548160ff021916908360ff160217905550905050601760008b81526020019081526020016000208290806001815401808255809150509060018203906000526020600020906007020160009091929091909150600082015181600001556020820151816001015560408201518160020155606082015181600301556080820151816004019060001916905560a0820151816005019080519060200190613393929190615060565b5060c08201518160060160006101000a81548173ffffffffffffffffffffffffffffffffffffffff021916908373ffffffffffffffffffffffffffffffffffffffff16021790555060e08201518160060160146101000a81548160ff021916908360ff160217905550505050601860008b815260200190815260200160002089908060018154018082558091505090600182039060005260206000200160009091929091909150555061346288601960008d81526020019081526020016000205461395390919063ffffffff16565b601960008c81526020019081526020016000208190555061348e88600f5461395390919063ffffffff16565b600f8190555050505050505050505050565b600d60009054906101000a900473ffffffffffffffffffffffffffffffffffffffff1673ffffffffffffffffffffffffffffffffffffffff163373ffffffffffffffffffffffffffffffffffffffff161415156134fc57600080fd5b8060128190555050565b60105481565b6016602052806000526040600020600091509050806000015490806001015490806002015490806003015490806004015490806005018054600181600116156101000203166002900480601f0160208091040260200160405190810160405280929190818152602001828054600181600116156101000203166002900480156135d65780601f106135ab576101008083540402835291602001916135d6565b820191906000526020600020905b8154815290600101906020018083116135b957829003601f168201915b5050505050908060060160009054906101000a900473ffffffffffffffffffffffffffffffffffffffff16908060060160149054906101000a900460ff16905088565b6000600460008473ffffffffffffffffffffffffffffffffffffffff1673ffffffffffffffffffffffffffffffffffffffff16815260200190815260200160002060008373ffffffffffffffffffffffffffffffffffffffff1673ffffffffffffffffffffffffffffffffffffffff16815260200190815260200160002060009054906101000a900460ff16905092915050565b600d60009054906101000a900473ffffffffffffffffffffffffffffffffffffffff1673ffffffffffffffffffffffffffffffffffffffff163373ffffffffffffffffffffffffffffffffffffffff1614151561370957600080fd5b613712816143f1565b50565b60008060003273ffffffffffffffffffffffffffffffffffffffff163373ffffffffffffffffffffffffffffffffffffffff161415156137bd576040517f08c379a000000000000000000000000000000000000000000000000000000000815260040180806020018281038252601c8152602001807f446f6e277420616c6c6f7720636f6e74726163747320746f206275790000000081525060200191505060405180910390fd5b600092505b6015600085815260200190815260200160002060050160009054906101000a900460ff1660ff168310156138a9576137fd84600185016144ed565b9150601760008581526020019081526020016000208281548110151561381f57fe5b906000526020600020906007020190506138393382613988565b80600201548160030154141561389c576138538483614619565b80600101547f9b0b9d1a520cddbaf3796589db30746775a90fc149624d9e9851630912dc04c742604051808263ffffffff1663ffffffff16815260200191505060405180910390a25b82806001019350506137c2565b6138f56015600086815260200190815260200160002060050160009054906101000a900460ff1660ff16601a60008781526020019081526020016000205461395390919063ffffffff16565b601a6000868152602001908152602001600020819055506139476015600086815260200190815260200160002060050160009054906101000a900460ff1660ff1660105461395390919063ffffffff16565b60108190555050505050565b6000818301905082811015151561396657fe5b80905092915050565b6139798282613c22565b151561398457600080fd5b5050565b6000808260020154111515613a2b576040517f08c379a00000000000000000000000000000000000000000000000000000000081526004018080602001828103825260298152602001807f436172642073657420737570706c79206d75737420626520677265617465722081526020017f7468616e207a65726f000000000000000000000000000000000000000000000081525060400191505060405180910390fd5b8160020154826003015411151515613aab576040517f08c379a000000000000000000000000000000000000000000000000000000000815260040180806020018281038252601d8152602001807f4361726420736574206d7573742068617665206361726473206c65667400000081525060200191505060405180910390fd5b613ac36001836003015461395390919063ffffffff16565b8260030181905550613afc8260030154613aee8460010154856000015461395390919063ffffffff16565b61395390919063ffffffff16565b9050613b0883826147b8565b613bae81836005018054600181600116156101000203166002900480601f016020809104026020016040519081016040528092919081815260200182805460018160011615610100020316600290048015613ba45780601f10613b7957610100808354040283529160200191613ba4565b820191906000526020600020905b815481529060010190602001808311613b8757829003601f168201915b505050505061480f565b808373ffffffffffffffffffffffffffffffffffffffff167f5d332e130eeb3924324a7454ddca461c4cd17fa86d4ad51dcceef6cc4f4477268460040154426040518083600019166000191681526020018263ffffffff1663ffffffff1681526020019250505060405180910390a3505050565b60008260000160008373ffffffffffffffffffffffffffffffffffffffff1673ffffffffffffffffffffffffffffffffffffffff16815260200190815260200160002060009054906101000a900460ff16905092915050565b600080613c878361274f565b90508073ffffffffffffffffffffffffffffffffffffffff168473ffffffffffffffffffffffffffffffffffffffff161480613cf657508373ffffffffffffffffffffffffffffffffffffffff16613cde84611bbc565b73ffffffffffffffffffffffffffffffffffffffff16145b80613d075750613d068185613619565b5b91505092915050565b8173ffffffffffffffffffffffffffffffffffffffff16613d308261274f565b73ffffffffffffffffffffffffffffffffffffffff16141515613d5257600080fd5b600073ffffffffffffffffffffffffffffffffffffffff166002600083815260200190815260200160002060009054906101000a900473ffffffffffffffffffffffffffffffffffffffff1673ffffffffffffffffffffffffffffffffffffffff16141515613e0f5760006002600083815260200190815260200160002060006101000a81548173ffffffffffffffffffffffffffffffffffffffff021916908373ffffffffffffffffffffffffffffffffffffffff1602179055505b5050565b6000806000613e22858561484f565b60086000858152602001908152602001600020549250613e8e6001600760008873ffffffffffffffffffffffffffffffffffffffff1673ffffffffffffffffffffffffffffffffffffffff168152602001908152602001600020805490506140a690919063ffffffff16565b9150600760008673ffffffffffffffffffffffffffffffffffffffff1673ffffffffffffffffffffffffffffffffffffffff16815260200190815260200160002082815481101515613edc57fe5b9060005260206000200154905080600760008773ffffffffffffffffffffffffffffffffffffffff1673ffffffffffffffffffffffffffffffffffffffff16815260200190815260200160002084815481101515613f3657fe5b9060005260206000200181905550600760008673ffffffffffffffffffffffffffffffffffffffff1673ffffffffffffffffffffffffffffffffffffffff168152602001908152602001600020805480919060019003613f969190615142565b50600060086000868152602001908152602001600020819055508260086000838152602001908152602001600020819055505050505050565b6000613fdb838361497e565b600760008473ffffffffffffffffffffffffffffffffffffffff1673ffffffffffffffffffffffffffffffffffffffff168152602001908152602001600020805490509050600760008473ffffffffffffffffffffffffffffffffffffffff1673ffffffffffffffffffffffffffffffffffffffff168152602001908152602001600020829080600181540180825580915050906001820390600052602060002001600090919290919091505550806008600084815260200190815260200160002081905550505050565b60008282111515156140b457fe5b818303905092915050565b6000806140e18573ffffffffffffffffffffffffffffffffffffffff16614ad8565b15156140f057600191506142d8565b8473ffffffffffffffffffffffffffffffffffffffff1663150b7a02338887876040518563ffffffff167c0100000000000000000000000000000000000000000000000000000000028152600401808573ffffffffffffffffffffffffffffffffffffffff1673ffffffffffffffffffffffffffffffffffffffff1681526020018473ffffffffffffffffffffffffffffffffffffffff1673ffffffffffffffffffffffffffffffffffffffff16815260200183815260200180602001828103825283818151815260200191508051906020019080838360005b838110156141e55780820151818401526020810190506141ca565b50505050905090810190601f1680156142125780820380516001836020036101000a031916815260200191505b5095505050505050602060405180830381600087803b15801561423457600080fd5b505af1158015614248573d6000803e3d6000fd5b505050506040513d602081101561425e57600080fd5b8101908080519060200190929190505050905063150b7a027c0100000000000000000000000000000000000000000000000000000000027bffffffffffffffffffffffffffffffffffffffffffffffffffffffff1916817bffffffffffffffffffffffffffffffffffffffffffffffffffffffff19161491505b50949350505050565b60606142ec826125fb565b15156142f757600080fd5b600b60008381526020019081526020016000208054600181600116156101000203166002900480601f01602080910402602001604051908101604052809291908181526020018280546001816001161561010002031660029004801561439e5780601f106143735761010080835404028352916020019161439e565b820191906000526020600020905b81548152906001019060200180831161438157829003601f168201915b50505050509050919050565b60606143e98383602060405190810160405280600081525060206040519081016040528060008152506020604051908101604052806000815250614aeb565b905092915050565b600073ffffffffffffffffffffffffffffffffffffffff168173ffffffffffffffffffffffffffffffffffffffff161415151561442d57600080fd5b8073ffffffffffffffffffffffffffffffffffffffff16600d60009054906101000a900473ffffffffffffffffffffffffffffffffffffffff1673ffffffffffffffffffffffffffffffffffffffff167f8be0079c531659141344cd1fd0a4f28419497f9722a3daafe3b4186f6b6457e060405160405180910390a380600d60006101000a81548173ffffffffffffffffffffffffffffffffffffffff021916908373ffffffffffffffffffffffffffffffffffffffff16021790555050565b6000606060008311151561450057600080fd5b614516600160135461395390919063ffffffff16565b60138190555082430340336013546040516020018084600019166000191681526020018373ffffffffffffffffffffffffffffffffffffffff1673ffffffffffffffffffffffffffffffffffffffff166c010000000000000000000000000281526014018281526020019350505050604051602081830303815290604052905061459f84612f81565b816040518082805190602001908083835b6020831015156145d557805182526020820191506020810190506020830392506145b0565b6001836020036101000a03801982511681845116808217855250505050505090500191505060405180910390206001900481151561460f57fe5b0691505092915050565b6000600161462684612f81565b03905080821115151561463857600080fd5b601760008481526020019081526020016000208181548110151561465857fe5b9060005260206000209060070201601760008581526020019081526020016000208381548110151561468657fe5b90600052602060002090600702016000820154816000015560018201548160010155600282015481600201556003820154816003015560048201548160040190600019169055600582018160050190805460018160011615610100020316600290046146f392919061516e565b506006820160009054906101000a900473ffffffffffffffffffffffffffffffffffffffff168160060160006101000a81548173ffffffffffffffffffffffffffffffffffffffff021916908373ffffffffffffffffffffffffffffffffffffffff1602179055506006820160149054906101000a900460ff168160060160146101000a81548160ff021916908360ff160217905550905050601760008481526020019081526020016000208054809190600190036147b291906151f5565b50505050565b6147c28282614f00565b600980549050600a60008381526020019081526020016000208190555060098190806001815401808255809150509060018203906000526020600020016000909192909190915055505050565b614818826125fb565b151561482357600080fd5b80600b6000848152602001908152602001600020908051906020019061484a929190615227565b505050565b8173ffffffffffffffffffffffffffffffffffffffff1661486f8261274f565b73ffffffffffffffffffffffffffffffffffffffff1614151561489157600080fd5b6148e46001600360008573ffffffffffffffffffffffffffffffffffffffff1673ffffffffffffffffffffffffffffffffffffffff168152602001908152602001600020546140a690919063ffffffff16565b600360008473ffffffffffffffffffffffffffffffffffffffff1673ffffffffffffffffffffffffffffffffffffffff1681526020019081526020016000208190555060006001600083815260200190815260200160002060006101000a81548173ffffffffffffffffffffffffffffffffffffffff021916908373ffffffffffffffffffffffffffffffffffffffff1602179055505050565b600073ffffffffffffffffffffffffffffffffffffffff166001600083815260200190815260200160002060009054906101000a900473ffffffffffffffffffffffffffffffffffffffff1673ffffffffffffffffffffffffffffffffffffffff161415156149ec57600080fd5b816001600083815260200190815260200160002060006101000a81548173ffffffffffffffffffffffffffffffffffffffff021916908373ffffffffffffffffffffffffffffffffffffffff160217905550614a916001600360008573ffffffffffffffffffffffffffffffffffffffff1673ffffffffffffffffffffffffffffffffffffffff1681526020019081526020016000205461395390919063ffffffff16565b600360008473ffffffffffffffffffffffffffffffffffffffff1673ffffffffffffffffffffffffffffffffffffffff168152602001908152602001600020819055505050565b600080823b905060008111915050919050565b6060806060806060806060806000808e98508d97508c96508b95508a94508451865188518a518c51010101016040519080825280601f01601f191660200182016040528015614b495781602001602082028038833980820191505090505b50935083925060009150600090505b8851811015614c0b578881815181101515614b6f57fe5b9060200101517f010000000000000000000000000000000000000000000000000000000000000090047f0100000000000000000000000000000000000000000000000000000000000000028383806001019450815181101515614bce57fe5b9060200101907effffffffffffffffffffffffffffffffffffffffffffffffffffffffffffff1916908160001a9053508080600101915050614b58565b600090505b8751811015614cc3578781815181101515614c2757fe5b9060200101517f010000000000000000000000000000000000000000000000000000000000000090047f0100000000000000000000000000000000000000000000000000000000000000028383806001019450815181101515614c8657fe5b9060200101907effffffffffffffffffffffffffffffffffffffffffffffffffffffffffffff1916908160001a9053508080600101915050614c10565b600090505b8651811015614d7b578681815181101515614cdf57fe5b9060200101517f010000000000000000000000000000000000000000000000000000000000000090047f0100000000000000000000000000000000000000000000000000000000000000028383806001019450815181101515614d3e57fe5b9060200101907effffffffffffffffffffffffffffffffffffffffffffffffffffffffffffff1916908160001a9053508080600101915050614cc8565b600090505b8551811015614e33578581815181101515614d9757fe5b9060200101517f010000000000000000000000000000000000000000000000000000000000000090047f0100000000000000000000000000000000000000000000000000000000000000028383806001019450815181101515614df657fe5b9060200101907effffffffffffffffffffffffffffffffffffffffffffffffffffffffffffff1916908160001a9053508080600101915050614d80565b600090505b8451811015614eeb578481815181101515614e4f57fe5b9060200101517f010000000000000000000000000000000000000000000000000000000000000090047f0100000000000000000000000000000000000000000000000000000000000000028383806001019450815181101515614eae57fe5b9060200101907effffffffffffffffffffffffffffffffffffffffffffffffffffffffffffff1916908160001a9053508080600101915050614e38565b82995050505050505050505095945050505050565b600073ffffffffffffffffffffffffffffffffffffffff168273ffffffffffffffffffffffffffffffffffffffff1614151515614f3c57600080fd5b614f468282613fcf565b808273ffffffffffffffffffffffffffffffffffffffff16600073ffffffffffffffffffffffffffffffffffffffff167fddf252ad1be2c89b69c2b068fc378daa952ba7f163c4a11628f55a4df523b3ef60405160405180910390a45050565b828054600181600116156101000203166002900490600052602060002090601f016020900481019282601f10614fe757803560ff1916838001178555615015565b82800160010185558215615015579182015b82811115615014578235825591602001919060010190614ff9565b5b50905061502291906152a7565b5090565b60c0604051908101604052806000815260200160608152602001606081526020016060815260200160008152602001600060ff1681525090565b828054600181600116156101000203166002900490600052602060002090601f016020900481019282601f106150a157805160ff19168380011785556150cf565b828001600101855582156150cf579182015b828111156150ce5782518255916020019190600101906150b3565b5b5090506150dc91906152a7565b5090565b61010060405190810160405280600081526020016000815260200160008152602001600081526020016000801916815260200160608152602001600073ffffffffffffffffffffffffffffffffffffffff168152602001600060ff1681525090565b8154818355818111156151695781836000526020600020918201910161516891906152a7565b5b505050565b828054600181600116156101000203166002900490600052602060002090601f016020900481019282601f106151a757805485556151e4565b828001600101855582156151e457600052602060002091601f016020900482015b828111156151e35782548255916001019190600101906151c8565b5b5090506151f191906152a7565b5090565b8154818355818111156152225760070281600702836000526020600020918201910161522191906152cc565b5b505050565b828054600181600116156101000203166002900490600052602060002090601f016020900481019282601f1061526857805160ff1916838001178555615296565b82800160010185558215615296579182015b8281111561529557825182559160200191906001019061527a565b5b5090506152a391906152a7565b5090565b6152c991905b808211156152c55760008160009055506001016152ad565b5090565b90565b61535b91905b80821115615357576000808201600090556001820160009055600282016000905560038201600090556004820160009055600582016000615313919061535e565b6006820160006101000a81549073ffffffffffffffffffffffffffffffffffffffff02191690556006820160146101000a81549060ff0219169055506007016152d2565b5090565b90565b50805460018160011615610100020316600290046000825580601f1061538457506153a3565b601f0160209004906000526020600020908101906153a291906152a7565b5b50565b60018260000160008373ffffffffffffffffffffffffffffffffffffffff1673ffffffffffffffffffffffffffffffffffffffff16815260200190815260200160002060006101000a81548160ff02191690831515021790555050505600a165627a7a7230582094a8df4a80d6b5fd5860f7ce5b2c24332d66b04907fc754f6e028eea550c3e1d0029",
  "source": "pragma solidity ^0.4.24;\n\nimport \"./Strings.sol\";\n\nimport 'openzeppelin-solidity/contracts/ownership/Ownable.sol';\nimport 'openzeppelin-solidity/contracts/math/SafeMath.sol';\nimport 'openzeppelin-solidity/contracts/token/ERC721/ERC721Token.sol';\nimport 'openzeppelin-solidity/contracts/lifecycle/Pausable.sol';\nimport 'openzeppelin-solidity/contracts/access/rbac/RBAC.sol';\n\n/**\n* @title KOTA aka KnownOrigin Trading Assets\n*\n* max 999 cards per box - if box interval is 1000000\n* max 999 minted per card - if card set interval is 1000\n*/\ncontract KOTA is ERC721Token, RBAC, Pausable {\n  using SafeMath for uint256;\n\n  event CardMinted(address indexed _owner, uint256 indexed _tokenId, bytes32 _name, uint32 _mintTime);\n  event CardSetSoldOut(uint256 indexed _cardNumber, uint32 _soldOutTime);\n  event CardPackBought(address indexed _owner, uint32 _boughtTime);\n  event CardPackRedeemed(address indexed _owner, uint32 _giftTime);\n\n  string internal tokenBaseURI = \"https://ipfs.infura.io/ipfs/\";\n\n  uint256 public totalCardsInCirculation = 0;\n  uint256 public totalCardsInCirculationSold = 0;\n  uint256 public totalWei = 0;\n\n  uint256 public defaultBoxNumber = 1000000;\n\n  uint256 internal randNonce = 0;\n\n  mapping(uint256 => mapping(address => uint)) internal boxNumberToAccountCredits;\n\n  struct Box {\n    uint256 boxNumber;\n    string title;\n    string description;\n    string boxURI;\n    uint256 costOfPack;\n    uint8 cardsPerPack;\n  }\n\n  struct CardSet {\n    uint256 boxNumber;\n    uint256 cardNumber;\n    uint256 totalSupply;\n    uint256 minted;\n    bytes32 cardName;\n    string cardURI;\n    address artist;\n    uint8 artistShare;\n  }\n  mapping(uint256 => Box) public boxNumberToBox;\n\n  mapping(uint256 => CardSet) public boxCardNumberToCardSet;\n\n  mapping(uint256 => CardSet[]) internal boxNumberToCardSetCirculation;\n  mapping(uint256 => uint256[]) internal boxNumberToCardNumbers;\n\n  mapping(uint256 => uint256) public boxNumberToCardsInCirculation;\n  mapping(uint256 => uint256) public boxNumberToCardsInCirculationSold;\n\n  // allows KOTA to award cards stars\n  mapping(uint256 => uint256) public tokenIdToStars;\n\n  uint256[] internal boxNumbers;\n\n  string constant ROLE_CREATOR = \"ROLE_CREATOR\";\n  string constant ROLE_MINTER = \"ROLE_MINTER\";\n\n  constructor() public ERC721Token(\"KOTA\", \"KOTA\") {\n    addRole(msg.sender, ROLE_CREATOR);\n    addRole(msg.sender, ROLE_MINTER);\n  }\n\n  // can buy direct from contract if you send enough ether\n  function() public payable {\n    buyPack(defaultBoxNumber);\n  }\n\n  function addBox(\n    uint256 _boxNumber,\n    string _title,\n    string _description,\n    string _boxUri,\n    uint256 _costOfPack,\n    uint8 _cardsPerPack\n  ) public onlyRole(ROLE_CREATOR) {\n    Box memory _newBox = Box(_boxNumber, _title, _description, _boxUri, _costOfPack, _cardsPerPack);\n\n    boxNumberToBox[_boxNumber] = _newBox;\n    boxNumbers.push(_boxNumber);\n  }\n\n  function addCardSet(\n    uint256 _boxNumber,\n    uint256 _cardNumber,\n    uint256 _totalSupply,\n    bytes32 _cardName,\n    string _cardUri,\n    address _artist,\n    uint8 _artistShare\n  ) public onlyRole(ROLE_CREATOR) {\n    require(boxNumberToBox[_boxNumber].boxNumber > 0, \"Box should exist\");\n\n    uint256 _boxCardNumber = _boxNumber.add(_cardNumber);\n    require(boxCardNumberToCardSet[_boxCardNumber].cardNumber == 0, \"Card Set should not exist\");\n\n    // add new card set by boxCardNumber\n    CardSet memory _newCardSet = CardSet(_boxNumber, _cardNumber, _totalSupply, 0, _cardName, _cardUri, _artist, _artistShare);\n    boxCardNumberToCardSet[_boxCardNumber] = _newCardSet;\n\n    // add to box circulation\n    boxNumberToCardSetCirculation[_boxNumber].push(_newCardSet); // FIXME - use flag to decide to add to circulation\n    boxNumberToCardNumbers[_boxNumber].push(_cardNumber);\n\n    boxNumberToCardsInCirculation[_boxNumber] = boxNumberToCardsInCirculation[_boxNumber].add(_totalSupply);\n    totalCardsInCirculation = totalCardsInCirculation.add(_totalSupply);\n  }\n\n  /**\n   * @dev mints a single card\n   * @param _to who will get the card\n   * @param _boxNumber box number of card to mint\n   * @param _cardNumber card number of the card set to transfer\n   */\n  function mint(\n    address _to,\n    uint256 _boxNumber,\n    uint256 _cardNumber\n  ) public onlyRole(ROLE_MINTER) {\n    uint256 _boxCardNumber = _boxNumber.add(_cardNumber);\n    require(boxCardNumberToCardSet[_boxCardNumber].boxNumber > 0, \"Card set and Box must exist\"); // ensure real card set\n\n    CardSet storage cardSet = boxCardNumberToCardSet[_boxCardNumber];\n\n    // don't transfer last card!\n    // buyPack removes from circulation via index - we don't know index here...\n    require(cardSet.minted.add(1) < cardSet.totalSupply, \"Can't mint last card via mint method\");\n\n    boxNumberToCardsInCirculationSold[_boxNumber] = boxNumberToCardsInCirculationSold[_boxNumber].add(1);\n    totalCardsInCirculationSold = totalCardsInCirculationSold.add(1);\n\n    _mint(_to, cardSet);\n  }\n\n  /**\n   * @dev Buys a pack of cards\n   */\n  function buyPack(uint256 _boxNumber) public payable whenNotPaused {\n    require(cardSetsInCirculation(_boxNumber) > 0, \"Card sets must exits for Box\");\n    require(msg.value >= boxNumberToBox[_boxNumber].costOfPack, \"Value must exceed the cost of the pack\");\n\n    _randomPack(_boxNumber);\n\n    // reconcile payments\n    owner.transfer(boxNumberToBox[_boxNumber].costOfPack);\n    totalWei = totalWei.add(boxNumberToBox[_boxNumber].costOfPack);\n\n    // give back the change - if any\n    msg.sender.transfer(msg.value - boxNumberToBox[_boxNumber].costOfPack);\n    emit CardPackBought(msg.sender, uint32(now));\n  }\n\n  /**\n   * @dev Redeem a pack of cards (via a credit)\n   */\n  function redeemPack(uint256 _boxNumber) public whenNotPaused {\n    require(boxNumberToAccountCredits[_boxNumber][msg.sender] > 0);\n\n    // remove credit\n    boxNumberToAccountCredits[_boxNumber][msg.sender] = boxNumberToAccountCredits[_boxNumber][msg.sender].sub(1);\n\n    _randomPack(_boxNumber);\n\n    emit CardPackRedeemed(msg.sender, uint32(now));\n  }\n\n  /**\n   * @dev Return owned tokens\n   * @param _owner address to query\n   */\n  function tokensOf(address _owner) public view returns (uint256[] _tokenIds) {\n    return ownedTokens[_owner];\n  }\n\n  /**\n   * @dev All box numbers\n   */\n  function allBoxNumbers() public view returns (uint256[] _boxNumbers) {\n    return boxNumbers;\n  }\n\n  /**\n   * @dev number of card sets in circulation for a box\n   * @param _boxNumber box number of card sets\n   */\n  function cardSetsInCirculation(uint256 _boxNumber) public view returns (uint256 _cardSetCirculationLength) {\n    return boxNumberToCardSetCirculation[_boxNumber].length;\n  }\n\n  /**\n   * @dev card numbers for a box\n   * @param _boxNumber box number of card sets\n   */\n  function cardNumbersOf(uint256 _boxNumber) public view returns (uint256[] _cardNumbersArray) {\n    return boxNumberToCardNumbers[_boxNumber];\n  }\n\n  /**\n   * @dev checks for owned tokens\n   * @param _owner address to query\n   */\n  function hasTokens(address _owner) public constant returns (bool) {\n    return ownedTokens[_owner].length > 0;\n  }\n\n  /**\n   * @dev Utility function to credit address with packs they can redeem\n   * @dev Reverts if not called by owner\n   * @param _boxNumber number of the box to credit\n   * @param _recipient receiver of credit\n   */\n  function addCredit(uint256 _boxNumber, address _recipient) external onlyOwner {\n    boxNumberToAccountCredits[_boxNumber][_recipient] = boxNumberToAccountCredits[_boxNumber][_recipient].add(1);\n  }\n\n  /**\n   * @dev Credits for account for box\n   * @param _boxNumber number of the box to credit\n   * @param _recipient receiver of credit\n   */\n  function creditsOf(uint256 _boxNumber, address _recipient) public view returns (uint256 _credits) {\n    return boxNumberToAccountCredits[_boxNumber][_recipient];\n  }\n\n  /**\n   * @dev Get token URI fro the given token, useful for testing purposes\n   * @param _tokenId the token ID\n   * @return the token ID or only the base URI if not found\n   */\n  function tokenURI(uint256 _tokenId) public view returns (string) {\n    return Strings.strConcat(tokenBaseURI, super.tokenURI(_tokenId));\n  }\n\n  /**\n   * @dev Allows management to update the base tokenURI path\n   * @dev Reverts if not called by owner\n   * @param _newBaseURI the new base URI to set\n   */\n  function setTokenBaseURI(string _newBaseURI) external onlyOwner {\n    tokenBaseURI = _newBaseURI;\n  }\n\n  /**\n   * @dev Allows management to update the default box number\n   * @dev Reverts if not called by owner\n   * @param _defaultBoxNumber new default box number\n   */\n  function setDefaultBoxNumber(uint256 _defaultBoxNumber) external onlyOwner {\n    defaultBoxNumber = _defaultBoxNumber;\n  }\n\n  function _randomPack(uint256 _boxNumber) internal {\n    // thanks CryptoStrikers!\n    require(msg.sender == tx.origin, \"Don't allow contracts to buy\");\n\n    for (uint i = 0; i < boxNumberToBox[_boxNumber].cardsPerPack; i++) {\n      uint _index = _randomCardSetIndex(_boxNumber, i + 1);\n      CardSet storage pickedSet = boxNumberToCardSetCirculation[_boxNumber][_index];\n\n      _mint(msg.sender, pickedSet);\n\n      // remove from circulation if minted == totalSupply\n      if (pickedSet.minted == pickedSet.totalSupply) {\n        _removeCardSetAtIndex(_boxNumber, _index);\n        emit CardSetSoldOut(pickedSet.cardNumber, uint32(now));\n      }\n    }\n\n    boxNumberToCardsInCirculationSold[_boxNumber] = boxNumberToCardsInCirculationSold[_boxNumber].add(boxNumberToBox[_boxNumber].cardsPerPack);\n    totalCardsInCirculationSold = totalCardsInCirculationSold.add(boxNumberToBox[_boxNumber].cardsPerPack);\n  }\n\n  function _randomCardSetIndex(uint256 _boxNumber, uint _index) internal returns (uint) {\n    require(_index > 0);\n\n    randNonce = randNonce.add(1);\n    bytes memory packed = abi.encodePacked(blockhash(block.number - _index), msg.sender, randNonce);\n    return uint256(keccak256(packed)) % cardSetsInCirculation(_boxNumber);\n  }\n\n  function _mint(address _to, CardSet storage _cardSet) internal {\n    // ensure valid card set\n    require(_cardSet.totalSupply > 0, \"Card set supply must be greater than zero\");\n    require(_cardSet.minted <= _cardSet.totalSupply, \"Card set must have cards left\");\n\n    _cardSet.minted = _cardSet.minted.add(1);\n    uint256 cardSerialNumber = _cardSet.boxNumber.add(_cardSet.cardNumber).add(_cardSet.minted);\n\n    super._mint(_to, cardSerialNumber);\n    super._setTokenURI(cardSerialNumber, _cardSet.cardURI);\n\n    emit CardMinted(_to, cardSerialNumber, _cardSet.cardName, uint32(now));\n  }\n\n  function _removeCardSetAtIndex(uint256 _boxNumber, uint256 _index) internal {\n    uint lastIndex = cardSetsInCirculation(_boxNumber) - 1;\n    require(_index <= lastIndex);\n\n    boxNumberToCardSetCirculation[_boxNumber][_index] = boxNumberToCardSetCirculation[_boxNumber][lastIndex];\n    boxNumberToCardSetCirculation[_boxNumber].length--;\n  }\n\n  // FIXME - ability to remove cardset by creator role\n}\n",
  "sourcePath": "/Users/andy/workspace/cbfc/contracts/KOTA.sol",
  "compiler": {
    "name": "solc",
    "version": "0.4.24+commit.e67f0147.Emscripten.clang"
  },
  "schemaVersion": "3.0.0-beta.0",
  "updatedAt": "2018-09-19T08:59:20.134Z"
}