{
  "contractName": "KOTA",
  "abi": [
    {
      "constant": true,
      "inputs": [
        {
          "name": "_interfaceId",
          "type": "bytes4"
        }
      ],
      "name": "supportsInterface",
      "outputs": [
        {
          "name": "",
          "type": "bool"
        }
      ],
      "payable": false,
      "stateMutability": "view",
      "type": "function"
    },
    {
      "constant": true,
      "inputs": [],
      "name": "name",
      "outputs": [
        {
          "name": "",
          "type": "string"
        }
      ],
      "payable": false,
      "stateMutability": "view",
      "type": "function"
    },
    {
      "constant": true,
      "inputs": [
        {
          "name": "_tokenId",
          "type": "uint256"
        }
      ],
      "name": "getApproved",
      "outputs": [
        {
          "name": "",
          "type": "address"
        }
      ],
      "payable": false,
      "stateMutability": "view",
      "type": "function"
    },
    {
      "constant": false,
      "inputs": [
        {
          "name": "_to",
          "type": "address"
        },
        {
          "name": "_tokenId",
          "type": "uint256"
        }
      ],
      "name": "approve",
      "outputs": [],
      "payable": false,
      "stateMutability": "nonpayable",
      "type": "function"
    },
    {
      "constant": true,
      "inputs": [],
      "name": "totalSupply",
      "outputs": [
        {
          "name": "",
          "type": "uint256"
        }
      ],
      "payable": false,
      "stateMutability": "view",
      "type": "function"
    },
    {
      "constant": true,
      "inputs": [],
      "name": "InterfaceId_ERC165",
      "outputs": [
        {
          "name": "",
          "type": "bytes4"
        }
      ],
      "payable": false,
      "stateMutability": "view",
      "type": "function"
    },
    {
      "constant": false,
      "inputs": [
        {
          "name": "_from",
          "type": "address"
        },
        {
          "name": "_to",
          "type": "address"
        },
        {
          "name": "_tokenId",
          "type": "uint256"
        }
      ],
      "name": "transferFrom",
      "outputs": [],
      "payable": false,
      "stateMutability": "nonpayable",
      "type": "function"
    },
    {
      "constant": true,
      "inputs": [
        {
          "name": "_owner",
          "type": "address"
        },
        {
          "name": "_index",
          "type": "uint256"
        }
      ],
      "name": "tokenOfOwnerByIndex",
      "outputs": [
        {
          "name": "",
          "type": "uint256"
        }
      ],
      "payable": false,
      "stateMutability": "view",
      "type": "function"
    },
    {
      "constant": false,
      "inputs": [
        {
          "name": "_from",
          "type": "address"
        },
        {
          "name": "_to",
          "type": "address"
        },
        {
          "name": "_tokenId",
          "type": "uint256"
        }
      ],
      "name": "safeTransferFrom",
      "outputs": [],
      "payable": false,
      "stateMutability": "nonpayable",
      "type": "function"
    },
    {
      "constant": true,
      "inputs": [
        {
          "name": "",
          "type": "uint256"
        }
      ],
      "name": "cardSets",
      "outputs": [
        {
          "name": "cardNumber",
          "type": "uint256"
        },
        {
          "name": "totalSupply",
          "type": "uint256"
        },
        {
          "name": "minted",
          "type": "uint256"
        },
        {
          "name": "cardName",
          "type": "bytes32"
        },
        {
          "name": "cardURI",
          "type": "string"
        }
      ],
      "payable": false,
      "stateMutability": "view",
      "type": "function"
    },
    {
      "constant": true,
      "inputs": [
        {
          "name": "_tokenId",
          "type": "uint256"
        }
      ],
      "name": "exists",
      "outputs": [
        {
          "name": "",
          "type": "bool"
        }
      ],
      "payable": false,
      "stateMutability": "view",
      "type": "function"
    },
    {
      "constant": true,
      "inputs": [
        {
          "name": "_index",
          "type": "uint256"
        }
      ],
      "name": "tokenByIndex",
      "outputs": [
        {
          "name": "",
          "type": "uint256"
        }
      ],
      "payable": false,
      "stateMutability": "view",
      "type": "function"
    },
    {
      "constant": true,
      "inputs": [
        {
          "name": "_tokenId",
          "type": "uint256"
        }
      ],
      "name": "ownerOf",
      "outputs": [
        {
          "name": "",
          "type": "address"
        }
      ],
      "payable": false,
      "stateMutability": "view",
      "type": "function"
    },
    {
      "constant": true,
      "inputs": [],
      "name": "cardsPerPack",
      "outputs": [
        {
          "name": "",
          "type": "uint8"
        }
      ],
      "payable": false,
      "stateMutability": "view",
      "type": "function"
    },
    {
      "constant": true,
      "inputs": [
        {
          "name": "_owner",
          "type": "address"
        }
      ],
      "name": "balanceOf",
      "outputs": [
        {
          "name": "",
          "type": "uint256"
        }
      ],
      "payable": false,
      "stateMutability": "view",
      "type": "function"
    },
    {
      "constant": false,
      "inputs": [],
      "name": "renounceOwnership",
      "outputs": [],
      "payable": false,
      "stateMutability": "nonpayable",
      "type": "function"
    },
    {
      "constant": true,
      "inputs": [
        {
          "name": "",
          "type": "uint256"
        }
      ],
      "name": "cardSetCirculation",
      "outputs": [
        {
          "name": "cardNumber",
          "type": "uint256"
        },
        {
          "name": "totalSupply",
          "type": "uint256"
        },
        {
          "name": "minted",
          "type": "uint256"
        },
        {
          "name": "cardName",
          "type": "bytes32"
        },
        {
          "name": "cardURI",
          "type": "string"
        }
      ],
      "payable": false,
      "stateMutability": "view",
      "type": "function"
    },
    {
      "constant": true,
      "inputs": [],
      "name": "owner",
      "outputs": [
        {
          "name": "",
          "type": "address"
        }
      ],
      "payable": false,
      "stateMutability": "view",
      "type": "function"
    },
    {
      "constant": true,
      "inputs": [],
      "name": "totalCardsInCirculation",
      "outputs": [
        {
          "name": "",
          "type": "uint256"
        }
      ],
      "payable": false,
      "stateMutability": "view",
      "type": "function"
    },
    {
      "constant": true,
      "inputs": [],
      "name": "symbol",
      "outputs": [
        {
          "name": "",
          "type": "string"
        }
      ],
      "payable": false,
      "stateMutability": "view",
      "type": "function"
    },
    {
      "constant": false,
      "inputs": [
        {
          "name": "_to",
          "type": "address"
        },
        {
          "name": "_approved",
          "type": "bool"
        }
      ],
      "name": "setApprovalForAll",
      "outputs": [],
      "payable": false,
      "stateMutability": "nonpayable",
      "type": "function"
    },
    {
      "constant": false,
      "inputs": [
        {
          "name": "_from",
          "type": "address"
        },
        {
          "name": "_to",
          "type": "address"
        },
        {
          "name": "_tokenId",
          "type": "uint256"
        },
        {
          "name": "_data",
          "type": "bytes"
        }
      ],
      "name": "safeTransferFrom",
      "outputs": [],
      "payable": false,
      "stateMutability": "nonpayable",
      "type": "function"
    },
    {
      "constant": true,
      "inputs": [],
      "name": "costOfPack",
      "outputs": [
        {
          "name": "",
          "type": "uint256"
        }
      ],
      "payable": false,
      "stateMutability": "view",
      "type": "function"
    },
    {
      "constant": true,
      "inputs": [],
      "name": "totalCardsInCirculationSold",
      "outputs": [
        {
          "name": "",
          "type": "uint256"
        }
      ],
      "payable": false,
      "stateMutability": "view",
      "type": "function"
    },
    {
      "constant": true,
      "inputs": [
        {
          "name": "_owner",
          "type": "address"
        },
        {
          "name": "_operator",
          "type": "address"
        }
      ],
      "name": "isApprovedForAll",
      "outputs": [
        {
          "name": "",
          "type": "bool"
        }
      ],
      "payable": false,
      "stateMutability": "view",
      "type": "function"
    },
    {
      "constant": false,
      "inputs": [
        {
          "name": "_newOwner",
          "type": "address"
        }
      ],
      "name": "transferOwnership",
      "outputs": [],
      "payable": false,
      "stateMutability": "nonpayable",
      "type": "function"
    },
    {
      "constant": true,
      "inputs": [
        {
          "name": "",
          "type": "address"
        }
      ],
      "name": "credits",
      "outputs": [
        {
          "name": "",
          "type": "uint256"
        }
      ],
      "payable": false,
      "stateMutability": "view",
      "type": "function"
    },
    {
      "inputs": [],
      "payable": false,
      "stateMutability": "nonpayable",
      "type": "constructor"
    },
    {
      "payable": true,
      "stateMutability": "payable",
      "type": "fallback"
    },
    {
      "anonymous": false,
      "inputs": [
        {
          "indexed": true,
          "name": "_owner",
          "type": "address"
        },
        {
          "indexed": true,
          "name": "_tokenId",
          "type": "uint256"
        },
        {
          "indexed": false,
          "name": "_name",
          "type": "bytes32"
        },
        {
          "indexed": false,
          "name": "_mintTime",
          "type": "uint32"
        }
      ],
      "name": "CardMinted",
      "type": "event"
    },
    {
      "anonymous": false,
      "inputs": [
        {
          "indexed": true,
          "name": "_cardNumber",
          "type": "uint256"
        },
        {
          "indexed": false,
          "name": "_soldOutTime",
          "type": "uint32"
        }
      ],
      "name": "CardSetSoldOut",
      "type": "event"
    },
    {
      "anonymous": false,
      "inputs": [
        {
          "indexed": true,
          "name": "_owner",
          "type": "address"
        },
        {
          "indexed": false,
          "name": "_boughtTime",
          "type": "uint32"
        }
      ],
      "name": "CardPackBought",
      "type": "event"
    },
    {
      "anonymous": false,
      "inputs": [
        {
          "indexed": true,
          "name": "_owner",
          "type": "address"
        },
        {
          "indexed": false,
          "name": "_giftTime",
          "type": "uint32"
        }
      ],
      "name": "CardPackRedeemed",
      "type": "event"
    },
    {
      "anonymous": false,
      "inputs": [
        {
          "indexed": true,
          "name": "previousOwner",
          "type": "address"
        }
      ],
      "name": "OwnershipRenounced",
      "type": "event"
    },
    {
      "anonymous": false,
      "inputs": [
        {
          "indexed": true,
          "name": "previousOwner",
          "type": "address"
        },
        {
          "indexed": true,
          "name": "newOwner",
          "type": "address"
        }
      ],
      "name": "OwnershipTransferred",
      "type": "event"
    },
    {
      "anonymous": false,
      "inputs": [
        {
          "indexed": true,
          "name": "_from",
          "type": "address"
        },
        {
          "indexed": true,
          "name": "_to",
          "type": "address"
        },
        {
          "indexed": true,
          "name": "_tokenId",
          "type": "uint256"
        }
      ],
      "name": "Transfer",
      "type": "event"
    },
    {
      "anonymous": false,
      "inputs": [
        {
          "indexed": true,
          "name": "_owner",
          "type": "address"
        },
        {
          "indexed": true,
          "name": "_approved",
          "type": "address"
        },
        {
          "indexed": true,
          "name": "_tokenId",
          "type": "uint256"
        }
      ],
      "name": "Approval",
      "type": "event"
    },
    {
      "anonymous": false,
      "inputs": [
        {
          "indexed": true,
          "name": "_owner",
          "type": "address"
        },
        {
          "indexed": true,
          "name": "_operator",
          "type": "address"
        },
        {
          "indexed": false,
          "name": "_approved",
          "type": "bool"
        }
      ],
      "name": "ApprovalForAll",
      "type": "event"
    },
    {
      "constant": false,
      "inputs": [
        {
          "name": "_cardNumber",
          "type": "uint256"
        },
        {
          "name": "_totalSupply",
          "type": "uint256"
        },
        {
          "name": "_cardName",
          "type": "bytes32"
        },
        {
          "name": "_cardUri",
          "type": "string"
        }
      ],
      "name": "addCardSet",
      "outputs": [],
      "payable": false,
      "stateMutability": "nonpayable",
      "type": "function"
    },
    {
      "constant": false,
      "inputs": [
        {
          "name": "_to",
          "type": "address"
        },
        {
          "name": "_cardNumber",
          "type": "uint256"
        }
      ],
      "name": "mint",
      "outputs": [],
      "payable": false,
      "stateMutability": "nonpayable",
      "type": "function"
    },
    {
      "constant": false,
      "inputs": [],
      "name": "buyPack",
      "outputs": [],
      "payable": true,
      "stateMutability": "payable",
      "type": "function"
    },
    {
      "constant": false,
      "inputs": [],
      "name": "redeemPack",
      "outputs": [],
      "payable": false,
      "stateMutability": "nonpayable",
      "type": "function"
    },
    {
      "constant": false,
      "inputs": [
        {
          "name": "_tokenId",
          "type": "uint256"
        }
      ],
      "name": "burn",
      "outputs": [],
      "payable": false,
      "stateMutability": "nonpayable",
      "type": "function"
    },
    {
      "constant": true,
      "inputs": [
        {
          "name": "_owner",
          "type": "address"
        }
      ],
      "name": "tokensOf",
      "outputs": [
        {
          "name": "_tokenIds",
          "type": "uint256[]"
        }
      ],
      "payable": false,
      "stateMutability": "view",
      "type": "function"
    },
    {
      "constant": true,
      "inputs": [],
      "name": "cardSetsInCirculation",
      "outputs": [
        {
          "name": "_cardSetCirculationLength",
          "type": "uint256"
        }
      ],
      "payable": false,
      "stateMutability": "view",
      "type": "function"
    },
    {
      "constant": true,
      "inputs": [
        {
          "name": "_owner",
          "type": "address"
        }
      ],
      "name": "hasTokens",
      "outputs": [
        {
          "name": "",
          "type": "bool"
        }
      ],
      "payable": false,
      "stateMutability": "view",
      "type": "function"
    },
    {
      "constant": false,
      "inputs": [
        {
          "name": "_costOfPack",
          "type": "uint256"
        }
      ],
      "name": "setCostOfPack",
      "outputs": [],
      "payable": false,
      "stateMutability": "nonpayable",
      "type": "function"
    },
    {
      "constant": false,
      "inputs": [
        {
          "name": "_recipient",
          "type": "address"
        }
      ],
      "name": "addCredit",
      "outputs": [],
      "payable": false,
      "stateMutability": "nonpayable",
      "type": "function"
    },
    {
      "constant": true,
      "inputs": [
        {
          "name": "_tokenId",
          "type": "uint256"
        }
      ],
      "name": "tokenURI",
      "outputs": [
        {
          "name": "",
          "type": "string"
        }
      ],
      "payable": false,
      "stateMutability": "view",
      "type": "function"
    },
    {
      "constant": false,
      "inputs": [
        {
          "name": "_newBaseURI",
          "type": "string"
        }
      ],
      "name": "setTokenBaseURI",
      "outputs": [],
      "payable": false,
      "stateMutability": "nonpayable",
      "type": "function"
    }
  ],
  "bytecode": "0x60c0604052601c60808190527f68747470733a2f2f697066732e696e667572612e696f2f697066732f0000000060a09081526200004091600d919062000267565b50662386f26fc10000600e556000600f55600060105560006011553480156200006857600080fd5b5060408051808201825260048082527f4b4f544100000000000000000000000000000000000000000000000000000000602080840182905284518086019095529184529083015290620000e47f01ffc9a700000000000000000000000000000000000000000000000000000000640100000000620001fa810204565b620001187f80ac58cd00000000000000000000000000000000000000000000000000000000640100000000620001fa810204565b6200014c7f4f558e7900000000000000000000000000000000000000000000000000000000640100000000620001fa810204565b81516200016190600590602085019062000267565b5080516200017790600690602084019062000267565b50620001ac7f780e9d6300000000000000000000000000000000000000000000000000000000640100000000620001fa810204565b620001e07f5b5e139f00000000000000000000000000000000000000000000000000000000640100000000620001fa810204565b5050600c8054600160a060020a031916331790556200030c565b7fffffffff0000000000000000000000000000000000000000000000000000000080821614156200022a57600080fd5b7fffffffff00000000000000000000000000000000000000000000000000000000166000908152602081905260409020805460ff19166001179055565b828054600181600116156101000203166002900490600052602060002090601f016020900481019282601f10620002aa57805160ff1916838001178555620002da565b82800160010185558215620002da579182015b82811115620002da578251825591602001919060010190620002bd565b50620002e8929150620002ec565b5090565b6200030991905b80821115620002e85760008155600101620002f3565b90565b6125f7806200031c6000396000f3006080604052600436106101e25763ffffffff7c010000000000000000000000000000000000000000000000000000000060003504166301ffc9a781146101ec57806306fdde0314610222578063081812fc146102ac578063095ea7b3146102e057806318160ddd1461030457806319fa8f501461032b57806320f7c1c01461035d57806323b872dd146103755780632f745c591461039f5780633cefc1e0146103c3578063408afbbf146103e457806340c10f19146103f957806342842e0e1461041d57806342966c681461044757806346716e621461045f5780634f558e79146105135780634f6ccce71461052b5780635a3f2672146105435780636352211e146105b4578063655563db146105cc57806370a08231146105f7578063715018a6146106185780637718b4e91461062d5780637c334d0b146106455780638da5cb5b146106665780638ef79e911461067b5780639154fb8b1461069b57806395d89b41146106b0578063a22cb465146106c5578063b88d4fde146106eb578063bee0a2381461075a578063c37b9bcd146101e2578063c87b56dd146107bd578063cb361c5d146107d5578063e2e4337d146107ea578063e77854cd146107ff578063e985e9c514610814578063f2fde38b1461083b578063fe5ff4681461085c575b6101ea61087d565b005b3480156101f857600080fd5b5061020e600160e060020a031960043516610940565b604080519115158252519081900360200190f35b34801561022e57600080fd5b5061023761095f565b6040805160208082528351818301528351919283929083019185019080838360005b83811015610271578181015183820152602001610259565b50505050905090810190601f16801561029e5780820380516001836020036101000a031916815260200191505b509250505060405180910390f35b3480156102b857600080fd5b506102c46004356109f6565b60408051600160a060020a039092168252519081900360200190f35b3480156102ec57600080fd5b506101ea600160a060020a0360043516602435610a11565b34801561031057600080fd5b50610319610ac7565b60408051918252519081900360200190f35b34801561033757600080fd5b50610340610acd565b60408051600160e060020a03199092168252519081900360200190f35b34801561036957600080fd5b506101ea600435610af1565b34801561038157600080fd5b506101ea600160a060020a0360043581169060243516604435610b0d565b3480156103ab57600080fd5b50610319600160a060020a0360043516602435610bb2565b3480156103cf57600080fd5b5061020e600160a060020a0360043516610bff565b3480156103f057600080fd5b50610319610c1b565b34801561040557600080fd5b506101ea600160a060020a0360043516602435610c21565b34801561042957600080fd5b506101ea600160a060020a0360043581169060243516604435610c97565b34801561045357600080fd5b506101ea600435610ccf565b34801561046b57600080fd5b50610477600435610cdc565b60405180868152602001858152602001848152602001836000191660001916815260200180602001828103825283818151815260200191508051906020019080838360005b838110156104d45781810151838201526020016104bc565b50505050905090810190601f1680156105015780820380516001836020036101000a031916815260200191505b50965050505050505060405180910390f35b34801561051f57600080fd5b5061020e600435610daa565b34801561053757600080fd5b50610319600435610dc7565b34801561054f57600080fd5b50610564600160a060020a0360043516610dfc565b60408051602080825283518183015283519192839290830191858101910280838360005b838110156105a0578181015183820152602001610588565b505050509050019250505060405180910390f35b3480156105c057600080fd5b506102c4600435610e68565b3480156105d857600080fd5b506105e1610e92565b6040805160ff9092168252519081900360200190f35b34801561060357600080fd5b50610319600160a060020a0360043516610e97565b34801561062457600080fd5b506101ea610eca565b34801561063957600080fd5b50610477600435610f38565b34801561065157600080fd5b506101ea600160a060020a0360043516610fdf565b34801561067257600080fd5b506102c461103c565b34801561068757600080fd5b506101ea600480356024810191013561104b565b3480156106a757600080fd5b5061031961106e565b3480156106bc57600080fd5b50610237611074565b3480156106d157600080fd5b506101ea600160a060020a036004351660243515156110d5565b3480156106f757600080fd5b50604080516020601f6064356004818101359283018490048402850184019095528184526101ea94600160a060020a0381358116956024803590921695604435953695608494019181908401838280828437509497506111599650505050505050565b34801561076657600080fd5b50604080516020601f6064356004818101359283018490048402850184019095528184526101ea94803594602480359560443595369560849493019181908401838280828437509497506111989650505050505050565b3480156107c957600080fd5b5061023760043561133b565b3480156107e157600080fd5b506103196113dd565b3480156107f657600080fd5b506101ea6113e3565b34801561080b57600080fd5b50610319611443565b34801561082057600080fd5b5061020e600160a060020a0360043581169060243516611449565b34801561084757600080fd5b506101ea600160a060020a0360043516611477565b34801561086857600080fd5b50610319600160a060020a0360043516611497565b600e5434101561088c57600080fd5b6108946114a9565b600c54600e54604051600160a060020a039092169181156108fc0291906000818181858888f193505050501580156108d0573d6000803e3d6000fd5b50600e546040513391340380156108fc02916000818181858888f19350505050158015610901573d6000803e3d6000fd5b506040805163ffffffff42168152905133917faa410191373df16155ba10f8d6e9705423d9bcfe3c1a1251ec041d47b9a59ca2919081900360200190a2565b600160e060020a03191660009081526020819052604090205460ff1690565b60058054604080516020601f60026000196101006001881615020190951694909404938401819004810282018101909252828152606093909290918301828280156109eb5780601f106109c0576101008083540402835291602001916109eb565b820191906000526020600020905b8154815290600101906020018083116109ce57829003601f168201915b505050505090505b90565b600090815260026020526040902054600160a060020a031690565b6000610a1c82610e68565b9050600160a060020a038381169082161415610a3757600080fd5b33600160a060020a0382161480610a535750610a538133611449565b1515610a5e57600080fd5b600082815260026020526040808220805473ffffffffffffffffffffffffffffffffffffffff1916600160a060020a0387811691821790925591518593918516917f8c5be1e5ebec7d5bd14f71427d1e84f3dd0314c0f7b2291e5b200ac8c7c3b92591a4505050565b60095490565b7f01ffc9a70000000000000000000000000000000000000000000000000000000081565b600c54600160a060020a03163314610b0857600080fd5b600e55565b80610b18338261157a565b1515610b2357600080fd5b600160a060020a0384161515610b3857600080fd5b600160a060020a0383161515610b4d57600080fd5b610b5784836115d9565b610b61848361164a565b610b6b8383611783565b8183600160a060020a031685600160a060020a03167fddf252ad1be2c89b69c2b068fc378daa952ba7f163c4a11628f55a4df523b3ef60405160405180910390a450505050565b6000610bbd83610e97565b8210610bc857600080fd5b600160a060020a0383166000908152600760205260409020805483908110610bec57fe5b9060005260206000200154905092915050565b600160a060020a03166000908152600760205260408120541190565b60145490565b600c54600090600160a060020a03163314610c3b57600080fd5b50600081815260136020526040902060018082015460028301549091610c67919063ffffffff6117cc16565b10610c7157600080fd5b601054610c8590600163ffffffff6117cc16565b601055610c9283826117d9565b505050565b80610ca2338261157a565b1515610cad57600080fd5b610cc98484846020604051908101604052806000815250611159565b50505050565b610cd9338261192b565b50565b6013602052806000526040600020600091509050806000015490806001015490806002015490806003015490806004018054600181600116156101000203166002900480601f016020809104026020016040519081016040528092919081815260200182805460018160011615610100020316600290048015610da05780601f10610d7557610100808354040283529160200191610da0565b820191906000526020600020905b815481529060010190602001808311610d8357829003601f168201915b5050505050905085565b600090815260016020526040902054600160a060020a0316151590565b6000610dd1610ac7565b8210610ddc57600080fd5b6009805483908110610dea57fe5b90600052602060002001549050919050565b600160a060020a038116600090815260076020908152604091829020805483518184028101840190945280845260609392830182828015610e5c57602002820191906000526020600020905b815481526020019060010190808311610e48575b50505050509050919050565b600081815260016020526040812054600160a060020a0316801515610e8c57600080fd5b92915050565b600481565b6000600160a060020a0382161515610eae57600080fd5b50600160a060020a031660009081526003602052604090205490565b600c54600160a060020a03163314610ee157600080fd5b600c54604051600160a060020a03909116907ff8df31144d9c2f0f6b59d69b8b98abd5459d07f2742c4df920b25aae33c6482090600090a2600c805473ffffffffffffffffffffffffffffffffffffffff19169055565b6014805482908110610f4657fe5b9060005260206000209060050201600091509050806000015490806001015490806002015490806003015490806004018054600181600116156101000203166002900480601f016020809104026020016040519081016040528092919081815260200182805460018160011615610100020316600290048015610da05780601f10610d7557610100808354040283529160200191610da0565b600c54600160a060020a03163314610ff657600080fd5b600160a060020a03811660009081526012602052604090205461102090600163ffffffff6117cc16565b600160a060020a03909116600090815260126020526040902055565b600c54600160a060020a031681565b600c54600160a060020a0316331461106257600080fd5b610c92600d838361234b565b600f5481565b60068054604080516020601f60026000196101006001881615020190951694909404938401819004810282018101909252828152606093909290918301828280156109eb5780601f106109c0576101008083540402835291602001916109eb565b600160a060020a0382163314156110eb57600080fd5b336000818152600460209081526040808320600160a060020a03871680855290835292819020805460ff1916861515908117909155815190815290519293927f17307eab39ab6107e8899845ad3d59bd9653f200f220920489ca2b5937696c31929181900390910190a35050565b81611164338261157a565b151561116f57600080fd5b61117a858585610b0d565b61118685858585611a25565b151561119157600080fd5b5050505050565b6111a06123c9565b600c54600160a060020a031633146111b757600080fd5b506040805160a0810182528581526020808201868152600083850181815260608501888152608086018881528b845260138652969092208551815592516001840155516002830155516003820155925180519293849390926112209260048501929101906123fc565b50506014805460018101808355600092909252835160059091027fce6d7b5282bd9a3661ae061feed1dbda4e52ab073b1f9285be6e155d9c38d4ec81019182556020808601517fce6d7b5282bd9a3661ae061feed1dbda4e52ab073b1f9285be6e155d9c38d4ed83015560408601517fce6d7b5282bd9a3661ae061feed1dbda4e52ab073b1f9285be6e155d9c38d4ee83015560608601517fce6d7b5282bd9a3661ae061feed1dbda4e52ab073b1f9285be6e155d9c38d4ef830155608086015180519495508694611319937fce6d7b5282bd9a3661ae061feed1dbda4e52ab073b1f9285be6e155d9c38d4f0019291909101906123fc565b5050600f54611331925090508563ffffffff6117cc16565b600f555050505050565b600d805460408051602060026001851615610100026000190190941693909304601f8101849004840282018401909252818152606093610e8c93919290918301828280156113ca5780601f1061139f576101008083540402835291602001916113ca565b820191906000526020600020905b8154815290600101906020018083116113ad57829003601f168201915b50505050506113d884611b92565b611c3d565b600e5481565b33600090815260126020526040812054116113fd57600080fd5b6114056114a9565b6040805163ffffffff42168152905133917f4d9e18eaffdad4b1ef9cf8013bc960caef57f0d97a5ea42051cd83db63613e55919081900360200190a2565b60105481565b600160a060020a03918216600090815260046020908152604080832093909416825291909152205460ff1690565b600c54600160a060020a0316331461148e57600080fd5b610cd981611c79565b60126020526000908152604090205481565b600080803332146114b957600080fd5b600092505b600483101561155e576114d383600101611cf7565b91506014828154811015156114e457fe5b906000526020600020906005020190506114fe33826117d9565b8060010154816002015414156115535761151782611dd2565b80546040805163ffffffff4216815290517f9b0b9d1a520cddbaf3796589db30746775a90fc149624d9e9851630912dc04c79181900360200190a25b6001909201916114be565b60105461157290600463ffffffff6117cc16565b601055505050565b60008061158683610e68565b905080600160a060020a031684600160a060020a031614806115c1575083600160a060020a03166115b6846109f6565b600160a060020a0316145b806115d157506115d18185611449565b949350505050565b81600160a060020a03166115ec82610e68565b600160a060020a0316146115ff57600080fd5b600081815260026020526040902054600160a060020a031615611646576000818152600260205260409020805473ffffffffffffffffffffffffffffffffffffffff191690555b5050565b60008060006116598585611e7d565b600084815260086020908152604080832054600160a060020a038916845260079092529091205490935061169490600163ffffffff611f1316565b600160a060020a0386166000908152600760205260409020805491935090839081106116bc57fe5b90600052602060002001549050806007600087600160a060020a0316600160a060020a03168152602001908152602001600020848154811015156116fc57fe5b6000918252602080832090910192909255600160a060020a038716815260079091526040812080548490811061172e57fe5b6000918252602080832090910192909255600160a060020a038716815260079091526040902080549061176590600019830161246a565b50600093845260086020526040808520859055908452909220555050565b600061178f8383611f25565b50600160a060020a039091166000908152600760209081526040808320805460018101825590845282842081018590559383526008909152902055565b81810182811015610e8c57fe5b60008082600101541115156117ed57600080fd5b60018201546002830154111561180257600080fd5b600282015461181890600163ffffffff6117cc16565b6002830181905582546118309163ffffffff6117cc16565b905061183c8382611fb5565b60048201805460408051602060026001851615610100026000190190941693909304601f81018490048402820184019092528181526118d6938593919290918301828280156118cc5780601f106118a1576101008083540402835291602001916118cc565b820191906000526020600020905b8154815290600101906020018083116118af57829003601f168201915b5050505050612004565b60038201546040805191825263ffffffff4216602083015280518392600160a060020a038716927f5d332e130eeb3924324a7454ddca461c4cd17fa86d4ad51dcceef6cc4f44772692918290030190a3505050565b600080600061193a8585612037565b6000848152600b60205260409020546002600019610100600184161502019091160415611978576000848152600b602052604081206119789161248e565b6000848152600a602052604090205460095490935061199e90600163ffffffff611f1316565b91506009828154811015156119af57fe5b90600052602060002001549050806009848154811015156119cc57fe5b600091825260208220019190915560098054849081106119e857fe5b6000918252602090912001556009805490611a0790600019830161246a565b506000938452600a6020526040808520859055908452909220555050565b600080611a3a85600160a060020a0316612087565b1515611a495760019150611b89565b6040517f150b7a020000000000000000000000000000000000000000000000000000000081523360048201818152600160a060020a03898116602485015260448401889052608060648501908152875160848601528751918a169463150b7a0294938c938b938b93909160a490910190602085019080838360005b83811015611adc578181015183820152602001611ac4565b50505050905090810190601f168015611b095780820380516001836020036101000a031916815260200191505b5095505050505050602060405180830381600087803b158015611b2b57600080fd5b505af1158015611b3f573d6000803e3d6000fd5b505050506040513d6020811015611b5557600080fd5b5051600160e060020a031981167f150b7a020000000000000000000000000000000000000000000000000000000014925090505b50949350505050565b6060611b9d82610daa565b1515611ba857600080fd5b6000828152600b602090815260409182902080548351601f600260001961010060018616150201909316929092049182018490048402810184019094528084529091830182828015610e5c5780601f10611c1057610100808354040283529160200191610e5c565b820191906000526020600020905b815481529060010190602001808311611c1e5750939695505050505050565b604080516020818101835260008083528351808301855281815284519283019094528152606092611c7292869286929061208f565b9392505050565b600160a060020a0381161515611c8e57600080fd5b600c54604051600160a060020a038084169216907f8be0079c531659141344cd1fd0a4f28419497f9722a3daafe3b4186f6b6457e090600090a3600c805473ffffffffffffffffffffffffffffffffffffffff1916600160a060020a0392909216919091179055565b60006060818311611d0757600080fd5b601154611d1b90600163ffffffff6117cc16565b601181905560408051438690034060208201526c010000000000000000000000003302818301526054808201939093528151808203909301835260740190529050611d64610c1b565b816040518082805190602001908083835b60208310611d945780518252601f199092019160209182019101611d75565b5181516020939093036101000a6000190180199091169216919091179052604051920182900390912092505050811515611dca57fe5b069392505050565b6014546000190180821115611de657600080fd5b6014805482908110611df457fe5b9060005260206000209060050201601483815481101515611e1157fe5b60009182526020909120825460059092020190815560018083015481830155600280840154818401556003808501549084015560048085018054611e6794928601939192811615610100026000190116046124d2565b5050601480549150610c92906000198301612547565b81600160a060020a0316611e9082610e68565b600160a060020a031614611ea357600080fd5b600160a060020a038216600090815260036020526040902054611ecd90600163ffffffff611f1316565b600160a060020a03909216600090815260036020908152604080832094909455918152600190915220805473ffffffffffffffffffffffffffffffffffffffff19169055565b600082821115611f1f57fe5b50900390565b600081815260016020526040902054600160a060020a031615611f4757600080fd5b6000818152600160208181526040808420805473ffffffffffffffffffffffffffffffffffffffff1916600160a060020a0388169081179091558452600390915290912054611f95916117cc565b600160a060020a0390921660009081526003602052604090209190915550565b611fbf82826122f0565b600980546000838152600a60205260408120829055600182018355919091527f6e1540171b6c0c960b71a7020d9f60077f6af931a8bbf590da0223dacf75c7af015550565b61200d82610daa565b151561201857600080fd5b6000828152600b602090815260409091208251610c92928401906123fc565b61204182826115d9565b61204b828261164a565b6040518190600090600160a060020a038516907fddf252ad1be2c89b69c2b068fc378daa952ba7f163c4a11628f55a4df523b3ef908390a45050565b6000903b1190565b6060806060806060806060806000808e98508d97508c96508b95508a94508451865188518a518c51010101016040519080825280601f01601f1916602001820160405280156120e8578160200160208202803883390190505b50935083925060009150600090505b885181101561215557888181518110151561210e57fe5b90602001015160f860020a900460f860020a02838380600101945081518110151561213557fe5b906020010190600160f860020a031916908160001a9053506001016120f7565b5060005b87518110156121b757878181518110151561217057fe5b90602001015160f860020a900460f860020a02838380600101945081518110151561219757fe5b906020010190600160f860020a031916908160001a905350600101612159565b5060005b86518110156122195786818151811015156121d257fe5b90602001015160f860020a900460f860020a0283838060010194508151811015156121f957fe5b906020010190600160f860020a031916908160001a9053506001016121bb565b5060005b855181101561227b57858181518110151561223457fe5b90602001015160f860020a900460f860020a02838380600101945081518110151561225b57fe5b906020010190600160f860020a031916908160001a90535060010161221d565b5060005b84518110156122dd57848181518110151561229657fe5b90602001015160f860020a900460f860020a0283838060010194508151811015156122bd57fe5b906020010190600160f860020a031916908160001a90535060010161227f565b50909d9c50505050505050505050505050565b600160a060020a038216151561230557600080fd5b61230f8282611783565b6040518190600160a060020a038416906000907fddf252ad1be2c89b69c2b068fc378daa952ba7f163c4a11628f55a4df523b3ef908290a45050565b828054600181600116156101000203166002900490600052602060002090601f016020900481019282601f1061238c5782800160ff198235161785556123b9565b828001600101855582156123b9579182015b828111156123b957823582559160200191906001019061239e565b506123c5929150612573565b5090565b60a06040519081016040528060008152602001600081526020016000815260200160008019168152602001606081525090565b828054600181600116156101000203166002900490600052602060002090601f016020900481019282601f1061243d57805160ff19168380011785556123b9565b828001600101855582156123b9579182015b828111156123b957825182559160200191906001019061244f565b815481835581811115610c9257600083815260209020610c92918101908301612573565b50805460018160011615610100020316600290046000825580601f106124b45750610cd9565b601f016020900490600052602060002090810190610cd99190612573565b828054600181600116156101000203166002900490600052602060002090601f016020900481019282601f1061250b57805485556123b9565b828001600101855582156123b957600052602060002091601f016020900482015b828111156123b957825482559160010191906001019061252c565b815481835581811115610c9257600502816005028360005260206000209182019101610c92919061258d565b6109f391905b808211156123c55760008155600101612579565b6109f391905b808211156123c55760008082556001820181905560028201819055600382018190556125c2600483018261248e565b506005016125935600a165627a7a7230582022eee1698dd842c13dc118fd4b78db72deb36830fa7dd3128a8b5d24091daa2c0029",
  "source": "pragma solidity ^0.4.24;\n\nimport \"./Strings.sol\";\n\nimport 'openzeppelin-solidity/contracts/ownership/Ownable.sol';\nimport 'openzeppelin-solidity/contracts/math/SafeMath.sol';\nimport 'openzeppelin-solidity/contracts/token/ERC721/ERC721Token.sol';\n\n/**\n* @title KOTA aka KnownOrigin Trading Assets\n*/\ncontract KOTA is ERC721Token, Ownable {\n  using SafeMath for uint256;\n\n  event CardMinted(address indexed _owner, uint256 indexed _tokenId, bytes32 _name, uint32 _mintTime);\n  event CardSetSoldOut(uint256 indexed _cardNumber, uint32 _soldOutTime);\n  event CardPackBought(address indexed _owner, uint32 _boughtTime);\n  event CardPackRedeemed(address indexed _owner, uint32 _giftTime);\n\n  string internal tokenBaseURI = \"https://ipfs.infura.io/ipfs/\";\n\n  uint256 public costOfPack = 0.01 ether;\n  uint8 constant public cardsPerPack = 4;\n\n  uint256 public totalCardsInCirculation = 0;\n  uint256 public totalCardsInCirculationSold = 0;\n  uint256 internal randNonce = 0;\n\n  mapping(address => uint) public credits;\n\n  struct CardSet {\n    uint256 cardNumber;\n    uint256 totalSupply;\n    uint256 minted;\n    bytes32 cardName;\n    string cardURI;\n  }\n\n  mapping(uint256 => CardSet) public cardSets;\n\n  CardSet[] public cardSetCirculation;\n\n  constructor() public ERC721Token(\"KOTA\", \"KOTA\") {\n  }\n\n  // can buy direct from contract if you send enough ether\n  function() public payable {\n    buyPack();\n  }\n\n  function addCardSet(uint256 _cardNumber, uint256 _totalSupply, bytes32 _cardName, string _cardUri) public onlyOwner {\n    CardSet memory newCardSet = CardSet(_cardNumber, _totalSupply, 0, _cardName, _cardUri);\n    cardSets[_cardNumber] = newCardSet;\n    cardSetCirculation.push(newCardSet);\n\n    totalCardsInCirculation = totalCardsInCirculation.add(_totalSupply);\n  }\n\n  /**\n   * @dev mints a single card\n   * @param _to who will get the card\n   * @param _cardNumber card number of the card set to transfer\n   */\n  function mint(address _to, uint256 _cardNumber) public onlyOwner {\n    CardSet storage cardSet = cardSets[_cardNumber];\n\n    // don't transfer last card!\n    // buyPack removes from circulation via index - we don't know index here...\n    require(cardSet.minted.add(1) < cardSet.totalSupply);\n\n    totalCardsInCirculationSold = totalCardsInCirculationSold.add(1);\n\n    _mint(_to, cardSet);\n  }\n\n  /**\n   * @dev Buys a pack of cards\n   */\n  function buyPack() public payable {\n    require(msg.value >= costOfPack);\n\n    _randomPack();\n\n    // reconcile payments\n    owner.transfer(costOfPack);\n\n    // give back the change - if any\n    msg.sender.transfer(msg.value - costOfPack);\n    emit CardPackBought(msg.sender, uint32(now));\n  }\n\n  /**\n   * @dev Redeem a pack of cards (via a credit)\n   */\n  function redeemPack() public {\n    require(credits[msg.sender] > 0);\n\n    _randomPack();\n\n    emit CardPackRedeemed(msg.sender, uint32(now));\n  }\n\n  function burn(uint256 _tokenId) public {\n    super._burn(msg.sender, _tokenId);\n  }\n\n  /**\n   * @dev Return owned tokens\n   * @param _owner address to query\n   */\n  function tokensOf(address _owner) public view returns (uint256[] _tokenIds) {\n    return ownedTokens[_owner];\n  }\n\n  /**\n   * @dev number of card sets\n   */\n  function cardSetsInCirculation() public view returns (uint256 _cardSetCirculationLength) {\n    return cardSetCirculation.length;\n  }\n\n  /**\n   * @dev checks for owned tokens\n   * @param _owner address to query\n   */\n  function hasTokens(address _owner) public constant returns (bool) {\n    return ownedTokens[_owner].length > 0;\n  }\n\n  /**\n   * @dev Utility function changing the cost of the pack\n   * @dev Reverts if not called by owner\n   * @param _costOfPack cost in wei\n   */\n  function setCostOfPack(uint256 _costOfPack) external onlyOwner {\n    costOfPack = _costOfPack;\n  }\n\n  /**\n   * @dev Utility function to credit address with packs they can redeem\n   * @dev Reverts if not called by owner\n   * @param _recipient receiver of credit\n   */\n  function addCredit(address _recipient) external onlyOwner {\n    credits[_recipient] = credits[_recipient].add(1);\n  }\n\n  /**\n   * @dev Get token URI fro the given token, useful for testing purposes\n   * @param _tokenId the token ID\n   * @return the token ID or only the base URI if not found\n   */\n  function tokenURI(uint256 _tokenId) public view returns (string) {\n    return Strings.strConcat(tokenBaseURI, super.tokenURI(_tokenId));\n  }\n\n  /**\n   * @dev Allows management to update the base tokenURI path\n   * @dev Reverts if not called by owner\n   * @param _newBaseURI the new base URI to set\n   */\n  function setTokenBaseURI(string _newBaseURI) external onlyOwner {\n    tokenBaseURI = _newBaseURI;\n  }\n\n  function _randomCardSetIndex(uint _index) internal returns (uint) {\n    require(_index > 0);\n\n    randNonce = randNonce.add(1);\n    bytes memory packed = abi.encodePacked(blockhash(block.number - _index), msg.sender, randNonce);\n    return uint256(keccak256(packed)) % cardSetsInCirculation();\n  }\n\n  function _randomPack() internal {\n    // thanks CryptoStrikers!\n    require(msg.sender == tx.origin);\n\n    for (uint i = 0; i < cardsPerPack; i++) {\n      uint _index = _randomCardSetIndex(i + 1);\n      CardSet storage pickedSet = cardSetCirculation[_index];\n\n      _mint(msg.sender, pickedSet);\n\n      // remove from circulation if minted == totalSupply\n      if (pickedSet.minted == pickedSet.totalSupply) {\n        _removeCardSetAtIndex(_index);\n        emit CardSetSoldOut(pickedSet.cardNumber, uint32(now));\n      }\n    }\n\n    totalCardsInCirculationSold = totalCardsInCirculationSold.add(cardsPerPack);\n  }\n\n  function _mint(address _to, CardSet storage _cardSet) internal {\n    // ensure valid card set\n    require(_cardSet.totalSupply > 0);\n    require(_cardSet.minted <= _cardSet.totalSupply);\n\n    _cardSet.minted = _cardSet.minted.add(1);\n    uint256 cardSerialNumber = _cardSet.cardNumber.add(_cardSet.minted);\n\n    super._mint(_to, cardSerialNumber);\n    super._setTokenURI(cardSerialNumber, _cardSet.cardURI);\n\n    emit CardMinted(_to, cardSerialNumber, _cardSet.cardName, uint32(now));\n  }\n\n  function _removeCardSetAtIndex(uint256 _index) internal {\n    uint lastIndex = cardSetCirculation.length - 1;\n    require(_index <= lastIndex);\n\n    cardSetCirculation[_index] = cardSetCirculation[lastIndex];\n    cardSetCirculation.length--;\n  }\n}\n",
  "sourcePath": "/Users/andy/workspace/cbfc/contracts/KOTA.sol",
  "compiler": {
    "name": "solc",
    "version": "0.4.24+commit.e67f0147.Emscripten.clang"
  },
  "schemaVersion": "2.0.0",
  "updatedAt": "2018-08-01T15:31:10.294Z"
}