{
  "contractName": "KOTA",
  "abi": [
    {
      "constant": true,
      "inputs": [
        {
          "name": "_interfaceId",
          "type": "bytes4"
        }
      ],
      "name": "supportsInterface",
      "outputs": [
        {
          "name": "",
          "type": "bool"
        }
      ],
      "payable": false,
      "stateMutability": "view",
      "type": "function"
    },
    {
      "constant": true,
      "inputs": [
        {
          "name": "",
          "type": "uint256"
        }
      ],
      "name": "boxNumberToBox",
      "outputs": [
        {
          "name": "boxNumber",
          "type": "uint256"
        },
        {
          "name": "title",
          "type": "string"
        },
        {
          "name": "description",
          "type": "string"
        },
        {
          "name": "boxURI",
          "type": "string"
        },
        {
          "name": "costOfPack",
          "type": "uint256"
        },
        {
          "name": "cardsPerPack",
          "type": "uint8"
        }
      ],
      "payable": false,
      "stateMutability": "view",
      "type": "function"
    },
    {
      "constant": true,
      "inputs": [],
      "name": "name",
      "outputs": [
        {
          "name": "",
          "type": "string"
        }
      ],
      "payable": false,
      "stateMutability": "view",
      "type": "function"
    },
    {
      "constant": true,
      "inputs": [
        {
          "name": "_tokenId",
          "type": "uint256"
        }
      ],
      "name": "getApproved",
      "outputs": [
        {
          "name": "",
          "type": "address"
        }
      ],
      "payable": false,
      "stateMutability": "view",
      "type": "function"
    },
    {
      "constant": false,
      "inputs": [
        {
          "name": "_to",
          "type": "address"
        },
        {
          "name": "_tokenId",
          "type": "uint256"
        }
      ],
      "name": "approve",
      "outputs": [],
      "payable": false,
      "stateMutability": "nonpayable",
      "type": "function"
    },
    {
      "constant": true,
      "inputs": [
        {
          "name": "_operator",
          "type": "address"
        },
        {
          "name": "_role",
          "type": "string"
        }
      ],
      "name": "checkRole",
      "outputs": [],
      "payable": false,
      "stateMutability": "view",
      "type": "function"
    },
    {
      "constant": true,
      "inputs": [],
      "name": "totalSupply",
      "outputs": [
        {
          "name": "",
          "type": "uint256"
        }
      ],
      "payable": false,
      "stateMutability": "view",
      "type": "function"
    },
    {
      "constant": true,
      "inputs": [],
      "name": "InterfaceId_ERC165",
      "outputs": [
        {
          "name": "",
          "type": "bytes4"
        }
      ],
      "payable": false,
      "stateMutability": "view",
      "type": "function"
    },
    {
      "constant": true,
      "inputs": [
        {
          "name": "_operator",
          "type": "address"
        },
        {
          "name": "_role",
          "type": "string"
        }
      ],
      "name": "hasRole",
      "outputs": [
        {
          "name": "",
          "type": "bool"
        }
      ],
      "payable": false,
      "stateMutability": "view",
      "type": "function"
    },
    {
      "constant": false,
      "inputs": [
        {
          "name": "_from",
          "type": "address"
        },
        {
          "name": "_to",
          "type": "address"
        },
        {
          "name": "_tokenId",
          "type": "uint256"
        }
      ],
      "name": "transferFrom",
      "outputs": [],
      "payable": false,
      "stateMutability": "nonpayable",
      "type": "function"
    },
    {
      "constant": true,
      "inputs": [
        {
          "name": "_owner",
          "type": "address"
        },
        {
          "name": "_index",
          "type": "uint256"
        }
      ],
      "name": "tokenOfOwnerByIndex",
      "outputs": [
        {
          "name": "",
          "type": "uint256"
        }
      ],
      "payable": false,
      "stateMutability": "view",
      "type": "function"
    },
    {
      "constant": false,
      "inputs": [],
      "name": "unpause",
      "outputs": [],
      "payable": false,
      "stateMutability": "nonpayable",
      "type": "function"
    },
    {
      "constant": false,
      "inputs": [
        {
          "name": "_from",
          "type": "address"
        },
        {
          "name": "_to",
          "type": "address"
        },
        {
          "name": "_tokenId",
          "type": "uint256"
        }
      ],
      "name": "safeTransferFrom",
      "outputs": [],
      "payable": false,
      "stateMutability": "nonpayable",
      "type": "function"
    },
    {
      "constant": true,
      "inputs": [
        {
          "name": "_tokenId",
          "type": "uint256"
        }
      ],
      "name": "exists",
      "outputs": [
        {
          "name": "",
          "type": "bool"
        }
      ],
      "payable": false,
      "stateMutability": "view",
      "type": "function"
    },
    {
      "constant": true,
      "inputs": [
        {
          "name": "_index",
          "type": "uint256"
        }
      ],
      "name": "tokenByIndex",
      "outputs": [
        {
          "name": "",
          "type": "uint256"
        }
      ],
      "payable": false,
      "stateMutability": "view",
      "type": "function"
    },
    {
      "constant": true,
      "inputs": [],
      "name": "paused",
      "outputs": [
        {
          "name": "",
          "type": "bool"
        }
      ],
      "payable": false,
      "stateMutability": "view",
      "type": "function"
    },
    {
      "constant": true,
      "inputs": [
        {
          "name": "_tokenId",
          "type": "uint256"
        }
      ],
      "name": "ownerOf",
      "outputs": [
        {
          "name": "",
          "type": "address"
        }
      ],
      "payable": false,
      "stateMutability": "view",
      "type": "function"
    },
    {
      "constant": true,
      "inputs": [
        {
          "name": "",
          "type": "uint256"
        }
      ],
      "name": "boxNumberToCardsInCirculationSold",
      "outputs": [
        {
          "name": "",
          "type": "uint256"
        }
      ],
      "payable": false,
      "stateMutability": "view",
      "type": "function"
    },
    {
      "constant": true,
      "inputs": [],
      "name": "totalWei",
      "outputs": [
        {
          "name": "",
          "type": "uint256"
        }
      ],
      "payable": false,
      "stateMutability": "view",
      "type": "function"
    },
    {
      "constant": true,
      "inputs": [
        {
          "name": "",
          "type": "uint256"
        }
      ],
      "name": "boxNumberToCardsInCirculation",
      "outputs": [
        {
          "name": "",
          "type": "uint256"
        }
      ],
      "payable": false,
      "stateMutability": "view",
      "type": "function"
    },
    {
      "constant": true,
      "inputs": [
        {
          "name": "_owner",
          "type": "address"
        }
      ],
      "name": "balanceOf",
      "outputs": [
        {
          "name": "",
          "type": "uint256"
        }
      ],
      "payable": false,
      "stateMutability": "view",
      "type": "function"
    },
    {
      "constant": false,
      "inputs": [],
      "name": "renounceOwnership",
      "outputs": [],
      "payable": false,
      "stateMutability": "nonpayable",
      "type": "function"
    },
    {
      "constant": false,
      "inputs": [],
      "name": "pause",
      "outputs": [],
      "payable": false,
      "stateMutability": "nonpayable",
      "type": "function"
    },
    {
      "constant": true,
      "inputs": [],
      "name": "owner",
      "outputs": [
        {
          "name": "",
          "type": "address"
        }
      ],
      "payable": false,
      "stateMutability": "view",
      "type": "function"
    },
    {
      "constant": true,
      "inputs": [],
      "name": "totalCardsInCirculation",
      "outputs": [
        {
          "name": "",
          "type": "uint256"
        }
      ],
      "payable": false,
      "stateMutability": "view",
      "type": "function"
    },
    {
      "constant": true,
      "inputs": [],
      "name": "symbol",
      "outputs": [
        {
          "name": "",
          "type": "string"
        }
      ],
      "payable": false,
      "stateMutability": "view",
      "type": "function"
    },
    {
      "constant": true,
      "inputs": [],
      "name": "defaultBoxNumber",
      "outputs": [
        {
          "name": "",
          "type": "uint256"
        }
      ],
      "payable": false,
      "stateMutability": "view",
      "type": "function"
    },
    {
      "constant": false,
      "inputs": [
        {
          "name": "_to",
          "type": "address"
        },
        {
          "name": "_approved",
          "type": "bool"
        }
      ],
      "name": "setApprovalForAll",
      "outputs": [],
      "payable": false,
      "stateMutability": "nonpayable",
      "type": "function"
    },
    {
      "constant": false,
      "inputs": [
        {
          "name": "_from",
          "type": "address"
        },
        {
          "name": "_to",
          "type": "address"
        },
        {
          "name": "_tokenId",
          "type": "uint256"
        },
        {
          "name": "_data",
          "type": "bytes"
        }
      ],
      "name": "safeTransferFrom",
      "outputs": [],
      "payable": false,
      "stateMutability": "nonpayable",
      "type": "function"
    },
    {
      "constant": true,
      "inputs": [],
      "name": "totalCardsInCirculationSold",
      "outputs": [
        {
          "name": "",
          "type": "uint256"
        }
      ],
      "payable": false,
      "stateMutability": "view",
      "type": "function"
    },
    {
      "constant": true,
      "inputs": [
        {
          "name": "",
          "type": "uint256"
        }
      ],
      "name": "boxCardNumberToCardSet",
      "outputs": [
        {
          "name": "boxNumber",
          "type": "uint256"
        },
        {
          "name": "cardNumber",
          "type": "uint256"
        },
        {
          "name": "totalSupply",
          "type": "uint256"
        },
        {
          "name": "minted",
          "type": "uint256"
        },
        {
          "name": "cardName",
          "type": "bytes32"
        },
        {
          "name": "cardURI",
          "type": "string"
        },
        {
          "name": "artist",
          "type": "address"
        },
        {
          "name": "artistShare",
          "type": "uint8"
        }
      ],
      "payable": false,
      "stateMutability": "view",
      "type": "function"
    },
    {
      "constant": true,
      "inputs": [
        {
          "name": "_owner",
          "type": "address"
        },
        {
          "name": "_operator",
          "type": "address"
        }
      ],
      "name": "isApprovedForAll",
      "outputs": [
        {
          "name": "",
          "type": "bool"
        }
      ],
      "payable": false,
      "stateMutability": "view",
      "type": "function"
    },
    {
      "constant": false,
      "inputs": [
        {
          "name": "_newOwner",
          "type": "address"
        }
      ],
      "name": "transferOwnership",
      "outputs": [],
      "payable": false,
      "stateMutability": "nonpayable",
      "type": "function"
    },
    {
      "inputs": [],
      "payable": false,
      "stateMutability": "nonpayable",
      "type": "constructor"
    },
    {
      "payable": true,
      "stateMutability": "payable",
      "type": "fallback"
    },
    {
      "anonymous": false,
      "inputs": [
        {
          "indexed": true,
          "name": "_owner",
          "type": "address"
        },
        {
          "indexed": true,
          "name": "_tokenId",
          "type": "uint256"
        },
        {
          "indexed": false,
          "name": "_name",
          "type": "bytes32"
        },
        {
          "indexed": false,
          "name": "_mintTime",
          "type": "uint32"
        }
      ],
      "name": "CardMinted",
      "type": "event"
    },
    {
      "anonymous": false,
      "inputs": [
        {
          "indexed": true,
          "name": "_cardNumber",
          "type": "uint256"
        },
        {
          "indexed": false,
          "name": "_soldOutTime",
          "type": "uint32"
        }
      ],
      "name": "CardSetSoldOut",
      "type": "event"
    },
    {
      "anonymous": false,
      "inputs": [
        {
          "indexed": true,
          "name": "_owner",
          "type": "address"
        },
        {
          "indexed": false,
          "name": "_boughtTime",
          "type": "uint32"
        }
      ],
      "name": "CardPackBought",
      "type": "event"
    },
    {
      "anonymous": false,
      "inputs": [
        {
          "indexed": true,
          "name": "_owner",
          "type": "address"
        },
        {
          "indexed": false,
          "name": "_giftTime",
          "type": "uint32"
        }
      ],
      "name": "CardPackRedeemed",
      "type": "event"
    },
    {
      "anonymous": false,
      "inputs": [],
      "name": "Pause",
      "type": "event"
    },
    {
      "anonymous": false,
      "inputs": [],
      "name": "Unpause",
      "type": "event"
    },
    {
      "anonymous": false,
      "inputs": [
        {
          "indexed": true,
          "name": "previousOwner",
          "type": "address"
        }
      ],
      "name": "OwnershipRenounced",
      "type": "event"
    },
    {
      "anonymous": false,
      "inputs": [
        {
          "indexed": true,
          "name": "previousOwner",
          "type": "address"
        },
        {
          "indexed": true,
          "name": "newOwner",
          "type": "address"
        }
      ],
      "name": "OwnershipTransferred",
      "type": "event"
    },
    {
      "anonymous": false,
      "inputs": [
        {
          "indexed": true,
          "name": "operator",
          "type": "address"
        },
        {
          "indexed": false,
          "name": "role",
          "type": "string"
        }
      ],
      "name": "RoleAdded",
      "type": "event"
    },
    {
      "anonymous": false,
      "inputs": [
        {
          "indexed": true,
          "name": "operator",
          "type": "address"
        },
        {
          "indexed": false,
          "name": "role",
          "type": "string"
        }
      ],
      "name": "RoleRemoved",
      "type": "event"
    },
    {
      "anonymous": false,
      "inputs": [
        {
          "indexed": true,
          "name": "_from",
          "type": "address"
        },
        {
          "indexed": true,
          "name": "_to",
          "type": "address"
        },
        {
          "indexed": true,
          "name": "_tokenId",
          "type": "uint256"
        }
      ],
      "name": "Transfer",
      "type": "event"
    },
    {
      "anonymous": false,
      "inputs": [
        {
          "indexed": true,
          "name": "_owner",
          "type": "address"
        },
        {
          "indexed": true,
          "name": "_approved",
          "type": "address"
        },
        {
          "indexed": true,
          "name": "_tokenId",
          "type": "uint256"
        }
      ],
      "name": "Approval",
      "type": "event"
    },
    {
      "anonymous": false,
      "inputs": [
        {
          "indexed": true,
          "name": "_owner",
          "type": "address"
        },
        {
          "indexed": true,
          "name": "_operator",
          "type": "address"
        },
        {
          "indexed": false,
          "name": "_approved",
          "type": "bool"
        }
      ],
      "name": "ApprovalForAll",
      "type": "event"
    },
    {
      "constant": false,
      "inputs": [
        {
          "name": "_boxNumber",
          "type": "uint256"
        },
        {
          "name": "_title",
          "type": "string"
        },
        {
          "name": "_description",
          "type": "string"
        },
        {
          "name": "_boxUri",
          "type": "string"
        },
        {
          "name": "_costOfPack",
          "type": "uint256"
        },
        {
          "name": "_cardsPerPack",
          "type": "uint8"
        }
      ],
      "name": "addBox",
      "outputs": [],
      "payable": false,
      "stateMutability": "nonpayable",
      "type": "function"
    },
    {
      "constant": false,
      "inputs": [
        {
          "name": "_boxNumber",
          "type": "uint256"
        },
        {
          "name": "_cardNumber",
          "type": "uint256"
        },
        {
          "name": "_totalSupply",
          "type": "uint256"
        },
        {
          "name": "_cardName",
          "type": "bytes32"
        },
        {
          "name": "_cardUri",
          "type": "string"
        },
        {
          "name": "_artist",
          "type": "address"
        },
        {
          "name": "_artistShare",
          "type": "uint8"
        }
      ],
      "name": "addCardSet",
      "outputs": [],
      "payable": false,
      "stateMutability": "nonpayable",
      "type": "function"
    },
    {
      "constant": false,
      "inputs": [
        {
          "name": "_to",
          "type": "address"
        },
        {
          "name": "_boxNumber",
          "type": "uint256"
        },
        {
          "name": "_cardNumber",
          "type": "uint256"
        }
      ],
      "name": "mint",
      "outputs": [],
      "payable": false,
      "stateMutability": "nonpayable",
      "type": "function"
    },
    {
      "constant": false,
      "inputs": [
        {
          "name": "_boxNumber",
          "type": "uint256"
        }
      ],
      "name": "buyPack",
      "outputs": [],
      "payable": true,
      "stateMutability": "payable",
      "type": "function"
    },
    {
      "constant": false,
      "inputs": [
        {
          "name": "_boxNumber",
          "type": "uint256"
        }
      ],
      "name": "redeemPack",
      "outputs": [],
      "payable": false,
      "stateMutability": "nonpayable",
      "type": "function"
    },
    {
      "constant": false,
      "inputs": [
        {
          "name": "_tokenId",
          "type": "uint256"
        }
      ],
      "name": "burn",
      "outputs": [],
      "payable": false,
      "stateMutability": "nonpayable",
      "type": "function"
    },
    {
      "constant": true,
      "inputs": [
        {
          "name": "_owner",
          "type": "address"
        }
      ],
      "name": "tokensOf",
      "outputs": [
        {
          "name": "_tokenIds",
          "type": "uint256[]"
        }
      ],
      "payable": false,
      "stateMutability": "view",
      "type": "function"
    },
    {
      "constant": true,
      "inputs": [],
      "name": "allBoxNumbers",
      "outputs": [
        {
          "name": "_boxNumbers",
          "type": "uint256[]"
        }
      ],
      "payable": false,
      "stateMutability": "view",
      "type": "function"
    },
    {
      "constant": true,
      "inputs": [
        {
          "name": "_boxNumber",
          "type": "uint256"
        }
      ],
      "name": "cardSetsInCirculation",
      "outputs": [
        {
          "name": "_cardSetCirculationLength",
          "type": "uint256"
        }
      ],
      "payable": false,
      "stateMutability": "view",
      "type": "function"
    },
    {
      "constant": true,
      "inputs": [
        {
          "name": "_boxNumber",
          "type": "uint256"
        }
      ],
      "name": "cardNumbersOf",
      "outputs": [
        {
          "name": "_cardNumbersArray",
          "type": "uint256[]"
        }
      ],
      "payable": false,
      "stateMutability": "view",
      "type": "function"
    },
    {
      "constant": true,
      "inputs": [
        {
          "name": "_owner",
          "type": "address"
        }
      ],
      "name": "hasTokens",
      "outputs": [
        {
          "name": "",
          "type": "bool"
        }
      ],
      "payable": false,
      "stateMutability": "view",
      "type": "function"
    },
    {
      "constant": false,
      "inputs": [
        {
          "name": "_boxNumber",
          "type": "uint256"
        },
        {
          "name": "_recipient",
          "type": "address"
        }
      ],
      "name": "addCredit",
      "outputs": [],
      "payable": false,
      "stateMutability": "nonpayable",
      "type": "function"
    },
    {
      "constant": true,
      "inputs": [
        {
          "name": "_boxNumber",
          "type": "uint256"
        },
        {
          "name": "_recipient",
          "type": "address"
        }
      ],
      "name": "creditsOf",
      "outputs": [
        {
          "name": "_credits",
          "type": "uint256"
        }
      ],
      "payable": false,
      "stateMutability": "view",
      "type": "function"
    },
    {
      "constant": true,
      "inputs": [
        {
          "name": "_tokenId",
          "type": "uint256"
        }
      ],
      "name": "tokenURI",
      "outputs": [
        {
          "name": "",
          "type": "string"
        }
      ],
      "payable": false,
      "stateMutability": "view",
      "type": "function"
    },
    {
      "constant": false,
      "inputs": [
        {
          "name": "_newBaseURI",
          "type": "string"
        }
      ],
      "name": "setTokenBaseURI",
      "outputs": [],
      "payable": false,
      "stateMutability": "nonpayable",
      "type": "function"
    }
  ],
  "bytecode": "0x600d805460a060020a60ff021916905560c0604052601c60808190527f68747470733a2f2f697066732e696e667572612e696f2f697066732f0000000060a09081526200005091600e91906200045f565b506000600f5560006010556000601155620f424060125560006013553480156200007957600080fd5b5060408051808201825260048082527f4b4f544100000000000000000000000000000000000000000000000000000000602080840182905284518086019095529184529083015290620000f57f01ffc9a700000000000000000000000000000000000000000000000000000000640100000000620002a7810204565b620001297f80ac58cd00000000000000000000000000000000000000000000000000000000640100000000620002a7810204565b6200015d7f4f558e7900000000000000000000000000000000000000000000000000000000640100000000620002a7810204565b8151620001729060059060208501906200045f565b508051620001889060069060208401906200045f565b50620001bd7f780e9d6300000000000000000000000000000000000000000000000000000000640100000000620002a7810204565b620001f17f5b5e139f00000000000000000000000000000000000000000000000000000000640100000000620002a7810204565b5050600d8054600160a060020a0319163390811790915560408051808201909152600c81527f524f4c455f43524541544f520000000000000000000000000000000000000000602082015262000251919064010000000062000314810204565b620002a1336040805190810160405280600b81526020017f524f4c455f4d494e54455200000000000000000000000000000000000000000081525062000314640100000000026401000000009004565b62000504565b7fffffffff000000000000000000000000000000000000000000000000000000008082161415620002d757600080fd5b7fffffffff00000000000000000000000000000000000000000000000000000000166000908152602081905260409020805460ff19166001179055565b6200039082600c836040518082805190602001908083835b602083106200034d5780518252601f1990920191602091820191016200032c565b51815160209384036101000a60001901801990921691161790529201948552506040519384900301909220929150506401000000006200043a8102620033841704565b81600160a060020a03167fbfec83d64eaa953f2708271a023ab9ee82057f8f3578d548c1a4ba0b5b700489826040518080602001828103825283818151815260200191508051906020019080838360005b83811015620003fb578181015183820152602001620003e1565b50505050905090810190601f168015620004295780820380516001836020036101000a031916815260200191505b509250505060405180910390a25050565b600160a060020a0316600090815260209190915260409020805460ff19166001179055565b828054600181600116156101000203166002900490600052602060002090601f016020900481019282601f10620004a257805160ff1916838001178555620004d2565b82800160010185558215620004d2579182015b82811115620004d2578251825591602001919060010190620004b5565b50620004e0929150620004e4565b5090565b6200050191905b80821115620004e05760008155600101620004eb565b90565b6133d580620005146000396000f3006080604052600436106102455763ffffffff7c010000000000000000000000000000000000000000000000000000000060003504166301ffc9a7811461025257806306832ec81461028857806306fdde03146103ff578063081812fc14610489578063095ea7b3146104bd5780630988ca8c146104e1578063156e29f61461054857806318160ddd1461056f57806319fa8f5014610596578063217fe6c6146105c857806323b872dd1461062f5780632f745c5914610659578063364c78151461067d578063367ad6ea146106a15780633cefc1e0146106b95780633f4ba83a146106da57806342842e0e146106ef57806342966c68146107195780634f558e79146107315780634f6ccce7146107495780635a3f2672146107615780635c975abb146107d25780636352211e146107e757806365419aa8146107ff5780636d98e9fc146108175780636fd763811461082c57806370a0823114610844578063715018a61461086557806374d050fb1461087a5780638456cb5914610892578063890ea91a146108a75780638da5cb5b146108cb5780638ef79e91146108e057806390af1333146109005780639154fb8b1461091557806395d89b411461092a578063982620d01461093f5780639de6c45b14610954578063a22cb46514610a39578063b88d4fde14610a5f578063c61e5be614610ace578063c87b56dd14610ae6578063cdc39f4a14610afe578063dc45bfb314610b7a578063e77854cd14610b85578063e8bb10db14610b9a578063e985e9c514610c2c578063f2fde38b14610c53575b610250601254610c74565b005b34801561025e57600080fd5b50610274600160e060020a031960043516610dba565b604080519115158252519081900360200190f35b34801561029457600080fd5b506102a0600435610dd9565b604051808781526020018060200180602001806020018681526020018560ff1660ff168152602001848103845289818151815260200191508051906020019080838360005b838110156102fd5781810151838201526020016102e5565b50505050905090810190601f16801561032a5780820380516001836020036101000a031916815260200191505b5084810383528851815288516020918201918a019080838360005b8381101561035d578181015183820152602001610345565b50505050905090810190601f16801561038a5780820380516001836020036101000a031916815260200191505b50848103825287518152875160209182019189019080838360005b838110156103bd5781810151838201526020016103a5565b50505050905090810190601f1680156103ea5780820380516001836020036101000a031916815260200191505b50995050505050505050505060405180910390f35b34801561040b57600080fd5b50610414610fb2565b6040805160208082528351818301528351919283929083019185019080838360005b8381101561044e578181015183820152602001610436565b50505050905090810190601f16801561047b5780820380516001836020036101000a031916815260200191505b509250505060405180910390f35b34801561049557600080fd5b506104a1600435611049565b60408051600160a060020a039092168252519081900360200190f35b3480156104c957600080fd5b50610250600160a060020a0360043516602435611064565b3480156104ed57600080fd5b5060408051602060046024803582810135601f8101859004850286018501909652858552610250958335600160a060020a031695369560449491939091019190819084018382808284375094975061110d9650505050505050565b34801561055457600080fd5b50610250600160a060020a036004351660243560443561117b565b34801561057b57600080fd5b50610584611279565b60408051918252519081900360200190f35b3480156105a257600080fd5b506105ab61127f565b60408051600160e060020a03199092168252519081900360200190f35b3480156105d457600080fd5b5060408051602060046024803582810135601f8101859004850286018501909652858552610274958335600160a060020a03169536956044949193909101919081908401838280828437509497506112a39650505050505050565b34801561063b57600080fd5b50610250600160a060020a0360043581169060243516604435611316565b34801561066557600080fd5b50610584600160a060020a03600435166024356113b9565b34801561068957600080fd5b50610250600435600160a060020a0360243516611406565b3480156106ad57600080fd5b50610250600435611477565b3480156106c557600080fd5b50610274600160a060020a036004351661153f565b3480156106e657600080fd5b5061025061155b565b3480156106fb57600080fd5b50610250600160a060020a03600435811690602435166044356115d3565b34801561072557600080fd5b506102506004356115f4565b34801561073d57600080fd5b50610274600435611601565b34801561075557600080fd5b5061058460043561161e565b34801561076d57600080fd5b50610782600160a060020a0360043516611653565b60408051602080825283518183015283519192839290830191858101910280838360005b838110156107be5781810151838201526020016107a6565b505050509050019250505060405180910390f35b3480156107de57600080fd5b506102746116bf565b3480156107f357600080fd5b506104a16004356116cf565b34801561080b57600080fd5b506105846004356116f9565b34801561082357600080fd5b5061058461170b565b34801561083857600080fd5b50610584600435611711565b34801561085057600080fd5b50610584600160a060020a0360043516611723565b34801561087157600080fd5b50610250611756565b34801561088657600080fd5b506107826004356117b7565b34801561089e57600080fd5b50610250611817565b3480156108b357600080fd5b50610584600435600160a060020a0360243516611894565b3480156108d757600080fd5b506104a16118bc565b3480156108ec57600080fd5b5061025060048035602481019101356118cb565b34801561090c57600080fd5b506107826118ee565b34801561092157600080fd5b50610584611945565b34801561093657600080fd5b5061041461194b565b34801561094b57600080fd5b506105846119ac565b34801561096057600080fd5b5060408051602060046024803582810135601f810185900485028601850190965285855261025095833595369560449491939091019190819084018382808284375050604080516020601f89358b018035918201839004830284018301909452808352979a99988101979196509182019450925082915084018382808284375050604080516020601f89358b018035918201839004830284018301909452808352979a999881019791965091820194509250829150840183828082843750949750508435955050505060209091013560ff1690506119b2565b348015610a4557600080fd5b50610250600160a060020a03600435166024351515611af3565b348015610a6b57600080fd5b50604080516020601f60643560048181013592830184900484028501840190955281845261025094600160a060020a038135811695602480359092169560443595369560849401918190840183828082843750949750611b779650505050505050565b348015610ada57600080fd5b50610584600435611b9f565b348015610af257600080fd5b50610414600435611bb1565b348015610b0a57600080fd5b50604080516020601f608435600481810135928301849004840285018401909552818452610250948035946024803595604435956064359536959460a494909391019190819084018382808284375094975050508335600160a060020a031694505050506020013560ff16611c53565b610250600435610c74565b348015610b9157600080fd5b50610584611fc8565b348015610ba657600080fd5b50610bb2600435611fce565b6040805189815260208082018a90529181018890526060810187905260808101869052600160a060020a03841660c082015260ff831660e082015261010060a082018181528651918301919091528551919290916101208401918701908083836000838110156103bd5781810151838201526020016103a5565b348015610c3857600080fd5b50610274600160a060020a03600435811690602435166120be565b348015610c5f57600080fd5b50610250600160a060020a03600435166120ec565b600d5460a060020a900460ff1615610c8b57600080fd5b6000610c9682611b9f565b11610ca057600080fd5b600081815260156020526040902060040154341015610cbe57600080fd5b610cc78161210c565b600d54600082815260156020526040808220600401549051600160a060020a039093169281156108fc0292818181858888f19350505050158015610d0f573d6000803e3d6000fd5b50600081815260156020526040902060040154601154610d349163ffffffff61225216565b6011556000818152601560205260408082206004015490513392349290920380156108fc0292909190818181858888f19350505050158015610d7a573d6000803e3d6000fd5b506040805163ffffffff42168152905133917faa410191373df16155ba10f8d6e9705423d9bcfe3c1a1251ec041d47b9a59ca2919081900360200190a250565b600160e060020a03191660009081526020819052604090205460ff1690565b6015602090815260009182526040918290208054600180830180548651600293821615610100026000190190911692909204601f810186900486028301860190965285825291949293909290830182828015610e765780601f10610e4b57610100808354040283529160200191610e76565b820191906000526020600020905b815481529060010190602001808311610e5957829003601f168201915b50505060028085018054604080516020601f6000196101006001871615020190941695909504928301859004850281018501909152818152959695945090925090830182828015610f085780601f10610edd57610100808354040283529160200191610f08565b820191906000526020600020905b815481529060010190602001808311610eeb57829003601f168201915b5050505060038301805460408051602060026001851615610100026000190190941693909304601f8101849004840282018401909252818152949594935090830182828015610f985780601f10610f6d57610100808354040283529160200191610f98565b820191906000526020600020905b815481529060010190602001808311610f7b57829003601f168201915b50505050600483015460059093015491929160ff16905086565b60058054604080516020601f600260001961010060018816150201909516949094049384018190048102820181019092528281526060939092909183018282801561103e5780601f106110135761010080835404028352916020019161103e565b820191906000526020600020905b81548152906001019060200180831161102157829003601f168201915b505050505090505b90565b600090815260026020526040902054600160a060020a031690565b600061106f826116cf565b9050600160a060020a03838116908216141561108a57600080fd5b33600160a060020a03821614806110a657506110a681336120be565b15156110b157600080fd5b6000828152600260205260408082208054600160a060020a031916600160a060020a0387811691821790925591518593918516917f8c5be1e5ebec7d5bd14f71427d1e84f3dd0314c0f7b2291e5b200ac8c7c3b92591a4505050565b61117782600c836040518082805190602001908083835b602083106111435780518252601f199092019160209182019101611124565b51815160209384036101000a600019018019909216911617905292019485525060405193849003019092209291505061225f565b5050565b6000806040805190810160405280600b81526020017f524f4c455f4d494e5445520000000000000000000000000000000000000000008152506111be338261110d565b6111ce858563ffffffff61225216565b600081815260166020526040812054919450106111ea57600080fd5b6000838152601660205260409020600281015460038201549193509061121790600163ffffffff61225216565b1061122157600080fd5b6000858152601a602052604090205461124190600163ffffffff61225216565b6000868152601a602052604090205560105461126490600163ffffffff61225216565b6010556112718683612274565b505050505050565b60095490565b7f01ffc9a70000000000000000000000000000000000000000000000000000000081565b600061130f83600c846040518082805190602001908083835b602083106112db5780518252601f1990920191602091820191016112bc565b51815160209384036101000a60001901801990921691161790529201948552506040519384900301909220929150506123dd565b9392505050565b61132033826123fc565b151561132b57600080fd5b600160a060020a038316151561134057600080fd5b600160a060020a038216151561135557600080fd5b61135f838261245b565b61136983826124bd565b61137382826125c4565b8082600160a060020a031684600160a060020a03167fddf252ad1be2c89b69c2b068fc378daa952ba7f163c4a11628f55a4df523b3ef60405160405180910390a4505050565b60006113c483611723565b82106113cf57600080fd5b600160a060020a03831660009081526007602052604090208054839081106113f357fe5b9060005260206000200154905092915050565b600d54600160a060020a0316331461141d57600080fd5b6000828152601460209081526040808320600160a060020a038516845290915290205461145190600163ffffffff61225216565b6000928352601460209081526040808520600160a060020a039094168552929052912055565b600d5460a060020a900460ff161561148e57600080fd5b6000818152601460209081526040808320338452909152812054116114b257600080fd5b60008181526014602090815260408083203384529091529020546114dd90600163ffffffff61260d16565b60008281526014602090815260408083203384529091529020556115008161210c565b6040805163ffffffff42168152905133917f4d9e18eaffdad4b1ef9cf8013bc960caef57f0d97a5ea42051cd83db63613e55919081900360200190a250565b600160a060020a03166000908152600760205260408120541190565b600d54600160a060020a0316331461157257600080fd5b600d5460a060020a900460ff16151561158a57600080fd5b600d805474ff0000000000000000000000000000000000000000191690556040517f7805862f689e2f13df9f062ff482ad3ad112aca9e0847911ed832e158c525b3390600090a1565b6115ef8383836020604051908101604052806000815250611b77565b505050565b6115fe338261261f565b50565b600090815260016020526040902054600160a060020a0316151590565b6000611628611279565b821061163357600080fd5b600980548390811061164157fe5b90600052602060002001549050919050565b600160a060020a0381166000908152600760209081526040918290208054835181840281018401909452808452606093928301828280156116b357602002820191906000526020600020905b81548152602001906001019080831161169f575b50505050509050919050565b600d5460a060020a900460ff1681565b600081815260016020526040812054600160a060020a03168015156116f357600080fd5b92915050565b601a6020526000908152604090205481565b60115481565b60196020526000908152604090205481565b6000600160a060020a038216151561173a57600080fd5b50600160a060020a031660009081526003602052604090205490565b600d54600160a060020a0316331461176d57600080fd5b600d54604051600160a060020a03909116907ff8df31144d9c2f0f6b59d69b8b98abd5459d07f2742c4df920b25aae33c6482090600090a2600d8054600160a060020a0319169055565b6000818152601860209081526040918290208054835181840281018401909452808452606093928301828280156116b3576020028201919060005260206000209081548152602001906001019080831161169f5750505050509050919050565b600d54600160a060020a0316331461182e57600080fd5b600d5460a060020a900460ff161561184557600080fd5b600d805474ff0000000000000000000000000000000000000000191660a060020a1790556040517f6985a02210a168e66602d3235cb6db0e70f92b3ba4d376a33c0f3d9434bff62590600090a1565b6000918252601460209081526040808420600160a060020a0393909316845291905290205490565b600d54600160a060020a031681565b600d54600160a060020a031633146118e257600080fd5b6115ef600e8383613093565b6060601b80548060200260200160405190810160405280929190818152602001828054801561103e57602002820191906000526020600020905b815481526020019060010190808311611928575050505050905090565b600f5481565b60068054604080516020601f600260001961010060018816150201909516949094049384018190048102820181019092528281526060939092909183018282801561103e5780601f106110135761010080835404028352916020019161103e565b60125481565b6119ba613111565b60408051808201909152600c81527f524f4c455f43524541544f52000000000000000000000000000000000000000060208201526119f8338261110d565b6040805160c08101825289815260208082018a81528284018a9052606083018990526080830188905260ff871660a084015260008c815260158352939093208251815592518051929550859392611a55926001850192019061314b565b5060408201518051611a7191600284019160209091019061314b565b5060608201518051611a8d91600384019160209091019061314b565b506080820151600482015560a0909101516005909101805460ff191660ff9092169190911790555050601b80546001810182556000919091527f3ad8aa4f87544323a9d1e5dd902f40c356527a7955687113db5f9a85ad579dc101959095555050505050565b600160a060020a038216331415611b0957600080fd5b336000818152600460209081526040808320600160a060020a03871680855290835292819020805460ff1916861515908117909155815190815290519293927f17307eab39ab6107e8899845ad3d59bd9653f200f220920489ca2b5937696c31929181900390910190a35050565b611b82848484611316565b611b8e84848484612719565b1515611b9957600080fd5b50505050565b60009081526017602052604090205490565b600e805460408051602060026001851615610100026000190190941693909304601f81018490048402820184019092528181526060936116f39391929091830182828015611c405780601f10611c1557610100808354040283529160200191611c40565b820191906000526020600020905b815481529060010190602001808311611c2357829003601f168201915b5050505050611c4e84612886565b612931565b6000611c5d6131b9565b60408051808201909152600c81527f524f4c455f43524541544f5200000000000000000000000000000000000000006020820152611c9b338261110d565b60008a81526015602052604081205411611d1657604080517f08c379a000000000000000000000000000000000000000000000000000000000815260206004820152601060248201527f426f782073686f756c6420657869737400000000000000000000000000000000604482015290519081900360640190fd5b611d268a8a63ffffffff61225216565b60008181526016602052604090206001015490935015611da757604080517f08c379a000000000000000000000000000000000000000000000000000000000815260206004820152601960248201527f43617264205365742073686f756c64206e6f7420657869737400000000000000604482015290519081900360640190fd5b60408051610100810182528b815260208082018c81528284018c8152600060608501818152608086018e815260a087018e8152600160a060020a038e1660c089015260ff8d1660e08901528b845260168752979092208651815593516001850155915160028401559051600383015551600482015592518051929550859392611e36926005850192019061314b565b5060c08201516006909101805460e09093015160ff1660a060020a0274ff000000000000000000000000000000000000000019600160a060020a03909316600160a060020a0319909416939093179190911691909117905560008a8152601760209081526040808320805460018181018084559286529484902087516007909202019081558684015194810194909455908501516002840155606085015160038401556080850151600484015560a08501518051919386939092611f00926005850192019061314b565b5060c08201516006909101805460e09093015160ff1660a060020a0274ff000000000000000000000000000000000000000019600160a060020a03909316600160a060020a031990941693909317919091169190911790555060008a81526018602090815260408083208054600181018255908452828420018c90558c83526019909152902054611f97908963ffffffff61225216565b60008b815260196020526040902055600f54611fb9908963ffffffff61225216565b600f5550505050505050505050565b60105481565b6016602052806000526040600020600091509050806000015490806001015490806002015490806003015490806004015490806005018054600181600116156101000203166002900480601f0160208091040260200160405190810160405280929190818152602001828054600181600116156101000203166002900480156120985780601f1061206d57610100808354040283529160200191612098565b820191906000526020600020905b81548152906001019060200180831161207b57829003601f168201915b50505060069093015491925050600160a060020a0381169060ff60a060020a9091041688565b600160a060020a03918216600090815260046020908152604080832093909416825291909152205460ff1690565b600d54600160a060020a0316331461210357600080fd5b6115fe81612966565b6000808033321461211c57600080fd5b600092505b60008481526015602052604090206005015460ff168310156121e65761214a84846001016129d7565b60008581526017602052604090208054919350908390811061216857fe5b906000526020600020906007020190506121823382612274565b8060020154816003015414156121db5761219c8483612ab4565b60018101546040805163ffffffff4216815290517f9b0b9d1a520cddbaf3796589db30746775a90fc149624d9e9851630912dc04c79181900360200190a25b600190920191612121565b600084815260156020908152604080832060050154601a909252909120546122169160ff1663ffffffff61225216565b6000858152601a60209081526040808320939093556015905220600501546010546122499160ff1663ffffffff61225216565b60105550505050565b818101828110156116f357fe5b61226982826123dd565b151561117757600080fd5b600080826002015411151561228857600080fd5b60028201546003830154111561229d57600080fd5b60038201546122b390600163ffffffff61225216565b60038301819055600183015483546122e292916122d6919063ffffffff61225216565b9063ffffffff61225216565b90506122ee8382612bf1565b60058201805460408051602060026001851615610100026000190190941693909304601f81018490048402820184019092528181526123889385939192909183018282801561237e5780601f106123535761010080835404028352916020019161237e565b820191906000526020600020905b81548152906001019060200180831161236157829003601f168201915b5050505050612c40565b60048201546040805191825263ffffffff4216602083015280518392600160a060020a038716927f5d332e130eeb3924324a7454ddca461c4cd17fa86d4ad51dcceef6cc4f44772692918290030190a3505050565b600160a060020a03166000908152602091909152604090205460ff1690565b600080612408836116cf565b905080600160a060020a031684600160a060020a03161480612443575083600160a060020a031661243884611049565b600160a060020a0316145b80612453575061245381856120be565b949350505050565b81600160a060020a031661246e826116cf565b600160a060020a03161461248157600080fd5b600081815260026020526040902054600160a060020a0316156111775760009081526002602052604090208054600160a060020a031916905550565b60008060006124cc8585612c73565b600084815260086020908152604080832054600160a060020a038916845260079092529091205490935061250790600163ffffffff61260d16565b600160a060020a03861660009081526007602052604090208054919350908390811061252f57fe5b90600052602060002001549050806007600087600160a060020a0316600160a060020a031681526020019081526020016000208481548110151561256f57fe5b6000918252602080832090910192909255600160a060020a03871681526007909152604090208054906125a69060001983016131fc565b50600093845260086020526040808520859055908452909220555050565b60006125d08383612cfc565b50600160a060020a039091166000908152600760209081526040808320805460018101825590845282842081018590559383526008909152902055565b60008282111561261957fe5b50900390565b600080600061262e8585612d7f565b6000848152600b6020526040902054600260001961010060018416150201909116041561266c576000848152600b6020526040812061266c91613220565b6000848152600a602052604090205460095490935061269290600163ffffffff61260d16565b91506009828154811015156126a357fe5b90600052602060002001549050806009848154811015156126c057fe5b600091825260208220019190915560098054849081106126dc57fe5b60009182526020909120015560098054906126fb9060001983016131fc565b506000938452600a6020526040808520859055908452909220555050565b60008061272e85600160a060020a0316612dcf565b151561273d576001915061287d565b6040517f150b7a020000000000000000000000000000000000000000000000000000000081523360048201818152600160a060020a03898116602485015260448401889052608060648501908152875160848601528751918a169463150b7a0294938c938b938b93909160a490910190602085019080838360005b838110156127d05781810151838201526020016127b8565b50505050905090810190601f1680156127fd5780820380516001836020036101000a031916815260200191505b5095505050505050602060405180830381600087803b15801561281f57600080fd5b505af1158015612833573d6000803e3d6000fd5b505050506040513d602081101561284957600080fd5b5051600160e060020a031981167f150b7a020000000000000000000000000000000000000000000000000000000014925090505b50949350505050565b606061289182611601565b151561289c57600080fd5b6000828152600b602090815260409182902080548351601f6002600019610100600186161502019093169290920491820184900484028101840190945280845290918301828280156116b35780601f10612904576101008083540402835291602001916116b3565b820191906000526020600020905b8154815290600101906020018083116129125750939695505050505050565b60408051602081810183526000808352835180830185528181528451928301909452815260609261130f928692869290612dd7565b600160a060020a038116151561297b57600080fd5b600d54604051600160a060020a038084169216907f8be0079c531659141344cd1fd0a4f28419497f9722a3daafe3b4186f6b6457e090600090a3600d8054600160a060020a031916600160a060020a0392909216919091179055565b600060608183116129e757600080fd5b6013546129fb90600163ffffffff61225216565b601381905560408051438690034060208201526c010000000000000000000000003302818301526054808201939093528151808203909301835260740190529050612a4584611b9f565b816040518082805190602001908083835b60208310612a755780518252601f199092019160209182019101612a56565b5181516020939093036101000a6000190180199091169216919091179052604051920182900390912092505050811515612aab57fe5b06949350505050565b60006001612ac184611b9f565b03905080821115612ad157600080fd5b6000838152601760205260409020805482908110612aeb57fe5b90600052602060002090600702016017600085815260200190815260200160002083815481101515612b1957fe5b6000918252602090912082546007909202019081556001808301548183015560028084015481840155600380850154908401556004808501549084015560058085018054612b799492860193919281161561010002600019011604613264565b5060069182018054919092018054600160a060020a031916600160a060020a0390921691909117808255915460ff60a060020a91829004160274ff0000000000000000000000000000000000000000199092169190911790556000838152601760205260409020805490611b999060001983016132d9565b612bfb8282613038565b600980546000838152600a60205260408120829055600182018355919091527f6e1540171b6c0c960b71a7020d9f60077f6af931a8bbf590da0223dacf75c7af015550565b612c4982611601565b1515612c5457600080fd5b6000828152600b6020908152604090912082516115ef9284019061314b565b81600160a060020a0316612c86826116cf565b600160a060020a031614612c9957600080fd5b600160a060020a038216600090815260036020526040902054612cc390600163ffffffff61260d16565b600160a060020a039092166000908152600360209081526040808320949094559181526001909152208054600160a060020a0319169055565b600081815260016020526040902054600160a060020a031615612d1e57600080fd5b60008181526001602081815260408084208054600160a060020a031916600160a060020a0388169081179091558452600390915290912054612d5f91612252565b600160a060020a0390921660009081526003602052604090209190915550565b612d89828261245b565b612d9382826124bd565b6040518190600090600160a060020a038516907fddf252ad1be2c89b69c2b068fc378daa952ba7f163c4a11628f55a4df523b3ef908390a45050565b6000903b1190565b6060806060806060806060806000808e98508d97508c96508b95508a94508451865188518a518c51010101016040519080825280601f01601f191660200182016040528015612e30578160200160208202803883390190505b50935083925060009150600090505b8851811015612e9d578881815181101515612e5657fe5b90602001015160f860020a900460f860020a028383806001019450815181101515612e7d57fe5b906020010190600160f860020a031916908160001a905350600101612e3f565b5060005b8751811015612eff578781815181101515612eb857fe5b90602001015160f860020a900460f860020a028383806001019450815181101515612edf57fe5b906020010190600160f860020a031916908160001a905350600101612ea1565b5060005b8651811015612f61578681815181101515612f1a57fe5b90602001015160f860020a900460f860020a028383806001019450815181101515612f4157fe5b906020010190600160f860020a031916908160001a905350600101612f03565b5060005b8551811015612fc3578581815181101515612f7c57fe5b90602001015160f860020a900460f860020a028383806001019450815181101515612fa357fe5b906020010190600160f860020a031916908160001a905350600101612f65565b5060005b8451811015613025578481815181101515612fde57fe5b90602001015160f860020a900460f860020a02838380600101945081518110151561300557fe5b906020010190600160f860020a031916908160001a905350600101612fc7565b50909d9c50505050505050505050505050565b600160a060020a038216151561304d57600080fd5b61305782826125c4565b6040518190600160a060020a038416906000907fddf252ad1be2c89b69c2b068fc378daa952ba7f163c4a11628f55a4df523b3ef908290a45050565b828054600181600116156101000203166002900490600052602060002090601f016020900481019282601f106130d45782800160ff19823516178555613101565b82800160010185558215613101579182015b828111156131015782358255916020019190600101906130e6565b5061310d929150613305565b5090565b60c0604051908101604052806000815260200160608152602001606081526020016060815260200160008152602001600060ff1681525090565b828054600181600116156101000203166002900490600052602060002090601f016020900481019282601f1061318c57805160ff1916838001178555613101565b82800160010185558215613101579182015b8281111561310157825182559160200191906001019061319e565b604080516101008101825260008082526020820181905291810182905260608082018390526080820183905260a082015260c0810182905260e081019190915290565b8154818355818111156115ef576000838152602090206115ef918101908301613305565b50805460018160011615610100020316600290046000825580601f1061324657506115fe565b601f0160209004906000526020600020908101906115fe9190613305565b828054600181600116156101000203166002900490600052602060002090601f016020900481019282601f1061329d5780548555613101565b8280016001018555821561310157600052602060002091601f016020900482015b828111156131015782548255916001019190600101906132be565b8154818355818111156115ef576007028160070283600052602060002091820191016115ef919061331f565b61104691905b8082111561310d576000815560010161330b565b61104691905b8082111561310d5760008082556001820181905560028201819055600382018190556004820181905561335b6005830182613220565b5060068101805474ffffffffffffffffffffffffffffffffffffffffff19169055600701613325565b600160a060020a0316600090815260209190915260409020805460ff191660011790555600a165627a7a723058208be33c8057c379f792112d9463171f60a97c2cf5505232ee8bc424e80c20250b0029",
  "source": "pragma solidity ^0.4.24;\n\nimport \"./Strings.sol\";\n\nimport 'openzeppelin-solidity/contracts/ownership/Ownable.sol';\nimport 'openzeppelin-solidity/contracts/math/SafeMath.sol';\nimport 'openzeppelin-solidity/contracts/token/ERC721/ERC721Token.sol';\nimport 'openzeppelin-solidity/contracts/lifecycle/Pausable.sol';\nimport 'openzeppelin-solidity/contracts/access/rbac/RBAC.sol';\n\n/**\n* @title KOTA aka KnownOrigin Trading Assets\n*\n* max 999 cards per box - if box interval is 1000000\n* max 999 minted per card - if card set interval is 1000\n*/\ncontract KOTA is ERC721Token, RBAC, Pausable {\n  using SafeMath for uint256;\n\n  event CardMinted(address indexed _owner, uint256 indexed _tokenId, bytes32 _name, uint32 _mintTime);\n  event CardSetSoldOut(uint256 indexed _cardNumber, uint32 _soldOutTime);\n  event CardPackBought(address indexed _owner, uint32 _boughtTime);\n  event CardPackRedeemed(address indexed _owner, uint32 _giftTime);\n\n  string internal tokenBaseURI = \"https://ipfs.infura.io/ipfs/\";\n\n  uint256 public totalCardsInCirculation = 0;\n  uint256 public totalCardsInCirculationSold = 0;\n  uint256 public totalWei = 0;\n\n  uint256 public defaultBoxNumber = 1000000;\n\n  uint256 internal randNonce = 0;\n\n  mapping(uint256 => mapping(address => uint)) internal boxNumberToAccountCredits;\n\n  struct Box {\n    uint256 boxNumber;\n    string title;\n    string description;\n    string boxURI;\n    uint256 costOfPack;\n    uint8 cardsPerPack;\n  }\n\n  struct CardSet {\n    uint256 boxNumber;\n    uint256 cardNumber;\n    uint256 totalSupply;\n    uint256 minted;\n    bytes32 cardName;\n    string cardURI;\n    address artist;\n    uint8 artistShare;\n  }\n  mapping(uint256 => Box) public boxNumberToBox;\n\n  mapping(uint256 => CardSet) public boxCardNumberToCardSet;\n\n  mapping(uint256 => CardSet[]) internal boxNumberToCardSetCirculation;\n  mapping(uint256 => uint256[]) internal boxNumberToCardNumbers;\n\n  mapping(uint256 => uint256) public boxNumberToCardsInCirculation;\n  mapping(uint256 => uint256) public boxNumberToCardsInCirculationSold;\n\n  uint256[] internal boxNumbers;\n\n  string constant ROLE_CREATOR = \"ROLE_CREATOR\";\n  string constant ROLE_MINTER = \"ROLE_MINTER\";\n\n  constructor() public ERC721Token(\"KOTA\", \"KOTA\") {\n    addRole(msg.sender, ROLE_CREATOR);\n    addRole(msg.sender, ROLE_MINTER);\n  }\n\n  // can buy direct from contract if you send enough ether\n  function() public payable {\n    buyPack(defaultBoxNumber);\n  }\n\n  function addBox(\n    uint256 _boxNumber,\n    string _title,\n    string _description,\n    string _boxUri,\n    uint256 _costOfPack,\n    uint8 _cardsPerPack\n  ) public onlyRole(ROLE_CREATOR) {\n    Box memory _newBox = Box(_boxNumber, _title, _description, _boxUri, _costOfPack, _cardsPerPack);\n\n    boxNumberToBox[_boxNumber] = _newBox;\n    boxNumbers.push(_boxNumber);\n  }\n\n  function addCardSet(\n    uint256 _boxNumber,\n    uint256 _cardNumber,\n    uint256 _totalSupply,\n    bytes32 _cardName,\n    string _cardUri,\n    address _artist,\n    uint8 _artistShare\n  ) public onlyRole(ROLE_CREATOR) {\n    require(boxNumberToBox[_boxNumber].boxNumber > 0, \"Box should exist\");\n\n    uint256 _boxCardNumber = _boxNumber.add(_cardNumber);\n    require(boxCardNumberToCardSet[_boxCardNumber].cardNumber == 0, \"Card Set should not exist\");\n\n    // add new card set by boxCardNumber\n    CardSet memory _newCardSet = CardSet(_boxNumber, _cardNumber, _totalSupply, 0, _cardName, _cardUri, _artist, _artistShare);\n    boxCardNumberToCardSet[_boxCardNumber] = _newCardSet;\n\n    // add to box circulation\n    boxNumberToCardSetCirculation[_boxNumber].push(_newCardSet);\n    boxNumberToCardNumbers[_boxNumber].push(_cardNumber);\n\n    boxNumberToCardsInCirculation[_boxNumber] = boxNumberToCardsInCirculation[_boxNumber].add(_totalSupply);\n    totalCardsInCirculation = totalCardsInCirculation.add(_totalSupply);\n  }\n\n  /**\n   * @dev mints a single card\n   * @param _to who will get the card\n   * @param _boxNumber box number of card to mint\n   * @param _cardNumber card number of the card set to transfer\n   */\n  function mint(\n    address _to,\n    uint256 _boxNumber,\n    uint256 _cardNumber\n  ) public onlyRole(ROLE_MINTER) {\n    uint256 _boxCardNumber = _boxNumber.add(_cardNumber);\n    require(boxCardNumberToCardSet[_boxCardNumber].boxNumber > 0); // ensure real card set\n\n    CardSet storage cardSet = boxCardNumberToCardSet[_boxCardNumber];\n\n    // don't transfer last card!\n    // buyPack removes from circulation via index - we don't know index here...\n    require(cardSet.minted.add(1) < cardSet.totalSupply);\n\n    boxNumberToCardsInCirculationSold[_boxNumber] = boxNumberToCardsInCirculationSold[_boxNumber].add(1);\n    totalCardsInCirculationSold = totalCardsInCirculationSold.add(1);\n\n    _mint(_to, cardSet);\n  }\n\n  /**\n   * @dev Buys a pack of cards\n   */\n  function buyPack(uint256 _boxNumber) public payable whenNotPaused {\n    require(cardSetsInCirculation(_boxNumber) > 0);\n    require(msg.value >= boxNumberToBox[_boxNumber].costOfPack);\n\n    _randomPack(_boxNumber);\n\n    // reconcile payments\n    owner.transfer(boxNumberToBox[_boxNumber].costOfPack);\n    totalWei = totalWei.add(boxNumberToBox[_boxNumber].costOfPack);\n\n    // give back the change - if any\n    msg.sender.transfer(msg.value - boxNumberToBox[_boxNumber].costOfPack);\n    emit CardPackBought(msg.sender, uint32(now));\n  }\n\n  /**\n   * @dev Redeem a pack of cards (via a credit)\n   */\n  function redeemPack(uint256 _boxNumber) public whenNotPaused {\n    require(boxNumberToAccountCredits[_boxNumber][msg.sender] > 0);\n\n    // remove credit\n    boxNumberToAccountCredits[_boxNumber][msg.sender] = boxNumberToAccountCredits[_boxNumber][msg.sender].sub(1);\n\n    _randomPack(_boxNumber);\n\n    emit CardPackRedeemed(msg.sender, uint32(now));\n  }\n\n  // FIXME think about this...\n  function burn(uint256 _tokenId) public {\n    super._burn(msg.sender, _tokenId);\n  }\n\n  /**\n   * @dev Return owned tokens\n   * @param _owner address to query\n   */\n  function tokensOf(address _owner) public view returns (uint256[] _tokenIds) {\n    return ownedTokens[_owner];\n  }\n\n  /**\n   * @dev All box numbers\n   */\n  function allBoxNumbers() public view returns (uint256[] _boxNumbers) {\n    return boxNumbers;\n  }\n\n  /**\n   * @dev number of card sets in circulation for a box\n   * @param _boxNumber box number of card sets\n   */\n  function cardSetsInCirculation(uint256 _boxNumber) public view returns (uint256 _cardSetCirculationLength) {\n    return boxNumberToCardSetCirculation[_boxNumber].length;\n  }\n\n  /**\n   * @dev card numbers for a box\n   * @param _boxNumber box number of card sets\n   */\n  function cardNumbersOf(uint256 _boxNumber) public view returns (uint256[] _cardNumbersArray) {\n    return boxNumberToCardNumbers[_boxNumber];\n  }\n\n  /**\n   * @dev checks for owned tokens\n   * @param _owner address to query\n   */\n  function hasTokens(address _owner) public constant returns (bool) {\n    return ownedTokens[_owner].length > 0;\n  }\n\n  /**\n   * @dev Utility function to credit address with packs they can redeem\n   * @dev Reverts if not called by owner\n   * @param _boxNumber number of the box to credit\n   * @param _recipient receiver of credit\n   */\n  function addCredit(uint256 _boxNumber, address _recipient) external onlyOwner {\n    boxNumberToAccountCredits[_boxNumber][_recipient] = boxNumberToAccountCredits[_boxNumber][_recipient].add(1);\n  }\n\n  /**\n   * @dev Credits for account for box\n   * @param _boxNumber number of the box to credit\n   * @param _recipient receiver of credit\n   */\n  function creditsOf(uint256 _boxNumber, address _recipient) public view returns (uint256 _credits) {\n    return boxNumberToAccountCredits[_boxNumber][_recipient];\n  }\n\n  /**\n   * @dev Get token URI fro the given token, useful for testing purposes\n   * @param _tokenId the token ID\n   * @return the token ID or only the base URI if not found\n   */\n  function tokenURI(uint256 _tokenId) public view returns (string) {\n    return Strings.strConcat(tokenBaseURI, super.tokenURI(_tokenId));\n  }\n\n  /**\n   * @dev Allows management to update the base tokenURI path\n   * @dev Reverts if not called by owner\n   * @param _newBaseURI the new base URI to set\n   */\n  function setTokenBaseURI(string _newBaseURI) external onlyOwner {\n    tokenBaseURI = _newBaseURI;\n  }\n\n  function _randomPack(uint256 _boxNumber) internal {\n    // thanks CryptoStrikers!\n    require(msg.sender == tx.origin);\n\n    for (uint i = 0; i < boxNumberToBox[_boxNumber].cardsPerPack; i++) {\n      uint _index = _randomCardSetIndex(_boxNumber, i + 1);\n      CardSet storage pickedSet = boxNumberToCardSetCirculation[_boxNumber][_index];\n\n      _mint(msg.sender, pickedSet);\n\n      // remove from circulation if minted == totalSupply\n      if (pickedSet.minted == pickedSet.totalSupply) {\n        _removeCardSetAtIndex(_boxNumber, _index);\n        emit CardSetSoldOut(pickedSet.cardNumber, uint32(now));\n      }\n    }\n\n    boxNumberToCardsInCirculationSold[_boxNumber] = boxNumberToCardsInCirculationSold[_boxNumber].add(boxNumberToBox[_boxNumber].cardsPerPack);\n    totalCardsInCirculationSold = totalCardsInCirculationSold.add(boxNumberToBox[_boxNumber].cardsPerPack);\n  }\n\n  function _randomCardSetIndex(uint256 _boxNumber, uint _index) internal returns (uint) {\n    require(_index > 0);\n\n    randNonce = randNonce.add(1);\n    bytes memory packed = abi.encodePacked(blockhash(block.number - _index), msg.sender, randNonce);\n    return uint256(keccak256(packed)) % cardSetsInCirculation(_boxNumber);\n  }\n\n  function _mint(address _to, CardSet storage _cardSet) internal {\n    // ensure valid card set\n    require(_cardSet.totalSupply > 0);\n    require(_cardSet.minted <= _cardSet.totalSupply);\n\n    _cardSet.minted = _cardSet.minted.add(1);\n    uint256 cardSerialNumber = _cardSet.boxNumber.add(_cardSet.cardNumber).add(_cardSet.minted);\n\n    super._mint(_to, cardSerialNumber);\n    super._setTokenURI(cardSerialNumber, _cardSet.cardURI);\n\n    emit CardMinted(_to, cardSerialNumber, _cardSet.cardName, uint32(now));\n  }\n\n  function _removeCardSetAtIndex(uint256 _boxNumber, uint256 _index) internal {\n    uint lastIndex = cardSetsInCirculation(_boxNumber) - 1;\n    require(_index <= lastIndex);\n\n    boxNumberToCardSetCirculation[_boxNumber][_index] = boxNumberToCardSetCirculation[_boxNumber][lastIndex];\n    boxNumberToCardSetCirculation[_boxNumber].length--;\n  }\n}\n",
  "sourcePath": "/Users/andy/workspace/cbfc/contracts/KOTA.sol",
  "compiler": {
    "name": "solc",
    "version": "0.4.24+commit.e67f0147.Emscripten.clang"
  },
  "schemaVersion": "2.0.1",
  "updatedAt": "2018-09-05T12:11:31.107Z"
}