{
  "contractName": "Whitelist",
  "abi": [
    {
      "constant": true,
      "inputs": [
        {
          "name": "_operator",
          "type": "address"
        },
        {
          "name": "_role",
          "type": "string"
        }
      ],
      "name": "checkRole",
      "outputs": [],
      "payable": false,
      "stateMutability": "view",
      "type": "function"
    },
    {
      "constant": true,
      "inputs": [],
      "name": "ROLE_WHITELISTED",
      "outputs": [
        {
          "name": "",
          "type": "string"
        }
      ],
      "payable": false,
      "stateMutability": "view",
      "type": "function"
    },
    {
      "constant": true,
      "inputs": [
        {
          "name": "_operator",
          "type": "address"
        },
        {
          "name": "_role",
          "type": "string"
        }
      ],
      "name": "hasRole",
      "outputs": [
        {
          "name": "",
          "type": "bool"
        }
      ],
      "payable": false,
      "stateMutability": "view",
      "type": "function"
    },
    {
      "constant": false,
      "inputs": [],
      "name": "renounceOwnership",
      "outputs": [],
      "payable": false,
      "stateMutability": "nonpayable",
      "type": "function"
    },
    {
      "constant": true,
      "inputs": [],
      "name": "owner",
      "outputs": [
        {
          "name": "",
          "type": "address"
        }
      ],
      "payable": false,
      "stateMutability": "view",
      "type": "function"
    },
    {
      "constant": false,
      "inputs": [
        {
          "name": "_newOwner",
          "type": "address"
        }
      ],
      "name": "transferOwnership",
      "outputs": [],
      "payable": false,
      "stateMutability": "nonpayable",
      "type": "function"
    },
    {
      "anonymous": false,
      "inputs": [
        {
          "indexed": true,
          "name": "operator",
          "type": "address"
        },
        {
          "indexed": false,
          "name": "role",
          "type": "string"
        }
      ],
      "name": "RoleAdded",
      "type": "event"
    },
    {
      "anonymous": false,
      "inputs": [
        {
          "indexed": true,
          "name": "operator",
          "type": "address"
        },
        {
          "indexed": false,
          "name": "role",
          "type": "string"
        }
      ],
      "name": "RoleRemoved",
      "type": "event"
    },
    {
      "anonymous": false,
      "inputs": [
        {
          "indexed": true,
          "name": "previousOwner",
          "type": "address"
        }
      ],
      "name": "OwnershipRenounced",
      "type": "event"
    },
    {
      "anonymous": false,
      "inputs": [
        {
          "indexed": true,
          "name": "previousOwner",
          "type": "address"
        },
        {
          "indexed": true,
          "name": "newOwner",
          "type": "address"
        }
      ],
      "name": "OwnershipTransferred",
      "type": "event"
    },
    {
      "constant": false,
      "inputs": [
        {
          "name": "_operator",
          "type": "address"
        }
      ],
      "name": "addAddressToWhitelist",
      "outputs": [],
      "payable": false,
      "stateMutability": "nonpayable",
      "type": "function"
    },
    {
      "constant": true,
      "inputs": [
        {
          "name": "_operator",
          "type": "address"
        }
      ],
      "name": "whitelist",
      "outputs": [
        {
          "name": "",
          "type": "bool"
        }
      ],
      "payable": false,
      "stateMutability": "view",
      "type": "function"
    },
    {
      "constant": false,
      "inputs": [
        {
          "name": "_operators",
          "type": "address[]"
        }
      ],
      "name": "addAddressesToWhitelist",
      "outputs": [],
      "payable": false,
      "stateMutability": "nonpayable",
      "type": "function"
    },
    {
      "constant": false,
      "inputs": [
        {
          "name": "_operator",
          "type": "address"
        }
      ],
      "name": "removeAddressFromWhitelist",
      "outputs": [],
      "payable": false,
      "stateMutability": "nonpayable",
      "type": "function"
    },
    {
      "constant": false,
      "inputs": [
        {
          "name": "_operators",
          "type": "address[]"
        }
      ],
      "name": "removeAddressesFromWhitelist",
      "outputs": [],
      "payable": false,
      "stateMutability": "nonpayable",
      "type": "function"
    }
  ],
  "bytecode": "0x608060405260008054600160a060020a031916331790556109b7806100256000396000f3006080604052600436106100ae5763ffffffff7c01000000000000000000000000000000000000000000000000000000006000350416630988ca8c81146100b357806318b919e91461011c578063217fe6c6146101a657806324953eaa14610221578063286dd3f514610276578063715018a6146102975780637b9417c8146102ac5780638da5cb5b146102cd5780639b19251a146102fe578063e2ec6ec31461031f578063f2fde38b14610374575b600080fd5b3480156100bf57600080fd5b5060408051602060046024803582810135601f810185900485028601850190965285855261011a958335600160a060020a03169536956044949193909101919081908401838280828437509497506103959650505050505050565b005b34801561012857600080fd5b50610131610403565b6040805160208082528351818301528351919283929083019185019080838360005b8381101561016b578181015183820152602001610153565b50505050905090810190601f1680156101985780820380516001836020036101000a031916815260200191505b509250505060405180910390f35b3480156101b257600080fd5b5060408051602060046024803582810135601f810185900485028601850190965285855261020d958335600160a060020a03169536956044949193909101919081908401838280828437509497506104289650505050505050565b604080519115158252519081900360200190f35b34801561022d57600080fd5b506040805160206004803580820135838102808601850190965280855261011a9536959394602494938501929182918501908490808284375094975061049b9650505050505050565b34801561028257600080fd5b5061011a600160a060020a03600435166104e8565b3480156102a357600080fd5b5061011a61052f565b3480156102b857600080fd5b5061011a600160a060020a036004351661059b565b3480156102d957600080fd5b506102e26105df565b60408051600160a060020a039092168252519081900360200190f35b34801561030a57600080fd5b5061020d600160a060020a03600435166105ee565b34801561032b57600080fd5b506040805160206004803580820135838102808601850190965280855261011a953695939460249493850192918291850190849080828437509497506106239650505050505050565b34801561038057600080fd5b5061011a600160a060020a0360043516610670565b6103ff826001836040518082805190602001908083835b602083106103cb5780518252601f1990920191602091820191016103ac565b51815160209384036101000a6000190180199092169116179052920194855250604051938490030190922092915050610690565b5050565b604080518082019091526009815260008051602061096c833981519152602082015281565b6000610494836001846040518082805190602001908083835b602083106104605780518252601f199092019160209182019101610441565b51815160209384036101000a60001901801990921691161790529201948552506040519384900301909220929150506106a5565b9392505050565b60008054600160a060020a031633146104b357600080fd5b5060005b81518110156103ff576104e082828151811015156104d157fe5b906020019060200201516104e8565b6001016104b7565b600054600160a060020a031633146104ff57600080fd5b61052c8160408051908101604052806009815260200160008051602061096c8339815191528152506106c4565b50565b600054600160a060020a0316331461054657600080fd5b60008054604051600160a060020a03909116917ff8df31144d9c2f0f6b59d69b8b98abd5459d07f2742c4df920b25aae33c6482091a26000805473ffffffffffffffffffffffffffffffffffffffff19169055565b600054600160a060020a031633146105b257600080fd5b61052c8160408051908101604052806009815260200160008051602061096c8339815191528152506107d5565b600054600160a060020a031681565b600061061d8260408051908101604052806009815260200160008051602061096c833981519152815250610428565b92915050565b60008054600160a060020a0316331461063b57600080fd5b5060005b81518110156103ff57610668828281518110151561065957fe5b9060200190602002015161059b565b60010161063f565b600054600160a060020a0316331461068757600080fd5b61052c816108a7565b61069a82826106a5565b15156103ff57600080fd5b600160a060020a03166000908152602091909152604090205460ff1690565b61072e826001836040518082805190602001908083835b602083106106fa5780518252601f1990920191602091820191016106db565b51815160209384036101000a6000190180199092169116179052920194855250604051938490030190922092915050610924565b81600160a060020a03167fd211483f91fc6eff862467f8de606587a30c8fc9981056f051b897a418df803a826040518080602001828103825283818151815260200191508051906020019080838360005b8381101561079757818101518382015260200161077f565b50505050905090810190601f1680156107c45780820380516001836020036101000a031916815260200191505b509250505060405180910390a25050565b61083f826001836040518082805190602001908083835b6020831061080b5780518252601f1990920191602091820191016107ec565b51815160209384036101000a6000190180199092169116179052920194855250604051938490030190922092915050610946565b81600160a060020a03167fbfec83d64eaa953f2708271a023ab9ee82057f8f3578d548c1a4ba0b5b700489826040518080602001828103825283818151815260200191508051906020019080838360008381101561079757818101518382015260200161077f565b600160a060020a03811615156108bc57600080fd5b60008054604051600160a060020a03808516939216917f8be0079c531659141344cd1fd0a4f28419497f9722a3daafe3b4186f6b6457e091a36000805473ffffffffffffffffffffffffffffffffffffffff1916600160a060020a0392909216919091179055565b600160a060020a0316600090815260209190915260409020805460ff19169055565b600160a060020a0316600090815260209190915260409020805460ff19166001179055560077686974656c6973740000000000000000000000000000000000000000000000a165627a7a7230582092f23d340b74d3ace67a0d040e50a3d6862dc883328e178d36c8fb17b71aae980029",
  "source": "pragma solidity ^0.4.24;\n\n\nimport \"../ownership/Ownable.sol\";\nimport \"../ownership/rbac/RBAC.sol\";\n\n\n/**\n * @title Whitelist\n * @dev The Whitelist contract has a whitelist of addresses, and provides basic authorization control functions.\n * This simplifies the implementation of \"user permissions\".\n */\ncontract Whitelist is Ownable, RBAC {\n  string public constant ROLE_WHITELISTED = \"whitelist\";\n\n  /**\n   * @dev Throws if operator is not whitelisted.\n   * @param _operator address\n   */\n  modifier onlyIfWhitelisted(address _operator) {\n    checkRole(_operator, ROLE_WHITELISTED);\n    _;\n  }\n\n  /**\n   * @dev add an address to the whitelist\n   * @param _operator address\n   * @return true if the address was added to the whitelist, false if the address was already in the whitelist\n   */\n  function addAddressToWhitelist(address _operator)\n    onlyOwner\n    public\n  {\n    addRole(_operator, ROLE_WHITELISTED);\n  }\n\n  /**\n   * @dev getter to determine if address is in whitelist\n   */\n  function whitelist(address _operator)\n    public\n    view\n    returns (bool)\n  {\n    return hasRole(_operator, ROLE_WHITELISTED);\n  }\n\n  /**\n   * @dev add addresses to the whitelist\n   * @param _operators addresses\n   * @return true if at least one address was added to the whitelist,\n   * false if all addresses were already in the whitelist\n   */\n  function addAddressesToWhitelist(address[] _operators)\n    onlyOwner\n    public\n  {\n    for (uint256 i = 0; i < _operators.length; i++) {\n      addAddressToWhitelist(_operators[i]);\n    }\n  }\n\n  /**\n   * @dev remove an address from the whitelist\n   * @param _operator address\n   * @return true if the address was removed from the whitelist,\n   * false if the address wasn't in the whitelist in the first place\n   */\n  function removeAddressFromWhitelist(address _operator)\n    onlyOwner\n    public\n  {\n    removeRole(_operator, ROLE_WHITELISTED);\n  }\n\n  /**\n   * @dev remove addresses from the whitelist\n   * @param _operators addresses\n   * @return true if at least one address was removed from the whitelist,\n   * false if all addresses weren't in the whitelist in the first place\n   */\n  function removeAddressesFromWhitelist(address[] _operators)\n    onlyOwner\n    public\n  {\n    for (uint256 i = 0; i < _operators.length; i++) {\n      removeAddressFromWhitelist(_operators[i]);\n    }\n  }\n\n}\n",
  "sourcePath": "openzeppelin-solidity/contracts/access/Whitelist.sol",
  "compiler": {
    "name": "solc",
    "version": "0.4.24+commit.e67f0147.Emscripten.clang"
  },
  "schemaVersion": "2.0.1",
  "updatedAt": "2018-08-23T08:19:17.008Z"
}